{
  "contractName": "NFTMarket",
  "abi": [
    {
      "anonymous": false,
      "inputs": [
        {
          "indexed": true,
          "internalType": "address",
          "name": "previousOwner",
          "type": "address"
        },
        {
          "indexed": true,
          "internalType": "address",
          "name": "newOwner",
          "type": "address"
        }
      ],
      "name": "OwnershipTransferred",
      "type": "event"
    },
    {
      "inputs": [],
      "name": "nftItem",
      "outputs": [
        {
          "internalType": "contract DauDQCoin",
          "name": "",
          "type": "address"
        }
      ],
      "stateMutability": "view",
      "type": "function",
      "constant": true
    },
    {
      "inputs": [],
      "name": "owner",
      "outputs": [
        {
          "internalType": "address",
          "name": "",
          "type": "address"
        }
      ],
      "stateMutability": "view",
      "type": "function",
      "constant": true
    },
    {
      "inputs": [],
      "name": "renounceOwnership",
      "outputs": [],
      "stateMutability": "nonpayable",
      "type": "function"
    },
    {
      "inputs": [
        {
          "internalType": "address",
          "name": "newOwner",
          "type": "address"
        }
      ],
      "name": "transferOwnership",
      "outputs": [],
      "stateMutability": "nonpayable",
      "type": "function"
    },
    {
      "inputs": [
        {
          "internalType": "contract DauDQCoin",
          "name": "_nftItem",
          "type": "address"
        }
      ],
      "name": "initialize",
      "outputs": [],
      "stateMutability": "nonpayable",
      "type": "function"
    },
    {
      "inputs": [
        {
          "internalType": "address",
          "name": "owner_addr",
          "type": "address"
        }
      ],
      "name": "getTokenIDsByOwner",
      "outputs": [
        {
          "internalType": "uint256[]",
          "name": "",
          "type": "uint256[]"
        }
      ],
      "stateMutability": "view",
      "type": "function",
      "constant": true
    },
    {
      "inputs": [
        {
          "internalType": "uint256",
          "name": "tokenID",
          "type": "uint256"
        }
      ],
      "name": "getTokenUriByID",
      "outputs": [
        {
          "internalType": "string",
          "name": "",
          "type": "string"
        }
      ],
      "stateMutability": "view",
      "type": "function",
      "constant": true
    },
    {
      "inputs": [
        {
          "internalType": "address",
          "name": "",
          "type": "address"
        },
        {
          "internalType": "address",
          "name": "",
          "type": "address"
        },
        {
          "internalType": "uint256",
          "name": "_id",
          "type": "uint256"
        },
        {
          "internalType": "bytes",
          "name": "",
          "type": "bytes"
        }
      ],
      "name": "onERC721Received",
      "outputs": [
        {
          "internalType": "bytes4",
          "name": "",
          "type": "bytes4"
        }
      ],
      "stateMutability": "view",
      "type": "function",
      "constant": true
    }
  ],
  "bytecode": "0x608060405234801561001057600080fd5b5061002d61002261003260201b60201c565b61003a60201b60201c565b6100ff565b600033905090565b60008060029054906101000a900473ffffffffffffffffffffffffffffffffffffffff16905081600060026101000a81548173ffffffffffffffffffffffffffffffffffffffff021916908373ffffffffffffffffffffffffffffffffffffffff1602179055508173ffffffffffffffffffffffffffffffffffffffff168173ffffffffffffffffffffffffffffffffffffffff167f8be0079c531659141344cd1fd0a4f28419497f9722a3daafe3b4186f6b6457e060405160405180910390a35050565b6110698061010e6000396000f3fe608060405234801561001057600080fd5b50600436106100885760003560e01c80638da5cb5b1161005b5780638da5cb5b14610127578063a1e0501114610145578063c4d66de814610163578063f2fde38b1461017f57610088565b8063150b7a021461008d578063715018a6146100bd578063749f98f4146100c75780638ad1ad43146100f7575b600080fd5b6100a760048036038101906100a29190610909565b61019b565b6040516100b49190610c1d565b60405180910390f35b6100c56101b0565b005b6100e160048036038101906100dc91906108dc565b610238565b6040516100ee9190610bfb565b60405180910390f35b610111600480360381019061010c9190610a50565b6102f7565b60405161011e9190610c53565b60405180910390f35b61012f6103b6565b60405161013c9190610be0565b60405180910390f35b61014d6103df565b60405161015a9190610c38565b60405180910390f35b61017d600480360381019061017891906109da565b610405565b005b610199600480360381019061019491906108dc565b61052b565b005b600063150b7a0260e01b905095945050505050565b6101b8610623565b73ffffffffffffffffffffffffffffffffffffffff166101d66103b6565b73ffffffffffffffffffffffffffffffffffffffff161461022c576040517f08c379a000000000000000000000000000000000000000000000000000000000815260040161022390610cb5565b60405180910390fd5b610236600061062b565b565b60606000600160009054906101000a900473ffffffffffffffffffffffffffffffffffffffff1673ffffffffffffffffffffffffffffffffffffffff1663e2afe8b3846040518263ffffffff1660e01b81526004016102979190610be0565b60006040518083038186803b1580156102af57600080fd5b505afa1580156102c3573d6000803e3d6000fd5b505050506040513d6000823e3d601f19601f820116820180604052508101906102ec9190610991565b905080915050919050565b60606000600160009054906101000a900473ffffffffffffffffffffffffffffffffffffffff1673ffffffffffffffffffffffffffffffffffffffff1663c87b56dd846040518263ffffffff1660e01b81526004016103569190610cd5565b60006040518083038186803b15801561036e57600080fd5b505afa158015610382573d6000803e3d6000fd5b505050506040513d6000823e3d601f19601f820116820180604052508101906103ab9190610a07565b905080915050919050565b60008060029054906101000a900473ffffffffffffffffffffffffffffffffffffffff16905090565b600160009054906101000a900473ffffffffffffffffffffffffffffffffffffffff1681565b600060019054906101000a900460ff1661042d5760008054906101000a900460ff1615610436565b6104356106f0565b5b610475576040517f08c379a000000000000000000000000000000000000000000000000000000000815260040161046c90610c95565b60405180910390fd5b60008060019054906101000a900460ff1615905080156104c5576001600060016101000a81548160ff02191690831515021790555060016000806101000a81548160ff0219169083151502179055505b81600160006101000a81548173ffffffffffffffffffffffffffffffffffffffff021916908373ffffffffffffffffffffffffffffffffffffffff16021790555080156105275760008060016101000a81548160ff0219169083151502179055505b5050565b610533610623565b73ffffffffffffffffffffffffffffffffffffffff166105516103b6565b73ffffffffffffffffffffffffffffffffffffffff16146105a7576040517f08c379a000000000000000000000000000000000000000000000000000000000815260040161059e90610cb5565b60405180910390fd5b600073ffffffffffffffffffffffffffffffffffffffff168173ffffffffffffffffffffffffffffffffffffffff161415610617576040517f08c379a000000000000000000000000000000000000000000000000000000000815260040161060e90610c75565b60405180910390fd5b6106208161062b565b50565b600033905090565b60008060029054906101000a900473ffffffffffffffffffffffffffffffffffffffff16905081600060026101000a81548173ffffffffffffffffffffffffffffffffffffffff021916908373ffffffffffffffffffffffffffffffffffffffff1602179055508173ffffffffffffffffffffffffffffffffffffffff168173ffffffffffffffffffffffffffffffffffffffff167f8be0079c531659141344cd1fd0a4f28419497f9722a3daafe3b4186f6b6457e060405160405180910390a35050565b60006106fb30610701565b15905090565b6000808273ffffffffffffffffffffffffffffffffffffffff163b119050919050565b600061073761073284610d15565b610cf0565b9050808382526020820190508285602086028201111561075a57610759610f02565b5b60005b8581101561078a578161077088826108c7565b84526020840193506020830192505060018101905061075d565b5050509392505050565b60006107a76107a284610d41565b610cf0565b9050828152602081018484840111156107c3576107c2610f07565b5b6107ce848285610e65565b509392505050565b6000813590506107e581610fee565b92915050565b600082601f830112610800576107ff610efd565b5b8151610810848260208601610724565b91505092915050565b60008083601f84011261082f5761082e610efd565b5b8235905067ffffffffffffffff81111561084c5761084b610ef8565b5b60208301915083600182028301111561086857610867610f02565b5b9250929050565b60008135905061087e81611005565b92915050565b600082601f83011261089957610898610efd565b5b81516108a9848260208601610794565b91505092915050565b6000813590506108c18161101c565b92915050565b6000815190506108d68161101c565b92915050565b6000602082840312156108f2576108f1610f11565b5b6000610900848285016107d6565b91505092915050565b60008060008060006080868803121561092557610924610f11565b5b6000610933888289016107d6565b9550506020610944888289016107d6565b9450506040610955888289016108b2565b935050606086013567ffffffffffffffff81111561097657610975610f0c565b5b61098288828901610819565b92509250509295509295909350565b6000602082840312156109a7576109a6610f11565b5b600082015167ffffffffffffffff8111156109c5576109c4610f0c565b5b6109d1848285016107eb565b91505092915050565b6000602082840312156109f0576109ef610f11565b5b60006109fe8482850161086f565b91505092915050565b600060208284031215610a1d57610a1c610f11565b5b600082015167ffffffffffffffff811115610a3b57610a3a610f0c565b5b610a4784828501610884565b91505092915050565b600060208284031215610a6657610a65610f11565b5b6000610a74848285016108b2565b91505092915050565b6000610a898383610bc2565b60208301905092915050565b610a9e81610dc7565b82525050565b6000610aaf82610d82565b610ab98185610da5565b9350610ac483610d72565b8060005b83811015610af5578151610adc8882610a7d565b9750610ae783610d98565b925050600181019050610ac8565b5085935050505092915050565b610b0b81610dd9565b82525050565b610b1a81610e41565b82525050565b6000610b2b82610d8d565b610b358185610db6565b9350610b45818560208601610e65565b610b4e81610f16565b840191505092915050565b6000610b66602683610db6565b9150610b7182610f27565b604082019050919050565b6000610b89602e83610db6565b9150610b9482610f76565b604082019050919050565b6000610bac602083610db6565b9150610bb782610fc5565b602082019050919050565b610bcb81610e37565b82525050565b610bda81610e37565b82525050565b6000602082019050610bf56000830184610a95565b92915050565b60006020820190508181036000830152610c158184610aa4565b905092915050565b6000602082019050610c326000830184610b02565b92915050565b6000602082019050610c4d6000830184610b11565b92915050565b60006020820190508181036000830152610c6d8184610b20565b905092915050565b60006020820190508181036000830152610c8e81610b59565b9050919050565b60006020820190508181036000830152610cae81610b7c565b9050919050565b60006020820190508181036000830152610cce81610b9f565b9050919050565b6000602082019050610cea6000830184610bd1565b92915050565b6000610cfa610d0b565b9050610d068282610e98565b919050565b6000604051905090565b600067ffffffffffffffff821115610d3057610d2f610ec9565b5b602082029050602081019050919050565b600067ffffffffffffffff821115610d5c57610d5b610ec9565b5b610d6582610f16565b9050602081019050919050565b6000819050602082019050919050565b600081519050919050565b600081519050919050565b6000602082019050919050565b600082825260208201905092915050565b600082825260208201905092915050565b6000610dd282610e17565b9050919050565b60007fffffffff0000000000000000000000000000000000000000000000000000000082169050919050565b6000610e1082610dc7565b9050919050565b600073ffffffffffffffffffffffffffffffffffffffff82169050919050565b6000819050919050565b6000610e4c82610e53565b9050919050565b6000610e5e82610e17565b9050919050565b60005b83811015610e83578082015181840152602081019050610e68565b83811115610e92576000848401525b50505050565b610ea182610f16565b810181811067ffffffffffffffff82111715610ec057610ebf610ec9565b5b80604052505050565b7f4e487b7100000000000000000000000000000000000000000000000000000000600052604160045260246000fd5b600080fd5b600080fd5b600080fd5b600080fd5b600080fd5b600080fd5b6000601f19601f8301169050919050565b7f4f776e61626c653a206e6577206f776e657220697320746865207a65726f206160008201527f6464726573730000000000000000000000000000000000000000000000000000602082015250565b7f496e697469616c697a61626c653a20636f6e747261637420697320616c72656160008201527f647920696e697469616c697a6564000000000000000000000000000000000000602082015250565b7f4f776e61626c653a2063616c6c6572206973206e6f7420746865206f776e6572600082015250565b610ff781610dc7565b811461100257600080fd5b50565b61100e81610e05565b811461101957600080fd5b50565b61102581610e37565b811461103057600080fd5b5056fea264697066735822122006dca05bd4c9db568501ba771be56aefd9070408b2e7d75724a5559a25bfde5a64736f6c63430008060033",
  "immutableReferences": {},
  "source": "// SPDX-License-Identifier: MIT\n\npragma solidity ^0.8.6;\n\nimport \"@openzeppelin/contracts/proxy/utils/Initializable.sol\";\nimport \"@openzeppelin/contracts/utils/math/SafeMath.sol\";\nimport \"@openzeppelin/contracts/token/ERC721/IERC721Receiver.sol\";\nimport \"@openzeppelin/contracts/access/Ownable.sol\";\n\nimport \"./DauDQCoin.sol\";\n\ncontract NFTMarket is\n    Initializable,\n    IERC721Receiver,\n    Ownable\n{\n    using SafeMath for uint256;\n\n    DauDQCoin public nftItem;\n\n    function initialize(DauDQCoin _nftItem) public initializer {\n        nftItem = _nftItem;\n    }\n\n    \n    // ############\n    // Views\n    // ############\n    \n\tfunction getTokenIDsByOwner(address owner_addr)\n        public\n        view\n        returns (uint256[] memory)\n    {\n        uint256[] memory tokenIDs = nftItem.getNFTsByOwner(owner_addr);\n        return (tokenIDs);\n    }\n\n\tfunction getTokenUriByID(uint256 tokenID)\n        public\n        view\n        returns (string memory)\n    {\n        string memory tokenUri = nftItem.tokenURI(tokenID);\n        return (tokenUri);\n    }\n\n    function onERC721Received(\n\t\taddress, /* operator */\n\t\taddress, /* from */\n\t\tuint256 _id,\n\t\tbytes calldata /* data */\n\t) external view override returns (bytes4) {\n\t\treturn IERC721Receiver.onERC721Received.selector;\n\t}\n}",
  "sourcePath": "/home/doanquydau/gamota_projects/nft-react-boilerplate/src/truffle/contracts/NFTMarket.sol",
  "compiler": {
    "name": "solc",
    "version": "0.8.6+commit.11564f7e.Emscripten.clang"
  },
  "schemaVersion": "3.4.4",
  "updatedAt": "2022-02-11T07:54:13.075Z",
  "networkType": "ethereum",
  "devdoc": {
    "kind": "dev",
    "methods": {
      "owner()": {
        "details": "Returns the address of the current owner."
      },
      "renounceOwnership()": {
        "details": "Leaves the contract without owner. It will not be possible to call `onlyOwner` functions anymore. Can only be called by the current owner. NOTE: Renouncing ownership will leave the contract without an owner, thereby removing any functionality that is only available to the owner."
      },
      "transferOwnership(address)": {
        "details": "Transfers ownership of the contract to a new account (`newOwner`). Can only be called by the current owner."
      }
    },
    "version": 1
  },
  "userdoc": {
    "kind": "user",
    "methods": {},
    "version": 1
  }
}