{
  "contractName": "DauDQCoin",
  "abi": [
    {
      "inputs": [],
      "stateMutability": "nonpayable",
      "type": "constructor"
    },
    {
      "anonymous": false,
      "inputs": [
        {
          "indexed": true,
          "internalType": "address",
          "name": "owner",
          "type": "address"
        },
        {
          "indexed": true,
          "internalType": "address",
          "name": "approved",
          "type": "address"
        },
        {
          "indexed": true,
          "internalType": "uint256",
          "name": "tokenId",
          "type": "uint256"
        }
      ],
      "name": "Approval",
      "type": "event"
    },
    {
      "anonymous": false,
      "inputs": [
        {
          "indexed": true,
          "internalType": "address",
          "name": "owner",
          "type": "address"
        },
        {
          "indexed": true,
          "internalType": "address",
          "name": "operator",
          "type": "address"
        },
        {
          "indexed": false,
          "internalType": "bool",
          "name": "approved",
          "type": "bool"
        }
      ],
      "name": "ApprovalForAll",
      "type": "event"
    },
    {
      "anonymous": false,
      "inputs": [
        {
          "indexed": true,
          "internalType": "address",
          "name": "previousOwner",
          "type": "address"
        },
        {
          "indexed": true,
          "internalType": "address",
          "name": "newOwner",
          "type": "address"
        }
      ],
      "name": "OwnershipTransferred",
      "type": "event"
    },
    {
      "anonymous": false,
      "inputs": [
        {
          "indexed": true,
          "internalType": "address",
          "name": "from",
          "type": "address"
        },
        {
          "indexed": true,
          "internalType": "address",
          "name": "to",
          "type": "address"
        },
        {
          "indexed": true,
          "internalType": "uint256",
          "name": "tokenId",
          "type": "uint256"
        }
      ],
      "name": "Transfer",
      "type": "event"
    },
    {
      "inputs": [
        {
          "internalType": "address",
          "name": "to",
          "type": "address"
        },
        {
          "internalType": "uint256",
          "name": "tokenId",
          "type": "uint256"
        }
      ],
      "name": "approve",
      "outputs": [],
      "stateMutability": "nonpayable",
      "type": "function"
    },
    {
      "inputs": [
        {
          "internalType": "address",
          "name": "owner",
          "type": "address"
        }
      ],
      "name": "balanceOf",
      "outputs": [
        {
          "internalType": "uint256",
          "name": "",
          "type": "uint256"
        }
      ],
      "stateMutability": "view",
      "type": "function"
    },
    {
      "inputs": [
        {
          "internalType": "uint256",
          "name": "tokenId",
          "type": "uint256"
        }
      ],
      "name": "getApproved",
      "outputs": [
        {
          "internalType": "address",
          "name": "",
          "type": "address"
        }
      ],
      "stateMutability": "view",
      "type": "function"
    },
    {
      "inputs": [
        {
          "internalType": "address",
          "name": "owner",
          "type": "address"
        },
        {
          "internalType": "address",
          "name": "operator",
          "type": "address"
        }
      ],
      "name": "isApprovedForAll",
      "outputs": [
        {
          "internalType": "bool",
          "name": "",
          "type": "bool"
        }
      ],
      "stateMutability": "view",
      "type": "function"
    },
    {
      "inputs": [],
      "name": "name",
      "outputs": [
        {
          "internalType": "string",
          "name": "",
          "type": "string"
        }
      ],
      "stateMutability": "view",
      "type": "function"
    },
    {
      "inputs": [],
      "name": "owner",
      "outputs": [
        {
          "internalType": "address",
          "name": "",
          "type": "address"
        }
      ],
      "stateMutability": "view",
      "type": "function"
    },
    {
      "inputs": [
        {
          "internalType": "uint256",
          "name": "tokenId",
          "type": "uint256"
        }
      ],
      "name": "ownerOf",
      "outputs": [
        {
          "internalType": "address",
          "name": "",
          "type": "address"
        }
      ],
      "stateMutability": "view",
      "type": "function"
    },
    {
      "inputs": [],
      "name": "renounceOwnership",
      "outputs": [],
      "stateMutability": "nonpayable",
      "type": "function"
    },
    {
      "inputs": [
        {
          "internalType": "address",
          "name": "from",
          "type": "address"
        },
        {
          "internalType": "address",
          "name": "to",
          "type": "address"
        },
        {
          "internalType": "uint256",
          "name": "tokenId",
          "type": "uint256"
        }
      ],
      "name": "safeTransferFrom",
      "outputs": [],
      "stateMutability": "nonpayable",
      "type": "function"
    },
    {
      "inputs": [
        {
          "internalType": "address",
          "name": "from",
          "type": "address"
        },
        {
          "internalType": "address",
          "name": "to",
          "type": "address"
        },
        {
          "internalType": "uint256",
          "name": "tokenId",
          "type": "uint256"
        },
        {
          "internalType": "bytes",
          "name": "_data",
          "type": "bytes"
        }
      ],
      "name": "safeTransferFrom",
      "outputs": [],
      "stateMutability": "nonpayable",
      "type": "function"
    },
    {
      "inputs": [
        {
          "internalType": "bytes4",
          "name": "interfaceId",
          "type": "bytes4"
        }
      ],
      "name": "supportsInterface",
      "outputs": [
        {
          "internalType": "bool",
          "name": "",
          "type": "bool"
        }
      ],
      "stateMutability": "view",
      "type": "function"
    },
    {
      "inputs": [],
      "name": "symbol",
      "outputs": [
        {
          "internalType": "string",
          "name": "",
          "type": "string"
        }
      ],
      "stateMutability": "view",
      "type": "function"
    },
    {
      "inputs": [
        {
          "internalType": "address",
          "name": "from",
          "type": "address"
        },
        {
          "internalType": "address",
          "name": "to",
          "type": "address"
        },
        {
          "internalType": "uint256",
          "name": "tokenId",
          "type": "uint256"
        }
      ],
      "name": "transferFrom",
      "outputs": [],
      "stateMutability": "nonpayable",
      "type": "function"
    },
    {
      "inputs": [
        {
          "internalType": "address",
          "name": "newOwner",
          "type": "address"
        }
      ],
      "name": "transferOwnership",
      "outputs": [],
      "stateMutability": "nonpayable",
      "type": "function"
    },
    {
      "inputs": [
        {
          "internalType": "uint256",
          "name": "tokenId",
          "type": "uint256"
        }
      ],
      "name": "tokenURI",
      "outputs": [
        {
          "internalType": "string",
          "name": "",
          "type": "string"
        }
      ],
      "stateMutability": "view",
      "type": "function"
    },
    {
      "inputs": [
        {
          "internalType": "address",
          "name": "player",
          "type": "address"
        },
        {
          "internalType": "string",
          "name": "uri",
          "type": "string"
        }
      ],
      "name": "mintItem",
      "outputs": [
        {
          "internalType": "uint256",
          "name": "",
          "type": "uint256"
        }
      ],
      "stateMutability": "nonpayable",
      "type": "function"
    },
    {
      "inputs": [
        {
          "internalType": "address",
          "name": "owner_add",
          "type": "address"
        }
      ],
      "name": "getNFTsByOwner",
      "outputs": [
        {
          "internalType": "uint256[]",
          "name": "",
          "type": "uint256[]"
        }
      ],
      "stateMutability": "view",
      "type": "function"
    },
    {
      "inputs": [
        {
          "internalType": "address",
          "name": "marketContract",
          "type": "address"
        },
        {
          "internalType": "bool",
          "name": "_approved",
          "type": "bool"
        }
      ],
      "name": "setApprovalForAll",
      "outputs": [],
      "stateMutability": "nonpayable",
      "type": "function"
    }
  ],
  "bytecode": "0x60806040523480156200001157600080fd5b506040518060400160405280600a81526020017f446175445120436f696e000000000000000000000000000000000000000000008152506040518060400160405280600481526020017f4451444300000000000000000000000000000000000000000000000000000000815250816000908051906020019062000096929190620001a6565b508060019080519060200190620000af929190620001a6565b505050620000d2620000c6620000d860201b60201c565b620000e060201b60201c565b620002bb565b600033905090565b6000600760009054906101000a900473ffffffffffffffffffffffffffffffffffffffff16905081600760006101000a81548173ffffffffffffffffffffffffffffffffffffffff021916908373ffffffffffffffffffffffffffffffffffffffff1602179055508173ffffffffffffffffffffffffffffffffffffffff168173ffffffffffffffffffffffffffffffffffffffff167f8be0079c531659141344cd1fd0a4f28419497f9722a3daafe3b4186f6b6457e060405160405180910390a35050565b828054620001b49062000256565b90600052602060002090601f016020900481019282620001d8576000855562000224565b82601f10620001f357805160ff191683800117855562000224565b8280016001018555821562000224579182015b828111156200022357825182559160200191906001019062000206565b5b50905062000233919062000237565b5090565b5b808211156200025257600081600090555060010162000238565b5090565b600060028204905060018216806200026f57607f821691505b602082108114156200028657620002856200028c565b5b50919050565b7f4e487b7100000000000000000000000000000000000000000000000000000000600052602260045260246000fd5b6132e580620002cb6000396000f3fe608060405234801561001057600080fd5b50600436106101165760003560e01c8063715018a6116100a2578063b88d4fde11610071578063b88d4fde146102df578063c87b56dd146102fb578063e2afe8b31461032b578063e985e9c51461035b578063f2fde38b1461038b57610116565b8063715018a61461027d5780638da5cb5b1461028757806395d89b41146102a5578063a22cb465146102c357610116565b8063110bcd45116100e9578063110bcd45146101b557806323b872dd146101e557806342842e0e146102015780636352211e1461021d57806370a082311461024d57610116565b806301ffc9a71461011b57806306fdde031461014b578063081812fc14610169578063095ea7b314610199575b600080fd5b61013560048036038101906101309190612165565b6103a7565b6040516101429190612664565b60405180910390f35b610153610489565b604051610160919061267f565b60405180910390f35b610183600480360381019061017e91906121bf565b61051b565b60405161019091906125db565b60405180910390f35b6101b360048036038101906101ae9190612125565b6105a0565b005b6101cf60048036038101906101ca91906120c9565b6106b8565b6040516101dc91906128e1565b60405180910390f35b6101ff60048036038101906101fa9190611fb3565b61076c565b005b61021b60048036038101906102169190611fb3565b6107cc565b005b610237600480360381019061023291906121bf565b6107ec565b60405161024491906125db565b60405180910390f35b61026760048036038101906102629190611f46565b61089e565b60405161027491906128e1565b60405180910390f35b610285610956565b005b61028f6109de565b60405161029c91906125db565b60405180910390f35b6102ad610a08565b6040516102ba919061267f565b60405180910390f35b6102dd60048036038101906102d89190612089565b610a9a565b005b6102f960048036038101906102f49190612006565b610aa8565b005b610315600480360381019061031091906121bf565b610b0a565b604051610322919061267f565b60405180910390f35b61034560048036038101906103409190611f46565b610b1c565b6040516103529190612642565b60405180910390f35b61037560048036038101906103709190611f73565b610ca6565b6040516103829190612664565b60405180910390f35b6103a560048036038101906103a09190611f46565b610d3a565b005b60007f80ac58cd000000000000000000000000000000000000000000000000000000007bffffffffffffffffffffffffffffffffffffffffffffffffffffffff1916827bffffffffffffffffffffffffffffffffffffffffffffffffffffffff1916148061047257507f5b5e139f000000000000000000000000000000000000000000000000000000007bffffffffffffffffffffffffffffffffffffffffffffffffffffffff1916827bffffffffffffffffffffffffffffffffffffffffffffffffffffffff1916145b80610482575061048182610e32565b5b9050919050565b60606000805461049890612b70565b80601f01602080910402602001604051908101604052809291908181526020018280546104c490612b70565b80156105115780601f106104e657610100808354040283529160200191610511565b820191906000526020600020905b8154815290600101906020018083116104f457829003601f168201915b5050505050905090565b600061052682610e9c565b610565576040517f08c379a000000000000000000000000000000000000000000000000000000000815260040161055c90612841565b60405180910390fd5b6004600083815260200190815260200160002060009054906101000a900473ffffffffffffffffffffffffffffffffffffffff169050919050565b60006105ab826107ec565b90508073ffffffffffffffffffffffffffffffffffffffff168373ffffffffffffffffffffffffffffffffffffffff16141561061c576040517f08c379a0000000000000000000000000000000000000000000000000000000008152600401610613906128a1565b60405180910390fd5b8073ffffffffffffffffffffffffffffffffffffffff1661063b610f08565b73ffffffffffffffffffffffffffffffffffffffff16148061066a575061066981610664610f08565b610ca6565b5b6106a9576040517f08c379a00000000000000000000000000000000000000000000000000000000081526004016106a090612781565b60405180910390fd5b6106b38383610f10565b505050565b60006106c2610f08565b73ffffffffffffffffffffffffffffffffffffffff166106e06109de565b73ffffffffffffffffffffffffffffffffffffffff1614610736576040517f08c379a000000000000000000000000000000000000000000000000000000000815260040161072d90612861565b60405180910390fd5b6107406008610fc9565b600061074c6008610fdf565b90506107588482610fed565b61076281846111c7565b8091505092915050565b61077d610777610f08565b8261123b565b6107bc576040517f08c379a00000000000000000000000000000000000000000000000000000000081526004016107b3906128c1565b60405180910390fd5b6107c7838383611319565b505050565b6107e783838360405180602001604052806000815250610aa8565b505050565b6000806002600084815260200190815260200160002060009054906101000a900473ffffffffffffffffffffffffffffffffffffffff169050600073ffffffffffffffffffffffffffffffffffffffff168173ffffffffffffffffffffffffffffffffffffffff161415610895576040517f08c379a000000000000000000000000000000000000000000000000000000000815260040161088c906127c1565b60405180910390fd5b80915050919050565b60008073ffffffffffffffffffffffffffffffffffffffff168273ffffffffffffffffffffffffffffffffffffffff16141561090f576040517f08c379a0000000000000000000000000000000000000000000000000000000008152600401610906906127a1565b60405180910390fd5b600360008373ffffffffffffffffffffffffffffffffffffffff1673ffffffffffffffffffffffffffffffffffffffff168152602001908152602001600020549050919050565b61095e610f08565b73ffffffffffffffffffffffffffffffffffffffff1661097c6109de565b73ffffffffffffffffffffffffffffffffffffffff16146109d2576040517f08c379a00000000000000000000000000000000000000000000000000000000081526004016109c990612861565b60405180910390fd5b6109dc6000611580565b565b6000600760009054906101000a900473ffffffffffffffffffffffffffffffffffffffff16905090565b606060018054610a1790612b70565b80601f0160208091040260200160405190810160405280929190818152602001828054610a4390612b70565b8015610a905780601f10610a6557610100808354040283529160200191610a90565b820191906000526020600020905b815481529060010190602001808311610a7357829003601f168201915b5050505050905090565b610aa48282611646565b5050565b610ab9610ab3610f08565b8361123b565b610af8576040517f08c379a0000000000000000000000000000000000000000000000000000000008152600401610aef906128c1565b60405180910390fd5b610b048484848461165c565b50505050565b6060610b15826116b8565b9050919050565b60606000610b2a6008610fdf565b90506000806000600190505b838111610bad57610b4681610e9c565b8015610b8557508573ffffffffffffffffffffffffffffffffffffffff16610b6d826107ec565b73ffffffffffffffffffffffffffffffffffffffff16145b15610b9a57600183610b9791906129ff565b92505b8080610ba590612bd3565b915050610b36565b5060008267ffffffffffffffff811115610bca57610bc9612d09565b5b604051908082528060200260200182016040528015610bf85781602001602082028036833780820191505090505b5090506000600190505b848111610c9957610c1281610e9c565b8015610c5157508673ffffffffffffffffffffffffffffffffffffffff16610c39826107ec565b73ffffffffffffffffffffffffffffffffffffffff16145b15610c865780828481518110610c6a57610c69612cda565b5b602002602001018181525050600183610c8391906129ff565b92505b8080610c9190612bd3565b915050610c02565b5080945050505050919050565b6000600560008473ffffffffffffffffffffffffffffffffffffffff1673ffffffffffffffffffffffffffffffffffffffff16815260200190815260200160002060008373ffffffffffffffffffffffffffffffffffffffff1673ffffffffffffffffffffffffffffffffffffffff16815260200190815260200160002060009054906101000a900460ff16905092915050565b610d42610f08565b73ffffffffffffffffffffffffffffffffffffffff16610d606109de565b73ffffffffffffffffffffffffffffffffffffffff1614610db6576040517f08c379a0000000000000000000000000000000000000000000000000000000008152600401610dad90612861565b60405180910390fd5b600073ffffffffffffffffffffffffffffffffffffffff168173ffffffffffffffffffffffffffffffffffffffff161415610e26576040517f08c379a0000000000000000000000000000000000000000000000000000000008152600401610e1d906126c1565b60405180910390fd5b610e2f81611580565b50565b60007f01ffc9a7000000000000000000000000000000000000000000000000000000007bffffffffffffffffffffffffffffffffffffffffffffffffffffffff1916827bffffffffffffffffffffffffffffffffffffffffffffffffffffffff1916149050919050565b60008073ffffffffffffffffffffffffffffffffffffffff166002600084815260200190815260200160002060009054906101000a900473ffffffffffffffffffffffffffffffffffffffff1673ffffffffffffffffffffffffffffffffffffffff1614159050919050565b600033905090565b816004600083815260200190815260200160002060006101000a81548173ffffffffffffffffffffffffffffffffffffffff021916908373ffffffffffffffffffffffffffffffffffffffff160217905550808273ffffffffffffffffffffffffffffffffffffffff16610f83836107ec565b73ffffffffffffffffffffffffffffffffffffffff167f8c5be1e5ebec7d5bd14f71427d1e84f3dd0314c0f7b2291e5b200ac8c7c3b92560405160405180910390a45050565b6001816000016000828254019250508190555050565b600081600001549050919050565b600073ffffffffffffffffffffffffffffffffffffffff168273ffffffffffffffffffffffffffffffffffffffff16141561105d576040517f08c379a000000000000000000000000000000000000000000000000000000000815260040161105490612801565b60405180910390fd5b61106681610e9c565b156110a6576040517f08c379a000000000000000000000000000000000000000000000000000000000815260040161109d90612701565b60405180910390fd5b6110b26000838361180a565b6001600360008473ffffffffffffffffffffffffffffffffffffffff1673ffffffffffffffffffffffffffffffffffffffff168152602001908152602001600020600082825461110291906129ff565b92505081905550816002600083815260200190815260200160002060006101000a81548173ffffffffffffffffffffffffffffffffffffffff021916908373ffffffffffffffffffffffffffffffffffffffff160217905550808273ffffffffffffffffffffffffffffffffffffffff16600073ffffffffffffffffffffffffffffffffffffffff167fddf252ad1be2c89b69c2b068fc378daa952ba7f163c4a11628f55a4df523b3ef60405160405180910390a46111c36000838361180f565b5050565b6111d082610e9c565b61120f576040517f08c379a0000000000000000000000000000000000000000000000000000000008152600401611206906127e1565b60405180910390fd5b80600660008481526020019081526020016000209080519060200190611236929190611d5a565b505050565b600061124682610e9c565b611285576040517f08c379a000000000000000000000000000000000000000000000000000000000815260040161127c90612761565b60405180910390fd5b6000611290836107ec565b90508073ffffffffffffffffffffffffffffffffffffffff168473ffffffffffffffffffffffffffffffffffffffff1614806112ff57508373ffffffffffffffffffffffffffffffffffffffff166112e78461051b565b73ffffffffffffffffffffffffffffffffffffffff16145b80611310575061130f8185610ca6565b5b91505092915050565b8273ffffffffffffffffffffffffffffffffffffffff16611339826107ec565b73ffffffffffffffffffffffffffffffffffffffff161461138f576040517f08c379a0000000000000000000000000000000000000000000000000000000008152600401611386906126e1565b60405180910390fd5b600073ffffffffffffffffffffffffffffffffffffffff168273ffffffffffffffffffffffffffffffffffffffff1614156113ff576040517f08c379a00000000000000000000000000000000000000000000000000000000081526004016113f690612721565b60405180910390fd5b61140a83838361180a565b611415600082610f10565b6001600360008573ffffffffffffffffffffffffffffffffffffffff1673ffffffffffffffffffffffffffffffffffffffff16815260200190815260200160002060008282546114659190612a86565b925050819055506001600360008473ffffffffffffffffffffffffffffffffffffffff1673ffffffffffffffffffffffffffffffffffffffff16815260200190815260200160002060008282546114bc91906129ff565b92505081905550816002600083815260200190815260200160002060006101000a81548173ffffffffffffffffffffffffffffffffffffffff021916908373ffffffffffffffffffffffffffffffffffffffff160217905550808273ffffffffffffffffffffffffffffffffffffffff168473ffffffffffffffffffffffffffffffffffffffff167fddf252ad1be2c89b69c2b068fc378daa952ba7f163c4a11628f55a4df523b3ef60405160405180910390a461157b83838361180f565b505050565b6000600760009054906101000a900473ffffffffffffffffffffffffffffffffffffffff16905081600760006101000a81548173ffffffffffffffffffffffffffffffffffffffff021916908373ffffffffffffffffffffffffffffffffffffffff1602179055508173ffffffffffffffffffffffffffffffffffffffff168173ffffffffffffffffffffffffffffffffffffffff167f8be0079c531659141344cd1fd0a4f28419497f9722a3daafe3b4186f6b6457e060405160405180910390a35050565b611658611651610f08565b8383611814565b5050565b611667848484611319565b61167384848484611981565b6116b2576040517f08c379a00000000000000000000000000000000000000000000000000000000081526004016116a9906126a1565b60405180910390fd5b50505050565b60606116c382610e9c565b611702576040517f08c379a00000000000000000000000000000000000000000000000000000000081526004016116f990612821565b60405180910390fd5b600060066000848152602001908152602001600020805461172290612b70565b80601f016020809104026020016040519081016040528092919081815260200182805461174e90612b70565b801561179b5780601f106117705761010080835404028352916020019161179b565b820191906000526020600020905b81548152906001019060200180831161177e57829003601f168201915b5050505050905060006117ac611b18565b90506000815114156117c2578192505050611805565b6000825111156117f75780826040516020016117df9291906125b7565b60405160208183030381529060405292505050611805565b61180084611b2f565b925050505b919050565b505050565b505050565b8173ffffffffffffffffffffffffffffffffffffffff168373ffffffffffffffffffffffffffffffffffffffff161415611883576040517f08c379a000000000000000000000000000000000000000000000000000000000815260040161187a90612741565b60405180910390fd5b80600560008573ffffffffffffffffffffffffffffffffffffffff1673ffffffffffffffffffffffffffffffffffffffff16815260200190815260200160002060008473ffffffffffffffffffffffffffffffffffffffff1673ffffffffffffffffffffffffffffffffffffffff16815260200190815260200160002060006101000a81548160ff0219169083151502179055508173ffffffffffffffffffffffffffffffffffffffff168373ffffffffffffffffffffffffffffffffffffffff167f17307eab39ab6107e8899845ad3d59bd9653f200f220920489ca2b5937696c31836040516119749190612664565b60405180910390a3505050565b60006119a28473ffffffffffffffffffffffffffffffffffffffff16611bd6565b15611b0b578373ffffffffffffffffffffffffffffffffffffffff1663150b7a026119cb610f08565b8786866040518563ffffffff1660e01b81526004016119ed94939291906125f6565b602060405180830381600087803b158015611a0757600080fd5b505af1925050508015611a3857506040513d601f19601f82011682018060405250810190611a359190612192565b60015b611abb573d8060008114611a68576040519150601f19603f3d011682016040523d82523d6000602084013e611a6d565b606091505b50600081511415611ab3576040517f08c379a0000000000000000000000000000000000000000000000000000000008152600401611aaa906126a1565b60405180910390fd5b805181602001fd5b63150b7a0260e01b7bffffffffffffffffffffffffffffffffffffffffffffffffffffffff1916817bffffffffffffffffffffffffffffffffffffffffffffffffffffffff191614915050611b10565b600190505b949350505050565b606060405180602001604052806000815250905090565b6060611b3a82610e9c565b611b79576040517f08c379a0000000000000000000000000000000000000000000000000000000008152600401611b7090612881565b60405180910390fd5b6000611b83611b18565b90506000815111611ba35760405180602001604052806000815250611bce565b80611bad84611bf9565b604051602001611bbe9291906125b7565b6040516020818303038152906040525b915050919050565b6000808273ffffffffffffffffffffffffffffffffffffffff163b119050919050565b60606000821415611c41576040518060400160405280600181526020017f30000000000000000000000000000000000000000000000000000000000000008152509050611d55565b600082905060005b60008214611c73578080611c5c90612bd3565b915050600a82611c6c9190612a55565b9150611c49565b60008167ffffffffffffffff811115611c8f57611c8e612d09565b5b6040519080825280601f01601f191660200182016040528015611cc15781602001600182028036833780820191505090505b5090505b60008514611d4e57600182611cda9190612a86565b9150600a85611ce99190612c1c565b6030611cf591906129ff565b60f81b818381518110611d0b57611d0a612cda565b5b60200101907effffffffffffffffffffffffffffffffffffffffffffffffffffffffffffff1916908160001a905350600a85611d479190612a55565b9450611cc5565b8093505050505b919050565b828054611d6690612b70565b90600052602060002090601f016020900481019282611d885760008555611dcf565b82601f10611da157805160ff1916838001178555611dcf565b82800160010185558215611dcf579182015b82811115611dce578251825591602001919060010190611db3565b5b509050611ddc9190611de0565b5090565b5b80821115611df9576000816000905550600101611de1565b5090565b6000611e10611e0b84612921565b6128fc565b905082815260208101848484011115611e2c57611e2b612d3d565b5b611e37848285612b2e565b509392505050565b6000611e52611e4d84612952565b6128fc565b905082815260208101848484011115611e6e57611e6d612d3d565b5b611e79848285612b2e565b509392505050565b600081359050611e9081613253565b92915050565b600081359050611ea58161326a565b92915050565b600081359050611eba81613281565b92915050565b600081519050611ecf81613281565b92915050565b600082601f830112611eea57611ee9612d38565b5b8135611efa848260208601611dfd565b91505092915050565b600082601f830112611f1857611f17612d38565b5b8135611f28848260208601611e3f565b91505092915050565b600081359050611f4081613298565b92915050565b600060208284031215611f5c57611f5b612d47565b5b6000611f6a84828501611e81565b91505092915050565b60008060408385031215611f8a57611f89612d47565b5b6000611f9885828601611e81565b9250506020611fa985828601611e81565b9150509250929050565b600080600060608486031215611fcc57611fcb612d47565b5b6000611fda86828701611e81565b9350506020611feb86828701611e81565b9250506040611ffc86828701611f31565b9150509250925092565b600080600080608085870312156120205761201f612d47565b5b600061202e87828801611e81565b945050602061203f87828801611e81565b935050604061205087828801611f31565b925050606085013567ffffffffffffffff81111561207157612070612d42565b5b61207d87828801611ed5565b91505092959194509250565b600080604083850312156120a05761209f612d47565b5b60006120ae85828601611e81565b92505060206120bf85828601611e96565b9150509250929050565b600080604083850312156120e0576120df612d47565b5b60006120ee85828601611e81565b925050602083013567ffffffffffffffff81111561210f5761210e612d42565b5b61211b85828601611f03565b9150509250929050565b6000806040838503121561213c5761213b612d47565b5b600061214a85828601611e81565b925050602061215b85828601611f31565b9150509250929050565b60006020828403121561217b5761217a612d47565b5b600061218984828501611eab565b91505092915050565b6000602082840312156121a8576121a7612d47565b5b60006121b684828501611ec0565b91505092915050565b6000602082840312156121d5576121d4612d47565b5b60006121e384828501611f31565b91505092915050565b60006121f88383612599565b60208301905092915050565b61220d81612aba565b82525050565b600061221e82612993565b61222881856129c1565b935061223383612983565b8060005b8381101561226457815161224b88826121ec565b9750612256836129b4565b925050600181019050612237565b5085935050505092915050565b61227a81612acc565b82525050565b600061228b8261299e565b61229581856129d2565b93506122a5818560208601612b3d565b6122ae81612d4c565b840191505092915050565b60006122c4826129a9565b6122ce81856129e3565b93506122de818560208601612b3d565b6122e781612d4c565b840191505092915050565b60006122fd826129a9565b61230781856129f4565b9350612317818560208601612b3d565b80840191505092915050565b60006123306032836129e3565b915061233b82612d5d565b604082019050919050565b60006123536026836129e3565b915061235e82612dac565b604082019050919050565b60006123766025836129e3565b915061238182612dfb565b604082019050919050565b6000612399601c836129e3565b91506123a482612e4a565b602082019050919050565b60006123bc6024836129e3565b91506123c782612e73565b604082019050919050565b60006123df6019836129e3565b91506123ea82612ec2565b602082019050919050565b6000612402602c836129e3565b915061240d82612eeb565b604082019050919050565b60006124256038836129e3565b915061243082612f3a565b604082019050919050565b6000612448602a836129e3565b915061245382612f89565b604082019050919050565b600061246b6029836129e3565b915061247682612fd8565b604082019050919050565b600061248e602e836129e3565b915061249982613027565b604082019050919050565b60006124b16020836129e3565b91506124bc82613076565b602082019050919050565b60006124d46031836129e3565b91506124df8261309f565b604082019050919050565b60006124f7602c836129e3565b9150612502826130ee565b604082019050919050565b600061251a6020836129e3565b91506125258261313d565b602082019050919050565b600061253d602f836129e3565b915061254882613166565b604082019050919050565b60006125606021836129e3565b915061256b826131b5565b604082019050919050565b60006125836031836129e3565b915061258e82613204565b604082019050919050565b6125a281612b24565b82525050565b6125b181612b24565b82525050565b60006125c382856122f2565b91506125cf82846122f2565b91508190509392505050565b60006020820190506125f06000830184612204565b92915050565b600060808201905061260b6000830187612204565b6126186020830186612204565b61262560408301856125a8565b81810360608301526126378184612280565b905095945050505050565b6000602082019050818103600083015261265c8184612213565b905092915050565b60006020820190506126796000830184612271565b92915050565b6000602082019050818103600083015261269981846122b9565b905092915050565b600060208201905081810360008301526126ba81612323565b9050919050565b600060208201905081810360008301526126da81612346565b9050919050565b600060208201905081810360008301526126fa81612369565b9050919050565b6000602082019050818103600083015261271a8161238c565b9050919050565b6000602082019050818103600083015261273a816123af565b9050919050565b6000602082019050818103600083015261275a816123d2565b9050919050565b6000602082019050818103600083015261277a816123f5565b9050919050565b6000602082019050818103600083015261279a81612418565b9050919050565b600060208201905081810360008301526127ba8161243b565b9050919050565b600060208201905081810360008301526127da8161245e565b9050919050565b600060208201905081810360008301526127fa81612481565b9050919050565b6000602082019050818103600083015261281a816124a4565b9050919050565b6000602082019050818103600083015261283a816124c7565b9050919050565b6000602082019050818103600083015261285a816124ea565b9050919050565b6000602082019050818103600083015261287a8161250d565b9050919050565b6000602082019050818103600083015261289a81612530565b9050919050565b600060208201905081810360008301526128ba81612553565b9050919050565b600060208201905081810360008301526128da81612576565b9050919050565b60006020820190506128f660008301846125a8565b92915050565b6000612906612917565b90506129128282612ba2565b919050565b6000604051905090565b600067ffffffffffffffff82111561293c5761293b612d09565b5b61294582612d4c565b9050602081019050919050565b600067ffffffffffffffff82111561296d5761296c612d09565b5b61297682612d4c565b9050602081019050919050565b6000819050602082019050919050565b600081519050919050565b600081519050919050565b600081519050919050565b6000602082019050919050565b600082825260208201905092915050565b600082825260208201905092915050565b600082825260208201905092915050565b600081905092915050565b6000612a0a82612b24565b9150612a1583612b24565b9250827fffffffffffffffffffffffffffffffffffffffffffffffffffffffffffffffff03821115612a4a57612a49612c4d565b5b828201905092915050565b6000612a6082612b24565b9150612a6b83612b24565b925082612a7b57612a7a612c7c565b5b828204905092915050565b6000612a9182612b24565b9150612a9c83612b24565b925082821015612aaf57612aae612c4d565b5b828203905092915050565b6000612ac582612b04565b9050919050565b60008115159050919050565b60007fffffffff0000000000000000000000000000000000000000000000000000000082169050919050565b600073ffffffffffffffffffffffffffffffffffffffff82169050919050565b6000819050919050565b82818337600083830152505050565b60005b83811015612b5b578082015181840152602081019050612b40565b83811115612b6a576000848401525b50505050565b60006002820490506001821680612b8857607f821691505b60208210811415612b9c57612b9b612cab565b5b50919050565b612bab82612d4c565b810181811067ffffffffffffffff82111715612bca57612bc9612d09565b5b80604052505050565b6000612bde82612b24565b91507fffffffffffffffffffffffffffffffffffffffffffffffffffffffffffffffff821415612c1157612c10612c4d565b5b600182019050919050565b6000612c2782612b24565b9150612c3283612b24565b925082612c4257612c41612c7c565b5b828206905092915050565b7f4e487b7100000000000000000000000000000000000000000000000000000000600052601160045260246000fd5b7f4e487b7100000000000000000000000000000000000000000000000000000000600052601260045260246000fd5b7f4e487b7100000000000000000000000000000000000000000000000000000000600052602260045260246000fd5b7f4e487b7100000000000000000000000000000000000000000000000000000000600052603260045260246000fd5b7f4e487b7100000000000000000000000000000000000000000000000000000000600052604160045260246000fd5b600080fd5b600080fd5b600080fd5b600080fd5b6000601f19601f8301169050919050565b7f4552433732313a207472616e7366657220746f206e6f6e20455243373231526560008201527f63656976657220696d706c656d656e7465720000000000000000000000000000602082015250565b7f4f776e61626c653a206e6577206f776e657220697320746865207a65726f206160008201527f6464726573730000000000000000000000000000000000000000000000000000602082015250565b7f4552433732313a207472616e736665722066726f6d20696e636f72726563742060008201527f6f776e6572000000000000000000000000000000000000000000000000000000602082015250565b7f4552433732313a20746f6b656e20616c7265616479206d696e74656400000000600082015250565b7f4552433732313a207472616e7366657220746f20746865207a65726f2061646460008201527f7265737300000000000000000000000000000000000000000000000000000000602082015250565b7f4552433732313a20617070726f766520746f2063616c6c657200000000000000600082015250565b7f4552433732313a206f70657261746f7220717565727920666f72206e6f6e657860008201527f697374656e7420746f6b656e0000000000000000000000000000000000000000602082015250565b7f4552433732313a20617070726f76652063616c6c6572206973206e6f74206f7760008201527f6e6572206e6f7220617070726f76656420666f7220616c6c0000000000000000602082015250565b7f4552433732313a2062616c616e636520717565727920666f7220746865207a6560008201527f726f206164647265737300000000000000000000000000000000000000000000602082015250565b7f4552433732313a206f776e657220717565727920666f72206e6f6e657869737460008201527f656e7420746f6b656e0000000000000000000000000000000000000000000000602082015250565b7f45524337323155524953746f726167653a2055524920736574206f66206e6f6e60008201527f6578697374656e7420746f6b656e000000000000000000000000000000000000602082015250565b7f4552433732313a206d696e7420746f20746865207a65726f2061646472657373600082015250565b7f45524337323155524953746f726167653a2055524920717565727920666f722060008201527f6e6f6e6578697374656e7420746f6b656e000000000000000000000000000000602082015250565b7f4552433732313a20617070726f76656420717565727920666f72206e6f6e657860008201527f697374656e7420746f6b656e0000000000000000000000000000000000000000602082015250565b7f4f776e61626c653a2063616c6c6572206973206e6f7420746865206f776e6572600082015250565b7f4552433732314d657461646174613a2055524920717565727920666f72206e6f60008201527f6e6578697374656e7420746f6b656e0000000000000000000000000000000000602082015250565b7f4552433732313a20617070726f76616c20746f2063757272656e74206f776e6560008201527f7200000000000000000000000000000000000000000000000000000000000000602082015250565b7f4552433732313a207472616e736665722063616c6c6572206973206e6f74206f60008201527f776e6572206e6f7220617070726f766564000000000000000000000000000000602082015250565b61325c81612aba565b811461326757600080fd5b50565b61327381612acc565b811461327e57600080fd5b50565b61328a81612ad8565b811461329557600080fd5b50565b6132a181612b24565b81146132ac57600080fd5b5056fea2646970667358221220b23f7ced7733f676789d25791b4784eaebaaaafb9e78477f468ffedfb2e23e8f64736f6c63430008060033",
  "immutableReferences": {},
  "source": "// contracts/GameItem.sol\r\n// SPDX-License-Identifier: MIT\r\npragma solidity ^0.8.6;\r\n\r\nimport \"@openzeppelin/contracts/token/ERC721/ERC721.sol\";\r\nimport \"@openzeppelin/contracts/token/ERC721/extensions/ERC721URIStorage.sol\";\r\nimport \"@openzeppelin/contracts/utils/Counters.sol\";\r\nimport \"@openzeppelin/contracts/access/Ownable.sol\";\r\n\r\ncontract DauDQCoin is ERC721, ERC721URIStorage, Ownable {\r\n    using Counters for Counters.Counter;\r\n\r\n    Counters.Counter private _tokenIds;\r\n\r\n    constructor() ERC721(\"DauDQ Coin\", \"DQDC\") {}\r\n\r\n    // The following functions are overrides required by Solidity.\r\n\r\n    function _burn(uint256 tokenId) internal override(ERC721, ERC721URIStorage) {\r\n        super._burn(tokenId);\r\n    }\r\n\r\n    function tokenURI(uint256 tokenId)\r\n        public\r\n        view\r\n        override(ERC721, ERC721URIStorage)\r\n        returns (string memory)\r\n    {\r\n        return super.tokenURI(tokenId);\r\n    }\r\n\r\n    function mintItem(address player, string memory uri)\r\n        public\r\n        onlyOwner\r\n        returns (uint256)\r\n    {\r\n        _tokenIds.increment();\r\n\r\n        uint256 newItemId = _tokenIds.current();\r\n        _mint(player, newItemId);\r\n        _setTokenURI(newItemId, uri);\r\n        return newItemId;\r\n    }\r\n    \r\n    function getNFTsByOwner(address owner_add) \r\n        public \r\n        view \r\n        returns (uint256[] memory) \r\n    {\r\n        uint totalItemCount = _tokenIds.current();\r\n        uint itemCount = 0;\r\n        uint currentIndex = 0;\r\n\r\n        for (uint i = 1; i <= totalItemCount; i++) {\r\n            if (_exists(i) && ownerOf(i) == owner_add) {\r\n                itemCount += 1;\r\n            }\r\n        }\r\n\r\n        uint256[] memory tokenIDs = new uint256[](itemCount);\r\n        for (uint i = 1; i <= totalItemCount; i++) {\r\n            if (_exists(i) && ownerOf(i) == owner_add) {\r\n                tokenIDs[currentIndex] = i;\r\n                currentIndex += 1;\r\n            }\r\n        }\r\n    \r\n        return tokenIDs;\r\n    }\r\n\r\n    function setApprovalForAll(address marketContract, bool _approved) public\r\n        virtual\r\n        override(ERC721) \r\n    {\r\n        super.setApprovalForAll(marketContract, _approved);\r\n    }\r\n}",
  "sourcePath": "/home/doanquydau/gamota_projects/nft-react-boilerplate/src/truffle/contracts/DauDQCoin.sol",
  "compiler": {
    "name": "solc",
    "version": "0.8.6+commit.11564f7e.Emscripten.clang"
  },
  "schemaVersion": "3.4.4",
  "updatedAt": "2022-02-16T10:49:48.026Z",
  "devdoc": {
    "kind": "dev",
    "methods": {
      "approve(address,uint256)": {
        "details": "See {IERC721-approve}."
      },
      "balanceOf(address)": {
        "details": "See {IERC721-balanceOf}."
      },
      "getApproved(uint256)": {
        "details": "See {IERC721-getApproved}."
      },
      "isApprovedForAll(address,address)": {
        "details": "See {IERC721-isApprovedForAll}."
      },
      "name()": {
        "details": "See {IERC721Metadata-name}."
      },
      "owner()": {
        "details": "Returns the address of the current owner."
      },
      "ownerOf(uint256)": {
        "details": "See {IERC721-ownerOf}."
      },
      "renounceOwnership()": {
        "details": "Leaves the contract without owner. It will not be possible to call `onlyOwner` functions anymore. Can only be called by the current owner. NOTE: Renouncing ownership will leave the contract without an owner, thereby removing any functionality that is only available to the owner."
      },
      "safeTransferFrom(address,address,uint256)": {
        "details": "See {IERC721-safeTransferFrom}."
      },
      "safeTransferFrom(address,address,uint256,bytes)": {
        "details": "See {IERC721-safeTransferFrom}."
      },
      "supportsInterface(bytes4)": {
        "details": "See {IERC165-supportsInterface}."
      },
      "symbol()": {
        "details": "See {IERC721Metadata-symbol}."
      },
      "transferFrom(address,address,uint256)": {
        "details": "See {IERC721-transferFrom}."
      },
      "transferOwnership(address)": {
        "details": "Transfers ownership of the contract to a new account (`newOwner`). Can only be called by the current owner."
      }
    },
    "version": 1
  },
  "userdoc": {
    "kind": "user",
    "methods": {},
    "version": 1
  }
}