{
  "contractName": "DauDQNFT",
  "abi": [
    {
      "inputs": [
        {
          "internalType": "address",
          "name": "marketplaceAddress",
          "type": "address"
        }
      ],
      "stateMutability": "nonpayable",
      "type": "constructor"
    },
    {
      "anonymous": false,
      "inputs": [
        {
          "indexed": true,
          "internalType": "address",
          "name": "owner",
          "type": "address"
        },
        {
          "indexed": true,
          "internalType": "address",
          "name": "approved",
          "type": "address"
        },
        {
          "indexed": true,
          "internalType": "uint256",
          "name": "tokenId",
          "type": "uint256"
        }
      ],
      "name": "Approval",
      "type": "event"
    },
    {
      "anonymous": false,
      "inputs": [
        {
          "indexed": true,
          "internalType": "address",
          "name": "owner",
          "type": "address"
        },
        {
          "indexed": true,
          "internalType": "address",
          "name": "operator",
          "type": "address"
        },
        {
          "indexed": false,
          "internalType": "bool",
          "name": "approved",
          "type": "bool"
        }
      ],
      "name": "ApprovalForAll",
      "type": "event"
    },
    {
      "anonymous": false,
      "inputs": [
        {
          "indexed": true,
          "internalType": "address",
          "name": "previousOwner",
          "type": "address"
        },
        {
          "indexed": true,
          "internalType": "address",
          "name": "newOwner",
          "type": "address"
        }
      ],
      "name": "OwnershipTransferred",
      "type": "event"
    },
    {
      "anonymous": false,
      "inputs": [
        {
          "indexed": true,
          "internalType": "address",
          "name": "from",
          "type": "address"
        },
        {
          "indexed": true,
          "internalType": "address",
          "name": "to",
          "type": "address"
        },
        {
          "indexed": true,
          "internalType": "uint256",
          "name": "tokenId",
          "type": "uint256"
        }
      ],
      "name": "Transfer",
      "type": "event"
    },
    {
      "inputs": [
        {
          "internalType": "address",
          "name": "to",
          "type": "address"
        },
        {
          "internalType": "uint256",
          "name": "tokenId",
          "type": "uint256"
        }
      ],
      "name": "approve",
      "outputs": [],
      "stateMutability": "nonpayable",
      "type": "function"
    },
    {
      "inputs": [
        {
          "internalType": "address",
          "name": "owner",
          "type": "address"
        }
      ],
      "name": "balanceOf",
      "outputs": [
        {
          "internalType": "uint256",
          "name": "",
          "type": "uint256"
        }
      ],
      "stateMutability": "view",
      "type": "function",
      "constant": true
    },
    {
      "inputs": [
        {
          "internalType": "uint256",
          "name": "tokenId",
          "type": "uint256"
        }
      ],
      "name": "getApproved",
      "outputs": [
        {
          "internalType": "address",
          "name": "",
          "type": "address"
        }
      ],
      "stateMutability": "view",
      "type": "function",
      "constant": true
    },
    {
      "inputs": [
        {
          "internalType": "address",
          "name": "owner",
          "type": "address"
        },
        {
          "internalType": "address",
          "name": "operator",
          "type": "address"
        }
      ],
      "name": "isApprovedForAll",
      "outputs": [
        {
          "internalType": "bool",
          "name": "",
          "type": "bool"
        }
      ],
      "stateMutability": "view",
      "type": "function",
      "constant": true
    },
    {
      "inputs": [],
      "name": "name",
      "outputs": [
        {
          "internalType": "string",
          "name": "",
          "type": "string"
        }
      ],
      "stateMutability": "view",
      "type": "function",
      "constant": true
    },
    {
      "inputs": [],
      "name": "owner",
      "outputs": [
        {
          "internalType": "address",
          "name": "",
          "type": "address"
        }
      ],
      "stateMutability": "view",
      "type": "function",
      "constant": true
    },
    {
      "inputs": [
        {
          "internalType": "uint256",
          "name": "tokenId",
          "type": "uint256"
        }
      ],
      "name": "ownerOf",
      "outputs": [
        {
          "internalType": "address",
          "name": "",
          "type": "address"
        }
      ],
      "stateMutability": "view",
      "type": "function",
      "constant": true
    },
    {
      "inputs": [],
      "name": "renounceOwnership",
      "outputs": [],
      "stateMutability": "nonpayable",
      "type": "function"
    },
    {
      "inputs": [
        {
          "internalType": "address",
          "name": "from",
          "type": "address"
        },
        {
          "internalType": "address",
          "name": "to",
          "type": "address"
        },
        {
          "internalType": "uint256",
          "name": "tokenId",
          "type": "uint256"
        }
      ],
      "name": "safeTransferFrom",
      "outputs": [],
      "stateMutability": "nonpayable",
      "type": "function"
    },
    {
      "inputs": [
        {
          "internalType": "address",
          "name": "from",
          "type": "address"
        },
        {
          "internalType": "address",
          "name": "to",
          "type": "address"
        },
        {
          "internalType": "uint256",
          "name": "tokenId",
          "type": "uint256"
        },
        {
          "internalType": "bytes",
          "name": "_data",
          "type": "bytes"
        }
      ],
      "name": "safeTransferFrom",
      "outputs": [],
      "stateMutability": "nonpayable",
      "type": "function"
    },
    {
      "inputs": [
        {
          "internalType": "address",
          "name": "operator",
          "type": "address"
        },
        {
          "internalType": "bool",
          "name": "approved",
          "type": "bool"
        }
      ],
      "name": "setApprovalForAll",
      "outputs": [],
      "stateMutability": "nonpayable",
      "type": "function"
    },
    {
      "inputs": [
        {
          "internalType": "bytes4",
          "name": "interfaceId",
          "type": "bytes4"
        }
      ],
      "name": "supportsInterface",
      "outputs": [
        {
          "internalType": "bool",
          "name": "",
          "type": "bool"
        }
      ],
      "stateMutability": "view",
      "type": "function",
      "constant": true
    },
    {
      "inputs": [],
      "name": "symbol",
      "outputs": [
        {
          "internalType": "string",
          "name": "",
          "type": "string"
        }
      ],
      "stateMutability": "view",
      "type": "function",
      "constant": true
    },
    {
      "inputs": [
        {
          "internalType": "address",
          "name": "newOwner",
          "type": "address"
        }
      ],
      "name": "transferOwnership",
      "outputs": [],
      "stateMutability": "nonpayable",
      "type": "function"
    },
    {
      "inputs": [
        {
          "internalType": "uint256",
          "name": "tokenId",
          "type": "uint256"
        }
      ],
      "name": "tokenURI",
      "outputs": [
        {
          "internalType": "string",
          "name": "",
          "type": "string"
        }
      ],
      "stateMutability": "view",
      "type": "function",
      "constant": true
    },
    {
      "inputs": [
        {
          "internalType": "address",
          "name": "player",
          "type": "address"
        },
        {
          "internalType": "string",
          "name": "uri",
          "type": "string"
        }
      ],
      "name": "mintItem",
      "outputs": [
        {
          "internalType": "uint256",
          "name": "",
          "type": "uint256"
        }
      ],
      "stateMutability": "nonpayable",
      "type": "function"
    },
    {
      "inputs": [
        {
          "internalType": "address",
          "name": "owner_add",
          "type": "address"
        }
      ],
      "name": "getNFTsByOwner",
      "outputs": [
        {
          "internalType": "uint256[]",
          "name": "",
          "type": "uint256[]"
        }
      ],
      "stateMutability": "view",
      "type": "function",
      "constant": true
    },
    {
      "inputs": [
        {
          "internalType": "address",
          "name": "from",
          "type": "address"
        },
        {
          "internalType": "address",
          "name": "to",
          "type": "address"
        },
        {
          "internalType": "uint256",
          "name": "tokenId",
          "type": "uint256"
        }
      ],
      "name": "transferFrom",
      "outputs": [],
      "stateMutability": "nonpayable",
      "type": "function"
    }
  ],
  "bytecode": "0x60806040523480156200001157600080fd5b50604051620036cb380380620036cb8339818101604052810190620000379190620002d4565b6040518060400160405280600581526020017f44617544510000000000000000000000000000000000000000000000000000008152506040518060400160405280600381526020017f44514400000000000000000000000000000000000000000000000000000000008152508160009080519060200190620000bb9291906200020d565b508060019080519060200190620000d49291906200020d565b505050620000f7620000eb6200013f60201b60201c565b6200014760201b60201c565b80600860006101000a81548173ffffffffffffffffffffffffffffffffffffffff021916908373ffffffffffffffffffffffffffffffffffffffff16021790555050620003be565b600033905090565b6000600760009054906101000a900473ffffffffffffffffffffffffffffffffffffffff16905081600760006101000a81548173ffffffffffffffffffffffffffffffffffffffff021916908373ffffffffffffffffffffffffffffffffffffffff1602179055508173ffffffffffffffffffffffffffffffffffffffff168173ffffffffffffffffffffffffffffffffffffffff167f8be0079c531659141344cd1fd0a4f28419497f9722a3daafe3b4186f6b6457e060405160405180910390a35050565b8280546200021b906200033a565b90600052602060002090601f0160209004810192826200023f57600085556200028b565b82601f106200025a57805160ff19168380011785556200028b565b828001600101855582156200028b579182015b828111156200028a5782518255916020019190600101906200026d565b5b5090506200029a91906200029e565b5090565b5b80821115620002b95760008160009055506001016200029f565b5090565b600081519050620002ce81620003a4565b92915050565b600060208284031215620002ed57620002ec6200039f565b5b6000620002fd84828501620002bd565b91505092915050565b600062000313826200031a565b9050919050565b600073ffffffffffffffffffffffffffffffffffffffff82169050919050565b600060028204905060018216806200035357607f821691505b602082108114156200036a576200036962000370565b5b50919050565b7f4e487b7100000000000000000000000000000000000000000000000000000000600052602260045260246000fd5b600080fd5b620003af8162000306565b8114620003bb57600080fd5b50565b6132fd80620003ce6000396000f3fe608060405234801561001057600080fd5b50600436106101165760003560e01c8063715018a6116100a2578063b88d4fde11610071578063b88d4fde146102df578063c87b56dd146102fb578063e2afe8b31461032b578063e985e9c51461035b578063f2fde38b1461038b57610116565b8063715018a61461027d5780638da5cb5b1461028757806395d89b41146102a5578063a22cb465146102c357610116565b8063110bcd45116100e9578063110bcd45146101b557806323b872dd146101e557806342842e0e146102015780636352211e1461021d57806370a082311461024d57610116565b806301ffc9a71461011b57806306fdde031461014b578063081812fc14610169578063095ea7b314610199575b600080fd5b6101356004803603810190610130919061217d565b6103a7565b604051610142919061267c565b60405180910390f35b610153610489565b6040516101609190612697565b60405180910390f35b610183600480360381019061017e91906121d7565b61051b565b60405161019091906125f3565b60405180910390f35b6101b360048036038101906101ae919061213d565b6105a0565b005b6101cf60048036038101906101ca91906120e1565b6106b8565b6040516101dc91906128f9565b60405180910390f35b6101ff60048036038101906101fa9190611fcb565b610799565b005b61021b60048036038101906102169190611fcb565b6107f2565b005b610237600480360381019061023291906121d7565b610812565b60405161024491906125f3565b60405180910390f35b61026760048036038101906102629190611f5e565b6108c4565b60405161027491906128f9565b60405180910390f35b61028561097c565b005b61028f610a04565b60405161029c91906125f3565b60405180910390f35b6102ad610a2e565b6040516102ba9190612697565b60405180910390f35b6102dd60048036038101906102d891906120a1565b610ac0565b005b6102f960048036038101906102f4919061201e565b610ad6565b005b610315600480360381019061031091906121d7565b610b38565b6040516103229190612697565b60405180910390f35b61034560048036038101906103409190611f5e565b610b4a565b604051610352919061265a565b60405180910390f35b61037560048036038101906103709190611f8b565b610cd4565b604051610382919061267c565b60405180910390f35b6103a560048036038101906103a09190611f5e565b610d68565b005b60007f80ac58cd000000000000000000000000000000000000000000000000000000007bffffffffffffffffffffffffffffffffffffffffffffffffffffffff1916827bffffffffffffffffffffffffffffffffffffffffffffffffffffffff1916148061047257507f5b5e139f000000000000000000000000000000000000000000000000000000007bffffffffffffffffffffffffffffffffffffffffffffffffffffffff1916827bffffffffffffffffffffffffffffffffffffffffffffffffffffffff1916145b80610482575061048182610e60565b5b9050919050565b60606000805461049890612b88565b80601f01602080910402602001604051908101604052809291908181526020018280546104c490612b88565b80156105115780601f106104e657610100808354040283529160200191610511565b820191906000526020600020905b8154815290600101906020018083116104f457829003601f168201915b5050505050905090565b600061052682610eca565b610565576040517f08c379a000000000000000000000000000000000000000000000000000000000815260040161055c90612859565b60405180910390fd5b6004600083815260200190815260200160002060009054906101000a900473ffffffffffffffffffffffffffffffffffffffff169050919050565b60006105ab82610812565b90508073ffffffffffffffffffffffffffffffffffffffff168373ffffffffffffffffffffffffffffffffffffffff16141561061c576040517f08c379a0000000000000000000000000000000000000000000000000000000008152600401610613906128b9565b60405180910390fd5b8073ffffffffffffffffffffffffffffffffffffffff1661063b610f36565b73ffffffffffffffffffffffffffffffffffffffff16148061066a575061066981610664610f36565b610cd4565b5b6106a9576040517f08c379a00000000000000000000000000000000000000000000000000000000081526004016106a090612799565b60405180910390fd5b6106b38383610f3e565b505050565b60006106c2610f36565b73ffffffffffffffffffffffffffffffffffffffff166106e0610a04565b73ffffffffffffffffffffffffffffffffffffffff1614610736576040517f08c379a000000000000000000000000000000000000000000000000000000000815260040161072d90612879565b60405180910390fd5b6107406009610ff7565b600061074c600961100d565b9050610758848261101b565b61076281846111f5565b61078f600860009054906101000a900473ffffffffffffffffffffffffffffffffffffffff166001610ac0565b8091505092915050565b6107a38382611269565b6107e2576040517f08c379a00000000000000000000000000000000000000000000000000000000081526004016107d9906128d9565b60405180910390fd5b6107ed838383611347565b505050565b61080d83838360405180602001604052806000815250610ad6565b505050565b6000806002600084815260200190815260200160002060009054906101000a900473ffffffffffffffffffffffffffffffffffffffff169050600073ffffffffffffffffffffffffffffffffffffffff168173ffffffffffffffffffffffffffffffffffffffff1614156108bb576040517f08c379a00000000000000000000000000000000000000000000000000000000081526004016108b2906127d9565b60405180910390fd5b80915050919050565b60008073ffffffffffffffffffffffffffffffffffffffff168273ffffffffffffffffffffffffffffffffffffffff161415610935576040517f08c379a000000000000000000000000000000000000000000000000000000000815260040161092c906127b9565b60405180910390fd5b600360008373ffffffffffffffffffffffffffffffffffffffff1673ffffffffffffffffffffffffffffffffffffffff168152602001908152602001600020549050919050565b610984610f36565b73ffffffffffffffffffffffffffffffffffffffff166109a2610a04565b73ffffffffffffffffffffffffffffffffffffffff16146109f8576040517f08c379a00000000000000000000000000000000000000000000000000000000081526004016109ef90612879565b60405180910390fd5b610a0260006115ae565b565b6000600760009054906101000a900473ffffffffffffffffffffffffffffffffffffffff16905090565b606060018054610a3d90612b88565b80601f0160208091040260200160405190810160405280929190818152602001828054610a6990612b88565b8015610ab65780601f10610a8b57610100808354040283529160200191610ab6565b820191906000526020600020905b815481529060010190602001808311610a9957829003601f168201915b5050505050905090565b610ad2610acb610f36565b8383611674565b5050565b610ae7610ae1610f36565b83611269565b610b26576040517f08c379a0000000000000000000000000000000000000000000000000000000008152600401610b1d906128d9565b60405180910390fd5b610b32848484846117e1565b50505050565b6060610b438261183d565b9050919050565b60606000610b58600961100d565b90506000806000600190505b838111610bdb57610b7481610eca565b8015610bb357508573ffffffffffffffffffffffffffffffffffffffff16610b9b82610812565b73ffffffffffffffffffffffffffffffffffffffff16145b15610bc857600183610bc59190612a17565b92505b8080610bd390612beb565b915050610b64565b5060008267ffffffffffffffff811115610bf857610bf7612d21565b5b604051908082528060200260200182016040528015610c265781602001602082028036833780820191505090505b5090506000600190505b848111610cc757610c4081610eca565b8015610c7f57508673ffffffffffffffffffffffffffffffffffffffff16610c6782610812565b73ffffffffffffffffffffffffffffffffffffffff16145b15610cb45780828481518110610c9857610c97612cf2565b5b602002602001018181525050600183610cb19190612a17565b92505b8080610cbf90612beb565b915050610c30565b5080945050505050919050565b6000600560008473ffffffffffffffffffffffffffffffffffffffff1673ffffffffffffffffffffffffffffffffffffffff16815260200190815260200160002060008373ffffffffffffffffffffffffffffffffffffffff1673ffffffffffffffffffffffffffffffffffffffff16815260200190815260200160002060009054906101000a900460ff16905092915050565b610d70610f36565b73ffffffffffffffffffffffffffffffffffffffff16610d8e610a04565b73ffffffffffffffffffffffffffffffffffffffff1614610de4576040517f08c379a0000000000000000000000000000000000000000000000000000000008152600401610ddb90612879565b60405180910390fd5b600073ffffffffffffffffffffffffffffffffffffffff168173ffffffffffffffffffffffffffffffffffffffff161415610e54576040517f08c379a0000000000000000000000000000000000000000000000000000000008152600401610e4b906126d9565b60405180910390fd5b610e5d816115ae565b50565b60007f01ffc9a7000000000000000000000000000000000000000000000000000000007bffffffffffffffffffffffffffffffffffffffffffffffffffffffff1916827bffffffffffffffffffffffffffffffffffffffffffffffffffffffff1916149050919050565b60008073ffffffffffffffffffffffffffffffffffffffff166002600084815260200190815260200160002060009054906101000a900473ffffffffffffffffffffffffffffffffffffffff1673ffffffffffffffffffffffffffffffffffffffff1614159050919050565b600033905090565b816004600083815260200190815260200160002060006101000a81548173ffffffffffffffffffffffffffffffffffffffff021916908373ffffffffffffffffffffffffffffffffffffffff160217905550808273ffffffffffffffffffffffffffffffffffffffff16610fb183610812565b73ffffffffffffffffffffffffffffffffffffffff167f8c5be1e5ebec7d5bd14f71427d1e84f3dd0314c0f7b2291e5b200ac8c7c3b92560405160405180910390a45050565b6001816000016000828254019250508190555050565b600081600001549050919050565b600073ffffffffffffffffffffffffffffffffffffffff168273ffffffffffffffffffffffffffffffffffffffff16141561108b576040517f08c379a000000000000000000000000000000000000000000000000000000000815260040161108290612819565b60405180910390fd5b61109481610eca565b156110d4576040517f08c379a00000000000000000000000000000000000000000000000000000000081526004016110cb90612719565b60405180910390fd5b6110e06000838361198f565b6001600360008473ffffffffffffffffffffffffffffffffffffffff1673ffffffffffffffffffffffffffffffffffffffff16815260200190815260200160002060008282546111309190612a17565b92505081905550816002600083815260200190815260200160002060006101000a81548173ffffffffffffffffffffffffffffffffffffffff021916908373ffffffffffffffffffffffffffffffffffffffff160217905550808273ffffffffffffffffffffffffffffffffffffffff16600073ffffffffffffffffffffffffffffffffffffffff167fddf252ad1be2c89b69c2b068fc378daa952ba7f163c4a11628f55a4df523b3ef60405160405180910390a46111f160008383611994565b5050565b6111fe82610eca565b61123d576040517f08c379a0000000000000000000000000000000000000000000000000000000008152600401611234906127f9565b60405180910390fd5b80600660008481526020019081526020016000209080519060200190611264929190611d72565b505050565b600061127482610eca565b6112b3576040517f08c379a00000000000000000000000000000000000000000000000000000000081526004016112aa90612779565b60405180910390fd5b60006112be83610812565b90508073ffffffffffffffffffffffffffffffffffffffff168473ffffffffffffffffffffffffffffffffffffffff16148061132d57508373ffffffffffffffffffffffffffffffffffffffff166113158461051b565b73ffffffffffffffffffffffffffffffffffffffff16145b8061133e575061133d8185610cd4565b5b91505092915050565b8273ffffffffffffffffffffffffffffffffffffffff1661136782610812565b73ffffffffffffffffffffffffffffffffffffffff16146113bd576040517f08c379a00000000000000000000000000000000000000000000000000000000081526004016113b4906126f9565b60405180910390fd5b600073ffffffffffffffffffffffffffffffffffffffff168273ffffffffffffffffffffffffffffffffffffffff16141561142d576040517f08c379a000000000000000000000000000000000000000000000000000000000815260040161142490612739565b60405180910390fd5b61143883838361198f565b611443600082610f3e565b6001600360008573ffffffffffffffffffffffffffffffffffffffff1673ffffffffffffffffffffffffffffffffffffffff16815260200190815260200160002060008282546114939190612a9e565b925050819055506001600360008473ffffffffffffffffffffffffffffffffffffffff1673ffffffffffffffffffffffffffffffffffffffff16815260200190815260200160002060008282546114ea9190612a17565b92505081905550816002600083815260200190815260200160002060006101000a81548173ffffffffffffffffffffffffffffffffffffffff021916908373ffffffffffffffffffffffffffffffffffffffff160217905550808273ffffffffffffffffffffffffffffffffffffffff168473ffffffffffffffffffffffffffffffffffffffff167fddf252ad1be2c89b69c2b068fc378daa952ba7f163c4a11628f55a4df523b3ef60405160405180910390a46115a9838383611994565b505050565b6000600760009054906101000a900473ffffffffffffffffffffffffffffffffffffffff16905081600760006101000a81548173ffffffffffffffffffffffffffffffffffffffff021916908373ffffffffffffffffffffffffffffffffffffffff1602179055508173ffffffffffffffffffffffffffffffffffffffff168173ffffffffffffffffffffffffffffffffffffffff167f8be0079c531659141344cd1fd0a4f28419497f9722a3daafe3b4186f6b6457e060405160405180910390a35050565b8173ffffffffffffffffffffffffffffffffffffffff168373ffffffffffffffffffffffffffffffffffffffff1614156116e3576040517f08c379a00000000000000000000000000000000000000000000000000000000081526004016116da90612759565b60405180910390fd5b80600560008573ffffffffffffffffffffffffffffffffffffffff1673ffffffffffffffffffffffffffffffffffffffff16815260200190815260200160002060008473ffffffffffffffffffffffffffffffffffffffff1673ffffffffffffffffffffffffffffffffffffffff16815260200190815260200160002060006101000a81548160ff0219169083151502179055508173ffffffffffffffffffffffffffffffffffffffff168373ffffffffffffffffffffffffffffffffffffffff167f17307eab39ab6107e8899845ad3d59bd9653f200f220920489ca2b5937696c31836040516117d4919061267c565b60405180910390a3505050565b6117ec848484611347565b6117f884848484611999565b611837576040517f08c379a000000000000000000000000000000000000000000000000000000000815260040161182e906126b9565b60405180910390fd5b50505050565b606061184882610eca565b611887576040517f08c379a000000000000000000000000000000000000000000000000000000000815260040161187e90612839565b60405180910390fd5b60006006600084815260200190815260200160002080546118a790612b88565b80601f01602080910402602001604051908101604052809291908181526020018280546118d390612b88565b80156119205780601f106118f557610100808354040283529160200191611920565b820191906000526020600020905b81548152906001019060200180831161190357829003601f168201915b505050505090506000611931611b30565b905060008151141561194757819250505061198a565b60008251111561197c5780826040516020016119649291906125cf565b6040516020818303038152906040529250505061198a565b61198584611b47565b925050505b919050565b505050565b505050565b60006119ba8473ffffffffffffffffffffffffffffffffffffffff16611bee565b15611b23578373ffffffffffffffffffffffffffffffffffffffff1663150b7a026119e3610f36565b8786866040518563ffffffff1660e01b8152600401611a05949392919061260e565b602060405180830381600087803b158015611a1f57600080fd5b505af1925050508015611a5057506040513d601f19601f82011682018060405250810190611a4d91906121aa565b60015b611ad3573d8060008114611a80576040519150601f19603f3d011682016040523d82523d6000602084013e611a85565b606091505b50600081511415611acb576040517f08c379a0000000000000000000000000000000000000000000000000000000008152600401611ac2906126b9565b60405180910390fd5b805181602001fd5b63150b7a0260e01b7bffffffffffffffffffffffffffffffffffffffffffffffffffffffff1916817bffffffffffffffffffffffffffffffffffffffffffffffffffffffff191614915050611b28565b600190505b949350505050565b606060405180602001604052806000815250905090565b6060611b5282610eca565b611b91576040517f08c379a0000000000000000000000000000000000000000000000000000000008152600401611b8890612899565b60405180910390fd5b6000611b9b611b30565b90506000815111611bbb5760405180602001604052806000815250611be6565b80611bc584611c11565b604051602001611bd69291906125cf565b6040516020818303038152906040525b915050919050565b6000808273ffffffffffffffffffffffffffffffffffffffff163b119050919050565b60606000821415611c59576040518060400160405280600181526020017f30000000000000000000000000000000000000000000000000000000000000008152509050611d6d565b600082905060005b60008214611c8b578080611c7490612beb565b915050600a82611c849190612a6d565b9150611c61565b60008167ffffffffffffffff811115611ca757611ca6612d21565b5b6040519080825280601f01601f191660200182016040528015611cd95781602001600182028036833780820191505090505b5090505b60008514611d6657600182611cf29190612a9e565b9150600a85611d019190612c34565b6030611d0d9190612a17565b60f81b818381518110611d2357611d22612cf2565b5b60200101907effffffffffffffffffffffffffffffffffffffffffffffffffffffffffffff1916908160001a905350600a85611d5f9190612a6d565b9450611cdd565b8093505050505b919050565b828054611d7e90612b88565b90600052602060002090601f016020900481019282611da05760008555611de7565b82601f10611db957805160ff1916838001178555611de7565b82800160010185558215611de7579182015b82811115611de6578251825591602001919060010190611dcb565b5b509050611df49190611df8565b5090565b5b80821115611e11576000816000905550600101611df9565b5090565b6000611e28611e2384612939565b612914565b905082815260208101848484011115611e4457611e43612d55565b5b611e4f848285612b46565b509392505050565b6000611e6a611e658461296a565b612914565b905082815260208101848484011115611e8657611e85612d55565b5b611e91848285612b46565b509392505050565b600081359050611ea88161326b565b92915050565b600081359050611ebd81613282565b92915050565b600081359050611ed281613299565b92915050565b600081519050611ee781613299565b92915050565b600082601f830112611f0257611f01612d50565b5b8135611f12848260208601611e15565b91505092915050565b600082601f830112611f3057611f2f612d50565b5b8135611f40848260208601611e57565b91505092915050565b600081359050611f58816132b0565b92915050565b600060208284031215611f7457611f73612d5f565b5b6000611f8284828501611e99565b91505092915050565b60008060408385031215611fa257611fa1612d5f565b5b6000611fb085828601611e99565b9250506020611fc185828601611e99565b9150509250929050565b600080600060608486031215611fe457611fe3612d5f565b5b6000611ff286828701611e99565b935050602061200386828701611e99565b925050604061201486828701611f49565b9150509250925092565b6000806000806080858703121561203857612037612d5f565b5b600061204687828801611e99565b945050602061205787828801611e99565b935050604061206887828801611f49565b925050606085013567ffffffffffffffff81111561208957612088612d5a565b5b61209587828801611eed565b91505092959194509250565b600080604083850312156120b8576120b7612d5f565b5b60006120c685828601611e99565b92505060206120d785828601611eae565b9150509250929050565b600080604083850312156120f8576120f7612d5f565b5b600061210685828601611e99565b925050602083013567ffffffffffffffff81111561212757612126612d5a565b5b61213385828601611f1b565b9150509250929050565b6000806040838503121561215457612153612d5f565b5b600061216285828601611e99565b925050602061217385828601611f49565b9150509250929050565b60006020828403121561219357612192612d5f565b5b60006121a184828501611ec3565b91505092915050565b6000602082840312156121c0576121bf612d5f565b5b60006121ce84828501611ed8565b91505092915050565b6000602082840312156121ed576121ec612d5f565b5b60006121fb84828501611f49565b91505092915050565b600061221083836125b1565b60208301905092915050565b61222581612ad2565b82525050565b6000612236826129ab565b61224081856129d9565b935061224b8361299b565b8060005b8381101561227c5781516122638882612204565b975061226e836129cc565b92505060018101905061224f565b5085935050505092915050565b61229281612ae4565b82525050565b60006122a3826129b6565b6122ad81856129ea565b93506122bd818560208601612b55565b6122c681612d64565b840191505092915050565b60006122dc826129c1565b6122e681856129fb565b93506122f6818560208601612b55565b6122ff81612d64565b840191505092915050565b6000612315826129c1565b61231f8185612a0c565b935061232f818560208601612b55565b80840191505092915050565b60006123486032836129fb565b915061235382612d75565b604082019050919050565b600061236b6026836129fb565b915061237682612dc4565b604082019050919050565b600061238e6025836129fb565b915061239982612e13565b604082019050919050565b60006123b1601c836129fb565b91506123bc82612e62565b602082019050919050565b60006123d46024836129fb565b91506123df82612e8b565b604082019050919050565b60006123f76019836129fb565b915061240282612eda565b602082019050919050565b600061241a602c836129fb565b915061242582612f03565b604082019050919050565b600061243d6038836129fb565b915061244882612f52565b604082019050919050565b6000612460602a836129fb565b915061246b82612fa1565b604082019050919050565b60006124836029836129fb565b915061248e82612ff0565b604082019050919050565b60006124a6602e836129fb565b91506124b18261303f565b604082019050919050565b60006124c96020836129fb565b91506124d48261308e565b602082019050919050565b60006124ec6031836129fb565b91506124f7826130b7565b604082019050919050565b600061250f602c836129fb565b915061251a82613106565b604082019050919050565b60006125326020836129fb565b915061253d82613155565b602082019050919050565b6000612555602f836129fb565b91506125608261317e565b604082019050919050565b60006125786021836129fb565b9150612583826131cd565b604082019050919050565b600061259b6031836129fb565b91506125a68261321c565b604082019050919050565b6125ba81612b3c565b82525050565b6125c981612b3c565b82525050565b60006125db828561230a565b91506125e7828461230a565b91508190509392505050565b6000602082019050612608600083018461221c565b92915050565b6000608082019050612623600083018761221c565b612630602083018661221c565b61263d60408301856125c0565b818103606083015261264f8184612298565b905095945050505050565b60006020820190508181036000830152612674818461222b565b905092915050565b60006020820190506126916000830184612289565b92915050565b600060208201905081810360008301526126b181846122d1565b905092915050565b600060208201905081810360008301526126d28161233b565b9050919050565b600060208201905081810360008301526126f28161235e565b9050919050565b6000602082019050818103600083015261271281612381565b9050919050565b60006020820190508181036000830152612732816123a4565b9050919050565b60006020820190508181036000830152612752816123c7565b9050919050565b60006020820190508181036000830152612772816123ea565b9050919050565b600060208201905081810360008301526127928161240d565b9050919050565b600060208201905081810360008301526127b281612430565b9050919050565b600060208201905081810360008301526127d281612453565b9050919050565b600060208201905081810360008301526127f281612476565b9050919050565b6000602082019050818103600083015261281281612499565b9050919050565b60006020820190508181036000830152612832816124bc565b9050919050565b60006020820190508181036000830152612852816124df565b9050919050565b6000602082019050818103600083015261287281612502565b9050919050565b6000602082019050818103600083015261289281612525565b9050919050565b600060208201905081810360008301526128b281612548565b9050919050565b600060208201905081810360008301526128d28161256b565b9050919050565b600060208201905081810360008301526128f28161258e565b9050919050565b600060208201905061290e60008301846125c0565b92915050565b600061291e61292f565b905061292a8282612bba565b919050565b6000604051905090565b600067ffffffffffffffff82111561295457612953612d21565b5b61295d82612d64565b9050602081019050919050565b600067ffffffffffffffff82111561298557612984612d21565b5b61298e82612d64565b9050602081019050919050565b6000819050602082019050919050565b600081519050919050565b600081519050919050565b600081519050919050565b6000602082019050919050565b600082825260208201905092915050565b600082825260208201905092915050565b600082825260208201905092915050565b600081905092915050565b6000612a2282612b3c565b9150612a2d83612b3c565b9250827fffffffffffffffffffffffffffffffffffffffffffffffffffffffffffffffff03821115612a6257612a61612c65565b5b828201905092915050565b6000612a7882612b3c565b9150612a8383612b3c565b925082612a9357612a92612c94565b5b828204905092915050565b6000612aa982612b3c565b9150612ab483612b3c565b925082821015612ac757612ac6612c65565b5b828203905092915050565b6000612add82612b1c565b9050919050565b60008115159050919050565b60007fffffffff0000000000000000000000000000000000000000000000000000000082169050919050565b600073ffffffffffffffffffffffffffffffffffffffff82169050919050565b6000819050919050565b82818337600083830152505050565b60005b83811015612b73578082015181840152602081019050612b58565b83811115612b82576000848401525b50505050565b60006002820490506001821680612ba057607f821691505b60208210811415612bb457612bb3612cc3565b5b50919050565b612bc382612d64565b810181811067ffffffffffffffff82111715612be257612be1612d21565b5b80604052505050565b6000612bf682612b3c565b91507fffffffffffffffffffffffffffffffffffffffffffffffffffffffffffffffff821415612c2957612c28612c65565b5b600182019050919050565b6000612c3f82612b3c565b9150612c4a83612b3c565b925082612c5a57612c59612c94565b5b828206905092915050565b7f4e487b7100000000000000000000000000000000000000000000000000000000600052601160045260246000fd5b7f4e487b7100000000000000000000000000000000000000000000000000000000600052601260045260246000fd5b7f4e487b7100000000000000000000000000000000000000000000000000000000600052602260045260246000fd5b7f4e487b7100000000000000000000000000000000000000000000000000000000600052603260045260246000fd5b7f4e487b7100000000000000000000000000000000000000000000000000000000600052604160045260246000fd5b600080fd5b600080fd5b600080fd5b600080fd5b6000601f19601f8301169050919050565b7f4552433732313a207472616e7366657220746f206e6f6e20455243373231526560008201527f63656976657220696d706c656d656e7465720000000000000000000000000000602082015250565b7f4f776e61626c653a206e6577206f776e657220697320746865207a65726f206160008201527f6464726573730000000000000000000000000000000000000000000000000000602082015250565b7f4552433732313a207472616e736665722066726f6d20696e636f72726563742060008201527f6f776e6572000000000000000000000000000000000000000000000000000000602082015250565b7f4552433732313a20746f6b656e20616c7265616479206d696e74656400000000600082015250565b7f4552433732313a207472616e7366657220746f20746865207a65726f2061646460008201527f7265737300000000000000000000000000000000000000000000000000000000602082015250565b7f4552433732313a20617070726f766520746f2063616c6c657200000000000000600082015250565b7f4552433732313a206f70657261746f7220717565727920666f72206e6f6e657860008201527f697374656e7420746f6b656e0000000000000000000000000000000000000000602082015250565b7f4552433732313a20617070726f76652063616c6c6572206973206e6f74206f7760008201527f6e6572206e6f7220617070726f76656420666f7220616c6c0000000000000000602082015250565b7f4552433732313a2062616c616e636520717565727920666f7220746865207a6560008201527f726f206164647265737300000000000000000000000000000000000000000000602082015250565b7f4552433732313a206f776e657220717565727920666f72206e6f6e657869737460008201527f656e7420746f6b656e0000000000000000000000000000000000000000000000602082015250565b7f45524337323155524953746f726167653a2055524920736574206f66206e6f6e60008201527f6578697374656e7420746f6b656e000000000000000000000000000000000000602082015250565b7f4552433732313a206d696e7420746f20746865207a65726f2061646472657373600082015250565b7f45524337323155524953746f726167653a2055524920717565727920666f722060008201527f6e6f6e6578697374656e7420746f6b656e000000000000000000000000000000602082015250565b7f4552433732313a20617070726f76656420717565727920666f72206e6f6e657860008201527f697374656e7420746f6b656e0000000000000000000000000000000000000000602082015250565b7f4f776e61626c653a2063616c6c6572206973206e6f7420746865206f776e6572600082015250565b7f4552433732314d657461646174613a2055524920717565727920666f72206e6f60008201527f6e6578697374656e7420746f6b656e0000000000000000000000000000000000602082015250565b7f4552433732313a20617070726f76616c20746f2063757272656e74206f776e6560008201527f7200000000000000000000000000000000000000000000000000000000000000602082015250565b7f4552433732313a207472616e736665722063616c6c6572206973206e6f74206f60008201527f776e6572206e6f7220617070726f766564000000000000000000000000000000602082015250565b61327481612ad2565b811461327f57600080fd5b50565b61328b81612ae4565b811461329657600080fd5b50565b6132a281612af0565b81146132ad57600080fd5b50565b6132b981612b3c565b81146132c457600080fd5b5056fea2646970667358221220068f8d6197f28951b34cb09ac0682ecea4d353c21c81f78f462e70e93096875764736f6c63430008060033",
  "immutableReferences": {},
  "source": "// SPDX-License-Identifier: MIT\r\npragma solidity ^0.8.6;\r\n\r\nimport \"@openzeppelin/contracts/token/ERC721/ERC721.sol\";\r\nimport \"@openzeppelin/contracts/token/ERC721/extensions/ERC721URIStorage.sol\";\r\nimport \"@openzeppelin/contracts/utils/Counters.sol\";\r\nimport \"@openzeppelin/contracts/access/Ownable.sol\";\r\n\r\ncontract DauDQNFT is ERC721, ERC721URIStorage, Ownable {\r\n    using Counters for Counters.Counter;\r\n    address contractAddress;\r\n\r\n    Counters.Counter private _tokenIds;\r\n\r\n    constructor(address marketplaceAddress) ERC721(\"DauDQ\", \"DQD\") {\r\n        contractAddress = marketplaceAddress;\r\n    }\r\n\r\n    // The following functions are overrides required by Solidity.\r\n\r\n    function _burn(uint256 tokenId) internal override(ERC721, ERC721URIStorage) {\r\n        super._burn(tokenId);\r\n    }\r\n\r\n    function tokenURI(uint256 tokenId)\r\n        public\r\n        view\r\n        override(ERC721, ERC721URIStorage)\r\n        returns (string memory)\r\n    {\r\n        return super.tokenURI(tokenId);\r\n    }\r\n\r\n    function mintItem(address player, string memory uri)\r\n        public\r\n        onlyOwner\r\n        returns (uint256)\r\n    {\r\n        _tokenIds.increment();\r\n\r\n        uint256 newItemId = _tokenIds.current();\r\n        _mint(player, newItemId);\r\n        _setTokenURI(newItemId, uri);\r\n        setApprovalForAll(contractAddress, true);\r\n        return newItemId;\r\n    }\r\n    \r\n    function getNFTsByOwner(address owner_add) \r\n        public \r\n        view \r\n        returns (uint256[] memory) \r\n    {\r\n        uint totalItemCount = _tokenIds.current();\r\n        uint itemCount = 0;\r\n        uint currentIndex = 0;\r\n\r\n        for (uint i = 1; i <= totalItemCount; i++) {\r\n            if (_exists(i) && ownerOf(i) == owner_add) {\r\n                itemCount += 1;\r\n            }\r\n        }\r\n\r\n        uint256[] memory tokenIDs = new uint256[](itemCount);\r\n        for (uint i = 1; i <= totalItemCount; i++) {\r\n            if (_exists(i) && ownerOf(i) == owner_add) {\r\n                tokenIDs[currentIndex] = i;\r\n                currentIndex += 1;\r\n            }\r\n        }\r\n    \r\n        return tokenIDs;\r\n    }\r\n\r\n    function transferFrom(\r\n        address from,\r\n        address to,\r\n        uint256 tokenId\r\n    ) public virtual override {\r\n        require(_isApprovedOrOwner(from, tokenId), \"ERC721: transfer caller is not owner nor approved\");\r\n\r\n        _transfer(from, to, tokenId);\r\n    }\r\n}",
  "sourcePath": "/home/doanquydau/gamota_projects/nft-react-boilerplate/src/truffle/contracts/DauDQNFT.sol",
  "compiler": {
    "name": "solc",
    "version": "0.8.6+commit.11564f7e.Emscripten.clang"
  },
  "schemaVersion": "3.4.4",
  "updatedAt": "2022-03-01T11:00:45.106Z",
  "networkType": "ethereum",
  "devdoc": {
    "kind": "dev",
    "methods": {
      "approve(address,uint256)": {
        "details": "See {IERC721-approve}."
      },
      "balanceOf(address)": {
        "details": "See {IERC721-balanceOf}."
      },
      "getApproved(uint256)": {
        "details": "See {IERC721-getApproved}."
      },
      "isApprovedForAll(address,address)": {
        "details": "See {IERC721-isApprovedForAll}."
      },
      "name()": {
        "details": "See {IERC721Metadata-name}."
      },
      "owner()": {
        "details": "Returns the address of the current owner."
      },
      "ownerOf(uint256)": {
        "details": "See {IERC721-ownerOf}."
      },
      "renounceOwnership()": {
        "details": "Leaves the contract without owner. It will not be possible to call `onlyOwner` functions anymore. Can only be called by the current owner. NOTE: Renouncing ownership will leave the contract without an owner, thereby removing any functionality that is only available to the owner."
      },
      "safeTransferFrom(address,address,uint256)": {
        "details": "See {IERC721-safeTransferFrom}."
      },
      "safeTransferFrom(address,address,uint256,bytes)": {
        "details": "See {IERC721-safeTransferFrom}."
      },
      "setApprovalForAll(address,bool)": {
        "details": "See {IERC721-setApprovalForAll}."
      },
      "supportsInterface(bytes4)": {
        "details": "See {IERC165-supportsInterface}."
      },
      "symbol()": {
        "details": "See {IERC721Metadata-symbol}."
      },
      "transferFrom(address,address,uint256)": {
        "details": "See {IERC721-transferFrom}."
      },
      "transferOwnership(address)": {
        "details": "Transfers ownership of the contract to a new account (`newOwner`). Can only be called by the current owner."
      }
    },
    "version": 1
  },
  "userdoc": {
    "kind": "user",
    "methods": {},
    "version": 1
  }
}