{
  "contractName": "DaudqCoin",
  "abi": [
    {
      "inputs": [],
      "stateMutability": "nonpayable",
      "type": "constructor"
    },
    {
      "anonymous": false,
      "inputs": [
        {
          "indexed": true,
          "internalType": "address",
          "name": "owner",
          "type": "address"
        },
        {
          "indexed": true,
          "internalType": "address",
          "name": "approved",
          "type": "address"
        },
        {
          "indexed": true,
          "internalType": "uint256",
          "name": "tokenId",
          "type": "uint256"
        }
      ],
      "name": "Approval",
      "type": "event"
    },
    {
      "anonymous": false,
      "inputs": [
        {
          "indexed": true,
          "internalType": "address",
          "name": "owner",
          "type": "address"
        },
        {
          "indexed": true,
          "internalType": "address",
          "name": "operator",
          "type": "address"
        },
        {
          "indexed": false,
          "internalType": "bool",
          "name": "approved",
          "type": "bool"
        }
      ],
      "name": "ApprovalForAll",
      "type": "event"
    },
    {
      "anonymous": false,
      "inputs": [
        {
          "indexed": true,
          "internalType": "address",
          "name": "previousOwner",
          "type": "address"
        },
        {
          "indexed": true,
          "internalType": "address",
          "name": "newOwner",
          "type": "address"
        }
      ],
      "name": "OwnershipTransferred",
      "type": "event"
    },
    {
      "anonymous": false,
      "inputs": [
        {
          "indexed": true,
          "internalType": "address",
          "name": "from",
          "type": "address"
        },
        {
          "indexed": true,
          "internalType": "address",
          "name": "to",
          "type": "address"
        },
        {
          "indexed": true,
          "internalType": "uint256",
          "name": "tokenId",
          "type": "uint256"
        }
      ],
      "name": "Transfer",
      "type": "event"
    },
    {
      "inputs": [
        {
          "internalType": "address",
          "name": "to",
          "type": "address"
        },
        {
          "internalType": "uint256",
          "name": "tokenId",
          "type": "uint256"
        }
      ],
      "name": "approve",
      "outputs": [],
      "stateMutability": "nonpayable",
      "type": "function"
    },
    {
      "inputs": [
        {
          "internalType": "address",
          "name": "owner",
          "type": "address"
        }
      ],
      "name": "balanceOf",
      "outputs": [
        {
          "internalType": "uint256",
          "name": "",
          "type": "uint256"
        }
      ],
      "stateMutability": "view",
      "type": "function"
    },
    {
      "inputs": [
        {
          "internalType": "uint256",
          "name": "tokenId",
          "type": "uint256"
        }
      ],
      "name": "getApproved",
      "outputs": [
        {
          "internalType": "address",
          "name": "",
          "type": "address"
        }
      ],
      "stateMutability": "view",
      "type": "function"
    },
    {
      "inputs": [
        {
          "internalType": "address",
          "name": "owner",
          "type": "address"
        },
        {
          "internalType": "address",
          "name": "operator",
          "type": "address"
        }
      ],
      "name": "isApprovedForAll",
      "outputs": [
        {
          "internalType": "bool",
          "name": "",
          "type": "bool"
        }
      ],
      "stateMutability": "view",
      "type": "function"
    },
    {
      "inputs": [],
      "name": "name",
      "outputs": [
        {
          "internalType": "string",
          "name": "",
          "type": "string"
        }
      ],
      "stateMutability": "view",
      "type": "function"
    },
    {
      "inputs": [],
      "name": "owner",
      "outputs": [
        {
          "internalType": "address",
          "name": "",
          "type": "address"
        }
      ],
      "stateMutability": "view",
      "type": "function"
    },
    {
      "inputs": [
        {
          "internalType": "uint256",
          "name": "tokenId",
          "type": "uint256"
        }
      ],
      "name": "ownerOf",
      "outputs": [
        {
          "internalType": "address",
          "name": "",
          "type": "address"
        }
      ],
      "stateMutability": "view",
      "type": "function"
    },
    {
      "inputs": [],
      "name": "renounceOwnership",
      "outputs": [],
      "stateMutability": "nonpayable",
      "type": "function"
    },
    {
      "inputs": [
        {
          "internalType": "address",
          "name": "from",
          "type": "address"
        },
        {
          "internalType": "address",
          "name": "to",
          "type": "address"
        },
        {
          "internalType": "uint256",
          "name": "tokenId",
          "type": "uint256"
        }
      ],
      "name": "safeTransferFrom",
      "outputs": [],
      "stateMutability": "nonpayable",
      "type": "function"
    },
    {
      "inputs": [
        {
          "internalType": "address",
          "name": "from",
          "type": "address"
        },
        {
          "internalType": "address",
          "name": "to",
          "type": "address"
        },
        {
          "internalType": "uint256",
          "name": "tokenId",
          "type": "uint256"
        },
        {
          "internalType": "bytes",
          "name": "_data",
          "type": "bytes"
        }
      ],
      "name": "safeTransferFrom",
      "outputs": [],
      "stateMutability": "nonpayable",
      "type": "function"
    },
    {
      "inputs": [
        {
          "internalType": "address",
          "name": "operator",
          "type": "address"
        },
        {
          "internalType": "bool",
          "name": "approved",
          "type": "bool"
        }
      ],
      "name": "setApprovalForAll",
      "outputs": [],
      "stateMutability": "nonpayable",
      "type": "function"
    },
    {
      "inputs": [
        {
          "internalType": "bytes4",
          "name": "interfaceId",
          "type": "bytes4"
        }
      ],
      "name": "supportsInterface",
      "outputs": [
        {
          "internalType": "bool",
          "name": "",
          "type": "bool"
        }
      ],
      "stateMutability": "view",
      "type": "function"
    },
    {
      "inputs": [],
      "name": "symbol",
      "outputs": [
        {
          "internalType": "string",
          "name": "",
          "type": "string"
        }
      ],
      "stateMutability": "view",
      "type": "function"
    },
    {
      "inputs": [
        {
          "internalType": "address",
          "name": "from",
          "type": "address"
        },
        {
          "internalType": "address",
          "name": "to",
          "type": "address"
        },
        {
          "internalType": "uint256",
          "name": "tokenId",
          "type": "uint256"
        }
      ],
      "name": "transferFrom",
      "outputs": [],
      "stateMutability": "nonpayable",
      "type": "function"
    },
    {
      "inputs": [
        {
          "internalType": "address",
          "name": "newOwner",
          "type": "address"
        }
      ],
      "name": "transferOwnership",
      "outputs": [],
      "stateMutability": "nonpayable",
      "type": "function"
    },
    {
      "inputs": [
        {
          "internalType": "uint256",
          "name": "tokenId",
          "type": "uint256"
        }
      ],
      "name": "tokenURI",
      "outputs": [
        {
          "internalType": "string",
          "name": "",
          "type": "string"
        }
      ],
      "stateMutability": "view",
      "type": "function"
    },
    {
      "inputs": [
        {
          "internalType": "address",
          "name": "player",
          "type": "address"
        },
        {
          "internalType": "string",
          "name": "uri",
          "type": "string"
        }
      ],
      "name": "mintItem",
      "outputs": [
        {
          "internalType": "uint256",
          "name": "",
          "type": "uint256"
        }
      ],
      "stateMutability": "nonpayable",
      "type": "function"
    }
  ],
  "bytecode": "0x60806040523480156200001157600080fd5b506040518060400160405280600a81526020017f446175647120436f696e000000000000000000000000000000000000000000008152506040518060400160405280600381526020017f4451440000000000000000000000000000000000000000000000000000000000815250816000908051906020019062000096929190620001a6565b508060019080519060200190620000af929190620001a6565b505050620000d2620000c6620000d860201b60201c565b620000e060201b60201c565b620002bb565b600033905090565b6000600760009054906101000a900473ffffffffffffffffffffffffffffffffffffffff16905081600760006101000a81548173ffffffffffffffffffffffffffffffffffffffff021916908373ffffffffffffffffffffffffffffffffffffffff1602179055508173ffffffffffffffffffffffffffffffffffffffff168173ffffffffffffffffffffffffffffffffffffffff167f8be0079c531659141344cd1fd0a4f28419497f9722a3daafe3b4186f6b6457e060405160405180910390a35050565b828054620001b49062000256565b90600052602060002090601f016020900481019282620001d8576000855562000224565b82601f10620001f357805160ff191683800117855562000224565b8280016001018555821562000224579182015b828111156200022357825182559160200191906001019062000206565b5b50905062000233919062000237565b5090565b5b808211156200025257600081600090555060010162000238565b5090565b600060028204905060018216806200026f57607f821691505b602082108114156200028657620002856200028c565b5b50919050565b7f4e487b7100000000000000000000000000000000000000000000000000000000600052602260045260246000fd5b61300680620002cb6000396000f3fe608060405234801561001057600080fd5b506004361061010b5760003560e01c806370a08231116100a2578063a22cb46511610071578063a22cb465146102b8578063b88d4fde146102d4578063c87b56dd146102f0578063e985e9c514610320578063f2fde38b146103505761010b565b806370a0823114610242578063715018a6146102725780638da5cb5b1461027c57806395d89b411461029a5761010b565b8063110bcd45116100de578063110bcd45146101aa57806323b872dd146101da57806342842e0e146101f65780636352211e146102125761010b565b806301ffc9a71461011057806306fdde0314610140578063081812fc1461015e578063095ea7b31461018e575b600080fd5b61012a60048036038101906101259190611f66565b61036c565b60405161013791906123be565b60405180910390f35b61014861044e565b60405161015591906123d9565b60405180910390f35b61017860048036038101906101739190611fc0565b6104e0565b6040516101859190612357565b60405180910390f35b6101a860048036038101906101a39190611f26565b610565565b005b6101c460048036038101906101bf9190611eca565b61067d565b6040516101d1919061263b565b60405180910390f35b6101f460048036038101906101ef9190611db4565b610731565b005b610210600480360381019061020b9190611db4565b610791565b005b61022c60048036038101906102279190611fc0565b6107b1565b6040516102399190612357565b60405180910390f35b61025c60048036038101906102579190611d47565b610863565b604051610269919061263b565b60405180910390f35b61027a61091b565b005b6102846109a3565b6040516102919190612357565b60405180910390f35b6102a26109cd565b6040516102af91906123d9565b60405180910390f35b6102d260048036038101906102cd9190611e8a565b610a5f565b005b6102ee60048036038101906102e99190611e07565b610a75565b005b61030a60048036038101906103059190611fc0565b610ad7565b60405161031791906123d9565b60405180910390f35b61033a60048036038101906103359190611d74565b610ae9565b60405161034791906123be565b60405180910390f35b61036a60048036038101906103659190611d47565b610b7d565b005b60007f80ac58cd000000000000000000000000000000000000000000000000000000007bffffffffffffffffffffffffffffffffffffffffffffffffffffffff1916827bffffffffffffffffffffffffffffffffffffffffffffffffffffffff1916148061043757507f5b5e139f000000000000000000000000000000000000000000000000000000007bffffffffffffffffffffffffffffffffffffffffffffffffffffffff1916827bffffffffffffffffffffffffffffffffffffffffffffffffffffffff1916145b80610447575061044682610c75565b5b9050919050565b60606000805461045d90612891565b80601f016020809104026020016040519081016040528092919081815260200182805461048990612891565b80156104d65780601f106104ab576101008083540402835291602001916104d6565b820191906000526020600020905b8154815290600101906020018083116104b957829003601f168201915b5050505050905090565b60006104eb82610cdf565b61052a576040517f08c379a00000000000000000000000000000000000000000000000000000000081526004016105219061257b565b60405180910390fd5b6004600083815260200190815260200160002060009054906101000a900473ffffffffffffffffffffffffffffffffffffffff169050919050565b6000610570826107b1565b90508073ffffffffffffffffffffffffffffffffffffffff168373ffffffffffffffffffffffffffffffffffffffff1614156105e1576040517f08c379a00000000000000000000000000000000000000000000000000000000081526004016105d8906125fb565b60405180910390fd5b8073ffffffffffffffffffffffffffffffffffffffff16610600610d4b565b73ffffffffffffffffffffffffffffffffffffffff16148061062f575061062e81610629610d4b565b610ae9565b5b61066e576040517f08c379a0000000000000000000000000000000000000000000000000000000008152600401610665906124bb565b60405180910390fd5b6106788383610d53565b505050565b6000610687610d4b565b73ffffffffffffffffffffffffffffffffffffffff166106a56109a3565b73ffffffffffffffffffffffffffffffffffffffff16146106fb576040517f08c379a00000000000000000000000000000000000000000000000000000000081526004016106f29061259b565b60405180910390fd5b6107056008610e0c565b60006107116008610e22565b905061071d8482610e30565b6107278184610ffe565b8091505092915050565b61074261073c610d4b565b82611072565b610781576040517f08c379a00000000000000000000000000000000000000000000000000000000081526004016107789061261b565b60405180910390fd5b61078c838383611150565b505050565b6107ac83838360405180602001604052806000815250610a75565b505050565b6000806002600084815260200190815260200160002060009054906101000a900473ffffffffffffffffffffffffffffffffffffffff169050600073ffffffffffffffffffffffffffffffffffffffff168173ffffffffffffffffffffffffffffffffffffffff16141561085a576040517f08c379a0000000000000000000000000000000000000000000000000000000008152600401610851906124fb565b60405180910390fd5b80915050919050565b60008073ffffffffffffffffffffffffffffffffffffffff168273ffffffffffffffffffffffffffffffffffffffff1614156108d4576040517f08c379a00000000000000000000000000000000000000000000000000000000081526004016108cb906124db565b60405180910390fd5b600360008373ffffffffffffffffffffffffffffffffffffffff1673ffffffffffffffffffffffffffffffffffffffff168152602001908152602001600020549050919050565b610923610d4b565b73ffffffffffffffffffffffffffffffffffffffff166109416109a3565b73ffffffffffffffffffffffffffffffffffffffff1614610997576040517f08c379a000000000000000000000000000000000000000000000000000000000815260040161098e9061259b565b60405180910390fd5b6109a160006113ac565b565b6000600760009054906101000a900473ffffffffffffffffffffffffffffffffffffffff16905090565b6060600180546109dc90612891565b80601f0160208091040260200160405190810160405280929190818152602001828054610a0890612891565b8015610a555780601f10610a2a57610100808354040283529160200191610a55565b820191906000526020600020905b815481529060010190602001808311610a3857829003601f168201915b5050505050905090565b610a71610a6a610d4b565b8383611472565b5050565b610a86610a80610d4b565b83611072565b610ac5576040517f08c379a0000000000000000000000000000000000000000000000000000000008152600401610abc9061261b565b60405180910390fd5b610ad1848484846115df565b50505050565b6060610ae28261163b565b9050919050565b6000600560008473ffffffffffffffffffffffffffffffffffffffff1673ffffffffffffffffffffffffffffffffffffffff16815260200190815260200160002060008373ffffffffffffffffffffffffffffffffffffffff1673ffffffffffffffffffffffffffffffffffffffff16815260200190815260200160002060009054906101000a900460ff16905092915050565b610b85610d4b565b73ffffffffffffffffffffffffffffffffffffffff16610ba36109a3565b73ffffffffffffffffffffffffffffffffffffffff1614610bf9576040517f08c379a0000000000000000000000000000000000000000000000000000000008152600401610bf09061259b565b60405180910390fd5b600073ffffffffffffffffffffffffffffffffffffffff168173ffffffffffffffffffffffffffffffffffffffff161415610c69576040517f08c379a0000000000000000000000000000000000000000000000000000000008152600401610c609061241b565b60405180910390fd5b610c72816113ac565b50565b60007f01ffc9a7000000000000000000000000000000000000000000000000000000007bffffffffffffffffffffffffffffffffffffffffffffffffffffffff1916827bffffffffffffffffffffffffffffffffffffffffffffffffffffffff1916149050919050565b60008073ffffffffffffffffffffffffffffffffffffffff166002600084815260200190815260200160002060009054906101000a900473ffffffffffffffffffffffffffffffffffffffff1673ffffffffffffffffffffffffffffffffffffffff1614159050919050565b600033905090565b816004600083815260200190815260200160002060006101000a81548173ffffffffffffffffffffffffffffffffffffffff021916908373ffffffffffffffffffffffffffffffffffffffff160217905550808273ffffffffffffffffffffffffffffffffffffffff16610dc6836107b1565b73ffffffffffffffffffffffffffffffffffffffff167f8c5be1e5ebec7d5bd14f71427d1e84f3dd0314c0f7b2291e5b200ac8c7c3b92560405160405180910390a45050565b6001816000016000828254019250508190555050565b600081600001549050919050565b600073ffffffffffffffffffffffffffffffffffffffff168273ffffffffffffffffffffffffffffffffffffffff161415610ea0576040517f08c379a0000000000000000000000000000000000000000000000000000000008152600401610e979061253b565b60405180910390fd5b610ea981610cdf565b15610ee9576040517f08c379a0000000000000000000000000000000000000000000000000000000008152600401610ee09061243b565b60405180910390fd5b610ef56000838361178d565b6001600360008473ffffffffffffffffffffffffffffffffffffffff1673ffffffffffffffffffffffffffffffffffffffff1681526020019081526020016000206000828254610f459190612720565b92505081905550816002600083815260200190815260200160002060006101000a81548173ffffffffffffffffffffffffffffffffffffffff021916908373ffffffffffffffffffffffffffffffffffffffff160217905550808273ffffffffffffffffffffffffffffffffffffffff16600073ffffffffffffffffffffffffffffffffffffffff167fddf252ad1be2c89b69c2b068fc378daa952ba7f163c4a11628f55a4df523b3ef60405160405180910390a45050565b61100782610cdf565b611046576040517f08c379a000000000000000000000000000000000000000000000000000000000815260040161103d9061251b565b60405180910390fd5b8060066000848152602001908152602001600020908051906020019061106d929190611b5b565b505050565b600061107d82610cdf565b6110bc576040517f08c379a00000000000000000000000000000000000000000000000000000000081526004016110b39061249b565b60405180910390fd5b60006110c7836107b1565b90508073ffffffffffffffffffffffffffffffffffffffff168473ffffffffffffffffffffffffffffffffffffffff16148061113657508373ffffffffffffffffffffffffffffffffffffffff1661111e846104e0565b73ffffffffffffffffffffffffffffffffffffffff16145b8061114757506111468185610ae9565b5b91505092915050565b8273ffffffffffffffffffffffffffffffffffffffff16611170826107b1565b73ffffffffffffffffffffffffffffffffffffffff16146111c6576040517f08c379a00000000000000000000000000000000000000000000000000000000081526004016111bd906125bb565b60405180910390fd5b600073ffffffffffffffffffffffffffffffffffffffff168273ffffffffffffffffffffffffffffffffffffffff161415611236576040517f08c379a000000000000000000000000000000000000000000000000000000000815260040161122d9061245b565b60405180910390fd5b61124183838361178d565b61124c600082610d53565b6001600360008573ffffffffffffffffffffffffffffffffffffffff1673ffffffffffffffffffffffffffffffffffffffff168152602001908152602001600020600082825461129c91906127a7565b925050819055506001600360008473ffffffffffffffffffffffffffffffffffffffff1673ffffffffffffffffffffffffffffffffffffffff16815260200190815260200160002060008282546112f39190612720565b92505081905550816002600083815260200190815260200160002060006101000a81548173ffffffffffffffffffffffffffffffffffffffff021916908373ffffffffffffffffffffffffffffffffffffffff160217905550808273ffffffffffffffffffffffffffffffffffffffff168473ffffffffffffffffffffffffffffffffffffffff167fddf252ad1be2c89b69c2b068fc378daa952ba7f163c4a11628f55a4df523b3ef60405160405180910390a4505050565b6000600760009054906101000a900473ffffffffffffffffffffffffffffffffffffffff16905081600760006101000a81548173ffffffffffffffffffffffffffffffffffffffff021916908373ffffffffffffffffffffffffffffffffffffffff1602179055508173ffffffffffffffffffffffffffffffffffffffff168173ffffffffffffffffffffffffffffffffffffffff167f8be0079c531659141344cd1fd0a4f28419497f9722a3daafe3b4186f6b6457e060405160405180910390a35050565b8173ffffffffffffffffffffffffffffffffffffffff168373ffffffffffffffffffffffffffffffffffffffff1614156114e1576040517f08c379a00000000000000000000000000000000000000000000000000000000081526004016114d89061247b565b60405180910390fd5b80600560008573ffffffffffffffffffffffffffffffffffffffff1673ffffffffffffffffffffffffffffffffffffffff16815260200190815260200160002060008473ffffffffffffffffffffffffffffffffffffffff1673ffffffffffffffffffffffffffffffffffffffff16815260200190815260200160002060006101000a81548160ff0219169083151502179055508173ffffffffffffffffffffffffffffffffffffffff168373ffffffffffffffffffffffffffffffffffffffff167f17307eab39ab6107e8899845ad3d59bd9653f200f220920489ca2b5937696c31836040516115d291906123be565b60405180910390a3505050565b6115ea848484611150565b6115f684848484611792565b611635576040517f08c379a000000000000000000000000000000000000000000000000000000000815260040161162c906123fb565b60405180910390fd5b50505050565b606061164682610cdf565b611685576040517f08c379a000000000000000000000000000000000000000000000000000000000815260040161167c9061255b565b60405180910390fd5b60006006600084815260200190815260200160002080546116a590612891565b80601f01602080910402602001604051908101604052809291908181526020018280546116d190612891565b801561171e5780601f106116f35761010080835404028352916020019161171e565b820191906000526020600020905b81548152906001019060200180831161170157829003601f168201915b50505050509050600061172f611929565b9050600081511415611745578192505050611788565b60008251111561177a578082604051602001611762929190612333565b60405160208183030381529060405292505050611788565b61178384611940565b925050505b919050565b505050565b60006117b38473ffffffffffffffffffffffffffffffffffffffff166119e7565b1561191c578373ffffffffffffffffffffffffffffffffffffffff1663150b7a026117dc610d4b565b8786866040518563ffffffff1660e01b81526004016117fe9493929190612372565b602060405180830381600087803b15801561181857600080fd5b505af192505050801561184957506040513d601f19601f820116820180604052508101906118469190611f93565b60015b6118cc573d8060008114611879576040519150601f19603f3d011682016040523d82523d6000602084013e61187e565b606091505b506000815114156118c4576040517f08c379a00000000000000000000000000000000000000000000000000000000081526004016118bb906123fb565b60405180910390fd5b805181602001fd5b63150b7a0260e01b7bffffffffffffffffffffffffffffffffffffffffffffffffffffffff1916817bffffffffffffffffffffffffffffffffffffffffffffffffffffffff191614915050611921565b600190505b949350505050565b606060405180602001604052806000815250905090565b606061194b82610cdf565b61198a576040517f08c379a0000000000000000000000000000000000000000000000000000000008152600401611981906125db565b60405180910390fd5b6000611994611929565b905060008151116119b457604051806020016040528060008152506119df565b806119be846119fa565b6040516020016119cf929190612333565b6040516020818303038152906040525b915050919050565b600080823b905060008111915050919050565b60606000821415611a42576040518060400160405280600181526020017f30000000000000000000000000000000000000000000000000000000000000008152509050611b56565b600082905060005b60008214611a74578080611a5d906128f4565b915050600a82611a6d9190612776565b9150611a4a565b60008167ffffffffffffffff811115611a9057611a8f612a2a565b5b6040519080825280601f01601f191660200182016040528015611ac25781602001600182028036833780820191505090505b5090505b60008514611b4f57600182611adb91906127a7565b9150600a85611aea919061293d565b6030611af69190612720565b60f81b818381518110611b0c57611b0b6129fb565b5b60200101907effffffffffffffffffffffffffffffffffffffffffffffffffffffffffffff1916908160001a905350600a85611b489190612776565b9450611ac6565b8093505050505b919050565b828054611b6790612891565b90600052602060002090601f016020900481019282611b895760008555611bd0565b82601f10611ba257805160ff1916838001178555611bd0565b82800160010185558215611bd0579182015b82811115611bcf578251825591602001919060010190611bb4565b5b509050611bdd9190611be1565b5090565b5b80821115611bfa576000816000905550600101611be2565b5090565b6000611c11611c0c8461267b565b612656565b905082815260208101848484011115611c2d57611c2c612a5e565b5b611c3884828561284f565b509392505050565b6000611c53611c4e846126ac565b612656565b905082815260208101848484011115611c6f57611c6e612a5e565b5b611c7a84828561284f565b509392505050565b600081359050611c9181612f74565b92915050565b600081359050611ca681612f8b565b92915050565b600081359050611cbb81612fa2565b92915050565b600081519050611cd081612fa2565b92915050565b600082601f830112611ceb57611cea612a59565b5b8135611cfb848260208601611bfe565b91505092915050565b600082601f830112611d1957611d18612a59565b5b8135611d29848260208601611c40565b91505092915050565b600081359050611d4181612fb9565b92915050565b600060208284031215611d5d57611d5c612a68565b5b6000611d6b84828501611c82565b91505092915050565b60008060408385031215611d8b57611d8a612a68565b5b6000611d9985828601611c82565b9250506020611daa85828601611c82565b9150509250929050565b600080600060608486031215611dcd57611dcc612a68565b5b6000611ddb86828701611c82565b9350506020611dec86828701611c82565b9250506040611dfd86828701611d32565b9150509250925092565b60008060008060808587031215611e2157611e20612a68565b5b6000611e2f87828801611c82565b9450506020611e4087828801611c82565b9350506040611e5187828801611d32565b925050606085013567ffffffffffffffff811115611e7257611e71612a63565b5b611e7e87828801611cd6565b91505092959194509250565b60008060408385031215611ea157611ea0612a68565b5b6000611eaf85828601611c82565b9250506020611ec085828601611c97565b9150509250929050565b60008060408385031215611ee157611ee0612a68565b5b6000611eef85828601611c82565b925050602083013567ffffffffffffffff811115611f1057611f0f612a63565b5b611f1c85828601611d04565b9150509250929050565b60008060408385031215611f3d57611f3c612a68565b5b6000611f4b85828601611c82565b9250506020611f5c85828601611d32565b9150509250929050565b600060208284031215611f7c57611f7b612a68565b5b6000611f8a84828501611cac565b91505092915050565b600060208284031215611fa957611fa8612a68565b5b6000611fb784828501611cc1565b91505092915050565b600060208284031215611fd657611fd5612a68565b5b6000611fe484828501611d32565b91505092915050565b611ff6816127db565b82525050565b612005816127ed565b82525050565b6000612016826126dd565b61202081856126f3565b935061203081856020860161285e565b61203981612a6d565b840191505092915050565b600061204f826126e8565b6120598185612704565b935061206981856020860161285e565b61207281612a6d565b840191505092915050565b6000612088826126e8565b6120928185612715565b93506120a281856020860161285e565b80840191505092915050565b60006120bb603283612704565b91506120c682612a7e565b604082019050919050565b60006120de602683612704565b91506120e982612acd565b604082019050919050565b6000612101601c83612704565b915061210c82612b1c565b602082019050919050565b6000612124602483612704565b915061212f82612b45565b604082019050919050565b6000612147601983612704565b915061215282612b94565b602082019050919050565b600061216a602c83612704565b915061217582612bbd565b604082019050919050565b600061218d603883612704565b915061219882612c0c565b604082019050919050565b60006121b0602a83612704565b91506121bb82612c5b565b604082019050919050565b60006121d3602983612704565b91506121de82612caa565b604082019050919050565b60006121f6602e83612704565b915061220182612cf9565b604082019050919050565b6000612219602083612704565b915061222482612d48565b602082019050919050565b600061223c603183612704565b915061224782612d71565b604082019050919050565b600061225f602c83612704565b915061226a82612dc0565b604082019050919050565b6000612282602083612704565b915061228d82612e0f565b602082019050919050565b60006122a5602983612704565b91506122b082612e38565b604082019050919050565b60006122c8602f83612704565b91506122d382612e87565b604082019050919050565b60006122eb602183612704565b91506122f682612ed6565b604082019050919050565b600061230e603183612704565b915061231982612f25565b604082019050919050565b61232d81612845565b82525050565b600061233f828561207d565b915061234b828461207d565b91508190509392505050565b600060208201905061236c6000830184611fed565b92915050565b60006080820190506123876000830187611fed565b6123946020830186611fed565b6123a16040830185612324565b81810360608301526123b3818461200b565b905095945050505050565b60006020820190506123d36000830184611ffc565b92915050565b600060208201905081810360008301526123f38184612044565b905092915050565b60006020820190508181036000830152612414816120ae565b9050919050565b60006020820190508181036000830152612434816120d1565b9050919050565b60006020820190508181036000830152612454816120f4565b9050919050565b6000602082019050818103600083015261247481612117565b9050919050565b600060208201905081810360008301526124948161213a565b9050919050565b600060208201905081810360008301526124b48161215d565b9050919050565b600060208201905081810360008301526124d481612180565b9050919050565b600060208201905081810360008301526124f4816121a3565b9050919050565b60006020820190508181036000830152612514816121c6565b9050919050565b60006020820190508181036000830152612534816121e9565b9050919050565b600060208201905081810360008301526125548161220c565b9050919050565b600060208201905081810360008301526125748161222f565b9050919050565b6000602082019050818103600083015261259481612252565b9050919050565b600060208201905081810360008301526125b481612275565b9050919050565b600060208201905081810360008301526125d481612298565b9050919050565b600060208201905081810360008301526125f4816122bb565b9050919050565b60006020820190508181036000830152612614816122de565b9050919050565b6000602082019050818103600083015261263481612301565b9050919050565b60006020820190506126506000830184612324565b92915050565b6000612660612671565b905061266c82826128c3565b919050565b6000604051905090565b600067ffffffffffffffff82111561269657612695612a2a565b5b61269f82612a6d565b9050602081019050919050565b600067ffffffffffffffff8211156126c7576126c6612a2a565b5b6126d082612a6d565b9050602081019050919050565b600081519050919050565b600081519050919050565b600082825260208201905092915050565b600082825260208201905092915050565b600081905092915050565b600061272b82612845565b915061273683612845565b9250827fffffffffffffffffffffffffffffffffffffffffffffffffffffffffffffffff0382111561276b5761276a61296e565b5b828201905092915050565b600061278182612845565b915061278c83612845565b92508261279c5761279b61299d565b5b828204905092915050565b60006127b282612845565b91506127bd83612845565b9250828210156127d0576127cf61296e565b5b828203905092915050565b60006127e682612825565b9050919050565b60008115159050919050565b60007fffffffff0000000000000000000000000000000000000000000000000000000082169050919050565b600073ffffffffffffffffffffffffffffffffffffffff82169050919050565b6000819050919050565b82818337600083830152505050565b60005b8381101561287c578082015181840152602081019050612861565b8381111561288b576000848401525b50505050565b600060028204905060018216806128a957607f821691505b602082108114156128bd576128bc6129cc565b5b50919050565b6128cc82612a6d565b810181811067ffffffffffffffff821117156128eb576128ea612a2a565b5b80604052505050565b60006128ff82612845565b91507fffffffffffffffffffffffffffffffffffffffffffffffffffffffffffffffff8214156129325761293161296e565b5b600182019050919050565b600061294882612845565b915061295383612845565b9250826129635761296261299d565b5b828206905092915050565b7f4e487b7100000000000000000000000000000000000000000000000000000000600052601160045260246000fd5b7f4e487b7100000000000000000000000000000000000000000000000000000000600052601260045260246000fd5b7f4e487b7100000000000000000000000000000000000000000000000000000000600052602260045260246000fd5b7f4e487b7100000000000000000000000000000000000000000000000000000000600052603260045260246000fd5b7f4e487b7100000000000000000000000000000000000000000000000000000000600052604160045260246000fd5b600080fd5b600080fd5b600080fd5b600080fd5b6000601f19601f8301169050919050565b7f4552433732313a207472616e7366657220746f206e6f6e20455243373231526560008201527f63656976657220696d706c656d656e7465720000000000000000000000000000602082015250565b7f4f776e61626c653a206e6577206f776e657220697320746865207a65726f206160008201527f6464726573730000000000000000000000000000000000000000000000000000602082015250565b7f4552433732313a20746f6b656e20616c7265616479206d696e74656400000000600082015250565b7f4552433732313a207472616e7366657220746f20746865207a65726f2061646460008201527f7265737300000000000000000000000000000000000000000000000000000000602082015250565b7f4552433732313a20617070726f766520746f2063616c6c657200000000000000600082015250565b7f4552433732313a206f70657261746f7220717565727920666f72206e6f6e657860008201527f697374656e7420746f6b656e0000000000000000000000000000000000000000602082015250565b7f4552433732313a20617070726f76652063616c6c6572206973206e6f74206f7760008201527f6e6572206e6f7220617070726f76656420666f7220616c6c0000000000000000602082015250565b7f4552433732313a2062616c616e636520717565727920666f7220746865207a6560008201527f726f206164647265737300000000000000000000000000000000000000000000602082015250565b7f4552433732313a206f776e657220717565727920666f72206e6f6e657869737460008201527f656e7420746f6b656e0000000000000000000000000000000000000000000000602082015250565b7f45524337323155524953746f726167653a2055524920736574206f66206e6f6e60008201527f6578697374656e7420746f6b656e000000000000000000000000000000000000602082015250565b7f4552433732313a206d696e7420746f20746865207a65726f2061646472657373600082015250565b7f45524337323155524953746f726167653a2055524920717565727920666f722060008201527f6e6f6e6578697374656e7420746f6b656e000000000000000000000000000000602082015250565b7f4552433732313a20617070726f76656420717565727920666f72206e6f6e657860008201527f697374656e7420746f6b656e0000000000000000000000000000000000000000602082015250565b7f4f776e61626c653a2063616c6c6572206973206e6f7420746865206f776e6572600082015250565b7f4552433732313a207472616e73666572206f6620746f6b656e2074686174206960008201527f73206e6f74206f776e0000000000000000000000000000000000000000000000602082015250565b7f4552433732314d657461646174613a2055524920717565727920666f72206e6f60008201527f6e6578697374656e7420746f6b656e0000000000000000000000000000000000602082015250565b7f4552433732313a20617070726f76616c20746f2063757272656e74206f776e6560008201527f7200000000000000000000000000000000000000000000000000000000000000602082015250565b7f4552433732313a207472616e736665722063616c6c6572206973206e6f74206f60008201527f776e6572206e6f7220617070726f766564000000000000000000000000000000602082015250565b612f7d816127db565b8114612f8857600080fd5b50565b612f94816127ed565b8114612f9f57600080fd5b50565b612fab816127f9565b8114612fb657600080fd5b50565b612fc281612845565b8114612fcd57600080fd5b5056fea2646970667358221220fb326a9cdcfdf6dbf1f39a9c06eae2a0a0968103ea2ed5c9040d9a7d26bf34ef64736f6c63430008060033",
  "immutableReferences": {},
  "source": "// contracts/GameItem.sol\r\n// SPDX-License-Identifier: MIT\r\npragma solidity ^0.8.0;\r\n\r\nimport \"@openzeppelin/contracts/token/ERC721/ERC721.sol\";\r\nimport \"@openzeppelin/contracts/token/ERC721/extensions/ERC721URIStorage.sol\";\r\nimport \"@openzeppelin/contracts/utils/Counters.sol\";\r\nimport \"@openzeppelin/contracts/access/Ownable.sol\";\r\n\r\ncontract DaudqCoin is ERC721, ERC721URIStorage, Ownable {\r\n    using Counters for Counters.Counter;\r\n    Counters.Counter private _tokenIds;\r\n\r\n    constructor() ERC721(\"Daudq Coin\", \"DQD\") {}\r\n\r\n    // The following functions are overrides required by Solidity.\r\n\r\n    function _burn(uint256 tokenId) internal override(ERC721, ERC721URIStorage) {\r\n        super._burn(tokenId);\r\n    }\r\n\r\n    function tokenURI(uint256 tokenId)\r\n        public\r\n        view\r\n        override(ERC721, ERC721URIStorage)\r\n        returns (string memory)\r\n    {\r\n        return super.tokenURI(tokenId);\r\n    }\r\n\r\n    function mintItem(address player, string memory uri)\r\n        public\r\n        onlyOwner\r\n        returns (uint256)\r\n    {\r\n        _tokenIds.increment();\r\n\r\n        uint256 newItemId = _tokenIds.current();\r\n        _mint(player, newItemId);\r\n        _setTokenURI(newItemId, uri);\r\n        return newItemId;\r\n    }\r\n    \r\n}",
  "sourcePath": "/home/doanquydau/gamota_projects/nft-react-boilerplate/src/truffle/contracts/NFT.sol",
  "compiler": {
    "name": "solc",
    "version": "0.8.6+commit.11564f7e.Emscripten.clang"
  },
  "schemaVersion": "3.4.4",
  "updatedAt": "2022-01-26T05:07:00.062Z",
  "devdoc": {
    "kind": "dev",
    "methods": {
      "approve(address,uint256)": {
        "details": "See {IERC721-approve}."
      },
      "balanceOf(address)": {
        "details": "See {IERC721-balanceOf}."
      },
      "getApproved(uint256)": {
        "details": "See {IERC721-getApproved}."
      },
      "isApprovedForAll(address,address)": {
        "details": "See {IERC721-isApprovedForAll}."
      },
      "name()": {
        "details": "See {IERC721Metadata-name}."
      },
      "owner()": {
        "details": "Returns the address of the current owner."
      },
      "ownerOf(uint256)": {
        "details": "See {IERC721-ownerOf}."
      },
      "renounceOwnership()": {
        "details": "Leaves the contract without owner. It will not be possible to call `onlyOwner` functions anymore. Can only be called by the current owner. NOTE: Renouncing ownership will leave the contract without an owner, thereby removing any functionality that is only available to the owner."
      },
      "safeTransferFrom(address,address,uint256)": {
        "details": "See {IERC721-safeTransferFrom}."
      },
      "safeTransferFrom(address,address,uint256,bytes)": {
        "details": "See {IERC721-safeTransferFrom}."
      },
      "setApprovalForAll(address,bool)": {
        "details": "See {IERC721-setApprovalForAll}."
      },
      "supportsInterface(bytes4)": {
        "details": "See {IERC165-supportsInterface}."
      },
      "symbol()": {
        "details": "See {IERC721Metadata-symbol}."
      },
      "transferFrom(address,address,uint256)": {
        "details": "See {IERC721-transferFrom}."
      },
      "transferOwnership(address)": {
        "details": "Transfers ownership of the contract to a new account (`newOwner`). Can only be called by the current owner."
      }
    },
    "version": 1
  },
  "userdoc": {
    "kind": "user",
    "methods": {},
    "version": 1
  }
}