{
  "contractName": "DauDQCoin",
  "abi": [
    {
      "inputs": [],
      "stateMutability": "nonpayable",
      "type": "constructor"
    },
    {
      "anonymous": false,
      "inputs": [
        {
          "indexed": true,
          "internalType": "address",
          "name": "owner",
          "type": "address"
        },
        {
          "indexed": true,
          "internalType": "address",
          "name": "approved",
          "type": "address"
        },
        {
          "indexed": true,
          "internalType": "uint256",
          "name": "tokenId",
          "type": "uint256"
        }
      ],
      "name": "Approval",
      "type": "event"
    },
    {
      "anonymous": false,
      "inputs": [
        {
          "indexed": true,
          "internalType": "address",
          "name": "owner",
          "type": "address"
        },
        {
          "indexed": true,
          "internalType": "address",
          "name": "operator",
          "type": "address"
        },
        {
          "indexed": false,
          "internalType": "bool",
          "name": "approved",
          "type": "bool"
        }
      ],
      "name": "ApprovalForAll",
      "type": "event"
    },
    {
      "anonymous": false,
      "inputs": [
        {
          "indexed": true,
          "internalType": "address",
          "name": "previousOwner",
          "type": "address"
        },
        {
          "indexed": true,
          "internalType": "address",
          "name": "newOwner",
          "type": "address"
        }
      ],
      "name": "OwnershipTransferred",
      "type": "event"
    },
    {
      "anonymous": false,
      "inputs": [
        {
          "indexed": true,
          "internalType": "address",
          "name": "from",
          "type": "address"
        },
        {
          "indexed": true,
          "internalType": "address",
          "name": "to",
          "type": "address"
        },
        {
          "indexed": true,
          "internalType": "uint256",
          "name": "tokenId",
          "type": "uint256"
        }
      ],
      "name": "Transfer",
      "type": "event"
    },
    {
      "inputs": [
        {
          "internalType": "address",
          "name": "to",
          "type": "address"
        },
        {
          "internalType": "uint256",
          "name": "tokenId",
          "type": "uint256"
        }
      ],
      "name": "approve",
      "outputs": [],
      "stateMutability": "nonpayable",
      "type": "function"
    },
    {
      "inputs": [
        {
          "internalType": "address",
          "name": "owner",
          "type": "address"
        }
      ],
      "name": "balanceOf",
      "outputs": [
        {
          "internalType": "uint256",
          "name": "",
          "type": "uint256"
        }
      ],
      "stateMutability": "view",
      "type": "function",
      "constant": true
    },
    {
      "inputs": [
        {
          "internalType": "uint256",
          "name": "tokenId",
          "type": "uint256"
        }
      ],
      "name": "getApproved",
      "outputs": [
        {
          "internalType": "address",
          "name": "",
          "type": "address"
        }
      ],
      "stateMutability": "view",
      "type": "function",
      "constant": true
    },
    {
      "inputs": [
        {
          "internalType": "address",
          "name": "owner",
          "type": "address"
        },
        {
          "internalType": "address",
          "name": "operator",
          "type": "address"
        }
      ],
      "name": "isApprovedForAll",
      "outputs": [
        {
          "internalType": "bool",
          "name": "",
          "type": "bool"
        }
      ],
      "stateMutability": "view",
      "type": "function",
      "constant": true
    },
    {
      "inputs": [],
      "name": "name",
      "outputs": [
        {
          "internalType": "string",
          "name": "",
          "type": "string"
        }
      ],
      "stateMutability": "view",
      "type": "function",
      "constant": true
    },
    {
      "inputs": [],
      "name": "owner",
      "outputs": [
        {
          "internalType": "address",
          "name": "",
          "type": "address"
        }
      ],
      "stateMutability": "view",
      "type": "function",
      "constant": true
    },
    {
      "inputs": [
        {
          "internalType": "uint256",
          "name": "tokenId",
          "type": "uint256"
        }
      ],
      "name": "ownerOf",
      "outputs": [
        {
          "internalType": "address",
          "name": "",
          "type": "address"
        }
      ],
      "stateMutability": "view",
      "type": "function",
      "constant": true
    },
    {
      "inputs": [],
      "name": "renounceOwnership",
      "outputs": [],
      "stateMutability": "nonpayable",
      "type": "function"
    },
    {
      "inputs": [
        {
          "internalType": "address",
          "name": "from",
          "type": "address"
        },
        {
          "internalType": "address",
          "name": "to",
          "type": "address"
        },
        {
          "internalType": "uint256",
          "name": "tokenId",
          "type": "uint256"
        }
      ],
      "name": "safeTransferFrom",
      "outputs": [],
      "stateMutability": "nonpayable",
      "type": "function"
    },
    {
      "inputs": [
        {
          "internalType": "address",
          "name": "from",
          "type": "address"
        },
        {
          "internalType": "address",
          "name": "to",
          "type": "address"
        },
        {
          "internalType": "uint256",
          "name": "tokenId",
          "type": "uint256"
        },
        {
          "internalType": "bytes",
          "name": "_data",
          "type": "bytes"
        }
      ],
      "name": "safeTransferFrom",
      "outputs": [],
      "stateMutability": "nonpayable",
      "type": "function"
    },
    {
      "inputs": [
        {
          "internalType": "address",
          "name": "operator",
          "type": "address"
        },
        {
          "internalType": "bool",
          "name": "approved",
          "type": "bool"
        }
      ],
      "name": "setApprovalForAll",
      "outputs": [],
      "stateMutability": "nonpayable",
      "type": "function"
    },
    {
      "inputs": [
        {
          "internalType": "bytes4",
          "name": "interfaceId",
          "type": "bytes4"
        }
      ],
      "name": "supportsInterface",
      "outputs": [
        {
          "internalType": "bool",
          "name": "",
          "type": "bool"
        }
      ],
      "stateMutability": "view",
      "type": "function",
      "constant": true
    },
    {
      "inputs": [],
      "name": "symbol",
      "outputs": [
        {
          "internalType": "string",
          "name": "",
          "type": "string"
        }
      ],
      "stateMutability": "view",
      "type": "function",
      "constant": true
    },
    {
      "inputs": [
        {
          "internalType": "address",
          "name": "from",
          "type": "address"
        },
        {
          "internalType": "address",
          "name": "to",
          "type": "address"
        },
        {
          "internalType": "uint256",
          "name": "tokenId",
          "type": "uint256"
        }
      ],
      "name": "transferFrom",
      "outputs": [],
      "stateMutability": "nonpayable",
      "type": "function"
    },
    {
      "inputs": [
        {
          "internalType": "address",
          "name": "newOwner",
          "type": "address"
        }
      ],
      "name": "transferOwnership",
      "outputs": [],
      "stateMutability": "nonpayable",
      "type": "function"
    },
    {
      "inputs": [
        {
          "internalType": "uint256",
          "name": "tokenId",
          "type": "uint256"
        }
      ],
      "name": "tokenURI",
      "outputs": [
        {
          "internalType": "string",
          "name": "",
          "type": "string"
        }
      ],
      "stateMutability": "view",
      "type": "function",
      "constant": true
    },
    {
      "inputs": [
        {
          "internalType": "address",
          "name": "player",
          "type": "address"
        },
        {
          "internalType": "address",
          "name": "contractAddress",
          "type": "address"
        },
        {
          "internalType": "string",
          "name": "uri",
          "type": "string"
        }
      ],
      "name": "mintItem",
      "outputs": [
        {
          "internalType": "uint256",
          "name": "",
          "type": "uint256"
        }
      ],
      "stateMutability": "nonpayable",
      "type": "function"
    },
    {
      "inputs": [
        {
          "internalType": "address",
          "name": "owner_add",
          "type": "address"
        }
      ],
      "name": "getNFTsByOwner",
      "outputs": [
        {
          "internalType": "uint256[]",
          "name": "",
          "type": "uint256[]"
        }
      ],
      "stateMutability": "view",
      "type": "function",
      "constant": true
    }
  ],
  "bytecode": "0x60806040523480156200001157600080fd5b506040518060400160405280600a81526020017f446175445120436f696e000000000000000000000000000000000000000000008152506040518060400160405280600481526020017f4451444300000000000000000000000000000000000000000000000000000000815250816000908051906020019062000096929190620001a6565b508060019080519060200190620000af929190620001a6565b505050620000d2620000c6620000d860201b60201c565b620000e060201b60201c565b620002bb565b600033905090565b6000600760009054906101000a900473ffffffffffffffffffffffffffffffffffffffff16905081600760006101000a81548173ffffffffffffffffffffffffffffffffffffffff021916908373ffffffffffffffffffffffffffffffffffffffff1602179055508173ffffffffffffffffffffffffffffffffffffffff168173ffffffffffffffffffffffffffffffffffffffff167f8be0079c531659141344cd1fd0a4f28419497f9722a3daafe3b4186f6b6457e060405160405180910390a35050565b828054620001b49062000256565b90600052602060002090601f016020900481019282620001d8576000855562000224565b82601f10620001f357805160ff191683800117855562000224565b8280016001018555821562000224579182015b828111156200022357825182559160200191906001019062000206565b5b50905062000233919062000237565b5090565b5b808211156200025257600081600090555060010162000238565b5090565b600060028204905060018216806200026f57607f821691505b602082108114156200028657620002856200028c565b5b50919050565b7f4e487b7100000000000000000000000000000000000000000000000000000000600052602260045260246000fd5b6132f680620002cb6000396000f3fe608060405234801561001057600080fd5b50600436106101165760003560e01c80638da5cb5b116100a2578063c87b56dd11610071578063c87b56dd146102cb578063e2afe8b3146102fb578063e985e9c51461032b578063f2fde38b1461035b578063f44a819a1461037757610116565b80638da5cb5b1461025757806395d89b4114610275578063a22cb46514610293578063b88d4fde146102af57610116565b806323b872dd116100e957806323b872dd146101b557806342842e0e146101d15780636352211e146101ed57806370a082311461021d578063715018a61461024d57610116565b806301ffc9a71461011b57806306fdde031461014b578063081812fc14610169578063095ea7b314610199575b600080fd5b61013560048036038101906101309190612176565b6103a7565b6040516101429190612675565b60405180910390f35b610153610489565b6040516101609190612690565b60405180910390f35b610183600480360381019061017e91906121d0565b61051b565b60405161019091906125ec565b60405180910390f35b6101b360048036038101906101ae9190612136565b6105a0565b005b6101cf60048036038101906101ca9190612020565b6106b8565b005b6101eb60048036038101906101e69190612020565b610718565b005b610207600480360381019061020291906121d0565b610738565b60405161021491906125ec565b60405180910390f35b61023760048036038101906102329190611f44565b6107ea565b60405161024491906128f2565b60405180910390f35b6102556108a2565b005b61025f61092a565b60405161026c91906125ec565b60405180910390f35b61027d610954565b60405161028a9190612690565b60405180910390f35b6102ad60048036038101906102a891906120f6565b6109e6565b005b6102c960048036038101906102c49190612073565b6109fc565b005b6102e560048036038101906102e091906121d0565b610a5e565b6040516102f29190612690565b60405180910390f35b61031560048036038101906103109190611f44565b610a70565b6040516103229190612653565b60405180910390f35b61034560048036038101906103409190611f71565b610bfa565b6040516103529190612675565b60405180910390f35b61037560048036038101906103709190611f44565b610c8e565b005b610391600480360381019061038c9190611fb1565b610d86565b60405161039e91906128f2565b60405180910390f35b60007f80ac58cd000000000000000000000000000000000000000000000000000000007bffffffffffffffffffffffffffffffffffffffffffffffffffffffff1916827bffffffffffffffffffffffffffffffffffffffffffffffffffffffff1916148061047257507f5b5e139f000000000000000000000000000000000000000000000000000000007bffffffffffffffffffffffffffffffffffffffffffffffffffffffff1916827bffffffffffffffffffffffffffffffffffffffffffffffffffffffff1916145b80610482575061048182610e46565b5b9050919050565b60606000805461049890612b81565b80601f01602080910402602001604051908101604052809291908181526020018280546104c490612b81565b80156105115780601f106104e657610100808354040283529160200191610511565b820191906000526020600020905b8154815290600101906020018083116104f457829003601f168201915b5050505050905090565b600061052682610eb0565b610565576040517f08c379a000000000000000000000000000000000000000000000000000000000815260040161055c90612852565b60405180910390fd5b6004600083815260200190815260200160002060009054906101000a900473ffffffffffffffffffffffffffffffffffffffff169050919050565b60006105ab82610738565b90508073ffffffffffffffffffffffffffffffffffffffff168373ffffffffffffffffffffffffffffffffffffffff16141561061c576040517f08c379a0000000000000000000000000000000000000000000000000000000008152600401610613906128b2565b60405180910390fd5b8073ffffffffffffffffffffffffffffffffffffffff1661063b610f1c565b73ffffffffffffffffffffffffffffffffffffffff16148061066a575061066981610664610f1c565b610bfa565b5b6106a9576040517f08c379a00000000000000000000000000000000000000000000000000000000081526004016106a090612792565b60405180910390fd5b6106b38383610f24565b505050565b6106c96106c3610f1c565b82610fdd565b610708576040517f08c379a00000000000000000000000000000000000000000000000000000000081526004016106ff906128d2565b60405180910390fd5b6107138383836110bb565b505050565b610733838383604051806020016040528060008152506109fc565b505050565b6000806002600084815260200190815260200160002060009054906101000a900473ffffffffffffffffffffffffffffffffffffffff169050600073ffffffffffffffffffffffffffffffffffffffff168173ffffffffffffffffffffffffffffffffffffffff1614156107e1576040517f08c379a00000000000000000000000000000000000000000000000000000000081526004016107d8906127d2565b60405180910390fd5b80915050919050565b60008073ffffffffffffffffffffffffffffffffffffffff168273ffffffffffffffffffffffffffffffffffffffff16141561085b576040517f08c379a0000000000000000000000000000000000000000000000000000000008152600401610852906127b2565b60405180910390fd5b600360008373ffffffffffffffffffffffffffffffffffffffff1673ffffffffffffffffffffffffffffffffffffffff168152602001908152602001600020549050919050565b6108aa610f1c565b73ffffffffffffffffffffffffffffffffffffffff166108c861092a565b73ffffffffffffffffffffffffffffffffffffffff161461091e576040517f08c379a000000000000000000000000000000000000000000000000000000000815260040161091590612872565b60405180910390fd5b6109286000611322565b565b6000600760009054906101000a900473ffffffffffffffffffffffffffffffffffffffff16905090565b60606001805461096390612b81565b80601f016020809104026020016040519081016040528092919081815260200182805461098f90612b81565b80156109dc5780601f106109b1576101008083540402835291602001916109dc565b820191906000526020600020905b8154815290600101906020018083116109bf57829003601f168201915b5050505050905090565b6109f86109f1610f1c565b83836113e8565b5050565b610a0d610a07610f1c565b83610fdd565b610a4c576040517f08c379a0000000000000000000000000000000000000000000000000000000008152600401610a43906128d2565b60405180910390fd5b610a5884848484611555565b50505050565b6060610a69826115b1565b9050919050565b60606000610a7e6008611703565b90506000806000600190505b838111610b0157610a9a81610eb0565b8015610ad957508573ffffffffffffffffffffffffffffffffffffffff16610ac182610738565b73ffffffffffffffffffffffffffffffffffffffff16145b15610aee57600183610aeb9190612a10565b92505b8080610af990612be4565b915050610a8a565b5060008267ffffffffffffffff811115610b1e57610b1d612d1a565b5b604051908082528060200260200182016040528015610b4c5781602001602082028036833780820191505090505b5090506000600190505b848111610bed57610b6681610eb0565b8015610ba557508673ffffffffffffffffffffffffffffffffffffffff16610b8d82610738565b73ffffffffffffffffffffffffffffffffffffffff16145b15610bda5780828481518110610bbe57610bbd612ceb565b5b602002602001018181525050600183610bd79190612a10565b92505b8080610be590612be4565b915050610b56565b5080945050505050919050565b6000600560008473ffffffffffffffffffffffffffffffffffffffff1673ffffffffffffffffffffffffffffffffffffffff16815260200190815260200160002060008373ffffffffffffffffffffffffffffffffffffffff1673ffffffffffffffffffffffffffffffffffffffff16815260200190815260200160002060009054906101000a900460ff16905092915050565b610c96610f1c565b73ffffffffffffffffffffffffffffffffffffffff16610cb461092a565b73ffffffffffffffffffffffffffffffffffffffff1614610d0a576040517f08c379a0000000000000000000000000000000000000000000000000000000008152600401610d0190612872565b60405180910390fd5b600073ffffffffffffffffffffffffffffffffffffffff168173ffffffffffffffffffffffffffffffffffffffff161415610d7a576040517f08c379a0000000000000000000000000000000000000000000000000000000008152600401610d71906126d2565b60405180910390fd5b610d8381611322565b50565b6000610d90610f1c565b73ffffffffffffffffffffffffffffffffffffffff16610dae61092a565b73ffffffffffffffffffffffffffffffffffffffff1614610e04576040517f08c379a0000000000000000000000000000000000000000000000000000000008152600401610dfb90612872565b60405180910390fd5b610e0e6008611711565b6000610e1a6008611703565b9050610e268582611727565b610e308184611901565b610e3b8460016109e6565b809150509392505050565b60007f01ffc9a7000000000000000000000000000000000000000000000000000000007bffffffffffffffffffffffffffffffffffffffffffffffffffffffff1916827bffffffffffffffffffffffffffffffffffffffffffffffffffffffff1916149050919050565b60008073ffffffffffffffffffffffffffffffffffffffff166002600084815260200190815260200160002060009054906101000a900473ffffffffffffffffffffffffffffffffffffffff1673ffffffffffffffffffffffffffffffffffffffff1614159050919050565b600033905090565b816004600083815260200190815260200160002060006101000a81548173ffffffffffffffffffffffffffffffffffffffff021916908373ffffffffffffffffffffffffffffffffffffffff160217905550808273ffffffffffffffffffffffffffffffffffffffff16610f9783610738565b73ffffffffffffffffffffffffffffffffffffffff167f8c5be1e5ebec7d5bd14f71427d1e84f3dd0314c0f7b2291e5b200ac8c7c3b92560405160405180910390a45050565b6000610fe882610eb0565b611027576040517f08c379a000000000000000000000000000000000000000000000000000000000815260040161101e90612772565b60405180910390fd5b600061103283610738565b90508073ffffffffffffffffffffffffffffffffffffffff168473ffffffffffffffffffffffffffffffffffffffff1614806110a157508373ffffffffffffffffffffffffffffffffffffffff166110898461051b565b73ffffffffffffffffffffffffffffffffffffffff16145b806110b257506110b18185610bfa565b5b91505092915050565b8273ffffffffffffffffffffffffffffffffffffffff166110db82610738565b73ffffffffffffffffffffffffffffffffffffffff1614611131576040517f08c379a0000000000000000000000000000000000000000000000000000000008152600401611128906126f2565b60405180910390fd5b600073ffffffffffffffffffffffffffffffffffffffff168273ffffffffffffffffffffffffffffffffffffffff1614156111a1576040517f08c379a000000000000000000000000000000000000000000000000000000000815260040161119890612732565b60405180910390fd5b6111ac838383611975565b6111b7600082610f24565b6001600360008573ffffffffffffffffffffffffffffffffffffffff1673ffffffffffffffffffffffffffffffffffffffff16815260200190815260200160002060008282546112079190612a97565b925050819055506001600360008473ffffffffffffffffffffffffffffffffffffffff1673ffffffffffffffffffffffffffffffffffffffff168152602001908152602001600020600082825461125e9190612a10565b92505081905550816002600083815260200190815260200160002060006101000a81548173ffffffffffffffffffffffffffffffffffffffff021916908373ffffffffffffffffffffffffffffffffffffffff160217905550808273ffffffffffffffffffffffffffffffffffffffff168473ffffffffffffffffffffffffffffffffffffffff167fddf252ad1be2c89b69c2b068fc378daa952ba7f163c4a11628f55a4df523b3ef60405160405180910390a461131d83838361197a565b505050565b6000600760009054906101000a900473ffffffffffffffffffffffffffffffffffffffff16905081600760006101000a81548173ffffffffffffffffffffffffffffffffffffffff021916908373ffffffffffffffffffffffffffffffffffffffff1602179055508173ffffffffffffffffffffffffffffffffffffffff168173ffffffffffffffffffffffffffffffffffffffff167f8be0079c531659141344cd1fd0a4f28419497f9722a3daafe3b4186f6b6457e060405160405180910390a35050565b8173ffffffffffffffffffffffffffffffffffffffff168373ffffffffffffffffffffffffffffffffffffffff161415611457576040517f08c379a000000000000000000000000000000000000000000000000000000000815260040161144e90612752565b60405180910390fd5b80600560008573ffffffffffffffffffffffffffffffffffffffff1673ffffffffffffffffffffffffffffffffffffffff16815260200190815260200160002060008473ffffffffffffffffffffffffffffffffffffffff1673ffffffffffffffffffffffffffffffffffffffff16815260200190815260200160002060006101000a81548160ff0219169083151502179055508173ffffffffffffffffffffffffffffffffffffffff168373ffffffffffffffffffffffffffffffffffffffff167f17307eab39ab6107e8899845ad3d59bd9653f200f220920489ca2b5937696c31836040516115489190612675565b60405180910390a3505050565b6115608484846110bb565b61156c8484848461197f565b6115ab576040517f08c379a00000000000000000000000000000000000000000000000000000000081526004016115a2906126b2565b60405180910390fd5b50505050565b60606115bc82610eb0565b6115fb576040517f08c379a00000000000000000000000000000000000000000000000000000000081526004016115f290612832565b60405180910390fd5b600060066000848152602001908152602001600020805461161b90612b81565b80601f016020809104026020016040519081016040528092919081815260200182805461164790612b81565b80156116945780601f1061166957610100808354040283529160200191611694565b820191906000526020600020905b81548152906001019060200180831161167757829003601f168201915b5050505050905060006116a5611b16565b90506000815114156116bb5781925050506116fe565b6000825111156116f05780826040516020016116d89291906125c8565b604051602081830303815290604052925050506116fe565b6116f984611b2d565b925050505b919050565b600081600001549050919050565b6001816000016000828254019250508190555050565b600073ffffffffffffffffffffffffffffffffffffffff168273ffffffffffffffffffffffffffffffffffffffff161415611797576040517f08c379a000000000000000000000000000000000000000000000000000000000815260040161178e90612812565b60405180910390fd5b6117a081610eb0565b156117e0576040517f08c379a00000000000000000000000000000000000000000000000000000000081526004016117d790612712565b60405180910390fd5b6117ec60008383611975565b6001600360008473ffffffffffffffffffffffffffffffffffffffff1673ffffffffffffffffffffffffffffffffffffffff168152602001908152602001600020600082825461183c9190612a10565b92505081905550816002600083815260200190815260200160002060006101000a81548173ffffffffffffffffffffffffffffffffffffffff021916908373ffffffffffffffffffffffffffffffffffffffff160217905550808273ffffffffffffffffffffffffffffffffffffffff16600073ffffffffffffffffffffffffffffffffffffffff167fddf252ad1be2c89b69c2b068fc378daa952ba7f163c4a11628f55a4df523b3ef60405160405180910390a46118fd6000838361197a565b5050565b61190a82610eb0565b611949576040517f08c379a0000000000000000000000000000000000000000000000000000000008152600401611940906127f2565b60405180910390fd5b80600660008481526020019081526020016000209080519060200190611970929190611d58565b505050565b505050565b505050565b60006119a08473ffffffffffffffffffffffffffffffffffffffff16611bd4565b15611b09578373ffffffffffffffffffffffffffffffffffffffff1663150b7a026119c9610f1c565b8786866040518563ffffffff1660e01b81526004016119eb9493929190612607565b602060405180830381600087803b158015611a0557600080fd5b505af1925050508015611a3657506040513d601f19601f82011682018060405250810190611a3391906121a3565b60015b611ab9573d8060008114611a66576040519150601f19603f3d011682016040523d82523d6000602084013e611a6b565b606091505b50600081511415611ab1576040517f08c379a0000000000000000000000000000000000000000000000000000000008152600401611aa8906126b2565b60405180910390fd5b805181602001fd5b63150b7a0260e01b7bffffffffffffffffffffffffffffffffffffffffffffffffffffffff1916817bffffffffffffffffffffffffffffffffffffffffffffffffffffffff191614915050611b0e565b600190505b949350505050565b606060405180602001604052806000815250905090565b6060611b3882610eb0565b611b77576040517f08c379a0000000000000000000000000000000000000000000000000000000008152600401611b6e90612892565b60405180910390fd5b6000611b81611b16565b90506000815111611ba15760405180602001604052806000815250611bcc565b80611bab84611bf7565b604051602001611bbc9291906125c8565b6040516020818303038152906040525b915050919050565b6000808273ffffffffffffffffffffffffffffffffffffffff163b119050919050565b60606000821415611c3f576040518060400160405280600181526020017f30000000000000000000000000000000000000000000000000000000000000008152509050611d53565b600082905060005b60008214611c71578080611c5a90612be4565b915050600a82611c6a9190612a66565b9150611c47565b60008167ffffffffffffffff811115611c8d57611c8c612d1a565b5b6040519080825280601f01601f191660200182016040528015611cbf5781602001600182028036833780820191505090505b5090505b60008514611d4c57600182611cd89190612a97565b9150600a85611ce79190612c2d565b6030611cf39190612a10565b60f81b818381518110611d0957611d08612ceb565b5b60200101907effffffffffffffffffffffffffffffffffffffffffffffffffffffffffffff1916908160001a905350600a85611d459190612a66565b9450611cc3565b8093505050505b919050565b828054611d6490612b81565b90600052602060002090601f016020900481019282611d865760008555611dcd565b82601f10611d9f57805160ff1916838001178555611dcd565b82800160010185558215611dcd579182015b82811115611dcc578251825591602001919060010190611db1565b5b509050611dda9190611dde565b5090565b5b80821115611df7576000816000905550600101611ddf565b5090565b6000611e0e611e0984612932565b61290d565b905082815260208101848484011115611e2a57611e29612d4e565b5b611e35848285612b3f565b509392505050565b6000611e50611e4b84612963565b61290d565b905082815260208101848484011115611e6c57611e6b612d4e565b5b611e77848285612b3f565b509392505050565b600081359050611e8e81613264565b92915050565b600081359050611ea38161327b565b92915050565b600081359050611eb881613292565b92915050565b600081519050611ecd81613292565b92915050565b600082601f830112611ee857611ee7612d49565b5b8135611ef8848260208601611dfb565b91505092915050565b600082601f830112611f1657611f15612d49565b5b8135611f26848260208601611e3d565b91505092915050565b600081359050611f3e816132a9565b92915050565b600060208284031215611f5a57611f59612d58565b5b6000611f6884828501611e7f565b91505092915050565b60008060408385031215611f8857611f87612d58565b5b6000611f9685828601611e7f565b9250506020611fa785828601611e7f565b9150509250929050565b600080600060608486031215611fca57611fc9612d58565b5b6000611fd886828701611e7f565b9350506020611fe986828701611e7f565b925050604084013567ffffffffffffffff81111561200a57612009612d53565b5b61201686828701611f01565b9150509250925092565b60008060006060848603121561203957612038612d58565b5b600061204786828701611e7f565b935050602061205886828701611e7f565b925050604061206986828701611f2f565b9150509250925092565b6000806000806080858703121561208d5761208c612d58565b5b600061209b87828801611e7f565b94505060206120ac87828801611e7f565b93505060406120bd87828801611f2f565b925050606085013567ffffffffffffffff8111156120de576120dd612d53565b5b6120ea87828801611ed3565b91505092959194509250565b6000806040838503121561210d5761210c612d58565b5b600061211b85828601611e7f565b925050602061212c85828601611e94565b9150509250929050565b6000806040838503121561214d5761214c612d58565b5b600061215b85828601611e7f565b925050602061216c85828601611f2f565b9150509250929050565b60006020828403121561218c5761218b612d58565b5b600061219a84828501611ea9565b91505092915050565b6000602082840312156121b9576121b8612d58565b5b60006121c784828501611ebe565b91505092915050565b6000602082840312156121e6576121e5612d58565b5b60006121f484828501611f2f565b91505092915050565b600061220983836125aa565b60208301905092915050565b61221e81612acb565b82525050565b600061222f826129a4565b61223981856129d2565b935061224483612994565b8060005b8381101561227557815161225c88826121fd565b9750612267836129c5565b925050600181019050612248565b5085935050505092915050565b61228b81612add565b82525050565b600061229c826129af565b6122a681856129e3565b93506122b6818560208601612b4e565b6122bf81612d5d565b840191505092915050565b60006122d5826129ba565b6122df81856129f4565b93506122ef818560208601612b4e565b6122f881612d5d565b840191505092915050565b600061230e826129ba565b6123188185612a05565b9350612328818560208601612b4e565b80840191505092915050565b60006123416032836129f4565b915061234c82612d6e565b604082019050919050565b60006123646026836129f4565b915061236f82612dbd565b604082019050919050565b60006123876025836129f4565b915061239282612e0c565b604082019050919050565b60006123aa601c836129f4565b91506123b582612e5b565b602082019050919050565b60006123cd6024836129f4565b91506123d882612e84565b604082019050919050565b60006123f06019836129f4565b91506123fb82612ed3565b602082019050919050565b6000612413602c836129f4565b915061241e82612efc565b604082019050919050565b60006124366038836129f4565b915061244182612f4b565b604082019050919050565b6000612459602a836129f4565b915061246482612f9a565b604082019050919050565b600061247c6029836129f4565b915061248782612fe9565b604082019050919050565b600061249f602e836129f4565b91506124aa82613038565b604082019050919050565b60006124c26020836129f4565b91506124cd82613087565b602082019050919050565b60006124e56031836129f4565b91506124f0826130b0565b604082019050919050565b6000612508602c836129f4565b9150612513826130ff565b604082019050919050565b600061252b6020836129f4565b91506125368261314e565b602082019050919050565b600061254e602f836129f4565b915061255982613177565b604082019050919050565b60006125716021836129f4565b915061257c826131c6565b604082019050919050565b60006125946031836129f4565b915061259f82613215565b604082019050919050565b6125b381612b35565b82525050565b6125c281612b35565b82525050565b60006125d48285612303565b91506125e08284612303565b91508190509392505050565b60006020820190506126016000830184612215565b92915050565b600060808201905061261c6000830187612215565b6126296020830186612215565b61263660408301856125b9565b81810360608301526126488184612291565b905095945050505050565b6000602082019050818103600083015261266d8184612224565b905092915050565b600060208201905061268a6000830184612282565b92915050565b600060208201905081810360008301526126aa81846122ca565b905092915050565b600060208201905081810360008301526126cb81612334565b9050919050565b600060208201905081810360008301526126eb81612357565b9050919050565b6000602082019050818103600083015261270b8161237a565b9050919050565b6000602082019050818103600083015261272b8161239d565b9050919050565b6000602082019050818103600083015261274b816123c0565b9050919050565b6000602082019050818103600083015261276b816123e3565b9050919050565b6000602082019050818103600083015261278b81612406565b9050919050565b600060208201905081810360008301526127ab81612429565b9050919050565b600060208201905081810360008301526127cb8161244c565b9050919050565b600060208201905081810360008301526127eb8161246f565b9050919050565b6000602082019050818103600083015261280b81612492565b9050919050565b6000602082019050818103600083015261282b816124b5565b9050919050565b6000602082019050818103600083015261284b816124d8565b9050919050565b6000602082019050818103600083015261286b816124fb565b9050919050565b6000602082019050818103600083015261288b8161251e565b9050919050565b600060208201905081810360008301526128ab81612541565b9050919050565b600060208201905081810360008301526128cb81612564565b9050919050565b600060208201905081810360008301526128eb81612587565b9050919050565b600060208201905061290760008301846125b9565b92915050565b6000612917612928565b90506129238282612bb3565b919050565b6000604051905090565b600067ffffffffffffffff82111561294d5761294c612d1a565b5b61295682612d5d565b9050602081019050919050565b600067ffffffffffffffff82111561297e5761297d612d1a565b5b61298782612d5d565b9050602081019050919050565b6000819050602082019050919050565b600081519050919050565b600081519050919050565b600081519050919050565b6000602082019050919050565b600082825260208201905092915050565b600082825260208201905092915050565b600082825260208201905092915050565b600081905092915050565b6000612a1b82612b35565b9150612a2683612b35565b9250827fffffffffffffffffffffffffffffffffffffffffffffffffffffffffffffffff03821115612a5b57612a5a612c5e565b5b828201905092915050565b6000612a7182612b35565b9150612a7c83612b35565b925082612a8c57612a8b612c8d565b5b828204905092915050565b6000612aa282612b35565b9150612aad83612b35565b925082821015612ac057612abf612c5e565b5b828203905092915050565b6000612ad682612b15565b9050919050565b60008115159050919050565b60007fffffffff0000000000000000000000000000000000000000000000000000000082169050919050565b600073ffffffffffffffffffffffffffffffffffffffff82169050919050565b6000819050919050565b82818337600083830152505050565b60005b83811015612b6c578082015181840152602081019050612b51565b83811115612b7b576000848401525b50505050565b60006002820490506001821680612b9957607f821691505b60208210811415612bad57612bac612cbc565b5b50919050565b612bbc82612d5d565b810181811067ffffffffffffffff82111715612bdb57612bda612d1a565b5b80604052505050565b6000612bef82612b35565b91507fffffffffffffffffffffffffffffffffffffffffffffffffffffffffffffffff821415612c2257612c21612c5e565b5b600182019050919050565b6000612c3882612b35565b9150612c4383612b35565b925082612c5357612c52612c8d565b5b828206905092915050565b7f4e487b7100000000000000000000000000000000000000000000000000000000600052601160045260246000fd5b7f4e487b7100000000000000000000000000000000000000000000000000000000600052601260045260246000fd5b7f4e487b7100000000000000000000000000000000000000000000000000000000600052602260045260246000fd5b7f4e487b7100000000000000000000000000000000000000000000000000000000600052603260045260246000fd5b7f4e487b7100000000000000000000000000000000000000000000000000000000600052604160045260246000fd5b600080fd5b600080fd5b600080fd5b600080fd5b6000601f19601f8301169050919050565b7f4552433732313a207472616e7366657220746f206e6f6e20455243373231526560008201527f63656976657220696d706c656d656e7465720000000000000000000000000000602082015250565b7f4f776e61626c653a206e6577206f776e657220697320746865207a65726f206160008201527f6464726573730000000000000000000000000000000000000000000000000000602082015250565b7f4552433732313a207472616e736665722066726f6d20696e636f72726563742060008201527f6f776e6572000000000000000000000000000000000000000000000000000000602082015250565b7f4552433732313a20746f6b656e20616c7265616479206d696e74656400000000600082015250565b7f4552433732313a207472616e7366657220746f20746865207a65726f2061646460008201527f7265737300000000000000000000000000000000000000000000000000000000602082015250565b7f4552433732313a20617070726f766520746f2063616c6c657200000000000000600082015250565b7f4552433732313a206f70657261746f7220717565727920666f72206e6f6e657860008201527f697374656e7420746f6b656e0000000000000000000000000000000000000000602082015250565b7f4552433732313a20617070726f76652063616c6c6572206973206e6f74206f7760008201527f6e6572206e6f7220617070726f76656420666f7220616c6c0000000000000000602082015250565b7f4552433732313a2062616c616e636520717565727920666f7220746865207a6560008201527f726f206164647265737300000000000000000000000000000000000000000000602082015250565b7f4552433732313a206f776e657220717565727920666f72206e6f6e657869737460008201527f656e7420746f6b656e0000000000000000000000000000000000000000000000602082015250565b7f45524337323155524953746f726167653a2055524920736574206f66206e6f6e60008201527f6578697374656e7420746f6b656e000000000000000000000000000000000000602082015250565b7f4552433732313a206d696e7420746f20746865207a65726f2061646472657373600082015250565b7f45524337323155524953746f726167653a2055524920717565727920666f722060008201527f6e6f6e6578697374656e7420746f6b656e000000000000000000000000000000602082015250565b7f4552433732313a20617070726f76656420717565727920666f72206e6f6e657860008201527f697374656e7420746f6b656e0000000000000000000000000000000000000000602082015250565b7f4f776e61626c653a2063616c6c6572206973206e6f7420746865206f776e6572600082015250565b7f4552433732314d657461646174613a2055524920717565727920666f72206e6f60008201527f6e6578697374656e7420746f6b656e0000000000000000000000000000000000602082015250565b7f4552433732313a20617070726f76616c20746f2063757272656e74206f776e6560008201527f7200000000000000000000000000000000000000000000000000000000000000602082015250565b7f4552433732313a207472616e736665722063616c6c6572206973206e6f74206f60008201527f776e6572206e6f7220617070726f766564000000000000000000000000000000602082015250565b61326d81612acb565b811461327857600080fd5b50565b61328481612add565b811461328f57600080fd5b50565b61329b81612ae9565b81146132a657600080fd5b50565b6132b281612b35565b81146132bd57600080fd5b5056fea264697066735822122043a80e40df23acffb9993bc8e0c4156076f1b97182d8387b8788f52ccca612d564736f6c63430008060033",
  "immutableReferences": {},
  "source": "// contracts/GameItem.sol\r\n// SPDX-License-Identifier: MIT\r\npragma solidity ^0.8.0;\r\n\r\nimport \"@openzeppelin/contracts/token/ERC721/ERC721.sol\";\r\nimport \"@openzeppelin/contracts/token/ERC721/extensions/ERC721URIStorage.sol\";\r\nimport \"@openzeppelin/contracts/utils/Counters.sol\";\r\nimport \"@openzeppelin/contracts/access/Ownable.sol\";\r\nimport \"@openzeppelin/contracts/utils/structs/EnumerableSet.sol\";\r\n\r\ncontract DauDQCoin is ERC721, ERC721URIStorage, Ownable {\r\n    using Counters for Counters.Counter;\r\n    using EnumerableSet for EnumerableSet.UintSet;\r\n\r\n    Counters.Counter private _tokenIds;\r\n\r\n    mapping(address => EnumerableSet.UintSet) private ListNFTIDs;\r\n\r\n    constructor() ERC721(\"DauDQ Coin\", \"DQDC\") {}\r\n\r\n    // The following functions are overrides required by Solidity.\r\n\r\n    function _burn(uint256 tokenId) internal override(ERC721, ERC721URIStorage) {\r\n        super._burn(tokenId);\r\n    }\r\n\r\n    function tokenURI(uint256 tokenId)\r\n        public\r\n        view\r\n        override(ERC721, ERC721URIStorage)\r\n        returns (string memory)\r\n    {\r\n        return super.tokenURI(tokenId);\r\n    }\r\n\r\n    function mintItem(address player, address contractAddress, string memory uri)\r\n        public\r\n        onlyOwner\r\n        returns (uint256)\r\n    {\r\n        _tokenIds.increment();\r\n\r\n        uint256 newItemId = _tokenIds.current();\r\n        _mint(player, newItemId);\r\n        _setTokenURI(newItemId, uri);\r\n        setApprovalForAll(contractAddress, true);\r\n        return newItemId;\r\n    }\r\n    \r\n    function getNFTsByOwner(address owner_add) \r\n        public \r\n        view \r\n        returns (uint256[] memory) \r\n    {\r\n        uint totalItemCount = _tokenIds.current();\r\n        uint itemCount = 0;\r\n        uint currentIndex = 0;\r\n\r\n        for (uint i = 1; i <= totalItemCount; i++) {\r\n            if (_exists(i) && ownerOf(i) == owner_add) {\r\n                itemCount += 1;\r\n            }\r\n        }\r\n\r\n        uint256[] memory tokenIDs = new uint256[](itemCount);\r\n        for (uint i = 1; i <= totalItemCount; i++) {\r\n            if (_exists(i) && ownerOf(i) == owner_add) {\r\n                tokenIDs[currentIndex] = i;\r\n                currentIndex += 1;\r\n            }\r\n        }\r\n    \r\n        return tokenIDs;\r\n    }\r\n}",
  "sourcePath": "/home/doanquydau/gamota_projects/nft-react-boilerplate/src/truffle/contracts/DauDQCoin.sol",
  "compiler": {
    "name": "solc",
    "version": "0.8.6+commit.11564f7e.Emscripten.clang"
  },
  "schemaVersion": "3.4.4",
  "updatedAt": "2022-02-14T11:14:10.527Z",
  "networkType": "ethereum",
  "devdoc": {
    "kind": "dev",
    "methods": {
      "approve(address,uint256)": {
        "details": "See {IERC721-approve}."
      },
      "balanceOf(address)": {
        "details": "See {IERC721-balanceOf}."
      },
      "getApproved(uint256)": {
        "details": "See {IERC721-getApproved}."
      },
      "isApprovedForAll(address,address)": {
        "details": "See {IERC721-isApprovedForAll}."
      },
      "name()": {
        "details": "See {IERC721Metadata-name}."
      },
      "owner()": {
        "details": "Returns the address of the current owner."
      },
      "ownerOf(uint256)": {
        "details": "See {IERC721-ownerOf}."
      },
      "renounceOwnership()": {
        "details": "Leaves the contract without owner. It will not be possible to call `onlyOwner` functions anymore. Can only be called by the current owner. NOTE: Renouncing ownership will leave the contract without an owner, thereby removing any functionality that is only available to the owner."
      },
      "safeTransferFrom(address,address,uint256)": {
        "details": "See {IERC721-safeTransferFrom}."
      },
      "safeTransferFrom(address,address,uint256,bytes)": {
        "details": "See {IERC721-safeTransferFrom}."
      },
      "setApprovalForAll(address,bool)": {
        "details": "See {IERC721-setApprovalForAll}."
      },
      "supportsInterface(bytes4)": {
        "details": "See {IERC165-supportsInterface}."
      },
      "symbol()": {
        "details": "See {IERC721Metadata-symbol}."
      },
      "transferFrom(address,address,uint256)": {
        "details": "See {IERC721-transferFrom}."
      },
      "transferOwnership(address)": {
        "details": "Transfers ownership of the contract to a new account (`newOwner`). Can only be called by the current owner."
      }
    },
    "version": 1
  },
  "userdoc": {
    "kind": "user",
    "methods": {},
    "version": 1
  }
}