{
  "contractName": "GamotaHero",
  "abi": [
    {
      "inputs": [],
      "stateMutability": "nonpayable",
      "type": "constructor"
    },
    {
      "anonymous": false,
      "inputs": [
        {
          "indexed": true,
          "internalType": "address",
          "name": "account",
          "type": "address"
        },
        {
          "indexed": true,
          "internalType": "address",
          "name": "operator",
          "type": "address"
        },
        {
          "indexed": false,
          "internalType": "bool",
          "name": "approved",
          "type": "bool"
        }
      ],
      "name": "ApprovalForAll",
      "type": "event"
    },
    {
      "anonymous": false,
      "inputs": [
        {
          "indexed": true,
          "internalType": "address",
          "name": "operator",
          "type": "address"
        },
        {
          "indexed": true,
          "internalType": "address",
          "name": "from",
          "type": "address"
        },
        {
          "indexed": true,
          "internalType": "address",
          "name": "to",
          "type": "address"
        },
        {
          "indexed": false,
          "internalType": "uint256[]",
          "name": "ids",
          "type": "uint256[]"
        },
        {
          "indexed": false,
          "internalType": "uint256[]",
          "name": "values",
          "type": "uint256[]"
        }
      ],
      "name": "TransferBatch",
      "type": "event"
    },
    {
      "anonymous": false,
      "inputs": [
        {
          "indexed": true,
          "internalType": "address",
          "name": "operator",
          "type": "address"
        },
        {
          "indexed": true,
          "internalType": "address",
          "name": "from",
          "type": "address"
        },
        {
          "indexed": true,
          "internalType": "address",
          "name": "to",
          "type": "address"
        },
        {
          "indexed": false,
          "internalType": "uint256",
          "name": "id",
          "type": "uint256"
        },
        {
          "indexed": false,
          "internalType": "uint256",
          "name": "value",
          "type": "uint256"
        }
      ],
      "name": "TransferSingle",
      "type": "event"
    },
    {
      "anonymous": false,
      "inputs": [
        {
          "indexed": false,
          "internalType": "string",
          "name": "value",
          "type": "string"
        },
        {
          "indexed": true,
          "internalType": "uint256",
          "name": "id",
          "type": "uint256"
        }
      ],
      "name": "URI",
      "type": "event"
    },
    {
      "inputs": [],
      "name": "ANH",
      "outputs": [
        {
          "internalType": "uint256",
          "name": "",
          "type": "uint256"
        }
      ],
      "stateMutability": "view",
      "type": "function"
    },
    {
      "inputs": [],
      "name": "CONG",
      "outputs": [
        {
          "internalType": "uint256",
          "name": "",
          "type": "uint256"
        }
      ],
      "stateMutability": "view",
      "type": "function"
    },
    {
      "inputs": [],
      "name": "DAU",
      "outputs": [
        {
          "internalType": "uint256",
          "name": "",
          "type": "uint256"
        }
      ],
      "stateMutability": "view",
      "type": "function"
    },
    {
      "inputs": [],
      "name": "HIEP",
      "outputs": [
        {
          "internalType": "uint256",
          "name": "",
          "type": "uint256"
        }
      ],
      "stateMutability": "view",
      "type": "function"
    },
    {
      "inputs": [],
      "name": "KHANG",
      "outputs": [
        {
          "internalType": "uint256",
          "name": "",
          "type": "uint256"
        }
      ],
      "stateMutability": "view",
      "type": "function"
    },
    {
      "inputs": [],
      "name": "SON",
      "outputs": [
        {
          "internalType": "uint256",
          "name": "",
          "type": "uint256"
        }
      ],
      "stateMutability": "view",
      "type": "function"
    },
    {
      "inputs": [],
      "name": "THANH",
      "outputs": [
        {
          "internalType": "uint256",
          "name": "",
          "type": "uint256"
        }
      ],
      "stateMutability": "view",
      "type": "function"
    },
    {
      "inputs": [],
      "name": "THUY",
      "outputs": [
        {
          "internalType": "uint256",
          "name": "",
          "type": "uint256"
        }
      ],
      "stateMutability": "view",
      "type": "function"
    },
    {
      "inputs": [],
      "name": "TUE",
      "outputs": [
        {
          "internalType": "uint256",
          "name": "",
          "type": "uint256"
        }
      ],
      "stateMutability": "view",
      "type": "function"
    },
    {
      "inputs": [],
      "name": "UYEN",
      "outputs": [
        {
          "internalType": "uint256",
          "name": "",
          "type": "uint256"
        }
      ],
      "stateMutability": "view",
      "type": "function"
    },
    {
      "inputs": [
        {
          "internalType": "address",
          "name": "account",
          "type": "address"
        },
        {
          "internalType": "uint256",
          "name": "id",
          "type": "uint256"
        }
      ],
      "name": "balanceOf",
      "outputs": [
        {
          "internalType": "uint256",
          "name": "",
          "type": "uint256"
        }
      ],
      "stateMutability": "view",
      "type": "function"
    },
    {
      "inputs": [
        {
          "internalType": "address[]",
          "name": "accounts",
          "type": "address[]"
        },
        {
          "internalType": "uint256[]",
          "name": "ids",
          "type": "uint256[]"
        }
      ],
      "name": "balanceOfBatch",
      "outputs": [
        {
          "internalType": "uint256[]",
          "name": "",
          "type": "uint256[]"
        }
      ],
      "stateMutability": "view",
      "type": "function"
    },
    {
      "inputs": [
        {
          "internalType": "address",
          "name": "account",
          "type": "address"
        },
        {
          "internalType": "address",
          "name": "operator",
          "type": "address"
        }
      ],
      "name": "isApprovedForAll",
      "outputs": [
        {
          "internalType": "bool",
          "name": "",
          "type": "bool"
        }
      ],
      "stateMutability": "view",
      "type": "function"
    },
    {
      "inputs": [
        {
          "internalType": "address",
          "name": "from",
          "type": "address"
        },
        {
          "internalType": "address",
          "name": "to",
          "type": "address"
        },
        {
          "internalType": "uint256[]",
          "name": "ids",
          "type": "uint256[]"
        },
        {
          "internalType": "uint256[]",
          "name": "amounts",
          "type": "uint256[]"
        },
        {
          "internalType": "bytes",
          "name": "data",
          "type": "bytes"
        }
      ],
      "name": "safeBatchTransferFrom",
      "outputs": [],
      "stateMutability": "nonpayable",
      "type": "function"
    },
    {
      "inputs": [
        {
          "internalType": "address",
          "name": "from",
          "type": "address"
        },
        {
          "internalType": "address",
          "name": "to",
          "type": "address"
        },
        {
          "internalType": "uint256",
          "name": "id",
          "type": "uint256"
        },
        {
          "internalType": "uint256",
          "name": "amount",
          "type": "uint256"
        },
        {
          "internalType": "bytes",
          "name": "data",
          "type": "bytes"
        }
      ],
      "name": "safeTransferFrom",
      "outputs": [],
      "stateMutability": "nonpayable",
      "type": "function"
    },
    {
      "inputs": [
        {
          "internalType": "address",
          "name": "operator",
          "type": "address"
        },
        {
          "internalType": "bool",
          "name": "approved",
          "type": "bool"
        }
      ],
      "name": "setApprovalForAll",
      "outputs": [],
      "stateMutability": "nonpayable",
      "type": "function"
    },
    {
      "inputs": [
        {
          "internalType": "bytes4",
          "name": "interfaceId",
          "type": "bytes4"
        }
      ],
      "name": "supportsInterface",
      "outputs": [
        {
          "internalType": "bool",
          "name": "",
          "type": "bool"
        }
      ],
      "stateMutability": "view",
      "type": "function"
    },
    {
      "inputs": [
        {
          "internalType": "uint256",
          "name": "",
          "type": "uint256"
        }
      ],
      "name": "uri",
      "outputs": [
        {
          "internalType": "string",
          "name": "",
          "type": "string"
        }
      ],
      "stateMutability": "view",
      "type": "function"
    },
    {
      "inputs": [],
      "name": "mintHero",
      "outputs": [],
      "stateMutability": "nonpayable",
      "type": "function"
    },
    {
      "inputs": [
        {
          "internalType": "address",
          "name": "from",
          "type": "address"
        },
        {
          "internalType": "address",
          "name": "to",
          "type": "address"
        },
        {
          "internalType": "uint256",
          "name": "id",
          "type": "uint256"
        },
        {
          "internalType": "bytes",
          "name": "data",
          "type": "bytes"
        }
      ],
      "name": "claimHero",
      "outputs": [],
      "stateMutability": "nonpayable",
      "type": "function"
    },
    {
      "inputs": [
        {
          "internalType": "uint256",
          "name": "tokenId",
          "type": "uint256"
        }
      ],
      "name": "tokenUri",
      "outputs": [
        {
          "internalType": "string",
          "name": "",
          "type": "string"
        }
      ],
      "stateMutability": "view",
      "type": "function"
    },
    {
      "inputs": [
        {
          "internalType": "address",
          "name": "from",
          "type": "address"
        },
        {
          "internalType": "uint256",
          "name": "tokenId",
          "type": "uint256"
        }
      ],
      "name": "isOwnerOf",
      "outputs": [
        {
          "internalType": "bool",
          "name": "",
          "type": "bool"
        }
      ],
      "stateMutability": "view",
      "type": "function"
    }
  ],
  "bytecode": "0x6080604052604051806101400160405280600181526020016002815260200160038152602001600581526020016004815260200160068152602001600781526020016008815260200160098152602001600a815250600390600a6200006692919062000158565b506040518061014001604052806103e861ffff1681526020016103e861ffff1681526020016103e861ffff1681526020016103e861ffff1681526020016103e861ffff1681526020016103e861ffff1681526020016103e861ffff1681526020016103e861ffff1681526020016103e861ffff1681526020016103e861ffff16815250600490600a620000fb929190620001aa565b503480156200010957600080fd5b5060405180606001604052806031815260200162002fb06031913962000135816200013c60201b60201c565b5062000317565b80600290805190602001906200015492919062000202565b5050565b82805482825590600052602060002090810192821562000197579160200282015b828111156200019657825182559160200191906001019062000179565b5b509050620001a6919062000293565b5090565b828054828255906000526020600020908101928215620001ef579160200282015b82811115620001ee578251829061ffff16905591602001919060010190620001cb565b5b509050620001fe919062000293565b5090565b8280546200021090620002b2565b90600052602060002090601f01602090048101928262000234576000855562000280565b82601f106200024f57805160ff191683800117855562000280565b8280016001018555821562000280579182015b828111156200027f57825182559160200191906001019062000262565b5b5090506200028f919062000293565b5090565b5b80821115620002ae57600081600090555060010162000294565b5090565b60006002820490506001821680620002cb57607f821691505b60208210811415620002e257620002e1620002e8565b5b50919050565b7f4e487b7100000000000000000000000000000000000000000000000000000000600052602260045260246000fd5b612c8980620003276000396000f3fe608060405234801561001057600080fd5b50600436106101415760003560e01c80639e607efa116100b8578063bceb47be1161007c578063bceb47be1461037a578063c5b8f77214610398578063e881e6d1146103c8578063e9200337146103e6578063e985e9c5146103f0578063f242432a1461042057610141565b80639e607efa146102e8578063a1dc201114610304578063a22cb46514610322578063a232737c1461033e578063afc1b54f1461035c57610141565b806334592e121161010a57806334592e121461022257806338bf2ff1146102405780634e1273f41461025e5780636d284d261461028e578063887d3461146102ac57806389c39224146102ca57610141565b8062fdd58e1461014657806301ffc9a7146101765780630e89341c146101a65780631675f455146101d65780632eb2c2d614610206575b600080fd5b610160600480360381019061015b9190611d30565b61043c565b60405161016d91906123cc565b60405180910390f35b610190600480360381019061018b9190611de8565b610505565b60405161019d919061222f565b60405180910390f35b6101c060048036038101906101bb9190611e42565b6105e7565b6040516101cd919061224a565b60405180910390f35b6101f060048036038101906101eb9190611e42565b61067b565b6040516101fd919061224a565b60405180910390f35b610220600480360381019061021b9190611b07565b61068d565b005b61022a61072e565b60405161023791906123cc565b60405180910390f35b610248610733565b60405161025591906123cc565b60405180910390f35b61027860048036038101906102739190611d70565b610738565b60405161028591906121d6565b60405180910390f35b610296610851565b6040516102a391906123cc565b60405180910390f35b6102b4610856565b6040516102c191906123cc565b60405180910390f35b6102d261085b565b6040516102df91906123cc565b60405180910390f35b61030260048036038101906102fd9190611bd6565b610860565b005b61030c610874565b60405161031991906123cc565b60405180910390f35b61033c60048036038101906103379190611cf0565b610879565b005b61034661088f565b60405161035391906123cc565b60405180910390f35b610364610894565b60405161037191906123cc565b60405180910390f35b610382610899565b60405161038f91906123cc565b60405180910390f35b6103b260048036038101906103ad9190611d30565b61089e565b6040516103bf919061222f565b60405180910390f35b6103d06108b5565b6040516103dd91906123cc565b60405180910390f35b6103ee6108ba565b005b61040a60048036038101906104059190611ac7565b610977565b604051610417919061222f565b60405180910390f35b61043a60048036038101906104359190611c59565b610a0b565b005b60008073ffffffffffffffffffffffffffffffffffffffff168373ffffffffffffffffffffffffffffffffffffffff1614156104ad576040517f08c379a00000000000000000000000000000000000000000000000000000000081526004016104a4906122ac565b60405180910390fd5b60008083815260200190815260200160002060008473ffffffffffffffffffffffffffffffffffffffff1673ffffffffffffffffffffffffffffffffffffffff16815260200190815260200160002054905092915050565b60007fd9b67a26000000000000000000000000000000000000000000000000000000007bffffffffffffffffffffffffffffffffffffffffffffffffffffffff1916827bffffffffffffffffffffffffffffffffffffffffffffffffffffffff191614806105d057507f0e89341c000000000000000000000000000000000000000000000000000000007bffffffffffffffffffffffffffffffffffffffffffffffffffffffff1916827bffffffffffffffffffffffffffffffffffffffffffffffffffffffff1916145b806105e057506105df82610aac565b5b9050919050565b6060600280546105f69061263b565b80601f01602080910402602001604051908101604052809291908181526020018280546106229061263b565b801561066f5780601f106106445761010080835404028352916020019161066f565b820191906000526020600020905b81548152906001019060200180831161065257829003601f168201915b50505050509050919050565b6060610686826105e7565b9050919050565b610695610b16565b73ffffffffffffffffffffffffffffffffffffffff168573ffffffffffffffffffffffffffffffffffffffff1614806106db57506106da856106d5610b16565b610977565b5b61071a576040517f08c379a00000000000000000000000000000000000000000000000000000000081526004016107119061230c565b60405180910390fd5b6107278585858585610b1e565b5050505050565b600681565b600481565b6060815183511461077e576040517f08c379a00000000000000000000000000000000000000000000000000000000081526004016107759061236c565b60405180910390fd5b6000835167ffffffffffffffff81111561079b5761079a612774565b5b6040519080825280602002602001820160405280156107c95781602001602082028036833780820191505090505b50905060005b8451811015610846576108168582815181106107ee576107ed612745565b5b602002602001015185838151811061080957610808612745565b5b602002602001015161043c565b82828151811061082957610828612745565b5b6020026020010181815250508061083f9061269e565b90506107cf565b508091505092915050565b600981565b600381565b600a81565b61086e848484600185610a0b565b50505050565b600881565b61088b610884610b16565b8383610e32565b5050565b600581565b600181565b600781565b6000806108ab848461043c565b1415905092915050565b600281565b61097533600380548060200260200160405190810160405280929190818152602001828054801561090a57602002820191906000526020600020905b8154815260200190600101908083116108f6575b5050505050600480548060200260200160405190810160405280929190818152602001828054801561095b57602002820191906000526020600020905b815481526020019060010190808311610947575b505050505060405180602001604052806000815250610f9f565b565b6000600160008473ffffffffffffffffffffffffffffffffffffffff1673ffffffffffffffffffffffffffffffffffffffff16815260200190815260200160002060008373ffffffffffffffffffffffffffffffffffffffff1673ffffffffffffffffffffffffffffffffffffffff16815260200190815260200160002060009054906101000a900460ff16905092915050565b610a13610b16565b73ffffffffffffffffffffffffffffffffffffffff168573ffffffffffffffffffffffffffffffffffffffff161480610a595750610a5885610a53610b16565b610977565b5b610a98576040517f08c379a0000000000000000000000000000000000000000000000000000000008152600401610a8f906122cc565b60405180910390fd5b610aa585858585856111bd565b5050505050565b60007f01ffc9a7000000000000000000000000000000000000000000000000000000007bffffffffffffffffffffffffffffffffffffffffffffffffffffffff1916827bffffffffffffffffffffffffffffffffffffffffffffffffffffffff1916149050919050565b600033905090565b8151835114610b62576040517f08c379a0000000000000000000000000000000000000000000000000000000008152600401610b599061238c565b60405180910390fd5b600073ffffffffffffffffffffffffffffffffffffffff168473ffffffffffffffffffffffffffffffffffffffff161415610bd2576040517f08c379a0000000000000000000000000000000000000000000000000000000008152600401610bc9906122ec565b60405180910390fd5b6000610bdc610b16565b9050610bec81878787878761143f565b60005b8451811015610d9d576000858281518110610c0d57610c0c612745565b5b602002602001015190506000858381518110610c2c57610c2b612745565b5b60200260200101519050600080600084815260200190815260200160002060008b73ffffffffffffffffffffffffffffffffffffffff1673ffffffffffffffffffffffffffffffffffffffff16815260200190815260200160002054905081811015610ccd576040517f08c379a0000000000000000000000000000000000000000000000000000000008152600401610cc49061232c565b60405180910390fd5b81810360008085815260200190815260200160002060008c73ffffffffffffffffffffffffffffffffffffffff1673ffffffffffffffffffffffffffffffffffffffff168152602001908152602001600020819055508160008085815260200190815260200160002060008b73ffffffffffffffffffffffffffffffffffffffff1673ffffffffffffffffffffffffffffffffffffffff1681526020019081526020016000206000828254610d82919061252f565b9250508190555050505080610d969061269e565b9050610bef565b508473ffffffffffffffffffffffffffffffffffffffff168673ffffffffffffffffffffffffffffffffffffffff168273ffffffffffffffffffffffffffffffffffffffff167f4a39dc06d4c0dbc64b70af90fd698a233a518aa5d07e595d983b8c0526c8f7fb8787604051610e149291906121f8565b60405180910390a4610e2a818787878787611447565b505050505050565b8173ffffffffffffffffffffffffffffffffffffffff168373ffffffffffffffffffffffffffffffffffffffff161415610ea1576040517f08c379a0000000000000000000000000000000000000000000000000000000008152600401610e989061234c565b60405180910390fd5b80600160008573ffffffffffffffffffffffffffffffffffffffff1673ffffffffffffffffffffffffffffffffffffffff16815260200190815260200160002060008473ffffffffffffffffffffffffffffffffffffffff1673ffffffffffffffffffffffffffffffffffffffff16815260200190815260200160002060006101000a81548160ff0219169083151502179055508173ffffffffffffffffffffffffffffffffffffffff168373ffffffffffffffffffffffffffffffffffffffff167f17307eab39ab6107e8899845ad3d59bd9653f200f220920489ca2b5937696c3183604051610f92919061222f565b60405180910390a3505050565b600073ffffffffffffffffffffffffffffffffffffffff168473ffffffffffffffffffffffffffffffffffffffff16141561100f576040517f08c379a0000000000000000000000000000000000000000000000000000000008152600401611006906123ac565b60405180910390fd5b8151835114611053576040517f08c379a000000000000000000000000000000000000000000000000000000000815260040161104a9061238c565b60405180910390fd5b600061105d610b16565b905061106e8160008787878761143f565b60005b84518110156111275783818151811061108d5761108c612745565b5b60200260200101516000808784815181106110ab576110aa612745565b5b6020026020010151815260200190815260200160002060008873ffffffffffffffffffffffffffffffffffffffff1673ffffffffffffffffffffffffffffffffffffffff168152602001908152602001600020600082825461110d919061252f565b92505081905550808061111f9061269e565b915050611071565b508473ffffffffffffffffffffffffffffffffffffffff16600073ffffffffffffffffffffffffffffffffffffffff168273ffffffffffffffffffffffffffffffffffffffff167f4a39dc06d4c0dbc64b70af90fd698a233a518aa5d07e595d983b8c0526c8f7fb878760405161119f9291906121f8565b60405180910390a46111b681600087878787611447565b5050505050565b600073ffffffffffffffffffffffffffffffffffffffff168473ffffffffffffffffffffffffffffffffffffffff16141561122d576040517f08c379a0000000000000000000000000000000000000000000000000000000008152600401611224906122ec565b60405180910390fd5b6000611237610b16565b90506112578187876112488861162e565b6112518861162e565b8761143f565b600080600086815260200190815260200160002060008873ffffffffffffffffffffffffffffffffffffffff1673ffffffffffffffffffffffffffffffffffffffff168152602001908152602001600020549050838110156112ee576040517f08c379a00000000000000000000000000000000000000000000000000000000081526004016112e59061232c565b60405180910390fd5b83810360008087815260200190815260200160002060008973ffffffffffffffffffffffffffffffffffffffff1673ffffffffffffffffffffffffffffffffffffffff168152602001908152602001600020819055508360008087815260200190815260200160002060008873ffffffffffffffffffffffffffffffffffffffff1673ffffffffffffffffffffffffffffffffffffffff16815260200190815260200160002060008282546113a3919061252f565b925050819055508573ffffffffffffffffffffffffffffffffffffffff168773ffffffffffffffffffffffffffffffffffffffff168373ffffffffffffffffffffffffffffffffffffffff167fc3d58168c5ae7397731d063d5bbf3d657854427343f4c083240f7aacaa2d0f6288886040516114209291906123e7565b60405180910390a46114368288888888886116a8565b50505050505050565b505050505050565b6114668473ffffffffffffffffffffffffffffffffffffffff1661188f565b15611626578373ffffffffffffffffffffffffffffffffffffffff1663bc197c8187878686866040518663ffffffff1660e01b81526004016114ac959493929190612114565b602060405180830381600087803b1580156114c657600080fd5b505af19250505080156114f757506040513d601f19601f820116820180604052508101906114f49190611e15565b60015b61159d576115036127a3565b806308c379a014156115605750611518612b61565b806115235750611562565b806040517f08c379a0000000000000000000000000000000000000000000000000000000008152600401611557919061224a565b60405180910390fd5b505b6040517f08c379a00000000000000000000000000000000000000000000000000000000081526004016115949061226c565b60405180910390fd5b63bc197c8160e01b7bffffffffffffffffffffffffffffffffffffffffffffffffffffffff1916817bffffffffffffffffffffffffffffffffffffffffffffffffffffffff191614611624576040517f08c379a000000000000000000000000000000000000000000000000000000000815260040161161b9061228c565b60405180910390fd5b505b505050505050565b60606000600167ffffffffffffffff81111561164d5761164c612774565b5b60405190808252806020026020018201604052801561167b5781602001602082028036833780820191505090505b509050828160008151811061169357611692612745565b5b60200260200101818152505080915050919050565b6116c78473ffffffffffffffffffffffffffffffffffffffff1661188f565b15611887578373ffffffffffffffffffffffffffffffffffffffff1663f23a6e6187878686866040518663ffffffff1660e01b815260040161170d95949392919061217c565b602060405180830381600087803b15801561172757600080fd5b505af192505050801561175857506040513d601f19601f820116820180604052508101906117559190611e15565b60015b6117fe576117646127a3565b806308c379a014156117c15750611779612b61565b8061178457506117c3565b806040517f08c379a00000000000000000000000000000000000000000000000000000000081526004016117b8919061224a565b60405180910390fd5b505b6040517f08c379a00000000000000000000000000000000000000000000000000000000081526004016117f59061226c565b60405180910390fd5b63f23a6e6160e01b7bffffffffffffffffffffffffffffffffffffffffffffffffffffffff1916817bffffffffffffffffffffffffffffffffffffffffffffffffffffffff191614611885576040517f08c379a000000000000000000000000000000000000000000000000000000000815260040161187c9061228c565b60405180910390fd5b505b505050505050565b6000808273ffffffffffffffffffffffffffffffffffffffff163b119050919050565b60006118c56118c084612435565b612410565b905080838252602082019050828560208602820111156118e8576118e76127ca565b5b60005b8581101561191857816118fe88826119d4565b8452602084019350602083019250506001810190506118eb565b5050509392505050565b600061193561193084612461565b612410565b90508083825260208201905082856020860282011115611958576119576127ca565b5b60005b85811015611988578161196e8882611ab2565b84526020840193506020830192505060018101905061195b565b5050509392505050565b60006119a56119a08461248d565b612410565b9050828152602081018484840111156119c1576119c06127cf565b5b6119cc8482856125f9565b509392505050565b6000813590506119e381612bf7565b92915050565b600082601f8301126119fe576119fd6127c5565b5b8135611a0e8482602086016118b2565b91505092915050565b600082601f830112611a2c57611a2b6127c5565b5b8135611a3c848260208601611922565b91505092915050565b600081359050611a5481612c0e565b92915050565b600081359050611a6981612c25565b92915050565b600081519050611a7e81612c25565b92915050565b600082601f830112611a9957611a986127c5565b5b8135611aa9848260208601611992565b91505092915050565b600081359050611ac181612c3c565b92915050565b60008060408385031215611ade57611add6127d9565b5b6000611aec858286016119d4565b9250506020611afd858286016119d4565b9150509250929050565b600080600080600060a08688031215611b2357611b226127d9565b5b6000611b31888289016119d4565b9550506020611b42888289016119d4565b945050604086013567ffffffffffffffff811115611b6357611b626127d4565b5b611b6f88828901611a17565b935050606086013567ffffffffffffffff811115611b9057611b8f6127d4565b5b611b9c88828901611a17565b925050608086013567ffffffffffffffff811115611bbd57611bbc6127d4565b5b611bc988828901611a84565b9150509295509295909350565b60008060008060808587031215611bf057611bef6127d9565b5b6000611bfe878288016119d4565b9450506020611c0f878288016119d4565b9350506040611c2087828801611ab2565b925050606085013567ffffffffffffffff811115611c4157611c406127d4565b5b611c4d87828801611a84565b91505092959194509250565b600080600080600060a08688031215611c7557611c746127d9565b5b6000611c83888289016119d4565b9550506020611c94888289016119d4565b9450506040611ca588828901611ab2565b9350506060611cb688828901611ab2565b925050608086013567ffffffffffffffff811115611cd757611cd66127d4565b5b611ce388828901611a84565b9150509295509295909350565b60008060408385031215611d0757611d066127d9565b5b6000611d15858286016119d4565b9250506020611d2685828601611a45565b9150509250929050565b60008060408385031215611d4757611d466127d9565b5b6000611d55858286016119d4565b9250506020611d6685828601611ab2565b9150509250929050565b60008060408385031215611d8757611d866127d9565b5b600083013567ffffffffffffffff811115611da557611da46127d4565b5b611db1858286016119e9565b925050602083013567ffffffffffffffff811115611dd257611dd16127d4565b5b611dde85828601611a17565b9150509250929050565b600060208284031215611dfe57611dfd6127d9565b5b6000611e0c84828501611a5a565b91505092915050565b600060208284031215611e2b57611e2a6127d9565b5b6000611e3984828501611a6f565b91505092915050565b600060208284031215611e5857611e576127d9565b5b6000611e6684828501611ab2565b91505092915050565b6000611e7b83836120f6565b60208301905092915050565b611e9081612585565b82525050565b6000611ea1826124ce565b611eab81856124fc565b9350611eb6836124be565b8060005b83811015611ee7578151611ece8882611e6f565b9750611ed9836124ef565b925050600181019050611eba565b5085935050505092915050565b611efd81612597565b82525050565b6000611f0e826124d9565b611f18818561250d565b9350611f28818560208601612608565b611f31816127de565b840191505092915050565b6000611f47826124e4565b611f51818561251e565b9350611f61818560208601612608565b611f6a816127de565b840191505092915050565b6000611f8260348361251e565b9150611f8d826127fc565b604082019050919050565b6000611fa560288361251e565b9150611fb08261284b565b604082019050919050565b6000611fc8602b8361251e565b9150611fd38261289a565b604082019050919050565b6000611feb60298361251e565b9150611ff6826128e9565b604082019050919050565b600061200e60258361251e565b915061201982612938565b604082019050919050565b600061203160328361251e565b915061203c82612987565b604082019050919050565b6000612054602a8361251e565b915061205f826129d6565b604082019050919050565b600061207760298361251e565b915061208282612a25565b604082019050919050565b600061209a60298361251e565b91506120a582612a74565b604082019050919050565b60006120bd60288361251e565b91506120c882612ac3565b604082019050919050565b60006120e060218361251e565b91506120eb82612b12565b604082019050919050565b6120ff816125ef565b82525050565b61210e816125ef565b82525050565b600060a0820190506121296000830188611e87565b6121366020830187611e87565b81810360408301526121488186611e96565b9050818103606083015261215c8185611e96565b905081810360808301526121708184611f03565b90509695505050505050565b600060a0820190506121916000830188611e87565b61219e6020830187611e87565b6121ab6040830186612105565b6121b86060830185612105565b81810360808301526121ca8184611f03565b90509695505050505050565b600060208201905081810360008301526121f08184611e96565b905092915050565b600060408201905081810360008301526122128185611e96565b905081810360208301526122268184611e96565b90509392505050565b60006020820190506122446000830184611ef4565b92915050565b600060208201905081810360008301526122648184611f3c565b905092915050565b6000602082019050818103600083015261228581611f75565b9050919050565b600060208201905081810360008301526122a581611f98565b9050919050565b600060208201905081810360008301526122c581611fbb565b9050919050565b600060208201905081810360008301526122e581611fde565b9050919050565b6000602082019050818103600083015261230581612001565b9050919050565b6000602082019050818103600083015261232581612024565b9050919050565b6000602082019050818103600083015261234581612047565b9050919050565b600060208201905081810360008301526123658161206a565b9050919050565b600060208201905081810360008301526123858161208d565b9050919050565b600060208201905081810360008301526123a5816120b0565b9050919050565b600060208201905081810360008301526123c5816120d3565b9050919050565b60006020820190506123e16000830184612105565b92915050565b60006040820190506123fc6000830185612105565b6124096020830184612105565b9392505050565b600061241a61242b565b9050612426828261266d565b919050565b6000604051905090565b600067ffffffffffffffff8211156124505761244f612774565b5b602082029050602081019050919050565b600067ffffffffffffffff82111561247c5761247b612774565b5b602082029050602081019050919050565b600067ffffffffffffffff8211156124a8576124a7612774565b5b6124b1826127de565b9050602081019050919050565b6000819050602082019050919050565b600081519050919050565b600081519050919050565b600081519050919050565b6000602082019050919050565b600082825260208201905092915050565b600082825260208201905092915050565b600082825260208201905092915050565b600061253a826125ef565b9150612545836125ef565b9250827fffffffffffffffffffffffffffffffffffffffffffffffffffffffffffffffff0382111561257a576125796126e7565b5b828201905092915050565b6000612590826125cf565b9050919050565b60008115159050919050565b60007fffffffff0000000000000000000000000000000000000000000000000000000082169050919050565b600073ffffffffffffffffffffffffffffffffffffffff82169050919050565b6000819050919050565b82818337600083830152505050565b60005b8381101561262657808201518184015260208101905061260b565b83811115612635576000848401525b50505050565b6000600282049050600182168061265357607f821691505b6020821081141561266757612666612716565b5b50919050565b612676826127de565b810181811067ffffffffffffffff8211171561269557612694612774565b5b80604052505050565b60006126a9826125ef565b91507fffffffffffffffffffffffffffffffffffffffffffffffffffffffffffffffff8214156126dc576126db6126e7565b5b600182019050919050565b7f4e487b7100000000000000000000000000000000000000000000000000000000600052601160045260246000fd5b7f4e487b7100000000000000000000000000000000000000000000000000000000600052602260045260246000fd5b7f4e487b7100000000000000000000000000000000000000000000000000000000600052603260045260246000fd5b7f4e487b7100000000000000000000000000000000000000000000000000000000600052604160045260246000fd5b600060033d11156127c25760046000803e6127bf6000516127ef565b90505b90565b600080fd5b600080fd5b600080fd5b600080fd5b600080fd5b6000601f19601f8301169050919050565b60008160e01c9050919050565b7f455243313135353a207472616e7366657220746f206e6f6e204552433131353560008201527f526563656976657220696d706c656d656e746572000000000000000000000000602082015250565b7f455243313135353a204552433131353552656365697665722072656a6563746560008201527f6420746f6b656e73000000000000000000000000000000000000000000000000602082015250565b7f455243313135353a2062616c616e636520717565727920666f7220746865207a60008201527f65726f2061646472657373000000000000000000000000000000000000000000602082015250565b7f455243313135353a2063616c6c6572206973206e6f74206f776e6572206e6f7260008201527f20617070726f7665640000000000000000000000000000000000000000000000602082015250565b7f455243313135353a207472616e7366657220746f20746865207a65726f20616460008201527f6472657373000000000000000000000000000000000000000000000000000000602082015250565b7f455243313135353a207472616e736665722063616c6c6572206973206e6f742060008201527f6f776e6572206e6f7220617070726f7665640000000000000000000000000000602082015250565b7f455243313135353a20696e73756666696369656e742062616c616e636520666f60008201527f72207472616e7366657200000000000000000000000000000000000000000000602082015250565b7f455243313135353a2073657474696e6720617070726f76616c2073746174757360008201527f20666f722073656c660000000000000000000000000000000000000000000000602082015250565b7f455243313135353a206163636f756e747320616e6420696473206c656e67746860008201527f206d69736d617463680000000000000000000000000000000000000000000000602082015250565b7f455243313135353a2069647320616e6420616d6f756e7473206c656e6774682060008201527f6d69736d61746368000000000000000000000000000000000000000000000000602082015250565b7f455243313135353a206d696e7420746f20746865207a65726f2061646472657360008201527f7300000000000000000000000000000000000000000000000000000000000000602082015250565b600060443d1015612b7157612bf4565b612b7961242b565b60043d036004823e80513d602482011167ffffffffffffffff82111715612ba1575050612bf4565b808201805167ffffffffffffffff811115612bbf5750505050612bf4565b80602083010160043d038501811115612bdc575050505050612bf4565b612beb8260200185018661266d565b82955050505050505b90565b612c0081612585565b8114612c0b57600080fd5b50565b612c1781612597565b8114612c2257600080fd5b50565b612c2e816125a3565b8114612c3957600080fd5b50565b612c45816125ef565b8114612c5057600080fd5b5056fea264697066735822122076429242a2af80885d5487f09c2f50413ad9b23e806386fb02afcffe6e491c4a64736f6c6343000806003368747470733a2f2f6465762e63616b69656d2e67616d6f74612e636f6d2f746f6b656e5f7572692f7b69647d2e6a736f6e",
  "immutableReferences": {},
  "source": "// contracts/GameItems.sol\r\n// SPDX-License-Identifier: MIT\r\npragma solidity ^0.8.6;\r\n\r\nimport \"@openzeppelin/contracts/token/ERC1155/ERC1155.sol\";\r\n\r\ncontract GamotaHero is ERC1155 {\r\n    uint256 public constant THANH = 1;\r\n    uint256 public constant TUE = 2;\r\n    uint256 public constant KHANG = 3;\r\n    uint256 public constant SON = 4;\r\n    uint256 public constant DAU = 5;\r\n    uint256 public constant CONG = 6;\r\n    uint256 public constant ANH = 7;\r\n    uint256 public constant UYEN = 8;\r\n    uint256 public constant THUY = 9;\r\n    uint256 public constant HIEP = 10;\r\n\r\n    uint256[] hero_ids = [THANH, TUE, KHANG, DAU, SON, CONG, ANH, UYEN, THUY, HIEP];\r\n    uint256[] hero_amount = [1000, 1000, 1000, 1000, 1000, 1000, 1000, 1000, 1000, 1000];\r\n\r\n    constructor() public ERC1155(\"https://dev.cakiem.gamota.com/token_uri/{id}.json\") {\r\n        //\r\n    }\r\n\r\n    function mintHero() public {\r\n        _mintBatch(msg.sender, hero_ids, hero_amount, \"\");\r\n    }\r\n\r\n    /**\r\n     * @dev See {IERC1155-safeTransferFrom}.\r\n     */\r\n    function claimHero(\r\n        address from,\r\n        address to,\r\n        uint256 id,\r\n        bytes memory data\r\n    ) public {\r\n        safeTransferFrom(from, to, id, 1, data);\r\n    }\r\n\r\n    function tokenUri(uint256 tokenId) public view returns (string memory) {\r\n        return uri(tokenId);\r\n    }\r\n\r\n    function isOwnerOf(address from, uint256 tokenId) public view returns (bool) {\r\n        return balanceOf(from, tokenId) != 0;\r\n    }\r\n}",
  "sourcePath": "/home/doanquydau/gamota_projects/nft-react-boilerplate/src/truffle/contracts/GamotaHero.sol",
  "compiler": {
    "name": "solc",
    "version": "0.8.6+commit.11564f7e.Emscripten.clang"
  },
  "schemaVersion": "3.4.4",
  "updatedAt": "2022-03-01T10:54:43.113Z",
  "devdoc": {
    "kind": "dev",
    "methods": {
      "balanceOf(address,uint256)": {
        "details": "See {IERC1155-balanceOf}. Requirements: - `account` cannot be the zero address."
      },
      "balanceOfBatch(address[],uint256[])": {
        "details": "See {IERC1155-balanceOfBatch}. Requirements: - `accounts` and `ids` must have the same length."
      },
      "claimHero(address,address,uint256,bytes)": {
        "details": "See {IERC1155-safeTransferFrom}."
      },
      "isApprovedForAll(address,address)": {
        "details": "See {IERC1155-isApprovedForAll}."
      },
      "safeBatchTransferFrom(address,address,uint256[],uint256[],bytes)": {
        "details": "See {IERC1155-safeBatchTransferFrom}."
      },
      "safeTransferFrom(address,address,uint256,uint256,bytes)": {
        "details": "See {IERC1155-safeTransferFrom}."
      },
      "setApprovalForAll(address,bool)": {
        "details": "See {IERC1155-setApprovalForAll}."
      },
      "supportsInterface(bytes4)": {
        "details": "See {IERC165-supportsInterface}."
      },
      "uri(uint256)": {
        "details": "See {IERC1155MetadataURI-uri}. This implementation returns the same URI for *all* token types. It relies on the token type ID substitution mechanism https://eips.ethereum.org/EIPS/eip-1155#metadata[defined in the EIP]. Clients calling this function must replace the `\\{id\\}` substring with the actual token type ID."
      }
    },
    "version": 1
  },
  "userdoc": {
    "kind": "user",
    "methods": {},
    "version": 1
  }
}