{
  "contractName": "NFTMarket",
  "abi": [
    {
      "anonymous": false,
      "inputs": [
        {
          "indexed": true,
          "internalType": "address",
          "name": "seller",
          "type": "address"
        },
        {
          "indexed": true,
          "internalType": "contract IERC721",
          "name": "nftAddress",
          "type": "address"
        },
        {
          "indexed": true,
          "internalType": "uint256",
          "name": "nftID",
          "type": "uint256"
        }
      ],
      "name": "CancelledListing",
      "type": "event"
    },
    {
      "anonymous": false,
      "inputs": [
        {
          "indexed": true,
          "internalType": "address",
          "name": "seller",
          "type": "address"
        },
        {
          "indexed": true,
          "internalType": "contract IERC721",
          "name": "nftAddress",
          "type": "address"
        },
        {
          "indexed": true,
          "internalType": "uint256",
          "name": "nftID",
          "type": "uint256"
        },
        {
          "indexed": false,
          "internalType": "uint256",
          "name": "newPrice",
          "type": "uint256"
        }
      ],
      "name": "ListingPriceChange",
      "type": "event"
    },
    {
      "anonymous": false,
      "inputs": [
        {
          "indexed": true,
          "internalType": "address",
          "name": "seller",
          "type": "address"
        },
        {
          "indexed": true,
          "internalType": "contract IERC721",
          "name": "nftAddress",
          "type": "address"
        },
        {
          "indexed": true,
          "internalType": "uint256",
          "name": "nftID",
          "type": "uint256"
        },
        {
          "indexed": false,
          "internalType": "uint256",
          "name": "price",
          "type": "uint256"
        }
      ],
      "name": "NewListing",
      "type": "event"
    },
    {
      "anonymous": false,
      "inputs": [
        {
          "indexed": true,
          "internalType": "address",
          "name": "previousOwner",
          "type": "address"
        },
        {
          "indexed": true,
          "internalType": "address",
          "name": "newOwner",
          "type": "address"
        }
      ],
      "name": "OwnershipTransferred",
      "type": "event"
    },
    {
      "anonymous": false,
      "inputs": [
        {
          "indexed": true,
          "internalType": "address",
          "name": "buyer",
          "type": "address"
        },
        {
          "indexed": false,
          "internalType": "address",
          "name": "seller",
          "type": "address"
        },
        {
          "indexed": true,
          "internalType": "contract IERC721",
          "name": "nftAddress",
          "type": "address"
        },
        {
          "indexed": true,
          "internalType": "uint256",
          "name": "nftID",
          "type": "uint256"
        },
        {
          "indexed": false,
          "internalType": "uint256",
          "name": "priceTax",
          "type": "uint256"
        },
        {
          "indexed": false,
          "internalType": "uint256",
          "name": "price",
          "type": "uint256"
        }
      ],
      "name": "PurchasedListing",
      "type": "event"
    },
    {
      "inputs": [],
      "name": "nftItem",
      "outputs": [
        {
          "internalType": "contract DauDQCoin",
          "name": "",
          "type": "address"
        }
      ],
      "stateMutability": "view",
      "type": "function",
      "constant": true
    },
    {
      "inputs": [],
      "name": "owner",
      "outputs": [
        {
          "internalType": "address",
          "name": "",
          "type": "address"
        }
      ],
      "stateMutability": "view",
      "type": "function",
      "constant": true
    },
    {
      "inputs": [],
      "name": "renounceOwnership",
      "outputs": [],
      "stateMutability": "nonpayable",
      "type": "function"
    },
    {
      "inputs": [
        {
          "internalType": "address",
          "name": "newOwner",
          "type": "address"
        }
      ],
      "name": "transferOwnership",
      "outputs": [],
      "stateMutability": "nonpayable",
      "type": "function"
    },
    {
      "inputs": [
        {
          "internalType": "contract DauDQCoin",
          "name": "_nftItem",
          "type": "address"
        }
      ],
      "name": "initialize",
      "outputs": [],
      "stateMutability": "nonpayable",
      "type": "function"
    },
    {
      "inputs": [
        {
          "internalType": "address",
          "name": "owner_addr",
          "type": "address"
        }
      ],
      "name": "getTokenIDsByOwner",
      "outputs": [
        {
          "internalType": "uint256[]",
          "name": "",
          "type": "uint256[]"
        }
      ],
      "stateMutability": "view",
      "type": "function",
      "constant": true
    },
    {
      "inputs": [
        {
          "internalType": "uint256",
          "name": "tokenID",
          "type": "uint256"
        }
      ],
      "name": "getTokenUriByID",
      "outputs": [
        {
          "internalType": "string",
          "name": "",
          "type": "string"
        }
      ],
      "stateMutability": "view",
      "type": "function",
      "constant": true
    },
    {
      "inputs": [
        {
          "internalType": "address",
          "name": "from",
          "type": "address"
        },
        {
          "internalType": "contract IERC721",
          "name": "nftAddress",
          "type": "address"
        },
        {
          "internalType": "uint256",
          "name": "tokenID",
          "type": "uint256"
        },
        {
          "internalType": "uint256",
          "name": "_price",
          "type": "uint256"
        }
      ],
      "name": "createNewListing",
      "outputs": [],
      "stateMutability": "nonpayable",
      "type": "function"
    },
    {
      "inputs": [
        {
          "internalType": "address",
          "name": "",
          "type": "address"
        },
        {
          "internalType": "address",
          "name": "",
          "type": "address"
        },
        {
          "internalType": "uint256",
          "name": "_id",
          "type": "uint256"
        },
        {
          "internalType": "bytes",
          "name": "",
          "type": "bytes"
        }
      ],
      "name": "onERC721Received",
      "outputs": [
        {
          "internalType": "bytes4",
          "name": "",
          "type": "bytes4"
        }
      ],
      "stateMutability": "view",
      "type": "function",
      "constant": true
    }
  ],
  "bytecode": "0x608060405234801561001057600080fd5b5061002d61002261003260201b60201c565b61003a60201b60201c565b6100ff565b600033905090565b60008060029054906101000a900473ffffffffffffffffffffffffffffffffffffffff16905081600060026101000a81548173ffffffffffffffffffffffffffffffffffffffff021916908373ffffffffffffffffffffffffffffffffffffffff1602179055508173ffffffffffffffffffffffffffffffffffffffff168173ffffffffffffffffffffffffffffffffffffffff167f8be0079c531659141344cd1fd0a4f28419497f9722a3daafe3b4186f6b6457e060405160405180910390a35050565b611bd38061010e6000396000f3fe608060405234801561001057600080fd5b50600436106100935760003560e01c80638da5cb5b116100665780638da5cb5b14610132578063a1e0501114610150578063c4d66de81461016e578063f2fde38b1461018a578063f32fceda146101a657610093565b8063150b7a0214610098578063715018a6146100c8578063749f98f4146100d25780638ad1ad4314610102575b600080fd5b6100b260048036038101906100ad9190611165565b6101c2565b6040516100bf91906115d2565b60405180910390f35b6100d06101d7565b005b6100ec60048036038101906100e79190611138565b61025f565b6040516100f991906115b0565b60405180910390f35b61011c60048036038101906101179190611340565b61031e565b6040516101299190611608565b60405180910390f35b61013a6103dd565b604051610147919061155e565b60405180910390f35b610158610406565b60405161016591906115ed565b60405180910390f35b610188600480360381019061018391906112ca565b61042c565b005b6101a4600480360381019061019f9190611138565b610552565b005b6101c060048036038101906101bb91906111ed565b61064a565b005b600063150b7a0260e01b905095945050505050565b6101df610974565b73ffffffffffffffffffffffffffffffffffffffff166101fd6103dd565b73ffffffffffffffffffffffffffffffffffffffff1614610253576040517f08c379a000000000000000000000000000000000000000000000000000000000815260040161024a906116aa565b60405180910390fd5b61025d600061097c565b565b60606000600160009054906101000a900473ffffffffffffffffffffffffffffffffffffffff1673ffffffffffffffffffffffffffffffffffffffff1663e2afe8b3846040518263ffffffff1660e01b81526004016102be919061155e565b60006040518083038186803b1580156102d657600080fd5b505afa1580156102ea573d6000803e3d6000fd5b505050506040513d6000823e3d601f19601f820116820180604052508101906103139190611254565b905080915050919050565b60606000600160009054906101000a900473ffffffffffffffffffffffffffffffffffffffff1673ffffffffffffffffffffffffffffffffffffffff1663c87b56dd846040518263ffffffff1660e01b815260040161037d91906116ca565b60006040518083038186803b15801561039557600080fd5b505afa1580156103a9573d6000803e3d6000fd5b505050506040513d6000823e3d601f19601f820116820180604052508101906103d291906112f7565b905080915050919050565b60008060029054906101000a900473ffffffffffffffffffffffffffffffffffffffff16905090565b600160009054906101000a900473ffffffffffffffffffffffffffffffffffffffff1681565b600060019054906101000a900460ff166104545760008054906101000a900460ff161561045d565b61045c610a41565b5b61049c576040517f08c379a00000000000000000000000000000000000000000000000000000000081526004016104939061168a565b60405180910390fd5b60008060019054906101000a900460ff1615905080156104ec576001600060016101000a81548160ff02191690831515021790555060016000806101000a81548160ff0219169083151502179055505b81600160006101000a81548173ffffffffffffffffffffffffffffffffffffffff021916908373ffffffffffffffffffffffffffffffffffffffff160217905550801561054e5760008060016101000a81548160ff0219169083151502179055505b5050565b61055a610974565b73ffffffffffffffffffffffffffffffffffffffff166105786103dd565b73ffffffffffffffffffffffffffffffffffffffff16146105ce576040517f08c379a00000000000000000000000000000000000000000000000000000000081526004016105c5906116aa565b60405180910390fd5b600073ffffffffffffffffffffffffffffffffffffffff168173ffffffffffffffffffffffffffffffffffffffff16141561063e576040517f08c379a00000000000000000000000000000000000000000000000000000000081526004016106359061162a565b60405180910390fd5b6106478161097c565b50565b8261065c816380ac58cd60e01b610a52565b61069b576040517f08c379a00000000000000000000000000000000000000000000000000000000081526004016106929061164a565b60405180910390fd5b83836106b1826002610a7790919063ffffffff16565b158061070b575061070981600760008573ffffffffffffffffffffffffffffffffffffffff1673ffffffffffffffffffffffffffffffffffffffff168152602001908152602001600020610aa790919063ffffffff16565b155b61074a576040517f08c379a00000000000000000000000000000000000000000000000000000000081526004016107419061166a565b60405180910390fd5b60405180604001604052808873ffffffffffffffffffffffffffffffffffffffff16815260200185815250600660008873ffffffffffffffffffffffffffffffffffffffff1673ffffffffffffffffffffffffffffffffffffffff168152602001908152602001600020600087815260200190815260200160002060008201518160000160006101000a81548173ffffffffffffffffffffffffffffffffffffffff021916908373ffffffffffffffffffffffffffffffffffffffff1602179055506020820151816001015590505061086a85600760008973ffffffffffffffffffffffffffffffffffffffff1673ffffffffffffffffffffffffffffffffffffffff168152602001908152602001600020610ac190919063ffffffff16565b5061087486610adb565b600160009054906101000a900473ffffffffffffffffffffffffffffffffffffffff1673ffffffffffffffffffffffffffffffffffffffff166342842e0e8830886040518463ffffffff1660e01b81526004016108d393929190611579565b600060405180830381600087803b1580156108ed57600080fd5b505af1158015610901573d6000803e3d6000fd5b50505050848673ffffffffffffffffffffffffffffffffffffffff168873ffffffffffffffffffffffffffffffffffffffff167f062bbf144ceb4ac73469f757015d16a5ba66b478ede809652e46b8f30750b4e58760405161096391906116ca565b60405180910390a450505050505050565b600033905090565b60008060029054906101000a900473ffffffffffffffffffffffffffffffffffffffff16905081600060026101000a81548173ffffffffffffffffffffffffffffffffffffffff021916908373ffffffffffffffffffffffffffffffffffffffff1602179055508173ffffffffffffffffffffffffffffffffffffffff168173ffffffffffffffffffffffffffffffffffffffff167f8be0079c531659141344cd1fd0a4f28419497f9722a3daafe3b4186f6b6457e060405160405180910390a35050565b6000610a4c30610b45565b15905090565b6000610a5d83610b68565b8015610a6f5750610a6e8383610bb5565b5b905092915050565b6000610a9f836000018373ffffffffffffffffffffffffffffffffffffffff1660001b610ce0565b905092915050565b6000610ab9836000018360001b610ce0565b905092915050565b6000610ad3836000018360001b610d03565b905092915050565b6000610b24600760008473ffffffffffffffffffffffffffffffffffffffff1673ffffffffffffffffffffffffffffffffffffffff168152602001908152602001600020610d73565b1115610b3857610b3381610d88565b610b42565b610b4181610db9565b5b50565b6000808273ffffffffffffffffffffffffffffffffffffffff163b119050919050565b6000610b94827f01ffc9a700000000000000000000000000000000000000000000000000000000610bb5565b8015610bae5750610bac8263ffffffff60e01b610bb5565b155b9050919050565b6000806301ffc9a760e01b83604051602401610bd191906115d2565b604051602081830303815290604052907bffffffffffffffffffffffffffffffffffffffffffffffffffffffff19166020820180517bffffffffffffffffffffffffffffffffffffffffffffffffffffffff838183161783525050505090506000808573ffffffffffffffffffffffffffffffffffffffff1661753084604051610c5b9190611547565b6000604051808303818686fa925050503d8060008114610c97576040519150601f19603f3d011682016040523d82523d6000602084013e610c9c565b606091505b5091509150602081511015610cb75760009350505050610cda565b818015610cd4575080806020019051810190610cd3919061129d565b5b93505050505b92915050565b600080836001016000848152602001908152602001600020541415905092915050565b6000610d0f8383610ce0565b610d68578260000182908060018154018082558091505060019003906000526020600020016000909190919091505582600001805490508360010160008481526020019081526020016000208190555060019050610d6d565b600090505b92915050565b6000610d8182600001610dd1565b9050919050565b610d9c816002610a7790919063ffffffff16565b610db657610db4816002610de290919063ffffffff16565b505b50565b610dcd816002610e1290919063ffffffff16565b5050565b600081600001805490509050919050565b6000610e0a836000018373ffffffffffffffffffffffffffffffffffffffff1660001b610d03565b905092915050565b6000610e3a836000018373ffffffffffffffffffffffffffffffffffffffff1660001b610e42565b905092915050565b60008083600101600084815260200190815260200160002054905060008114610f4a576000600182610e7491906117d2565b9050600060018660000180549050610e8c91906117d2565b9050818114610efb576000866000018281548110610ead57610eac611984565b5b9060005260206000200154905080876000018481548110610ed157610ed0611984565b5b90600052602060002001819055508387600101600083815260200190815260200160002081905550505b85600001805480610f0f57610f0e611955565b5b600190038181906000526020600020016000905590558560010160008681526020019081526020016000206000905560019350505050610f50565b60009150505b92915050565b6000610f69610f648461170a565b6116e5565b90508083825260208201905082856020860282011115610f8c57610f8b6119ec565b5b60005b85811015610fbc5781610fa28882611123565b845260208401935060208301925050600181019050610f8f565b5050509392505050565b6000610fd9610fd484611736565b6116e5565b905082815260208101848484011115610ff557610ff46119f1565b5b6110008482856118c2565b509392505050565b60008135905061101781611b2a565b92915050565b600082601f830112611032576110316119e7565b5b8151611042848260208601610f56565b91505092915050565b60008151905061105a81611b41565b92915050565b60008083601f840112611076576110756119e7565b5b8235905067ffffffffffffffff811115611093576110926119e2565b5b6020830191508360018202830111156110af576110ae6119ec565b5b9250929050565b6000813590506110c581611b58565b92915050565b6000813590506110da81611b6f565b92915050565b600082601f8301126110f5576110f46119e7565b5b8151611105848260208601610fc6565b91505092915050565b60008135905061111d81611b86565b92915050565b60008151905061113281611b86565b92915050565b60006020828403121561114e5761114d6119fb565b5b600061115c84828501611008565b91505092915050565b600080600080600060808688031215611181576111806119fb565b5b600061118f88828901611008565b95505060206111a088828901611008565b94505060406111b18882890161110e565b935050606086013567ffffffffffffffff8111156111d2576111d16119f6565b5b6111de88828901611060565b92509250509295509295909350565b60008060008060808587031215611207576112066119fb565b5b600061121587828801611008565b9450506020611226878288016110cb565b93505060406112378782880161110e565b92505060606112488782880161110e565b91505092959194509250565b60006020828403121561126a576112696119fb565b5b600082015167ffffffffffffffff811115611288576112876119f6565b5b6112948482850161101d565b91505092915050565b6000602082840312156112b3576112b26119fb565b5b60006112c18482850161104b565b91505092915050565b6000602082840312156112e0576112df6119fb565b5b60006112ee848285016110b6565b91505092915050565b60006020828403121561130d5761130c6119fb565b5b600082015167ffffffffffffffff81111561132b5761132a6119f6565b5b611337848285016110e0565b91505092915050565b600060208284031215611356576113556119fb565b5b60006113648482850161110e565b91505092915050565b60006113798383611529565b60208301905092915050565b61138e81611806565b82525050565b600061139f82611777565b6113a981856117a5565b93506113b483611767565b8060005b838110156113e55781516113cc888261136d565b97506113d783611798565b9250506001810190506113b8565b5085935050505092915050565b6113fb81611824565b82525050565b600061140c82611782565b61141681856117b6565b93506114268185602086016118c2565b80840191505092915050565b61143b8161189e565b82525050565b600061144c8261178d565b61145681856117c1565b93506114668185602086016118c2565b61146f81611a00565b840191505092915050565b60006114876026836117c1565b915061149282611a11565b604082019050919050565b60006114aa6017836117c1565b91506114b582611a60565b602082019050919050565b60006114cd6018836117c1565b91506114d882611a89565b602082019050919050565b60006114f0602e836117c1565b91506114fb82611ab2565b604082019050919050565b60006115136020836117c1565b915061151e82611b01565b602082019050919050565b61153281611894565b82525050565b61154181611894565b82525050565b60006115538284611401565b915081905092915050565b60006020820190506115736000830184611385565b92915050565b600060608201905061158e6000830186611385565b61159b6020830185611385565b6115a86040830184611538565b949350505050565b600060208201905081810360008301526115ca8184611394565b905092915050565b60006020820190506115e760008301846113f2565b92915050565b60006020820190506116026000830184611432565b92915050565b600060208201905081810360008301526116228184611441565b905092915050565b600060208201905081810360008301526116438161147a565b9050919050565b600060208201905081810360008301526116638161149d565b9050919050565b60006020820190508181036000830152611683816114c0565b9050919050565b600060208201905081810360008301526116a3816114e3565b9050919050565b600060208201905081810360008301526116c381611506565b9050919050565b60006020820190506116df6000830184611538565b92915050565b60006116ef611700565b90506116fb82826118f5565b919050565b6000604051905090565b600067ffffffffffffffff821115611725576117246119b3565b5b602082029050602081019050919050565b600067ffffffffffffffff821115611751576117506119b3565b5b61175a82611a00565b9050602081019050919050565b6000819050602082019050919050565b600081519050919050565b600081519050919050565b600081519050919050565b6000602082019050919050565b600082825260208201905092915050565b600081905092915050565b600082825260208201905092915050565b60006117dd82611894565b91506117e883611894565b9250828210156117fb576117fa611926565b5b828203905092915050565b600061181182611874565b9050919050565b60008115159050919050565b60007fffffffff0000000000000000000000000000000000000000000000000000000082169050919050565b600061185b82611806565b9050919050565b600061186d82611806565b9050919050565b600073ffffffffffffffffffffffffffffffffffffffff82169050919050565b6000819050919050565b60006118a9826118b0565b9050919050565b60006118bb82611874565b9050919050565b60005b838110156118e05780820151818401526020810190506118c5565b838111156118ef576000848401525b50505050565b6118fe82611a00565b810181811067ffffffffffffffff8211171561191d5761191c6119b3565b5b80604052505050565b7f4e487b7100000000000000000000000000000000000000000000000000000000600052601160045260246000fd5b7f4e487b7100000000000000000000000000000000000000000000000000000000600052603160045260246000fd5b7f4e487b7100000000000000000000000000000000000000000000000000000000600052603260045260246000fd5b7f4e487b7100000000000000000000000000000000000000000000000000000000600052604160045260246000fd5b600080fd5b600080fd5b600080fd5b600080fd5b600080fd5b600080fd5b6000601f19601f8301169050919050565b7f4f776e61626c653a206e6577206f776e657220697320746865207a65726f206160008201527f6464726573730000000000000000000000000000000000000000000000000000602082015250565b7f4e6f7420737570706f7274656420696e74657266616365000000000000000000600082015250565b7f6e74664944206d757374206e6f74206265206c69737465640000000000000000600082015250565b7f496e697469616c697a61626c653a20636f6e747261637420697320616c72656160008201527f647920696e697469616c697a6564000000000000000000000000000000000000602082015250565b7f4f776e61626c653a2063616c6c6572206973206e6f7420746865206f776e6572600082015250565b611b3381611806565b8114611b3e57600080fd5b50565b611b4a81611818565b8114611b5557600080fd5b50565b611b6181611850565b8114611b6c57600080fd5b50565b611b7881611862565b8114611b8357600080fd5b50565b611b8f81611894565b8114611b9a57600080fd5b5056fea2646970667358221220f0f64bb6749f6868c21fc01a1f11dc4e01503ca94713f8e82d29273fec8548fb64736f6c63430008060033",
  "immutableReferences": {},
  "source": "// SPDX-License-Identifier: MIT\n\npragma solidity ^0.8.6;\n\nimport \"@openzeppelin/contracts/proxy/utils/Initializable.sol\";\nimport \"@openzeppelin/contracts/utils/math/SafeMath.sol\";\nimport \"@openzeppelin/contracts/token/ERC721/IERC721Receiver.sol\";\nimport \"@openzeppelin/contracts/access/Ownable.sol\";\nimport \"@openzeppelin/contracts/utils/structs/EnumerableSet.sol\";\nimport \"@openzeppelin/contracts/utils/introspection/ERC165Checker.sol\";\n\nimport \"./DauDQCoin.sol\";\n\ncontract NFTMarket is\n    Initializable,\n    IERC721Receiver,\n    Ownable\n{\n    using SafeMath for uint256;\n\tusing EnumerableSet for EnumerableSet.UintSet;\n\tusing EnumerableSet for EnumerableSet.AddressSet;\n\n    DauDQCoin public nftItem;\n\n    function initialize(DauDQCoin _nftItem) public initializer {\n        nftItem = _nftItem;\n    }\n\n    struct ListingItem {\n        address seller;\n        uint256 price;\n    }\n\n\tbytes4 private constant _INTERFACE_ID_ERC721 = 0x80ac58cd;\n\n\tEnumerableSet.AddressSet private listedTokenTypes; // store types\n\tEnumerableSet.AddressSet private allowedTokenTypes;\n\n    mapping(address => mapping(uint256 => ListingItem)) private listings;\n    mapping(address => EnumerableSet.UintSet) private listedTokenIDs;\n\n    // ############\n\t// Events\n\t// ############\n\tevent NewListing(\n\t\taddress indexed seller,\n\t\tIERC721 indexed nftAddress,\n\t\tuint256 indexed nftID,\n\t\tuint256 price\n\t);\n\tevent ListingPriceChange(\n\t\taddress indexed seller,\n\t\tIERC721 indexed nftAddress,\n\t\tuint256 indexed nftID,\n\t\tuint256 newPrice\n\t);\n\tevent CancelledListing(\n\t\taddress indexed seller,\n\t\tIERC721 indexed nftAddress,\n\t\tuint256 indexed nftID\n\t);\n\tevent PurchasedListing(\n\t\taddress indexed buyer,\n\t\taddress seller,\n\t\tIERC721 indexed nftAddress,\n\t\tuint256 indexed nftID,\n\t\tuint256 priceTax,\n\t\tuint256 price\n\t);\n\n    // ############\n\t// Modifiers\n\t// ############\n\n\tmodifier isListed(IERC721 nftAddress, uint256 nftID) {\n\t\trequire(\n\t\t\tlistedTokenTypes.contains(address(nftAddress)) &&\n\t\t\t\tlistedTokenIDs[address(nftAddress)].contains(nftID),\n\t\t\t\"nftID not listed\"\n\t\t);\n\t\t_;\n\t}\n\n\tmodifier isNotListed(IERC721 nftAddress, uint256 nftID) {\n\t\trequire(\n\t\t\t!listedTokenTypes.contains(address(nftAddress)) ||\n\t\t\t\t!listedTokenIDs[address(nftAddress)].contains(nftID),\n\t\t\t\"ntfID must not be listed\"\n\t\t);\n\t\t_;\n\t}\n\n\tmodifier isSeller(IERC721 nftAddress, uint256 nftID) {\n\t\trequire(\n\t\t\tlistings[address(nftAddress)][nftID].seller == msg.sender,\n\t\t\t\"You are not seller\"\n\t\t);\n\t\t_;\n\t}\n\n\tmodifier isValidERC721(IERC721 _tokenAddress) {\n\t\trequire(\n\t\t\tERC165Checker.supportsInterface(\n\t\t\t\taddress(_tokenAddress),\n\t\t\t\t_INTERFACE_ID_ERC721\n\t\t\t),\n\t\t\t\"Not supported interface\"\n\t\t);\n\t\t_;\n\t}\n    \n    // ############\n    // Views\n    // ############\n    \n\tfunction getTokenIDsByOwner(address owner_addr)\n        public\n        view\n        returns (uint256[] memory)\n    {\n        uint256[] memory tokenIDs = nftItem.getNFTsByOwner(owner_addr);\n        return (tokenIDs);\n    }\n\n\tfunction getTokenUriByID(uint256 tokenID)\n        public\n        view\n        returns (string memory)\n    {\n        string memory tokenUri = nftItem.tokenURI(tokenID);\n        return (tokenUri);\n    }\n\n    function createNewListing(address from, IERC721 nftAddress, uint256 tokenID, uint256 _price) \n\tpublic\n\t\tisValidERC721(nftAddress)\n\t\tisNotListed(nftAddress, tokenID)\n\t{\n\t\t// require(\n\t\t// \tnftItem.ownerOf(tokenID) == from,\n\t\t// \t\"not owner\"\n\t\t// );\n        listings[address(nftAddress)][tokenID] = ListingItem(from, _price);\n\t\tlistedTokenIDs[address(nftAddress)].add(tokenID);\n\n\t\t_updateListedTokenTypes(nftAddress);\n\n\t\t// in theory the transfer and required approval already test non-owner operations\n\t\tnftItem.safeTransferFrom(from, address(this), tokenID);\n\t\temit NewListing(from, nftAddress, tokenID, _price);\n        \n    }\n\n\tfunction _updateListedTokenTypes(IERC721 tokenType) private {\n\t\tif (listedTokenIDs[address(tokenType)].length() > 0) {\n\t\t\t_registerTokenAddress(tokenType);\n\t\t} else {\n\t\t\t_unregisterTokenAddress(tokenType);\n\t\t}\n\t}\n\n\tfunction _registerTokenAddress(IERC721 tokenType) private {\n\t\tif (!listedTokenTypes.contains(address(tokenType))) {\n\t\t\tlistedTokenTypes.add(address(tokenType));\n\t\t}\n\t}\n\n\tfunction _unregisterTokenAddress(IERC721 tokenType) private {\n\t\tlistedTokenTypes.remove(address(tokenType));\n\t}\n\n\n    function onERC721Received(\n\t\taddress, /* operator */\n\t\taddress, /* from */\n\t\tuint256 _id,\n\t\tbytes calldata /* data */\n\t) external view override returns (bytes4) {\n\t\treturn IERC721Receiver.onERC721Received.selector;\n\t}\n}",
  "sourcePath": "/home/doanquydau/gamota_projects/nft-react-boilerplate/src/truffle/contracts/NFTMarket.sol",
  "compiler": {
    "name": "solc",
    "version": "0.8.6+commit.11564f7e.Emscripten.clang"
  },
  "schemaVersion": "3.4.4",
  "updatedAt": "2022-02-14T11:14:10.549Z",
  "networkType": "ethereum",
  "devdoc": {
    "kind": "dev",
    "methods": {
      "owner()": {
        "details": "Returns the address of the current owner."
      },
      "renounceOwnership()": {
        "details": "Leaves the contract without owner. It will not be possible to call `onlyOwner` functions anymore. Can only be called by the current owner. NOTE: Renouncing ownership will leave the contract without an owner, thereby removing any functionality that is only available to the owner."
      },
      "transferOwnership(address)": {
        "details": "Transfers ownership of the contract to a new account (`newOwner`). Can only be called by the current owner."
      }
    },
    "version": 1
  },
  "userdoc": {
    "kind": "user",
    "methods": {},
    "version": 1
  }
}