{
  "contractName": "NFTMarket",
  "abi": [
    {
      "inputs": [],
      "stateMutability": "nonpayable",
      "type": "constructor"
    },
    {
      "anonymous": false,
      "inputs": [
        {
          "indexed": true,
          "internalType": "address",
          "name": "nftContract",
          "type": "address"
        },
        {
          "indexed": true,
          "internalType": "uint256",
          "name": "tokenID",
          "type": "uint256"
        },
        {
          "indexed": true,
          "internalType": "address",
          "name": "buyer",
          "type": "address"
        },
        {
          "indexed": false,
          "internalType": "address",
          "name": "seller",
          "type": "address"
        },
        {
          "indexed": false,
          "internalType": "uint256",
          "name": "price",
          "type": "uint256"
        },
        {
          "indexed": false,
          "internalType": "uint256",
          "name": "priceTax",
          "type": "uint256"
        }
      ],
      "name": "PurchasedListing",
      "type": "event"
    },
    {
      "anonymous": false,
      "inputs": [
        {
          "indexed": true,
          "internalType": "uint256",
          "name": "itemId",
          "type": "uint256"
        },
        {
          "indexed": true,
          "internalType": "address",
          "name": "nftContract",
          "type": "address"
        },
        {
          "indexed": true,
          "internalType": "uint256",
          "name": "tokenId",
          "type": "uint256"
        },
        {
          "indexed": false,
          "internalType": "address",
          "name": "seller",
          "type": "address"
        },
        {
          "indexed": false,
          "internalType": "address",
          "name": "owner",
          "type": "address"
        },
        {
          "indexed": false,
          "internalType": "uint256",
          "name": "price",
          "type": "uint256"
        },
        {
          "indexed": false,
          "internalType": "bool",
          "name": "sold",
          "type": "bool"
        }
      ],
      "name": "newListing",
      "type": "event"
    },
    {
      "inputs": [
        {
          "internalType": "address",
          "name": "nftContract",
          "type": "address"
        },
        {
          "internalType": "uint256",
          "name": "tokenId",
          "type": "uint256"
        },
        {
          "internalType": "uint256",
          "name": "price",
          "type": "uint256"
        }
      ],
      "name": "addListing",
      "outputs": [],
      "stateMutability": "payable",
      "type": "function",
      "payable": true
    },
    {
      "inputs": [
        {
          "internalType": "address",
          "name": "nftContract",
          "type": "address"
        },
        {
          "internalType": "uint256",
          "name": "itemId",
          "type": "uint256"
        }
      ],
      "name": "transferItem",
      "outputs": [],
      "stateMutability": "payable",
      "type": "function",
      "payable": true
    },
    {
      "inputs": [],
      "name": "fetchMarketItems",
      "outputs": [
        {
          "components": [
            {
              "internalType": "uint256",
              "name": "itemId",
              "type": "uint256"
            },
            {
              "internalType": "address",
              "name": "nftContract",
              "type": "address"
            },
            {
              "internalType": "uint256",
              "name": "tokenId",
              "type": "uint256"
            },
            {
              "internalType": "address payable",
              "name": "seller",
              "type": "address"
            },
            {
              "internalType": "address payable",
              "name": "owner",
              "type": "address"
            },
            {
              "internalType": "uint256",
              "name": "price",
              "type": "uint256"
            },
            {
              "internalType": "bool",
              "name": "sold",
              "type": "bool"
            }
          ],
          "internalType": "struct NFTMarket.MarketItem[]",
          "name": "",
          "type": "tuple[]"
        }
      ],
      "stateMutability": "view",
      "type": "function",
      "constant": true
    },
    {
      "inputs": [],
      "name": "fetchMyNFTs",
      "outputs": [
        {
          "components": [
            {
              "internalType": "uint256",
              "name": "itemId",
              "type": "uint256"
            },
            {
              "internalType": "address",
              "name": "nftContract",
              "type": "address"
            },
            {
              "internalType": "uint256",
              "name": "tokenId",
              "type": "uint256"
            },
            {
              "internalType": "address payable",
              "name": "seller",
              "type": "address"
            },
            {
              "internalType": "address payable",
              "name": "owner",
              "type": "address"
            },
            {
              "internalType": "uint256",
              "name": "price",
              "type": "uint256"
            },
            {
              "internalType": "bool",
              "name": "sold",
              "type": "bool"
            }
          ],
          "internalType": "struct NFTMarket.MarketItem[]",
          "name": "",
          "type": "tuple[]"
        }
      ],
      "stateMutability": "view",
      "type": "function",
      "constant": true
    },
    {
      "inputs": [],
      "name": "fetchItemsCreated",
      "outputs": [
        {
          "components": [
            {
              "internalType": "uint256",
              "name": "itemId",
              "type": "uint256"
            },
            {
              "internalType": "address",
              "name": "nftContract",
              "type": "address"
            },
            {
              "internalType": "uint256",
              "name": "tokenId",
              "type": "uint256"
            },
            {
              "internalType": "address payable",
              "name": "seller",
              "type": "address"
            },
            {
              "internalType": "address payable",
              "name": "owner",
              "type": "address"
            },
            {
              "internalType": "uint256",
              "name": "price",
              "type": "uint256"
            },
            {
              "internalType": "bool",
              "name": "sold",
              "type": "bool"
            }
          ],
          "internalType": "struct NFTMarket.MarketItem[]",
          "name": "",
          "type": "tuple[]"
        }
      ],
      "stateMutability": "view",
      "type": "function",
      "constant": true
    },
    {
      "inputs": [
        {
          "internalType": "uint256",
          "name": "index",
          "type": "uint256"
        }
      ],
      "name": "remove",
      "outputs": [],
      "stateMutability": "nonpayable",
      "type": "function"
    }
  ],
  "bytecode": "0x608060405234801561001057600080fd5b50600160008190555033600260006101000a81548173ffffffffffffffffffffffffffffffffffffffff021916908373ffffffffffffffffffffffffffffffffffffffff16021790555061195d806100696000396000f3fe6080604052600436106100555760003560e01c80630f08efe01461005a578063202e3740146100855780634cc82215146100b057806367c65e99146100d9578063f064c32e146100f5578063f6d36ccb14610120575b600080fd5b34801561006657600080fd5b5061006f61013c565b60405161007c9190611582565b60405180910390f35b34801561009157600080fd5b5061009a6103f1565b6040516100a79190611582565b60405180910390f35b3480156100bc57600080fd5b506100d760048036038101906100d2919061129a565b61073f565b005b6100f360048036038101906100ee9190611207565b610803565b005b34801561010157600080fd5b5061010a610a70565b6040516101179190611582565b60405180910390f35b61013a60048036038101906101359190611247565b610dbe565b005b6060600061014a60016110dc565b9050600061015860016110dc565b90506000808267ffffffffffffffff811115610177576101766117fb565b5b6040519080825280602002602001820160405280156101b057816020015b61019d61115c565b8152602001906001900390816101955790505b50905060005b848110156103e6573073ffffffffffffffffffffffffffffffffffffffff16600360006001846101e6919061166e565b815260200190815260200160002060040160009054906101000a900473ffffffffffffffffffffffffffffffffffffffff1673ffffffffffffffffffffffffffffffffffffffff1614156103d3576000600182610243919061166e565b90506000600360008381526020019081526020016000209050806040518060e0016040529081600082015481526020016001820160009054906101000a900473ffffffffffffffffffffffffffffffffffffffff1673ffffffffffffffffffffffffffffffffffffffff1673ffffffffffffffffffffffffffffffffffffffff168152602001600282015481526020016003820160009054906101000a900473ffffffffffffffffffffffffffffffffffffffff1673ffffffffffffffffffffffffffffffffffffffff1673ffffffffffffffffffffffffffffffffffffffff1681526020016004820160009054906101000a900473ffffffffffffffffffffffffffffffffffffffff1673ffffffffffffffffffffffffffffffffffffffff1673ffffffffffffffffffffffffffffffffffffffff168152602001600582015481526020016006820160009054906101000a900460ff1615151515815250508486815181106103b6576103b56117cc565b5b60200260200101819052506001856103ce919061166e565b945050505b80806103de90611754565b9150506101b6565b508094505050505090565b606060006103ff60016110dc565b905060008060005b838110156104a8573373ffffffffffffffffffffffffffffffffffffffff1660036000600184610437919061166e565b815260200190815260200160002060040160009054906101000a900473ffffffffffffffffffffffffffffffffffffffff1673ffffffffffffffffffffffffffffffffffffffff16141561049557600183610492919061166e565b92505b80806104a090611754565b915050610407565b5060008267ffffffffffffffff8111156104c5576104c46117fb565b5b6040519080825280602002602001820160405280156104fe57816020015b6104eb61115c565b8152602001906001900390816104e35790505b50905060005b84811015610734573373ffffffffffffffffffffffffffffffffffffffff1660036000600184610534919061166e565b815260200190815260200160002060040160009054906101000a900473ffffffffffffffffffffffffffffffffffffffff1673ffffffffffffffffffffffffffffffffffffffff161415610721576000600182610591919061166e565b90506000600360008381526020019081526020016000209050806040518060e0016040529081600082015481526020016001820160009054906101000a900473ffffffffffffffffffffffffffffffffffffffff1673ffffffffffffffffffffffffffffffffffffffff1673ffffffffffffffffffffffffffffffffffffffff168152602001600282015481526020016003820160009054906101000a900473ffffffffffffffffffffffffffffffffffffffff1673ffffffffffffffffffffffffffffffffffffffff1673ffffffffffffffffffffffffffffffffffffffff1681526020016004820160009054906101000a900473ffffffffffffffffffffffffffffffffffffffff1673ffffffffffffffffffffffffffffffffffffffff1673ffffffffffffffffffffffffffffffffffffffff168152602001600582015481526020016006820160009054906101000a900460ff161515151581525050848681518110610704576107036117cc565b5b602002602001018190525060018561071c919061166e565b945050505b808061072c90611754565b915050610504565b508094505050505090565b600360008281526020019081526020016000206000808201600090556001820160006101000a81549073ffffffffffffffffffffffffffffffffffffffff021916905560028201600090556003820160006101000a81549073ffffffffffffffffffffffffffffffffffffffff02191690556004820160006101000a81549073ffffffffffffffffffffffffffffffffffffffff021916905560058201600090556006820160006101000a81549060ff0219169055505061080060016110ea565b50565b60026000541415610849576040517f08c379a0000000000000000000000000000000000000000000000000000000008152600401610840906115e4565b60405180910390fd5b6002600081905550600060036000838152602001908152602001600020600501549050803410156108af576040517f08c379a00000000000000000000000000000000000000000000000000000000081526004016108a6906115c4565b60405180910390fd5b60006003600084815260200190815260200160002060020154905060006003600085815260200190815260200160002060030160009054906101000a900473ffffffffffffffffffffffffffffffffffffffff1673ffffffffffffffffffffffffffffffffffffffff166108fc349081150290604051600060405180830381858888f19350505050158015610948573d6000803e3d6000fd5b508473ffffffffffffffffffffffffffffffffffffffff166323b872dd3033856040518463ffffffff1660e01b815260040161098693929190611506565b600060405180830381600087803b1580156109a057600080fd5b505af11580156109b4573d6000803e3d6000fd5b505050506109c18461073f565b3373ffffffffffffffffffffffffffffffffffffffff16828673ffffffffffffffffffffffffffffffffffffffff167f4d6e80f8d9606645af002ee25aced656e9f8d07be7bc5fb7dbd9a808799b438a6003600089815260200190815260200160002060030160009054906101000a900473ffffffffffffffffffffffffffffffffffffffff168786604051610a59939291906114cf565b60405180910390a450505060016000819055505050565b60606000610a7e60016110dc565b905060008060005b83811015610b27573373ffffffffffffffffffffffffffffffffffffffff1660036000600184610ab6919061166e565b815260200190815260200160002060030160009054906101000a900473ffffffffffffffffffffffffffffffffffffffff1673ffffffffffffffffffffffffffffffffffffffff161415610b1457600183610b11919061166e565b92505b8080610b1f90611754565b915050610a86565b5060008267ffffffffffffffff811115610b4457610b436117fb565b5b604051908082528060200260200182016040528015610b7d57816020015b610b6a61115c565b815260200190600190039081610b625790505b50905060005b84811015610db3573373ffffffffffffffffffffffffffffffffffffffff1660036000600184610bb3919061166e565b815260200190815260200160002060030160009054906101000a900473ffffffffffffffffffffffffffffffffffffffff1673ffffffffffffffffffffffffffffffffffffffff161415610da0576000600182610c10919061166e565b90506000600360008381526020019081526020016000209050806040518060e0016040529081600082015481526020016001820160009054906101000a900473ffffffffffffffffffffffffffffffffffffffff1673ffffffffffffffffffffffffffffffffffffffff1673ffffffffffffffffffffffffffffffffffffffff168152602001600282015481526020016003820160009054906101000a900473ffffffffffffffffffffffffffffffffffffffff1673ffffffffffffffffffffffffffffffffffffffff1673ffffffffffffffffffffffffffffffffffffffff1681526020016004820160009054906101000a900473ffffffffffffffffffffffffffffffffffffffff1673ffffffffffffffffffffffffffffffffffffffff1673ffffffffffffffffffffffffffffffffffffffff168152602001600582015481526020016006820160009054906101000a900460ff161515151581525050848681518110610d8357610d826117cc565b5b6020026020010181905250600185610d9b919061166e565b945050505b8080610dab90611754565b915050610b83565b508094505050505090565b60026000541415610e04576040517f08c379a0000000000000000000000000000000000000000000000000000000008152600401610dfb906115e4565b60405180910390fd5b600260008190555060008111610e4f576040517f08c379a0000000000000000000000000000000000000000000000000000000008152600401610e4690611604565b60405180910390fd5b610e596001611146565b6000610e6560016110dc565b90506040518060e001604052808281526020018573ffffffffffffffffffffffffffffffffffffffff1681526020018481526020013373ffffffffffffffffffffffffffffffffffffffff1681526020013073ffffffffffffffffffffffffffffffffffffffff16815260200183815260200160001515815250600360008381526020019081526020016000206000820151816000015560208201518160010160006101000a81548173ffffffffffffffffffffffffffffffffffffffff021916908373ffffffffffffffffffffffffffffffffffffffff1602179055506040820151816002015560608201518160030160006101000a81548173ffffffffffffffffffffffffffffffffffffffff021916908373ffffffffffffffffffffffffffffffffffffffff16021790555060808201518160040160006101000a81548173ffffffffffffffffffffffffffffffffffffffff021916908373ffffffffffffffffffffffffffffffffffffffff16021790555060a0820151816005015560c08201518160060160006101000a81548160ff0219169083151502179055509050508373ffffffffffffffffffffffffffffffffffffffff166323b872dd3330866040518463ffffffff1660e01b815260040161104593929190611506565b600060405180830381600087803b15801561105f57600080fd5b505af1158015611073573d6000803e3d6000fd5b50505050828473ffffffffffffffffffffffffffffffffffffffff16827fdd520162c1d393e7f4009bc39a000ad3112ce831953b1eb4d4eb203ca7d7949633308760006040516110c6949392919061153d565b60405180910390a4506001600081905550505050565b600081600001549050919050565b60008160000154905060008111611136576040517f08c379a000000000000000000000000000000000000000000000000000000000815260040161112d906115a4565b60405180910390fd5b6001810382600001819055505050565b6001816000016000828254019250508190555050565b6040518060e0016040528060008152602001600073ffffffffffffffffffffffffffffffffffffffff16815260200160008152602001600073ffffffffffffffffffffffffffffffffffffffff168152602001600073ffffffffffffffffffffffffffffffffffffffff168152602001600081526020016000151581525090565b6000813590506111ec816118f9565b92915050565b60008135905061120181611910565b92915050565b6000806040838503121561121e5761121d61182a565b5b600061122c858286016111dd565b925050602061123d858286016111f2565b9150509250929050565b6000806000606084860312156112605761125f61182a565b5b600061126e868287016111dd565b935050602061127f868287016111f2565b9250506040611290868287016111f2565b9150509250925092565b6000602082840312156112b0576112af61182a565b5b60006112be848285016111f2565b91505092915050565b60006112d38383611423565b60e08301905092915050565b6112e88161171e565b82525050565b6112f7816116d6565b82525050565b611306816116c4565b82525050565b611315816116c4565b82525050565b600061132682611634565b611330818561164c565b935061133b83611624565b8060005b8381101561136c57815161135388826112c7565b975061135e8361163f565b92505060018101905061133f565b5085935050505092915050565b611382816116e8565b82525050565b611391816116e8565b82525050565b60006113a4601b8361165d565b91506113af8261182f565b602082019050919050565b60006113c760408361165d565b91506113d282611858565b604082019050919050565b60006113ea601f8361165d565b91506113f5826118a7565b602082019050919050565b600061140d601c8361165d565b9150611418826118d0565b602082019050919050565b60e08201600082015161143960008501826114b1565b50602082015161144c60208501826112fd565b50604082015161145f60408501826114b1565b50606082015161147260608501826112ee565b50608082015161148560808501826112ee565b5060a082015161149860a08501826114b1565b5060c08201516114ab60c0850182611379565b50505050565b6114ba81611714565b82525050565b6114c981611714565b82525050565b60006060820190506114e460008301866112df565b6114f160208301856114c0565b6114fe60408301846114c0565b949350505050565b600060608201905061151b600083018661130c565b611528602083018561130c565b61153560408301846114c0565b949350505050565b6000608082019050611552600083018761130c565b61155f602083018661130c565b61156c60408301856114c0565b6115796060830184611388565b95945050505050565b6000602082019050818103600083015261159c818461131b565b905092915050565b600060208201905081810360008301526115bd81611397565b9050919050565b600060208201905081810360008301526115dd816113ba565b9050919050565b600060208201905081810360008301526115fd816113dd565b9050919050565b6000602082019050818103600083015261161d81611400565b9050919050565b6000819050602082019050919050565b600081519050919050565b6000602082019050919050565b600082825260208201905092915050565b600082825260208201905092915050565b600061167982611714565b915061168483611714565b9250827fffffffffffffffffffffffffffffffffffffffffffffffffffffffffffffffff038211156116b9576116b861179d565b5b828201905092915050565b60006116cf826116f4565b9050919050565b60006116e1826116f4565b9050919050565b60008115159050919050565b600073ffffffffffffffffffffffffffffffffffffffff82169050919050565b6000819050919050565b600061172982611730565b9050919050565b600061173b82611742565b9050919050565b600061174d826116f4565b9050919050565b600061175f82611714565b91507fffffffffffffffffffffffffffffffffffffffffffffffffffffffffffffffff8214156117925761179161179d565b5b600182019050919050565b7f4e487b7100000000000000000000000000000000000000000000000000000000600052601160045260246000fd5b7f4e487b7100000000000000000000000000000000000000000000000000000000600052603260045260246000fd5b7f4e487b7100000000000000000000000000000000000000000000000000000000600052604160045260246000fd5b600080fd5b7f436f756e7465723a2064656372656d656e74206f766572666c6f770000000000600082015250565b7f506c65617365207375626d6974207468652061736b696e67207072696365206960008201527f6e206f7264657220746f20636f6d706c65746520746865207075726368617365602082015250565b7f5265656e7472616e637947756172643a207265656e7472616e742063616c6c00600082015250565b7f5072696365206d757374206265206174206c6561737420312077656900000000600082015250565b611902816116c4565b811461190d57600080fd5b50565b61191981611714565b811461192457600080fd5b5056fea26469706673582212207501dbcc9f80d9321a4745b077c2e320ab559281fce409ad662422b1902199ab64736f6c63430008060033",
  "immutableReferences": {},
  "source": "// SPDX-License-Identifier: MIT\n\npragma solidity ^0.8.6;\n\nimport \"@openzeppelin/contracts/token/ERC721/ERC721.sol\";\n// import \"@openzeppelin/contracts/token/ERC20/ERC20.sol\";\nimport \"@openzeppelin/contracts/utils/Counters.sol\";\nimport \"@openzeppelin/contracts/security/ReentrancyGuard.sol\";\n\nimport \"./DauDQNFT.sol\";\n\ncontract NFTMarket is\n\tReentrancyGuard\n{\n    using Counters for Counters.Counter;\n\tCounters.Counter private _itemIds;\n\n\taddress payable owner;\n\n\tconstructor() {\n\t\towner = payable(msg.sender);\n\t}\n\n\tstruct MarketItem {\n\t\tuint itemId;\n\t\taddress nftContract;\n\t\tuint256 tokenId;\n\t\taddress payable seller;\n\t\taddress payable owner;\n\t\tuint256 price;\n\t\tbool sold;\n\t}\n\n\tmapping(uint256 => MarketItem) private idToMarketItem;\n\n\tevent newListing (\n\t\tuint indexed itemId,\n\t\taddress indexed nftContract,\n\t\tuint256 indexed tokenId,\n\t\taddress seller,\n\t\taddress owner,\n\t\tuint256 price,\n\t\tbool sold\n\t);\n\n\tevent PurchasedListing(\n\t\taddress indexed nftContract,\n\t\tuint256 indexed tokenID,\n\t\taddress indexed buyer,\n\t\taddress seller,\n\t\tuint256 price,\n\t\tuint256 priceTax\n\t);\n\n\t\n\t/* Places an item for sale on the marketplace */\n\tfunction addListing(\n\t\taddress nftContract,\n\t\tuint256 tokenId,\n\t\tuint256 price\n\t) public payable nonReentrant {\n\t\trequire(price > 0, \"Price must be at least 1 wei\");\n\n\t\t_itemIds.increment();\n\t\tuint256 itemId = _itemIds.current();\n\t\n\t\tidToMarketItem[itemId] =  MarketItem(\n\t\t\titemId,\n\t\t\tnftContract,\n\t\t\ttokenId,\n\t\t\tpayable(msg.sender),\n\t\t\tpayable(address(this)),\n\t\t\tprice,\n\t\t\tfalse\n\t\t);\n\n\t\tDauDQNFT(nftContract).transferFrom(msg.sender, address(this), tokenId);\n\n\t\temit newListing(\n\t\t\titemId,\n\t\t\tnftContract,\n\t\t\ttokenId,\n\t\t\tmsg.sender,\n\t\t\taddress(this),\n\t\t\tprice,\n\t\t\tfalse\n\t\t);\n\t}\n\n\t/* Creates the sale of a marketplace item */\n\t/* Transfers ownership of the item, as well as funds between parties */\n\tfunction transferItem(\n\t\taddress nftContract,\n\t\tuint256 itemId\n\t) public payable nonReentrant {\n\t\tuint price = idToMarketItem[itemId].price;\n\t\trequire(msg.value >= price, \"Please submit the asking price in order to complete the purchase\");\n\n\t\tuint256 tokenId = idToMarketItem[itemId].tokenId;\n\t\tuint256 taxAmount = 0;\n\n\t\tpayable(idToMarketItem[itemId].seller).transfer(msg.value);\n\n\t\tDauDQNFT(nftContract).transferFrom(address(this), msg.sender, tokenId);\n\t\tremove(itemId);\n\t\t\n\t\temit PurchasedListing(nftContract, tokenId, msg.sender, idToMarketItem[itemId].seller, price, taxAmount);\n\t}\n\n\t/* Returns all unsold market items */\n\tfunction fetchMarketItems() public view returns (MarketItem[] memory) {\n\t\tuint itemCount = _itemIds.current();\n\t\tuint unsoldItemCount = _itemIds.current();\n\t\tuint currentIndex = 0;\n\n\t\tMarketItem[] memory items = new MarketItem[](unsoldItemCount);\n\t\tfor (uint i = 0; i < itemCount; i++) {\n\t\t\tif (idToMarketItem[i + 1].owner == address(this)) {\n\t\t\t\tuint currentId =  i + 1;\n\t\t\t\tMarketItem storage currentItem = idToMarketItem[currentId];\n\t\t\t\titems[currentIndex] = currentItem;\n\t\t\t\tcurrentIndex += 1;\n\t\t\t}\n\t\t}\n\t\treturn items;\n\t}\n\n\t/* Returns only items that a user has purchased */\n\tfunction fetchMyNFTs() public view returns (MarketItem[] memory) {\n\t\tuint totalItemCount = _itemIds.current();\n\t\tuint itemCount = 0;\n\t\tuint currentIndex = 0;\n\n\t\tfor (uint i = 0; i < totalItemCount; i++) {\n\t\t\tif (idToMarketItem[i + 1].owner == msg.sender) {\n\t\t\t\titemCount += 1;\n\t\t\t}\n\t\t}\n\n\t\tMarketItem[] memory items = new MarketItem[](itemCount);\n\t\tfor (uint i = 0; i < totalItemCount; i++) {\n\t\t\tif (idToMarketItem[i + 1].owner == msg.sender) {\n\t\t\t\tuint currentId =  i + 1;\n\t\t\t\tMarketItem storage currentItem = idToMarketItem[currentId];\n\t\t\t\titems[currentIndex] = currentItem;\n\t\t\t\tcurrentIndex += 1;\n\t\t\t}\n\t\t}\n\t\treturn items;\n\t}\n\n\t/* Returns only items a user has created */\n\tfunction fetchItemsCreated() public view returns (MarketItem[] memory) {\n\t\tuint totalItemCount = _itemIds.current();\n\t\tuint itemCount = 0;\n\t\tuint currentIndex = 0;\n\n\t\tfor (uint i = 0; i < totalItemCount; i++) {\n\t\t\tif (idToMarketItem[i + 1].seller == msg.sender) {\n\t\t\t\titemCount += 1;\n\t\t\t}\n\t\t}\n\n\t\tMarketItem[] memory items = new MarketItem[](itemCount);\n\t\tfor (uint i = 0; i < totalItemCount; i++) {\n\t\t\tif (idToMarketItem[i + 1].seller == msg.sender) {\n\t\t\t\tuint currentId = i + 1;\n\t\t\t\tMarketItem storage currentItem = idToMarketItem[currentId];\n\t\t\t\titems[currentIndex] = currentItem;\n\t\t\t\tcurrentIndex += 1;\n\t\t\t}\n\t\t}\n\t\treturn items;\n\t}\n\n\tfunction remove(uint index) public {\n\t\tdelete idToMarketItem[index];\n\t\t_itemIds.decrement();\n\n\t\t// uint countItem = _itemIds.current();\n        // if (index >= countItem) return;\n\n        // for (uint i = index; i < countItem - 1; i++){\n        //     idToMarketItem[i] = idToMarketItem[i+1];\n        // }\n        // delete idToMarketItem[countItem-1];\n\n\t\t// _itemIds.decrement();\n    }\n}",
  "sourcePath": "/home/doanquydau/gamota_projects/nft-react-boilerplate/src/truffle/contracts/NFTMarket.sol",
  "compiler": {
    "name": "solc",
    "version": "0.8.6+commit.11564f7e.Emscripten.clang"
  },
  "schemaVersion": "3.4.4",
  "updatedAt": "2022-03-01T11:00:45.124Z",
  "networkType": "ethereum",
  "devdoc": {
    "kind": "dev",
    "methods": {},
    "version": 1
  },
  "userdoc": {
    "kind": "user",
    "methods": {},
    "version": 1
  }
}