{
  "contractName": "NFTMarket",
  "abi": [
    {
      "inputs": [],
      "stateMutability": "nonpayable",
      "type": "constructor"
    },
    {
      "anonymous": false,
      "inputs": [
        {
          "indexed": true,
          "internalType": "address",
          "name": "nftContract",
          "type": "address"
        },
        {
          "indexed": true,
          "internalType": "uint256",
          "name": "tokenID",
          "type": "uint256"
        },
        {
          "indexed": true,
          "internalType": "address",
          "name": "owner",
          "type": "address"
        },
        {
          "indexed": false,
          "internalType": "address",
          "name": "seller",
          "type": "address"
        }
      ],
      "name": "CancelListingEvent",
      "type": "event"
    },
    {
      "anonymous": false,
      "inputs": [
        {
          "indexed": true,
          "internalType": "address",
          "name": "nftContract",
          "type": "address"
        },
        {
          "indexed": true,
          "internalType": "uint256",
          "name": "tokenId",
          "type": "uint256"
        },
        {
          "indexed": false,
          "internalType": "address",
          "name": "seller",
          "type": "address"
        },
        {
          "indexed": false,
          "internalType": "address",
          "name": "owner",
          "type": "address"
        },
        {
          "indexed": false,
          "internalType": "uint256",
          "name": "price",
          "type": "uint256"
        },
        {
          "indexed": false,
          "internalType": "bool",
          "name": "sold",
          "type": "bool"
        }
      ],
      "name": "NewListingEvent",
      "type": "event"
    },
    {
      "anonymous": false,
      "inputs": [
        {
          "indexed": true,
          "internalType": "address",
          "name": "nftContract",
          "type": "address"
        },
        {
          "indexed": true,
          "internalType": "uint256",
          "name": "tokenID",
          "type": "uint256"
        },
        {
          "indexed": true,
          "internalType": "address",
          "name": "buyer",
          "type": "address"
        },
        {
          "indexed": false,
          "internalType": "address",
          "name": "seller",
          "type": "address"
        },
        {
          "indexed": false,
          "internalType": "uint256",
          "name": "price",
          "type": "uint256"
        },
        {
          "indexed": false,
          "internalType": "uint256",
          "name": "priceTax",
          "type": "uint256"
        }
      ],
      "name": "PurchasedListingEvent",
      "type": "event"
    },
    {
      "anonymous": false,
      "inputs": [
        {
          "indexed": true,
          "internalType": "uint256",
          "name": "tokenId",
          "type": "uint256"
        },
        {
          "indexed": false,
          "internalType": "uint256",
          "name": "price",
          "type": "uint256"
        }
      ],
      "name": "UpdateListingEvent",
      "type": "event"
    },
    {
      "inputs": [
        {
          "internalType": "address",
          "name": "nftContract",
          "type": "address"
        },
        {
          "internalType": "uint256",
          "name": "tokenId",
          "type": "uint256"
        },
        {
          "internalType": "uint256",
          "name": "price",
          "type": "uint256"
        }
      ],
      "name": "addListing",
      "outputs": [],
      "stateMutability": "payable",
      "type": "function",
      "payable": true
    },
    {
      "inputs": [
        {
          "internalType": "uint256",
          "name": "tokenId",
          "type": "uint256"
        },
        {
          "internalType": "uint256",
          "name": "price",
          "type": "uint256"
        }
      ],
      "name": "updateListing",
      "outputs": [],
      "stateMutability": "payable",
      "type": "function",
      "payable": true
    },
    {
      "inputs": [
        {
          "internalType": "address",
          "name": "nftContract",
          "type": "address"
        },
        {
          "internalType": "uint256",
          "name": "tokenId",
          "type": "uint256"
        }
      ],
      "name": "cancelListing",
      "outputs": [],
      "stateMutability": "payable",
      "type": "function",
      "payable": true
    },
    {
      "inputs": [
        {
          "internalType": "address",
          "name": "nftContract",
          "type": "address"
        },
        {
          "internalType": "uint256",
          "name": "tokenId",
          "type": "uint256"
        }
      ],
      "name": "buyItem",
      "outputs": [],
      "stateMutability": "payable",
      "type": "function",
      "payable": true
    },
    {
      "inputs": [],
      "name": "fetchMarketItems",
      "outputs": [
        {
          "components": [
            {
              "internalType": "address",
              "name": "nftContract",
              "type": "address"
            },
            {
              "internalType": "uint256",
              "name": "tokenId",
              "type": "uint256"
            },
            {
              "internalType": "address payable",
              "name": "seller",
              "type": "address"
            },
            {
              "internalType": "address payable",
              "name": "owner",
              "type": "address"
            },
            {
              "internalType": "uint256",
              "name": "price",
              "type": "uint256"
            },
            {
              "internalType": "bool",
              "name": "sold",
              "type": "bool"
            }
          ],
          "internalType": "struct NFTMarket.MarketItem[]",
          "name": "",
          "type": "tuple[]"
        }
      ],
      "stateMutability": "view",
      "type": "function",
      "constant": true
    },
    {
      "inputs": [],
      "name": "fetchMyNFTsListingOnMarket",
      "outputs": [
        {
          "components": [
            {
              "internalType": "address",
              "name": "nftContract",
              "type": "address"
            },
            {
              "internalType": "uint256",
              "name": "tokenId",
              "type": "uint256"
            },
            {
              "internalType": "address payable",
              "name": "seller",
              "type": "address"
            },
            {
              "internalType": "address payable",
              "name": "owner",
              "type": "address"
            },
            {
              "internalType": "uint256",
              "name": "price",
              "type": "uint256"
            },
            {
              "internalType": "bool",
              "name": "sold",
              "type": "bool"
            }
          ],
          "internalType": "struct NFTMarket.MarketItem[]",
          "name": "",
          "type": "tuple[]"
        }
      ],
      "stateMutability": "view",
      "type": "function",
      "constant": true
    }
  ],
  "bytecode": "0x6080604052600060025534801561001557600080fd5b506001600081905550611c3d8061002d6000396000f3fe6080604052600436106100555760003560e01c80630179ea881461005a5780630f08efe0146100765780639bf908c0146100a15780639f37092a146100cc578063b2ddee06146100e8578063f6d36ccb14610104575b600080fd5b610074600480360381019061006f919061135a565b610120565b005b34801561008257600080fd5b5061008b610285565b60405161009891906116c6565b60405180910390f35b3480156100ad57600080fd5b506100b661051f565b6040516100c391906116c6565b60405180910390f35b6100e660048036038101906100e191906112c7565b610871565b005b61010260048036038101906100fd91906112c7565b610ac1565b005b61011e60048036038101906101199190611307565b610cb1565b005b3373ffffffffffffffffffffffffffffffffffffffff166003600084815260200190815260200160002060020160009054906101000a900473ffffffffffffffffffffffffffffffffffffffff1673ffffffffffffffffffffffffffffffffffffffff16146101c4576040517f08c379a00000000000000000000000000000000000000000000000000000000081526004016101bb90611708565b60405180910390fd5b600015156003600084815260200190815260200160002060050160009054906101000a900460ff1615151461022e576040517f08c379a000000000000000000000000000000000000000000000000000000000815260040161022590611768565b60405180910390fd5b806003600084815260200190815260200160002060040181905550817f06f8664ecda4fd838fdaa5265bef308a16289b7445232ebd554b5061d667bfd58260405161027991906117c8565b60405180910390a25050565b606060006102936001610fae565b905060008060008367ffffffffffffffff8111156102b4576102b36119ee565b5b6040519080825280602002602001820160405280156102ed57816020015b6102da611223565b8152602001906001900390816102d25790505b5090506000600190505b84811161051457600460008281526020019081526020016000205492503073ffffffffffffffffffffffffffffffffffffffff166003600085815260200190815260200160002060030160009054906101000a900473ffffffffffffffffffffffffffffffffffffffff1673ffffffffffffffffffffffffffffffffffffffff161415610501576000600360008581526020019081526020016000209050806040518060c00160405290816000820160009054906101000a900473ffffffffffffffffffffffffffffffffffffffff1673ffffffffffffffffffffffffffffffffffffffff1673ffffffffffffffffffffffffffffffffffffffff168152602001600182015481526020016002820160009054906101000a900473ffffffffffffffffffffffffffffffffffffffff1673ffffffffffffffffffffffffffffffffffffffff1673ffffffffffffffffffffffffffffffffffffffff1681526020016003820160009054906101000a900473ffffffffffffffffffffffffffffffffffffffff1673ffffffffffffffffffffffffffffffffffffffff1673ffffffffffffffffffffffffffffffffffffffff168152602001600482015481526020016005820160009054906101000a900460ff1615151515815250508386815181106104e5576104e46119bf565b5b60200260200101819052506001856104fd919061182d565b9450505b808061050c90611947565b9150506102f7565b508094505050505090565b6060600061052d6001610fae565b90506000806000600190505b8381116105e357600460008281526020019081526020016000205491503373ffffffffffffffffffffffffffffffffffffffff166003600084815260200190815260200160002060020160009054906101000a900473ffffffffffffffffffffffffffffffffffffffff1673ffffffffffffffffffffffffffffffffffffffff1614156105d0576001836105cd919061182d565b92505b80806105db90611947565b915050610539565b5060008267ffffffffffffffff811115610600576105ff6119ee565b5b60405190808252806020026020018201604052801561063957816020015b610626611223565b81526020019060019003908161061e5790505b50905060018310610867576000600190505b83811161086557600460008281526020019081526020016000205492503373ffffffffffffffffffffffffffffffffffffffff166003600085815260200190815260200160002060020160009054906101000a900473ffffffffffffffffffffffffffffffffffffffff1673ffffffffffffffffffffffffffffffffffffffff161415610852576000600360008581526020019081526020016000209050806040518060c00160405290816000820160009054906101000a900473ffffffffffffffffffffffffffffffffffffffff1673ffffffffffffffffffffffffffffffffffffffff1673ffffffffffffffffffffffffffffffffffffffff168152602001600182015481526020016002820160009054906101000a900473ffffffffffffffffffffffffffffffffffffffff1673ffffffffffffffffffffffffffffffffffffffff1673ffffffffffffffffffffffffffffffffffffffff1681526020016003820160009054906101000a900473ffffffffffffffffffffffffffffffffffffffff1673ffffffffffffffffffffffffffffffffffffffff1673ffffffffffffffffffffffffffffffffffffffff168152602001600482015481526020016005820160009054906101000a900460ff161515151581525050836001846108349190611883565b81518110610845576108446119bf565b5b6020026020010181905250505b808061085d90611947565b91505061064b565b505b8094505050505090565b600260005414156108b7576040517f08c379a00000000000000000000000000000000000000000000000000000000081526004016108ae90611788565b60405180910390fd5b60026000819055506000600360008381526020019081526020016000206004015490508034101561091d576040517f08c379a000000000000000000000000000000000000000000000000000000000815260040161091490611728565b60405180910390fd5b6003600083815260200190815260200160002060020160009054906101000a900473ffffffffffffffffffffffffffffffffffffffff1673ffffffffffffffffffffffffffffffffffffffff166108fc349081150290604051600060405180830381858888f19350505050158015610999573d6000803e3d6000fd5b508273ffffffffffffffffffffffffffffffffffffffff166323b872dd3033856040518463ffffffff1660e01b81526004016109d79392919061164a565b600060405180830381600087803b1580156109f157600080fd5b505af1158015610a05573d6000803e3d6000fd5b50505050610a1282610fbc565b3373ffffffffffffffffffffffffffffffffffffffff16828473ffffffffffffffffffffffffffffffffffffffff167fca528d61435f9382fb90d3f04419af7ce8a5760fd2ac30218d7eab3a6ecbef4b6003600087815260200190815260200160002060020160009054906101000a900473ffffffffffffffffffffffffffffffffffffffff1685600254604051610aac93929190611613565b60405180910390a45060016000819055505050565b3373ffffffffffffffffffffffffffffffffffffffff166003600083815260200190815260200160002060020160009054906101000a900473ffffffffffffffffffffffffffffffffffffffff1673ffffffffffffffffffffffffffffffffffffffff1614610b65576040517f08c379a0000000000000000000000000000000000000000000000000000000008152600401610b5c90611708565b60405180910390fd5b600015156003600083815260200190815260200160002060050160009054906101000a900460ff16151514610bcf576040517f08c379a0000000000000000000000000000000000000000000000000000000008152600401610bc690611748565b60405180910390fd5b8173ffffffffffffffffffffffffffffffffffffffff166323b872dd3033846040518463ffffffff1660e01b8152600401610c0c9392919061164a565b600060405180830381600087803b158015610c2657600080fd5b505af1158015610c3a573d6000803e3d6000fd5b50505050610c4781610fbc565b3373ffffffffffffffffffffffffffffffffffffffff16818373ffffffffffffffffffffffffffffffffffffffff167f14c26805ef434cb6365b35b156e30d2e3beeea48c4b610537b7ea5aab15b11b730604051610ca591906115f8565b60405180910390a45050565b60026000541415610cf7576040517f08c379a0000000000000000000000000000000000000000000000000000000008152600401610cee90611788565b60405180910390fd5b600260008190555060008111610d42576040517f08c379a0000000000000000000000000000000000000000000000000000000008152600401610d39906117a8565b60405180910390fd5b610d4b826110e7565b6040518060c001604052808473ffffffffffffffffffffffffffffffffffffffff1681526020018381526020013373ffffffffffffffffffffffffffffffffffffffff1681526020013073ffffffffffffffffffffffffffffffffffffffff168152602001828152602001600015158152506003600084815260200190815260200160002060008201518160000160006101000a81548173ffffffffffffffffffffffffffffffffffffffff021916908373ffffffffffffffffffffffffffffffffffffffff1602179055506020820151816001015560408201518160020160006101000a81548173ffffffffffffffffffffffffffffffffffffffff021916908373ffffffffffffffffffffffffffffffffffffffff16021790555060608201518160030160006101000a81548173ffffffffffffffffffffffffffffffffffffffff021916908373ffffffffffffffffffffffffffffffffffffffff1602179055506080820151816004015560a08201518160050160006101000a81548160ff0219169083151502179055509050508273ffffffffffffffffffffffffffffffffffffffff166323b872dd3330856040518463ffffffff1660e01b8152600401610f199392919061164a565b600060405180830381600087803b158015610f3357600080fd5b505af1158015610f47573d6000803e3d6000fd5b50505050818373ffffffffffffffffffffffffffffffffffffffff167faf00d0eb626548ba8815defa06c5b9f569e68b3e1384c04ce0120918941cf7a03330856000604051610f999493929190611681565b60405180910390a36001600081905550505050565b600081600001549050919050565b6000610fc86001610fae565b90506000600190505b8181101561101657826004600083815260200190815260200160002054141561100357610ffe818361111b565b611016565b808061100e90611947565b915050610fd1565b5060036000838152602001908152602001600020600080820160006101000a81549073ffffffffffffffffffffffffffffffffffffffff021916905560018201600090556002820160006101000a81549073ffffffffffffffffffffffffffffffffffffffff02191690556003820160006101000a81549073ffffffffffffffffffffffffffffffffffffffff021916905560048201600090556005820160006101000a81549060ff0219169055505060006110d26001610fae565b11156110e3576110e260016111b1565b5b5050565b6110f1600161120d565b60006110fd6001610fae565b90508160046000838152602001908152602001600020819055505050565b80821115611128576111ad565b808210156111955760008290505b6001826111439190611883565b8111611193576004600060018361115a919061182d565b8152602001908152602001600020546004600083815260200190815260200160002081905550808061118b90611947565b915050611136565b505b60046000828152602001908152602001600020600090555b5050565b600081600001549050600081116111fd576040517f08c379a00000000000000000000000000000000000000000000000000000000081526004016111f4906116e8565b60405180910390fd5b6001810382600001819055505050565b6001816000016000828254019250508190555050565b6040518060c00160405280600073ffffffffffffffffffffffffffffffffffffffff16815260200160008152602001600073ffffffffffffffffffffffffffffffffffffffff168152602001600073ffffffffffffffffffffffffffffffffffffffff168152602001600081526020016000151581525090565b6000813590506112ac81611bd9565b92915050565b6000813590506112c181611bf0565b92915050565b600080604083850312156112de576112dd611a1d565b5b60006112ec8582860161129d565b92505060206112fd858286016112b2565b9150509250929050565b6000806000606084860312156113205761131f611a1d565b5b600061132e8682870161129d565b935050602061133f868287016112b2565b9250506040611350868287016112b2565b9150509250925092565b6000806040838503121561137157611370611a1d565b5b600061137f858286016112b2565b9250506020611390858286016112b2565b9150509250929050565b60006113a6838361155f565b60c08301905092915050565b6113bb81611911565b82525050565b6113ca816118c9565b82525050565b6113d9816118b7565b82525050565b6113e8816118b7565b82525050565b60006113f9826117f3565b611403818561180b565b935061140e836117e3565b8060005b8381101561143f578151611426888261139a565b9750611431836117fe565b925050600181019050611412565b5085935050505092915050565b611455816118db565b82525050565b611464816118db565b82525050565b6000611477601b8361181c565b915061148282611a22565b602082019050919050565b600061149a602b8361181c565b91506114a582611a4b565b604082019050919050565b60006114bd60408361181c565b91506114c882611a9a565b604082019050919050565b60006114e060228361181c565b91506114eb82611ae9565b604082019050919050565b600061150360228361181c565b915061150e82611b38565b604082019050919050565b6000611526601f8361181c565b915061153182611b87565b602082019050919050565b6000611549601c8361181c565b915061155482611bb0565b602082019050919050565b60c08201600082015161157560008501826113d0565b50602082015161158860208501826115da565b50604082015161159b60408501826113c1565b5060608201516115ae60608501826113c1565b5060808201516115c160808501826115da565b5060a08201516115d460a085018261144c565b50505050565b6115e381611907565b82525050565b6115f281611907565b82525050565b600060208201905061160d60008301846113df565b92915050565b600060608201905061162860008301866113b2565b61163560208301856115e9565b61164260408301846115e9565b949350505050565b600060608201905061165f60008301866113df565b61166c60208301856113df565b61167960408301846115e9565b949350505050565b600060808201905061169660008301876113df565b6116a360208301866113df565b6116b060408301856115e9565b6116bd606083018461145b565b95945050505050565b600060208201905081810360008301526116e081846113ee565b905092915050565b600060208201905081810360008301526117018161146a565b9050919050565b600060208201905081810360008301526117218161148d565b9050919050565b60006020820190508181036000830152611741816114b0565b9050919050565b60006020820190508181036000830152611761816114d3565b9050919050565b60006020820190508181036000830152611781816114f6565b9050919050565b600060208201905081810360008301526117a181611519565b9050919050565b600060208201905081810360008301526117c18161153c565b9050919050565b60006020820190506117dd60008301846115e9565b92915050565b6000819050602082019050919050565b600081519050919050565b6000602082019050919050565b600082825260208201905092915050565b600082825260208201905092915050565b600061183882611907565b915061184383611907565b9250827fffffffffffffffffffffffffffffffffffffffffffffffffffffffffffffffff0382111561187857611877611990565b5b828201905092915050565b600061188e82611907565b915061189983611907565b9250828210156118ac576118ab611990565b5b828203905092915050565b60006118c2826118e7565b9050919050565b60006118d4826118e7565b9050919050565b60008115159050919050565b600073ffffffffffffffffffffffffffffffffffffffff82169050919050565b6000819050919050565b600061191c82611923565b9050919050565b600061192e82611935565b9050919050565b6000611940826118e7565b9050919050565b600061195282611907565b91507fffffffffffffffffffffffffffffffffffffffffffffffffffffffffffffffff82141561198557611984611990565b5b600182019050919050565b7f4e487b7100000000000000000000000000000000000000000000000000000000600052601160045260246000fd5b7f4e487b7100000000000000000000000000000000000000000000000000000000600052603260045260246000fd5b7f4e487b7100000000000000000000000000000000000000000000000000000000600052604160045260246000fd5b600080fd5b7f436f756e7465723a2064656372656d656e74206f766572666c6f770000000000600082015250565b7f4f6e6c79206974656d2073656c6c65722063616e20706572666f726d2074686960008201527f73206f7065726174696f6e000000000000000000000000000000000000000000602082015250565b7f506c65617365207375626d6974207468652061736b696e67207072696365206960008201527f6e206f7264657220746f20636f6d706c65746520746865207075726368617365602082015250565b7f4974656d20736f6c642e2043616e206e6f742063616e63656c206c697374696e60008201527f6721000000000000000000000000000000000000000000000000000000000000602082015250565b7f4974656d20736f6c642e2043616e206e6f7420757064617465206c697374696e60008201527f6721000000000000000000000000000000000000000000000000000000000000602082015250565b7f5265656e7472616e637947756172643a207265656e7472616e742063616c6c00600082015250565b7f5072696365206d757374206265206174206c6561737420312077656900000000600082015250565b611be2816118b7565b8114611bed57600080fd5b50565b611bf981611907565b8114611c0457600080fd5b5056fea2646970667358221220c359d43a76d1b43149ee290a096629ffc00b2437cb95129a74844e1a3ed97c4264736f6c63430008070033",
  "immutableReferences": {},
  "source": "// SPDX-License-Identifier: MIT\npragma solidity ^0.8.7;\n\nimport \"@openzeppelin/contracts/token/ERC721/ERC721.sol\";\nimport \"@openzeppelin/contracts/utils/Counters.sol\";\nimport \"@openzeppelin/contracts/security/ReentrancyGuard.sol\";\n\nimport \"./DauDQNFT.sol\";\n\ncontract NFTMarket is\n\tReentrancyGuard\n{\n    using Counters for Counters.Counter;\n\tCounters.Counter private _itemIds;\n\n\tuint256 priceTax = 0;\n\n\tconstructor() {\n\t\t//\n\t}\n\n\tstruct MarketItem {\n\t\taddress nftContract;\n\t\tuint256 tokenId;\n\t\taddress payable seller;\n\t\taddress payable owner;\n\t\tuint256 price;\n\t\tbool sold;\n\t}\n\n\t/* Array of items that listing on market */\n\tmapping(uint256 => MarketItem) private marketItems;\n\n\t/* Sequence array of token IDs */\n\tmapping(uint256 => uint256) private marketTokenIDs;\n\n\tevent NewListingEvent (\n\t\taddress indexed nftContract,\n\t\tuint256 indexed tokenId,\n\t\taddress seller,\n\t\taddress owner,\n\t\tuint256 price,\n\t\tbool sold\n\t);\n\n\tevent UpdateListingEvent (\n\t\tuint256 indexed tokenId,\n\t\tuint256 price\n\t);\n\n\tevent PurchasedListingEvent (\n\t\taddress indexed nftContract,\n\t\tuint256 indexed tokenID,\n\t\taddress indexed buyer,\n\t\taddress seller,\n\t\tuint256 price,\n\t\tuint256 priceTax\n\t);\n\n\tevent CancelListingEvent (\n\t\taddress indexed nftContract,\n\t\tuint256 indexed tokenID,\n\t\taddress indexed owner,\n\t\taddress seller\n\t);\n\n\t/* Places an item for sale on the marketplace */\n\tfunction addListing(\n\t\taddress nftContract,\n\t\tuint256 tokenId,\n\t\tuint256 price\n\t) public payable nonReentrant {\n\t\trequire(price > 0, \"Price must be at least 1 wei\");\n\n\t\taddMarketTokenIDs(tokenId);\n\t\n\t\tmarketItems[tokenId] =  MarketItem(\n\t\t\tnftContract,\n\t\t\ttokenId,\n\t\t\tpayable(msg.sender),\n\t\t\tpayable(address(this)),\n\t\t\tprice,\n\t\t\tfalse\n\t\t);\n\n\t\tDauDQNFT(nftContract).transferFrom(msg.sender, address(this), tokenId);\n\n\t\temit NewListingEvent(\n\t\t\tnftContract,\n\t\t\ttokenId,\n\t\t\tmsg.sender,\n\t\t\taddress(this),\n\t\t\tprice,\n\t\t\tfalse\n\t\t);\n\t}\n\n\tfunction updateListing(uint256 tokenId, uint256 price) public payable {\n\t\trequire(marketItems[tokenId].seller == msg.sender, \"Only item seller can perform this operation\");\n\t\trequire(marketItems[tokenId].sold == false, \"Item sold. Can not update listing!\");\n\n\t\tmarketItems[tokenId].price = price;\n\n\t\temit UpdateListingEvent(\n\t\t\ttokenId,\n\t\t\tprice\n\t\t);\n    }\n\n\tfunction cancelListing(address nftContract, uint256 tokenId) public payable {\n\t\trequire(marketItems[tokenId].seller == msg.sender, \"Only item seller can perform this operation\");\n\t\trequire(marketItems[tokenId].sold == false, \"Item sold. Can not cancel listing!\");\n\n\t\tDauDQNFT(nftContract).transferFrom(address(this), msg.sender, tokenId);\n\t\tremoveMarketTokenIDs(tokenId);\n\n\t\temit CancelListingEvent(\n\t\t\tnftContract,\n\t\t\ttokenId,\n\t\t\tmsg.sender,\n\t\t\taddress(this)\n\t\t);\n    }\n\n\t/* Transfers ownership of the item, as well as funds between parties */\n\tfunction buyItem(\n\t\taddress nftContract,\n\t\tuint256 tokenId\n\t) public payable nonReentrant {\n\t\tuint price = marketItems[tokenId].price;\n\t\trequire(msg.value >= price, \"Please submit the asking price in order to complete the purchase\");\n\n\t\tpayable(marketItems[tokenId].seller).transfer(msg.value);\n\t\tDauDQNFT(nftContract).transferFrom(address(this), msg.sender, tokenId);\n\n\t\tremoveMarketTokenIDs(tokenId);\n\t\t\n\t\temit PurchasedListingEvent(nftContract, tokenId, msg.sender, marketItems[tokenId].seller, price, priceTax);\n\t}\n\n\t/* Returns all unsold market items */\n\tfunction fetchMarketItems() public view returns (MarketItem[] memory) {\n\t\tuint itemCount = _itemIds.current();\n\t\tuint currentIndex = 0;\n\t\tuint tokenId = 0;\t\n\n\t\tMarketItem[] memory items = new MarketItem[](itemCount);\n\t\tfor (uint i = 1; i <= itemCount; i++) {\n\t\t\ttokenId = marketTokenIDs[i];\n\t\t\tif (marketItems[tokenId].owner == address(this)) {\n\t\t\t\tMarketItem storage currentItem = marketItems[tokenId];\n\t\t\t\titems[currentIndex] = currentItem;\n\t\t\t\tcurrentIndex += 1;\n\t\t\t}\n\t\t}\n\t\treturn items;\n\t}\n\n\tfunction fetchMyNFTsListingOnMarket() public view returns (MarketItem[] memory) {\n\t\tuint totalItemCount = _itemIds.current();\n\t\tuint itemCount = 0;\n\t\tuint tokenId = 0;\n\n\t\tfor (uint i = 1; i <= totalItemCount; i++) {\n\t\t\ttokenId = marketTokenIDs[i];\n\t\t\tif (marketItems[tokenId].seller == msg.sender) {\n\t\t\t\titemCount += 1;\n\t\t\t}\n\t\t}\n\n\t\tMarketItem[] memory items = new MarketItem[](itemCount);\n\t\tif (itemCount >= 1) {\n\t\t\tfor (uint i = 1; i <= itemCount; i++) {\n\t\t\t\ttokenId = marketTokenIDs[i];\n\t\t\t\tif (marketItems[tokenId].seller == msg.sender) {\n\t\t\t\t\tMarketItem storage currentItem = marketItems[tokenId];\n\t\t\t\t\titems[i - 1] = currentItem;\n\t\t\t\t}\n\t\t\t}\n\t\t}\n\t\treturn items;\n\t}\n\n\tfunction addMarketTokenIDs(uint tokenId) internal {\n\t\t_itemIds.increment();\n\t\tuint currentItemId = _itemIds.current();\n\t\tmarketTokenIDs[currentItemId] = tokenId;\n\t}\n\n\tfunction removeMarketTokenIDs(uint tokenId) internal {\n\t\tuint totalItemCount = _itemIds.current();\n\n\t\tfor (uint i = 1; i < totalItemCount; i++) {\n\t\t\tif (marketTokenIDs[i] == tokenId) {\n\t\t\t\treorganizeMarketTokenIds(i, totalItemCount);\n\t\t\t\tbreak;\n\t\t\t}\n\t\t}\n\n\t\tdelete marketItems[tokenId];\n\n\t\tif (_itemIds.current() > 0) {\n\t\t\t_itemIds.decrement();\n\t\t}\n\t}\n\n\tfunction reorganizeMarketTokenIds (uint index, uint totalItemCount) internal {\n\t\tif (index > totalItemCount) return;\n\n\t\tif (index < totalItemCount) {\n\t\t\tfor (uint i = index; i <= totalItemCount - 1; i++){\n\t\t\t\tmarketTokenIDs[i] = marketTokenIDs[i+1];\n\t\t\t}\n\t\t}\n        delete marketTokenIDs[totalItemCount];\n\t}\n}",
  "sourcePath": "/home/doanquydau/gamota_projects/nft-react-boilerplate/src/truffle/contracts/NFTMarket.sol",
  "compiler": {
    "name": "solc",
    "version": "0.8.7+commit.e28d00a7.Emscripten.clang"
  },
  "schemaVersion": "3.4.4",
  "updatedAt": "2022-03-03T08:53:12.817Z",
  "networkType": "ethereum",
  "devdoc": {
    "kind": "dev",
    "methods": {},
    "version": 1
  },
  "userdoc": {
    "kind": "user",
    "methods": {},
    "version": 1
  }
}