{
  "contractName": "NFTMarket",
  "abi": [
    {
      "inputs": [],
      "stateMutability": "nonpayable",
      "type": "constructor"
    },
    {
      "anonymous": false,
      "inputs": [
        {
          "indexed": true,
          "internalType": "address",
          "name": "nftContract",
          "type": "address"
        },
        {
          "indexed": true,
          "internalType": "uint256",
          "name": "tokenID",
          "type": "uint256"
        },
        {
          "indexed": true,
          "internalType": "address",
          "name": "buyer",
          "type": "address"
        },
        {
          "indexed": false,
          "internalType": "address",
          "name": "seller",
          "type": "address"
        },
        {
          "indexed": false,
          "internalType": "uint256",
          "name": "price",
          "type": "uint256"
        },
        {
          "indexed": false,
          "internalType": "uint256",
          "name": "priceTax",
          "type": "uint256"
        }
      ],
      "name": "PurchasedListing",
      "type": "event"
    },
    {
      "anonymous": false,
      "inputs": [
        {
          "indexed": true,
          "internalType": "uint256",
          "name": "itemId",
          "type": "uint256"
        },
        {
          "indexed": true,
          "internalType": "address",
          "name": "nftContract",
          "type": "address"
        },
        {
          "indexed": true,
          "internalType": "uint256",
          "name": "tokenId",
          "type": "uint256"
        },
        {
          "indexed": false,
          "internalType": "address",
          "name": "seller",
          "type": "address"
        },
        {
          "indexed": false,
          "internalType": "address",
          "name": "owner",
          "type": "address"
        },
        {
          "indexed": false,
          "internalType": "uint256",
          "name": "price",
          "type": "uint256"
        },
        {
          "indexed": false,
          "internalType": "bool",
          "name": "sold",
          "type": "bool"
        }
      ],
      "name": "newListing",
      "type": "event"
    },
    {
      "inputs": [
        {
          "internalType": "address",
          "name": "nftContract",
          "type": "address"
        },
        {
          "internalType": "uint256",
          "name": "tokenId",
          "type": "uint256"
        },
        {
          "internalType": "uint256",
          "name": "price",
          "type": "uint256"
        }
      ],
      "name": "addListing",
      "outputs": [],
      "stateMutability": "payable",
      "type": "function",
      "payable": true
    },
    {
      "inputs": [
        {
          "internalType": "address",
          "name": "nftContract",
          "type": "address"
        },
        {
          "internalType": "uint256",
          "name": "itemId",
          "type": "uint256"
        }
      ],
      "name": "transferItem",
      "outputs": [],
      "stateMutability": "payable",
      "type": "function",
      "payable": true
    },
    {
      "inputs": [],
      "name": "fetchMarketItems",
      "outputs": [
        {
          "components": [
            {
              "internalType": "uint256",
              "name": "itemId",
              "type": "uint256"
            },
            {
              "internalType": "address",
              "name": "nftContract",
              "type": "address"
            },
            {
              "internalType": "uint256",
              "name": "tokenId",
              "type": "uint256"
            },
            {
              "internalType": "address payable",
              "name": "seller",
              "type": "address"
            },
            {
              "internalType": "address payable",
              "name": "owner",
              "type": "address"
            },
            {
              "internalType": "uint256",
              "name": "price",
              "type": "uint256"
            },
            {
              "internalType": "bool",
              "name": "sold",
              "type": "bool"
            }
          ],
          "internalType": "struct NFTMarket.MarketItem[]",
          "name": "",
          "type": "tuple[]"
        }
      ],
      "stateMutability": "view",
      "type": "function",
      "constant": true
    },
    {
      "inputs": [],
      "name": "fetchMyNFTs",
      "outputs": [
        {
          "components": [
            {
              "internalType": "uint256",
              "name": "itemId",
              "type": "uint256"
            },
            {
              "internalType": "address",
              "name": "nftContract",
              "type": "address"
            },
            {
              "internalType": "uint256",
              "name": "tokenId",
              "type": "uint256"
            },
            {
              "internalType": "address payable",
              "name": "seller",
              "type": "address"
            },
            {
              "internalType": "address payable",
              "name": "owner",
              "type": "address"
            },
            {
              "internalType": "uint256",
              "name": "price",
              "type": "uint256"
            },
            {
              "internalType": "bool",
              "name": "sold",
              "type": "bool"
            }
          ],
          "internalType": "struct NFTMarket.MarketItem[]",
          "name": "",
          "type": "tuple[]"
        }
      ],
      "stateMutability": "view",
      "type": "function",
      "constant": true
    },
    {
      "inputs": [],
      "name": "fetchItemsCreated",
      "outputs": [
        {
          "components": [
            {
              "internalType": "uint256",
              "name": "itemId",
              "type": "uint256"
            },
            {
              "internalType": "address",
              "name": "nftContract",
              "type": "address"
            },
            {
              "internalType": "uint256",
              "name": "tokenId",
              "type": "uint256"
            },
            {
              "internalType": "address payable",
              "name": "seller",
              "type": "address"
            },
            {
              "internalType": "address payable",
              "name": "owner",
              "type": "address"
            },
            {
              "internalType": "uint256",
              "name": "price",
              "type": "uint256"
            },
            {
              "internalType": "bool",
              "name": "sold",
              "type": "bool"
            }
          ],
          "internalType": "struct NFTMarket.MarketItem[]",
          "name": "",
          "type": "tuple[]"
        }
      ],
      "stateMutability": "view",
      "type": "function",
      "constant": true
    }
  ],
  "bytecode": "0x608060405234801561001057600080fd5b50600160008190555033600260006101000a81548173ffffffffffffffffffffffffffffffffffffffff021916908373ffffffffffffffffffffffffffffffffffffffff160217905550611b3c806100696000396000f3fe60806040526004361061004a5760003560e01c80630f08efe01461004f578063202e37401461007a57806367c65e99146100a5578063f064c32e146100c1578063f6d36ccb146100ec575b600080fd5b34801561005b57600080fd5b50610064610108565b604051610071919061172d565b60405180910390f35b34801561008657600080fd5b5061008f6103bd565b60405161009c919061172d565b60405180910390f35b6100bf60048036038101906100ba91906113df565b61070b565b005b3480156100cd57600080fd5b506100d6610978565b6040516100e3919061172d565b60405180910390f35b6101066004803603810190610101919061141f565b610cc6565b005b606060006101166001610fe4565b905060006101246001610fe4565b90506000808267ffffffffffffffff811115610143576101426119da565b5b60405190808252806020026020018201604052801561017c57816020015b610169611334565b8152602001906001900390816101615790505b50905060005b848110156103b2573073ffffffffffffffffffffffffffffffffffffffff16600360006001846101b29190611819565b815260200190815260200160002060040160009054906101000a900473ffffffffffffffffffffffffffffffffffffffff1673ffffffffffffffffffffffffffffffffffffffff16141561039f57600060018261020f9190611819565b90506000600360008381526020019081526020016000209050806040518060e0016040529081600082015481526020016001820160009054906101000a900473ffffffffffffffffffffffffffffffffffffffff1673ffffffffffffffffffffffffffffffffffffffff1673ffffffffffffffffffffffffffffffffffffffff168152602001600282015481526020016003820160009054906101000a900473ffffffffffffffffffffffffffffffffffffffff1673ffffffffffffffffffffffffffffffffffffffff1673ffffffffffffffffffffffffffffffffffffffff1681526020016004820160009054906101000a900473ffffffffffffffffffffffffffffffffffffffff1673ffffffffffffffffffffffffffffffffffffffff1673ffffffffffffffffffffffffffffffffffffffff168152602001600582015481526020016006820160009054906101000a900460ff161515151581525050848681518110610382576103816119ab565b5b602002602001018190525060018561039a9190611819565b945050505b80806103aa90611933565b915050610182565b508094505050505090565b606060006103cb6001610fe4565b905060008060005b83811015610474573373ffffffffffffffffffffffffffffffffffffffff16600360006001846104039190611819565b815260200190815260200160002060040160009054906101000a900473ffffffffffffffffffffffffffffffffffffffff1673ffffffffffffffffffffffffffffffffffffffff1614156104615760018361045e9190611819565b92505b808061046c90611933565b9150506103d3565b5060008267ffffffffffffffff811115610491576104906119da565b5b6040519080825280602002602001820160405280156104ca57816020015b6104b7611334565b8152602001906001900390816104af5790505b50905060005b84811015610700573373ffffffffffffffffffffffffffffffffffffffff16600360006001846105009190611819565b815260200190815260200160002060040160009054906101000a900473ffffffffffffffffffffffffffffffffffffffff1673ffffffffffffffffffffffffffffffffffffffff1614156106ed57600060018261055d9190611819565b90506000600360008381526020019081526020016000209050806040518060e0016040529081600082015481526020016001820160009054906101000a900473ffffffffffffffffffffffffffffffffffffffff1673ffffffffffffffffffffffffffffffffffffffff1673ffffffffffffffffffffffffffffffffffffffff168152602001600282015481526020016003820160009054906101000a900473ffffffffffffffffffffffffffffffffffffffff1673ffffffffffffffffffffffffffffffffffffffff1673ffffffffffffffffffffffffffffffffffffffff1681526020016004820160009054906101000a900473ffffffffffffffffffffffffffffffffffffffff1673ffffffffffffffffffffffffffffffffffffffff1673ffffffffffffffffffffffffffffffffffffffff168152602001600582015481526020016006820160009054906101000a900460ff1615151515815250508486815181106106d0576106cf6119ab565b5b60200260200101819052506001856106e89190611819565b945050505b80806106f890611933565b9150506104d0565b508094505050505090565b60026000541415610751576040517f08c379a00000000000000000000000000000000000000000000000000000000081526004016107489061178f565b60405180910390fd5b6002600081905550600060036000838152602001908152602001600020600501549050803410156107b7576040517f08c379a00000000000000000000000000000000000000000000000000000000081526004016107ae9061176f565b60405180910390fd5b60006003600084815260200190815260200160002060020154905060006003600085815260200190815260200160002060030160009054906101000a900473ffffffffffffffffffffffffffffffffffffffff1673ffffffffffffffffffffffffffffffffffffffff166108fc349081150290604051600060405180830381858888f19350505050158015610850573d6000803e3d6000fd5b508473ffffffffffffffffffffffffffffffffffffffff166323b872dd3033856040518463ffffffff1660e01b815260040161088e939291906116b1565b600060405180830381600087803b1580156108a857600080fd5b505af11580156108bc573d6000803e3d6000fd5b505050506108c984610ff2565b3373ffffffffffffffffffffffffffffffffffffffff16828673ffffffffffffffffffffffffffffffffffffffff167f4d6e80f8d9606645af002ee25aced656e9f8d07be7bc5fb7dbd9a808799b438a6003600089815260200190815260200160002060030160009054906101000a900473ffffffffffffffffffffffffffffffffffffffff1687866040516109619392919061167a565b60405180910390a450505060016000819055505050565b606060006109866001610fe4565b905060008060005b83811015610a2f573373ffffffffffffffffffffffffffffffffffffffff16600360006001846109be9190611819565b815260200190815260200160002060030160009054906101000a900473ffffffffffffffffffffffffffffffffffffffff1673ffffffffffffffffffffffffffffffffffffffff161415610a1c57600183610a199190611819565b92505b8080610a2790611933565b91505061098e565b5060008267ffffffffffffffff811115610a4c57610a4b6119da565b5b604051908082528060200260200182016040528015610a8557816020015b610a72611334565b815260200190600190039081610a6a5790505b50905060005b84811015610cbb573373ffffffffffffffffffffffffffffffffffffffff1660036000600184610abb9190611819565b815260200190815260200160002060030160009054906101000a900473ffffffffffffffffffffffffffffffffffffffff1673ffffffffffffffffffffffffffffffffffffffff161415610ca8576000600182610b189190611819565b90506000600360008381526020019081526020016000209050806040518060e0016040529081600082015481526020016001820160009054906101000a900473ffffffffffffffffffffffffffffffffffffffff1673ffffffffffffffffffffffffffffffffffffffff1673ffffffffffffffffffffffffffffffffffffffff168152602001600282015481526020016003820160009054906101000a900473ffffffffffffffffffffffffffffffffffffffff1673ffffffffffffffffffffffffffffffffffffffff1673ffffffffffffffffffffffffffffffffffffffff1681526020016004820160009054906101000a900473ffffffffffffffffffffffffffffffffffffffff1673ffffffffffffffffffffffffffffffffffffffff1673ffffffffffffffffffffffffffffffffffffffff168152602001600582015481526020016006820160009054906101000a900460ff161515151581525050848681518110610c8b57610c8a6119ab565b5b6020026020010181905250600185610ca39190611819565b945050505b8080610cb390611933565b915050610a8b565b508094505050505090565b60026000541415610d0c576040517f08c379a0000000000000000000000000000000000000000000000000000000008152600401610d039061178f565b60405180910390fd5b600260008190555060008111610d57576040517f08c379a0000000000000000000000000000000000000000000000000000000008152600401610d4e906117af565b60405180910390fd5b610d6160016112c2565b6000610d6d6001610fe4565b90506040518060e001604052808281526020018573ffffffffffffffffffffffffffffffffffffffff1681526020018481526020013373ffffffffffffffffffffffffffffffffffffffff1681526020013073ffffffffffffffffffffffffffffffffffffffff16815260200183815260200160001515815250600360008381526020019081526020016000206000820151816000015560208201518160010160006101000a81548173ffffffffffffffffffffffffffffffffffffffff021916908373ffffffffffffffffffffffffffffffffffffffff1602179055506040820151816002015560608201518160030160006101000a81548173ffffffffffffffffffffffffffffffffffffffff021916908373ffffffffffffffffffffffffffffffffffffffff16021790555060808201518160040160006101000a81548173ffffffffffffffffffffffffffffffffffffffff021916908373ffffffffffffffffffffffffffffffffffffffff16021790555060a0820151816005015560c08201518160060160006101000a81548160ff0219169083151502179055509050508373ffffffffffffffffffffffffffffffffffffffff166323b872dd3330866040518463ffffffff1660e01b8152600401610f4d939291906116b1565b600060405180830381600087803b158015610f6757600080fd5b505af1158015610f7b573d6000803e3d6000fd5b50505050828473ffffffffffffffffffffffffffffffffffffffff16827fdd520162c1d393e7f4009bc39a000ad3112ce831953b1eb4d4eb203ca7d794963330876000604051610fce94939291906116e8565b60405180910390a4506001600081905550505050565b600081600001549050919050565b6000610ffe6001610fe4565b905080821061100d57506112bf565b60008290505b600182611020919061186f565b8110156111ef57600360006001836110389190611819565b815260200190815260200160002060036000838152602001908152602001600020600082015481600001556001820160009054906101000a900473ffffffffffffffffffffffffffffffffffffffff168160010160006101000a81548173ffffffffffffffffffffffffffffffffffffffff021916908373ffffffffffffffffffffffffffffffffffffffff160217905550600282015481600201556003820160009054906101000a900473ffffffffffffffffffffffffffffffffffffffff168160030160006101000a81548173ffffffffffffffffffffffffffffffffffffffff021916908373ffffffffffffffffffffffffffffffffffffffff1602179055506004820160009054906101000a900473ffffffffffffffffffffffffffffffffffffffff168160040160006101000a81548173ffffffffffffffffffffffffffffffffffffffff021916908373ffffffffffffffffffffffffffffffffffffffff160217905550600582015481600501556006820160009054906101000a900460ff168160060160006101000a81548160ff02191690831515021790555090505080806111e790611933565b915050611013565b5060036000600183611201919061186f565b81526020019081526020016000206000808201600090556001820160006101000a81549073ffffffffffffffffffffffffffffffffffffffff021916905560028201600090556003820160006101000a81549073ffffffffffffffffffffffffffffffffffffffff02191690556004820160006101000a81549073ffffffffffffffffffffffffffffffffffffffff021916905560058201600090556006820160006101000a81549060ff021916905550506112bd60016112d8565b505b50565b6001816000016000828254019250508190555050565b60008160000154905060008111611324576040517f08c379a000000000000000000000000000000000000000000000000000000000815260040161131b9061174f565b60405180910390fd5b6001810382600001819055505050565b6040518060e0016040528060008152602001600073ffffffffffffffffffffffffffffffffffffffff16815260200160008152602001600073ffffffffffffffffffffffffffffffffffffffff168152602001600073ffffffffffffffffffffffffffffffffffffffff168152602001600081526020016000151581525090565b6000813590506113c481611ad8565b92915050565b6000813590506113d981611aef565b92915050565b600080604083850312156113f6576113f5611a09565b5b6000611404858286016113b5565b9250506020611415858286016113ca565b9150509250929050565b60008060006060848603121561143857611437611a09565b5b6000611446868287016113b5565b9350506020611457868287016113ca565b9250506040611468868287016113ca565b9150509250925092565b600061147e83836115ce565b60e08301905092915050565b611493816118fd565b82525050565b6114a2816118b5565b82525050565b6114b1816118a3565b82525050565b6114c0816118a3565b82525050565b60006114d1826117df565b6114db81856117f7565b93506114e6836117cf565b8060005b838110156115175781516114fe8882611472565b9750611509836117ea565b9250506001810190506114ea565b5085935050505092915050565b61152d816118c7565b82525050565b61153c816118c7565b82525050565b600061154f601b83611808565b915061155a82611a0e565b602082019050919050565b6000611572604083611808565b915061157d82611a37565b604082019050919050565b6000611595601f83611808565b91506115a082611a86565b602082019050919050565b60006115b8601c83611808565b91506115c382611aaf565b602082019050919050565b60e0820160008201516115e4600085018261165c565b5060208201516115f760208501826114a8565b50604082015161160a604085018261165c565b50606082015161161d6060850182611499565b5060808201516116306080850182611499565b5060a082015161164360a085018261165c565b5060c082015161165660c0850182611524565b50505050565b611665816118f3565b82525050565b611674816118f3565b82525050565b600060608201905061168f600083018661148a565b61169c602083018561166b565b6116a9604083018461166b565b949350505050565b60006060820190506116c660008301866114b7565b6116d360208301856114b7565b6116e0604083018461166b565b949350505050565b60006080820190506116fd60008301876114b7565b61170a60208301866114b7565b611717604083018561166b565b6117246060830184611533565b95945050505050565b6000602082019050818103600083015261174781846114c6565b905092915050565b6000602082019050818103600083015261176881611542565b9050919050565b6000602082019050818103600083015261178881611565565b9050919050565b600060208201905081810360008301526117a881611588565b9050919050565b600060208201905081810360008301526117c8816115ab565b9050919050565b6000819050602082019050919050565b600081519050919050565b6000602082019050919050565b600082825260208201905092915050565b600082825260208201905092915050565b6000611824826118f3565b915061182f836118f3565b9250827fffffffffffffffffffffffffffffffffffffffffffffffffffffffffffffffff038211156118645761186361197c565b5b828201905092915050565b600061187a826118f3565b9150611885836118f3565b9250828210156118985761189761197c565b5b828203905092915050565b60006118ae826118d3565b9050919050565b60006118c0826118d3565b9050919050565b60008115159050919050565b600073ffffffffffffffffffffffffffffffffffffffff82169050919050565b6000819050919050565b60006119088261190f565b9050919050565b600061191a82611921565b9050919050565b600061192c826118d3565b9050919050565b600061193e826118f3565b91507fffffffffffffffffffffffffffffffffffffffffffffffffffffffffffffffff8214156119715761197061197c565b5b600182019050919050565b7f4e487b7100000000000000000000000000000000000000000000000000000000600052601160045260246000fd5b7f4e487b7100000000000000000000000000000000000000000000000000000000600052603260045260246000fd5b7f4e487b7100000000000000000000000000000000000000000000000000000000600052604160045260246000fd5b600080fd5b7f436f756e7465723a2064656372656d656e74206f766572666c6f770000000000600082015250565b7f506c65617365207375626d6974207468652061736b696e67207072696365206960008201527f6e206f7264657220746f20636f6d706c65746520746865207075726368617365602082015250565b7f5265656e7472616e637947756172643a207265656e7472616e742063616c6c00600082015250565b7f5072696365206d757374206265206174206c6561737420312077656900000000600082015250565b611ae1816118a3565b8114611aec57600080fd5b50565b611af8816118f3565b8114611b0357600080fd5b5056fea264697066735822122055b5b3e9b6fdc5bffe337fb63115b9dddc4955663bd2f2dbc159b456481e5a8364736f6c63430008060033",
  "immutableReferences": {},
  "source": "// SPDX-License-Identifier: MIT\n\npragma solidity ^0.8.6;\n\nimport \"@openzeppelin/contracts/token/ERC721/ERC721.sol\";\n// import \"@openzeppelin/contracts/token/ERC20/ERC20.sol\";\nimport \"@openzeppelin/contracts/utils/Counters.sol\";\nimport \"@openzeppelin/contracts/security/ReentrancyGuard.sol\";\n\nimport \"./DauDQNFT.sol\";\n\ncontract NFTMarket is\n\tReentrancyGuard\n{\n    using Counters for Counters.Counter;\n\tCounters.Counter private _itemIds;\n\n\taddress payable owner;\n\n\tconstructor() {\n\t\towner = payable(msg.sender);\n\t}\n\n\tstruct MarketItem {\n\t\tuint itemId;\n\t\taddress nftContract;\n\t\tuint256 tokenId;\n\t\taddress payable seller;\n\t\taddress payable owner;\n\t\tuint256 price;\n\t\tbool sold;\n\t}\n\n\tmapping(uint256 => MarketItem) private idToMarketItem;\n\n\tevent newListing (\n\t\tuint indexed itemId,\n\t\taddress indexed nftContract,\n\t\tuint256 indexed tokenId,\n\t\taddress seller,\n\t\taddress owner,\n\t\tuint256 price,\n\t\tbool sold\n\t);\n\n\tevent PurchasedListing(\n\t\taddress indexed nftContract,\n\t\tuint256 indexed tokenID,\n\t\taddress indexed buyer,\n\t\taddress seller,\n\t\tuint256 price,\n\t\tuint256 priceTax\n\t);\n\n\t\n\t/* Places an item for sale on the marketplace */\n\tfunction addListing(\n\t\taddress nftContract,\n\t\tuint256 tokenId,\n\t\tuint256 price\n\t) public payable nonReentrant {\n\t\trequire(price > 0, \"Price must be at least 1 wei\");\n\n\t\t_itemIds.increment();\n\t\tuint256 itemId = _itemIds.current();\n\t\n\t\tidToMarketItem[itemId] =  MarketItem(\n\t\t\titemId,\n\t\t\tnftContract,\n\t\t\ttokenId,\n\t\t\tpayable(msg.sender),\n\t\t\tpayable(address(this)),\n\t\t\tprice,\n\t\t\tfalse\n\t\t);\n\n\t\tERC721(nftContract).transferFrom(msg.sender, address(this), tokenId);\n\n\t\temit newListing(\n\t\t\titemId,\n\t\t\tnftContract,\n\t\t\ttokenId,\n\t\t\tmsg.sender,\n\t\t\taddress(this),\n\t\t\tprice,\n\t\t\tfalse\n\t\t);\n\t}\n\n\t/* Creates the sale of a marketplace item */\n\t/* Transfers ownership of the item, as well as funds between parties */\n\tfunction transferItem(\n\t\taddress nftContract,\n\t\tuint256 itemId\n\t) public payable nonReentrant {\n\t\tuint price = idToMarketItem[itemId].price;\n\t\trequire(msg.value >= price, \"Please submit the asking price in order to complete the purchase\");\n\n\t\tuint tokenId = idToMarketItem[itemId].tokenId;\n\t\tuint taxAmount = 0;\n\n\t\tpayable(idToMarketItem[itemId].seller).transfer(msg.value);\n\n\t\tERC721(nftContract).transferFrom(address(this), msg.sender, tokenId);\n\t\tremove(itemId);\n\t\t\n\t\temit PurchasedListing(nftContract, tokenId, msg.sender, idToMarketItem[itemId].seller, price, taxAmount);\n\t}\n\n\t/* Returns all unsold market items */\n\tfunction fetchMarketItems() public view returns (MarketItem[] memory) {\n\t\tuint itemCount = _itemIds.current();\n\t\tuint unsoldItemCount = _itemIds.current();\n\t\tuint currentIndex = 0;\n\n\t\tMarketItem[] memory items = new MarketItem[](unsoldItemCount);\n\t\tfor (uint i = 0; i < itemCount; i++) {\n\t\t\tif (idToMarketItem[i + 1].owner == address(this)) {\n\t\t\t\tuint currentId =  i + 1;\n\t\t\t\tMarketItem storage currentItem = idToMarketItem[currentId];\n\t\t\t\titems[currentIndex] = currentItem;\n\t\t\t\tcurrentIndex += 1;\n\t\t\t}\n\t\t}\n\t\treturn items;\n\t}\n\n\t/* Returns only items that a user has purchased */\n\tfunction fetchMyNFTs() public view returns (MarketItem[] memory) {\n\t\tuint totalItemCount = _itemIds.current();\n\t\tuint itemCount = 0;\n\t\tuint currentIndex = 0;\n\n\t\tfor (uint i = 0; i < totalItemCount; i++) {\n\t\t\tif (idToMarketItem[i + 1].owner == msg.sender) {\n\t\t\t\titemCount += 1;\n\t\t\t}\n\t\t}\n\n\t\tMarketItem[] memory items = new MarketItem[](itemCount);\n\t\tfor (uint i = 0; i < totalItemCount; i++) {\n\t\t\tif (idToMarketItem[i + 1].owner == msg.sender) {\n\t\t\t\tuint currentId =  i + 1;\n\t\t\t\tMarketItem storage currentItem = idToMarketItem[currentId];\n\t\t\t\titems[currentIndex] = currentItem;\n\t\t\t\tcurrentIndex += 1;\n\t\t\t}\n\t\t}\n\t\treturn items;\n\t}\n\n\t/* Returns only items a user has created */\n\tfunction fetchItemsCreated() public view returns (MarketItem[] memory) {\n\t\tuint totalItemCount = _itemIds.current();\n\t\tuint itemCount = 0;\n\t\tuint currentIndex = 0;\n\n\t\tfor (uint i = 0; i < totalItemCount; i++) {\n\t\t\tif (idToMarketItem[i + 1].seller == msg.sender) {\n\t\t\t\titemCount += 1;\n\t\t\t}\n\t\t}\n\n\t\tMarketItem[] memory items = new MarketItem[](itemCount);\n\t\tfor (uint i = 0; i < totalItemCount; i++) {\n\t\t\tif (idToMarketItem[i + 1].seller == msg.sender) {\n\t\t\t\tuint currentId = i + 1;\n\t\t\t\tMarketItem storage currentItem = idToMarketItem[currentId];\n\t\t\t\titems[currentIndex] = currentItem;\n\t\t\t\tcurrentIndex += 1;\n\t\t\t}\n\t\t}\n\t\treturn items;\n\t}\n\n\tfunction remove(uint index) internal {\n\t\tuint countItem = _itemIds.current();\n        if (index >= countItem) return;\n\n        for (uint i = index; i < countItem - 1; i++){\n            idToMarketItem[i] = idToMarketItem[i+1];\n        }\n        delete idToMarketItem[countItem-1];\n\n\t\t_itemIds.decrement();\n    }\n}",
  "sourcePath": "/home/doanquydau/gamota_projects/nft-react-boilerplate/src/truffle/contracts/NFTMarket.sol",
  "compiler": {
    "name": "solc",
    "version": "0.8.6+commit.11564f7e.Emscripten.clang"
  },
  "schemaVersion": "3.4.4",
  "updatedAt": "2022-02-22T10:05:03.957Z",
  "networkType": "ethereum",
  "devdoc": {
    "kind": "dev",
    "methods": {},
    "version": 1
  },
  "userdoc": {
    "kind": "user",
    "methods": {},
    "version": 1
  }
}