{
  "contractName": "NFTMarket",
  "abi": [
    {
      "anonymous": false,
      "inputs": [
        {
          "indexed": true,
          "internalType": "address",
          "name": "seller",
          "type": "address"
        },
        {
          "indexed": true,
          "internalType": "contract IERC721",
          "name": "nftAddress",
          "type": "address"
        },
        {
          "indexed": true,
          "internalType": "uint256",
          "name": "nftID",
          "type": "uint256"
        }
      ],
      "name": "CancelledListing",
      "type": "event"
    },
    {
      "anonymous": false,
      "inputs": [
        {
          "indexed": true,
          "internalType": "address",
          "name": "seller",
          "type": "address"
        },
        {
          "indexed": true,
          "internalType": "contract IERC721",
          "name": "nftAddress",
          "type": "address"
        },
        {
          "indexed": true,
          "internalType": "uint256",
          "name": "nftID",
          "type": "uint256"
        },
        {
          "indexed": false,
          "internalType": "uint256",
          "name": "newPrice",
          "type": "uint256"
        }
      ],
      "name": "ListingPriceChange",
      "type": "event"
    },
    {
      "anonymous": false,
      "inputs": [
        {
          "indexed": true,
          "internalType": "address",
          "name": "seller",
          "type": "address"
        },
        {
          "indexed": true,
          "internalType": "contract IERC721",
          "name": "nftAddress",
          "type": "address"
        },
        {
          "indexed": true,
          "internalType": "uint256",
          "name": "nftID",
          "type": "uint256"
        },
        {
          "indexed": false,
          "internalType": "uint256",
          "name": "price",
          "type": "uint256"
        }
      ],
      "name": "NewListing",
      "type": "event"
    },
    {
      "anonymous": false,
      "inputs": [
        {
          "indexed": true,
          "internalType": "address",
          "name": "previousOwner",
          "type": "address"
        },
        {
          "indexed": true,
          "internalType": "address",
          "name": "newOwner",
          "type": "address"
        }
      ],
      "name": "OwnershipTransferred",
      "type": "event"
    },
    {
      "anonymous": false,
      "inputs": [
        {
          "indexed": true,
          "internalType": "address",
          "name": "buyer",
          "type": "address"
        },
        {
          "indexed": false,
          "internalType": "address",
          "name": "seller",
          "type": "address"
        },
        {
          "indexed": true,
          "internalType": "contract IERC721",
          "name": "nftAddress",
          "type": "address"
        },
        {
          "indexed": true,
          "internalType": "uint256",
          "name": "nftID",
          "type": "uint256"
        },
        {
          "indexed": false,
          "internalType": "uint256",
          "name": "priceTax",
          "type": "uint256"
        },
        {
          "indexed": false,
          "internalType": "uint256",
          "name": "price",
          "type": "uint256"
        }
      ],
      "name": "PurchasedListing",
      "type": "event"
    },
    {
      "inputs": [],
      "name": "nftItem",
      "outputs": [
        {
          "internalType": "contract DauDQCoin",
          "name": "",
          "type": "address"
        }
      ],
      "stateMutability": "view",
      "type": "function"
    },
    {
      "inputs": [],
      "name": "owner",
      "outputs": [
        {
          "internalType": "address",
          "name": "",
          "type": "address"
        }
      ],
      "stateMutability": "view",
      "type": "function"
    },
    {
      "inputs": [],
      "name": "renounceOwnership",
      "outputs": [],
      "stateMutability": "nonpayable",
      "type": "function"
    },
    {
      "inputs": [
        {
          "internalType": "address",
          "name": "newOwner",
          "type": "address"
        }
      ],
      "name": "transferOwnership",
      "outputs": [],
      "stateMutability": "nonpayable",
      "type": "function"
    },
    {
      "inputs": [
        {
          "internalType": "contract DauDQCoin",
          "name": "_nftItem",
          "type": "address"
        }
      ],
      "name": "initialize",
      "outputs": [],
      "stateMutability": "nonpayable",
      "type": "function"
    },
    {
      "inputs": [
        {
          "internalType": "address",
          "name": "owner_addr",
          "type": "address"
        }
      ],
      "name": "getTokenIDsByOwner",
      "outputs": [
        {
          "internalType": "uint256[]",
          "name": "",
          "type": "uint256[]"
        }
      ],
      "stateMutability": "view",
      "type": "function"
    },
    {
      "inputs": [
        {
          "internalType": "uint256",
          "name": "tokenID",
          "type": "uint256"
        }
      ],
      "name": "getTokenUriByID",
      "outputs": [
        {
          "internalType": "string",
          "name": "",
          "type": "string"
        }
      ],
      "stateMutability": "view",
      "type": "function"
    },
    {
      "inputs": [
        {
          "internalType": "address",
          "name": "from",
          "type": "address"
        },
        {
          "internalType": "address",
          "name": "nftContract",
          "type": "address"
        },
        {
          "internalType": "uint256",
          "name": "tokenID",
          "type": "uint256"
        },
        {
          "internalType": "uint256",
          "name": "_price",
          "type": "uint256"
        }
      ],
      "name": "createNewListing",
      "outputs": [],
      "stateMutability": "nonpayable",
      "type": "function"
    },
    {
      "inputs": [
        {
          "internalType": "address",
          "name": "",
          "type": "address"
        },
        {
          "internalType": "address",
          "name": "",
          "type": "address"
        },
        {
          "internalType": "uint256",
          "name": "_id",
          "type": "uint256"
        },
        {
          "internalType": "bytes",
          "name": "",
          "type": "bytes"
        }
      ],
      "name": "onERC721Received",
      "outputs": [
        {
          "internalType": "bytes4",
          "name": "",
          "type": "bytes4"
        }
      ],
      "stateMutability": "view",
      "type": "function"
    }
  ],
  "bytecode": "0x608060405234801561001057600080fd5b5061002d61002261003260201b60201c565b61003a60201b60201c565b6100ff565b600033905090565b60008060029054906101000a900473ffffffffffffffffffffffffffffffffffffffff16905081600060026101000a81548173ffffffffffffffffffffffffffffffffffffffff021916908373ffffffffffffffffffffffffffffffffffffffff1602179055508173ffffffffffffffffffffffffffffffffffffffff168173ffffffffffffffffffffffffffffffffffffffff167f8be0079c531659141344cd1fd0a4f28419497f9722a3daafe3b4186f6b6457e060405160405180910390a35050565b61185b8061010e6000396000f3fe608060405234801561001057600080fd5b50600436106100935760003560e01c80638da5cb5b116100665780638da5cb5b14610132578063a1e0501114610150578063c4d66de81461016e578063f2fde38b1461018a578063f32fceda146101a657610093565b8063150b7a0214610098578063715018a6146100c8578063749f98f4146100d25780638ad1ad4314610102575b600080fd5b6100b260048036038101906100ad9190610f30565b6101c2565b6040516100bf9190611305565b60405180910390f35b6100d06101d7565b005b6100ec60048036038101906100e79190610f03565b61025f565b6040516100f991906112e3565b60405180910390f35b61011c600480360381019061011791906110de565b61031e565b604051610129919061133b565b60405180910390f35b61013a6103dd565b6040516101479190611291565b60405180910390f35b610158610406565b6040516101659190611320565b60405180910390f35b61018860048036038101906101839190611068565b61042c565b005b6101a4600480360381019061019f9190610f03565b610552565b005b6101c060048036038101906101bb9190610fb8565b61064a565b005b600063150b7a0260e01b905095945050505050565b6101df610906565b73ffffffffffffffffffffffffffffffffffffffff166101fd6103dd565b73ffffffffffffffffffffffffffffffffffffffff1614610253576040517f08c379a000000000000000000000000000000000000000000000000000000000815260040161024a906113bd565b60405180910390fd5b61025d600061090e565b565b60606000600160009054906101000a900473ffffffffffffffffffffffffffffffffffffffff1673ffffffffffffffffffffffffffffffffffffffff1663e2afe8b3846040518263ffffffff1660e01b81526004016102be9190611291565b60006040518083038186803b1580156102d657600080fd5b505afa1580156102ea573d6000803e3d6000fd5b505050506040513d6000823e3d601f19601f82011682018060405250810190610313919061101f565b905080915050919050565b60606000600160009054906101000a900473ffffffffffffffffffffffffffffffffffffffff1673ffffffffffffffffffffffffffffffffffffffff1663c87b56dd846040518263ffffffff1660e01b815260040161037d91906113dd565b60006040518083038186803b15801561039557600080fd5b505afa1580156103a9573d6000803e3d6000fd5b505050506040513d6000823e3d601f19601f820116820180604052508101906103d29190611095565b905080915050919050565b60008060029054906101000a900473ffffffffffffffffffffffffffffffffffffffff16905090565b600160009054906101000a900473ffffffffffffffffffffffffffffffffffffffff1681565b600060019054906101000a900460ff166104545760008054906101000a900460ff161561045d565b61045c6109d3565b5b61049c576040517f08c379a00000000000000000000000000000000000000000000000000000000081526004016104939061139d565b60405180910390fd5b60008060019054906101000a900460ff1615905080156104ec576001600060016101000a81548160ff02191690831515021790555060016000806101000a81548160ff0219169083151502179055505b81600160006101000a81548173ffffffffffffffffffffffffffffffffffffffff021916908373ffffffffffffffffffffffffffffffffffffffff160217905550801561054e5760008060016101000a81548160ff0219169083151502179055505b5050565b61055a610906565b73ffffffffffffffffffffffffffffffffffffffff166105786103dd565b73ffffffffffffffffffffffffffffffffffffffff16146105ce576040517f08c379a00000000000000000000000000000000000000000000000000000000081526004016105c5906113bd565b60405180910390fd5b600073ffffffffffffffffffffffffffffffffffffffff168173ffffffffffffffffffffffffffffffffffffffff16141561063e576040517f08c379a00000000000000000000000000000000000000000000000000000000081526004016106359061135d565b60405180910390fd5b6106478161090e565b50565b82826106608260026109e490919063ffffffff16565b15806106ba57506106b881600760008573ffffffffffffffffffffffffffffffffffffffff1673ffffffffffffffffffffffffffffffffffffffff168152602001908152602001600020610a1490919063ffffffff16565b155b6106f9576040517f08c379a00000000000000000000000000000000000000000000000000000000081526004016106f09061137d565b60405180910390fd5b600085905060405180604001604052808873ffffffffffffffffffffffffffffffffffffffff16815260200185815250600660008373ffffffffffffffffffffffffffffffffffffffff1673ffffffffffffffffffffffffffffffffffffffff168152602001908152602001600020600087815260200190815260200160002060008201518160000160006101000a81548173ffffffffffffffffffffffffffffffffffffffff021916908373ffffffffffffffffffffffffffffffffffffffff1602179055506020820151816001015590505061081e85600760008473ffffffffffffffffffffffffffffffffffffffff1673ffffffffffffffffffffffffffffffffffffffff168152602001908152602001600020610a2e90919063ffffffff16565b5061082881610a48565b8073ffffffffffffffffffffffffffffffffffffffff166342842e0e3330886040518463ffffffff1660e01b8152600401610865939291906112ac565b600060405180830381600087803b15801561087f57600080fd5b505af1158015610893573d6000803e3d6000fd5b50505050848173ffffffffffffffffffffffffffffffffffffffff168873ffffffffffffffffffffffffffffffffffffffff167f062bbf144ceb4ac73469f757015d16a5ba66b478ede809652e46b8f30750b4e5876040516108f591906113dd565b60405180910390a450505050505050565b600033905090565b60008060029054906101000a900473ffffffffffffffffffffffffffffffffffffffff16905081600060026101000a81548173ffffffffffffffffffffffffffffffffffffffff021916908373ffffffffffffffffffffffffffffffffffffffff1602179055508173ffffffffffffffffffffffffffffffffffffffff168173ffffffffffffffffffffffffffffffffffffffff167f8be0079c531659141344cd1fd0a4f28419497f9722a3daafe3b4186f6b6457e060405160405180910390a35050565b60006109de30610ab2565b15905090565b6000610a0c836000018373ffffffffffffffffffffffffffffffffffffffff1660001b610ad5565b905092915050565b6000610a26836000018360001b610ad5565b905092915050565b6000610a40836000018360001b610af8565b905092915050565b6000610a91600760008473ffffffffffffffffffffffffffffffffffffffff1673ffffffffffffffffffffffffffffffffffffffff168152602001908152602001600020610b68565b1115610aa557610aa081610b7d565b610aaf565b610aae81610bae565b5b50565b6000808273ffffffffffffffffffffffffffffffffffffffff163b119050919050565b600080836001016000848152602001908152602001600020541415905092915050565b6000610b048383610ad5565b610b5d578260000182908060018154018082558091505060019003906000526020600020016000909190919091505582600001805490508360010160008481526020019081526020016000208190555060019050610b62565b600090505b92915050565b6000610b7682600001610bc6565b9050919050565b610b918160026109e490919063ffffffff16565b610bab57610ba9816002610bd790919063ffffffff16565b505b50565b610bc2816002610c0790919063ffffffff16565b5050565b600081600001805490509050919050565b6000610bff836000018373ffffffffffffffffffffffffffffffffffffffff1660001b610af8565b905092915050565b6000610c2f836000018373ffffffffffffffffffffffffffffffffffffffff1660001b610c37565b905092915050565b60008083600101600084815260200190815260200160002054905060008114610d3f576000600182610c6991906114cf565b9050600060018660000180549050610c8191906114cf565b9050818114610cf0576000866000018281548110610ca257610ca1611663565b5b9060005260206000200154905080876000018481548110610cc657610cc5611663565b5b90600052602060002001819055508387600101600083815260200190815260200160002081905550505b85600001805480610d0457610d03611634565b5b600190038181906000526020600020016000905590558560010160008681526020019081526020016000206000905560019350505050610d45565b60009150505b92915050565b6000610d5e610d598461141d565b6113f8565b90508083825260208201905082856020860282011115610d8157610d806116cb565b5b60005b85811015610db15781610d978882610eee565b845260208401935060208301925050600181019050610d84565b5050509392505050565b6000610dce610dc984611449565b6113f8565b905082815260208101848484011115610dea57610de96116d0565b5b610df58482856115a1565b509392505050565b600081359050610e0c816117e0565b92915050565b600082601f830112610e2757610e266116c6565b5b8151610e37848260208601610d4b565b91505092915050565b60008083601f840112610e5657610e556116c6565b5b8235905067ffffffffffffffff811115610e7357610e726116c1565b5b602083019150836001820283011115610e8f57610e8e6116cb565b5b9250929050565b600081359050610ea5816117f7565b92915050565b600082601f830112610ec057610ebf6116c6565b5b8151610ed0848260208601610dbb565b91505092915050565b600081359050610ee88161180e565b92915050565b600081519050610efd8161180e565b92915050565b600060208284031215610f1957610f186116da565b5b6000610f2784828501610dfd565b91505092915050565b600080600080600060808688031215610f4c57610f4b6116da565b5b6000610f5a88828901610dfd565b9550506020610f6b88828901610dfd565b9450506040610f7c88828901610ed9565b935050606086013567ffffffffffffffff811115610f9d57610f9c6116d5565b5b610fa988828901610e40565b92509250509295509295909350565b60008060008060808587031215610fd257610fd16116da565b5b6000610fe087828801610dfd565b9450506020610ff187828801610dfd565b935050604061100287828801610ed9565b925050606061101387828801610ed9565b91505092959194509250565b600060208284031215611035576110346116da565b5b600082015167ffffffffffffffff811115611053576110526116d5565b5b61105f84828501610e12565b91505092915050565b60006020828403121561107e5761107d6116da565b5b600061108c84828501610e96565b91505092915050565b6000602082840312156110ab576110aa6116da565b5b600082015167ffffffffffffffff8111156110c9576110c86116d5565b5b6110d584828501610eab565b91505092915050565b6000602082840312156110f4576110f36116da565b5b600061110284828501610ed9565b91505092915050565b60006111178383611273565b60208301905092915050565b61112c81611503565b82525050565b600061113d8261148a565b61114781856114ad565b93506111528361147a565b8060005b8381101561118357815161116a888261110b565b9750611175836114a0565b925050600181019050611156565b5085935050505092915050565b61119981611515565b82525050565b6111a88161157d565b82525050565b60006111b982611495565b6111c381856114be565b93506111d38185602086016115a1565b6111dc816116df565b840191505092915050565b60006111f46026836114be565b91506111ff826116f0565b604082019050919050565b60006112176018836114be565b91506112228261173f565b602082019050919050565b600061123a602e836114be565b915061124582611768565b604082019050919050565b600061125d6020836114be565b9150611268826117b7565b602082019050919050565b61127c81611573565b82525050565b61128b81611573565b82525050565b60006020820190506112a66000830184611123565b92915050565b60006060820190506112c16000830186611123565b6112ce6020830185611123565b6112db6040830184611282565b949350505050565b600060208201905081810360008301526112fd8184611132565b905092915050565b600060208201905061131a6000830184611190565b92915050565b6000602082019050611335600083018461119f565b92915050565b6000602082019050818103600083015261135581846111ae565b905092915050565b60006020820190508181036000830152611376816111e7565b9050919050565b600060208201905081810360008301526113968161120a565b9050919050565b600060208201905081810360008301526113b68161122d565b9050919050565b600060208201905081810360008301526113d681611250565b9050919050565b60006020820190506113f26000830184611282565b92915050565b6000611402611413565b905061140e82826115d4565b919050565b6000604051905090565b600067ffffffffffffffff82111561143857611437611692565b5b602082029050602081019050919050565b600067ffffffffffffffff82111561146457611463611692565b5b61146d826116df565b9050602081019050919050565b6000819050602082019050919050565b600081519050919050565b600081519050919050565b6000602082019050919050565b600082825260208201905092915050565b600082825260208201905092915050565b60006114da82611573565b91506114e583611573565b9250828210156114f8576114f7611605565b5b828203905092915050565b600061150e82611553565b9050919050565b60007fffffffff0000000000000000000000000000000000000000000000000000000082169050919050565b600061154c82611503565b9050919050565b600073ffffffffffffffffffffffffffffffffffffffff82169050919050565b6000819050919050565b60006115888261158f565b9050919050565b600061159a82611553565b9050919050565b60005b838110156115bf5780820151818401526020810190506115a4565b838111156115ce576000848401525b50505050565b6115dd826116df565b810181811067ffffffffffffffff821117156115fc576115fb611692565b5b80604052505050565b7f4e487b7100000000000000000000000000000000000000000000000000000000600052601160045260246000fd5b7f4e487b7100000000000000000000000000000000000000000000000000000000600052603160045260246000fd5b7f4e487b7100000000000000000000000000000000000000000000000000000000600052603260045260246000fd5b7f4e487b7100000000000000000000000000000000000000000000000000000000600052604160045260246000fd5b600080fd5b600080fd5b600080fd5b600080fd5b600080fd5b600080fd5b6000601f19601f8301169050919050565b7f4f776e61626c653a206e6577206f776e657220697320746865207a65726f206160008201527f6464726573730000000000000000000000000000000000000000000000000000602082015250565b7f6e74664944206d757374206e6f74206265206c69737465640000000000000000600082015250565b7f496e697469616c697a61626c653a20636f6e747261637420697320616c72656160008201527f647920696e697469616c697a6564000000000000000000000000000000000000602082015250565b7f4f776e61626c653a2063616c6c6572206973206e6f7420746865206f776e6572600082015250565b6117e981611503565b81146117f457600080fd5b50565b61180081611541565b811461180b57600080fd5b50565b61181781611573565b811461182257600080fd5b5056fea2646970667358221220df04f4b429093e974b076a01e7893e314e6bd4fa90424f7369821821c900082164736f6c63430008060033",
  "immutableReferences": {},
  "source": "// SPDX-License-Identifier: MIT\n\npragma solidity ^0.8.6;\n\nimport \"@openzeppelin/contracts/proxy/utils/Initializable.sol\";\nimport \"@openzeppelin/contracts/utils/math/SafeMath.sol\";\nimport \"@openzeppelin/contracts/token/ERC721/IERC721Receiver.sol\";\nimport \"@openzeppelin/contracts/access/Ownable.sol\";\nimport \"@openzeppelin/contracts/utils/structs/EnumerableSet.sol\";\nimport \"@openzeppelin/contracts/utils/introspection/ERC165Checker.sol\";\n\nimport \"./DauDQCoin.sol\";\n\ncontract NFTMarket is\n    Initializable,\n    IERC721Receiver,\n    Ownable\n{\n    using SafeMath for uint256;\n\tusing EnumerableSet for EnumerableSet.UintSet;\n\tusing EnumerableSet for EnumerableSet.AddressSet;\n\n    DauDQCoin public nftItem;\n\n    function initialize(DauDQCoin _nftItem) public initializer {\n        nftItem = _nftItem;\n    }\n\n    struct ListingItem {\n        address seller;\n        uint256 price;\n    }\n\n\tbytes4 private constant _INTERFACE_ID_ERC721 = 0x80ac58cd;\n\n\tEnumerableSet.AddressSet private listedTokenTypes; // store types\n\tEnumerableSet.AddressSet private allowedTokenTypes;\n\n    mapping(address => mapping(uint256 => ListingItem)) private listings;\n    mapping(address => EnumerableSet.UintSet) private listedTokenIDs;\n\n    // ############\n\t// Events\n\t// ############\n\tevent NewListing(\n\t\taddress indexed seller,\n\t\tIERC721 indexed nftAddress,\n\t\tuint256 indexed nftID,\n\t\tuint256 price\n\t);\n\tevent ListingPriceChange(\n\t\taddress indexed seller,\n\t\tIERC721 indexed nftAddress,\n\t\tuint256 indexed nftID,\n\t\tuint256 newPrice\n\t);\n\tevent CancelledListing(\n\t\taddress indexed seller,\n\t\tIERC721 indexed nftAddress,\n\t\tuint256 indexed nftID\n\t);\n\tevent PurchasedListing(\n\t\taddress indexed buyer,\n\t\taddress seller,\n\t\tIERC721 indexed nftAddress,\n\t\tuint256 indexed nftID,\n\t\tuint256 priceTax,\n\t\tuint256 price\n\t);\n\n    // ############\n\t// Modifiers\n\t// ############\n\tmodifier isNotListed(IERC721 nftAddress, uint256 nftID) {\n\t\trequire(\n\t\t\t!listedTokenTypes.contains(address(nftAddress)) ||\n\t\t\t\t!listedTokenIDs[address(nftAddress)].contains(nftID),\n\t\t\t\"ntfID must not be listed\"\n\t\t);\n\t\t_;\n\t}\n    \n    // ############\n    // Views\n    // ############\n    \n\tfunction getTokenIDsByOwner(address owner_addr)\n        public\n        view\n        returns (uint256[] memory)\n    {\n        uint256[] memory tokenIDs = nftItem.getNFTsByOwner(owner_addr);\n        return (tokenIDs);\n    }\n\n\tfunction getTokenUriByID(uint256 tokenID)\n        public\n        view\n        returns (string memory)\n    {\n        string memory tokenUri = nftItem.tokenURI(tokenID);\n        return (tokenUri);\n    }\n\n    function createNewListing(address from, address nftContract, uint256 tokenID, uint256 _price) \n\tpublic\n\t\tisNotListed(IERC721(nftContract), tokenID)\n\t{\n\t\tIERC721 nft_token = IERC721(nftContract);\n\n        listings[address(nft_token)][tokenID] = ListingItem(from, _price);\n\t\tlistedTokenIDs[address(nft_token)].add(tokenID);\n\n\t\t_updateListedTokenTypes(nft_token);\n\n\t\t// in theory the transfer and required approval already test non-owner operations\n\t\tIERC721(nft_token).safeTransferFrom(msg.sender, address(this), tokenID);\n\t\temit NewListing(from, nft_token, tokenID, _price);\n    }\n\n\tfunction _updateListedTokenTypes(IERC721 tokenType) private {\n\t\tif (listedTokenIDs[address(tokenType)].length() > 0) {\n\t\t\t_registerTokenAddress(tokenType);\n\t\t} else {\n\t\t\t_unregisterTokenAddress(tokenType);\n\t\t}\n\t}\n\n\tfunction _registerTokenAddress(IERC721 tokenType) private {\n\t\tif (!listedTokenTypes.contains(address(tokenType))) {\n\t\t\tlistedTokenTypes.add(address(tokenType));\n\t\t}\n\t}\n\n\tfunction _unregisterTokenAddress(IERC721 tokenType) private {\n\t\tlistedTokenTypes.remove(address(tokenType));\n\t}\n\n\n    function onERC721Received(\n\t\taddress, /* operator */\n\t\taddress, /* from */\n\t\tuint256 _id,\n\t\tbytes calldata /* data */\n\t) external view override returns (bytes4) {\n\t\treturn IERC721Receiver.onERC721Received.selector;\n\t}\n}",
  "sourcePath": "/home/doanquydau/gamota_projects/nft-react-boilerplate/src/truffle/contracts/NFTMarket.sol",
  "compiler": {
    "name": "solc",
    "version": "0.8.6+commit.11564f7e.Emscripten.clang"
  },
  "schemaVersion": "3.4.4",
  "updatedAt": "2022-02-16T10:49:48.059Z",
  "devdoc": {
    "kind": "dev",
    "methods": {
      "owner()": {
        "details": "Returns the address of the current owner."
      },
      "renounceOwnership()": {
        "details": "Leaves the contract without owner. It will not be possible to call `onlyOwner` functions anymore. Can only be called by the current owner. NOTE: Renouncing ownership will leave the contract without an owner, thereby removing any functionality that is only available to the owner."
      },
      "transferOwnership(address)": {
        "details": "Transfers ownership of the contract to a new account (`newOwner`). Can only be called by the current owner."
      }
    },
    "version": 1
  },
  "userdoc": {
    "kind": "user",
    "methods": {},
    "version": 1
  }
}