{
  "contractName": "NFTMarket",
  "abi": [
    {
      "inputs": [],
      "stateMutability": "nonpayable",
      "type": "constructor"
    },
    {
      "anonymous": false,
      "inputs": [
        {
          "indexed": true,
          "internalType": "address",
          "name": "nftContract",
          "type": "address"
        },
        {
          "indexed": true,
          "internalType": "uint256",
          "name": "tokenID",
          "type": "uint256"
        },
        {
          "indexed": true,
          "internalType": "address",
          "name": "buyer",
          "type": "address"
        },
        {
          "indexed": false,
          "internalType": "address",
          "name": "seller",
          "type": "address"
        },
        {
          "indexed": false,
          "internalType": "uint256",
          "name": "price",
          "type": "uint256"
        },
        {
          "indexed": false,
          "internalType": "uint256",
          "name": "priceTax",
          "type": "uint256"
        }
      ],
      "name": "PurchasedListing",
      "type": "event"
    },
    {
      "anonymous": false,
      "inputs": [
        {
          "indexed": true,
          "internalType": "uint256",
          "name": "itemId",
          "type": "uint256"
        },
        {
          "indexed": true,
          "internalType": "address",
          "name": "nftContract",
          "type": "address"
        },
        {
          "indexed": true,
          "internalType": "uint256",
          "name": "tokenId",
          "type": "uint256"
        },
        {
          "indexed": false,
          "internalType": "address",
          "name": "seller",
          "type": "address"
        },
        {
          "indexed": false,
          "internalType": "address",
          "name": "owner",
          "type": "address"
        },
        {
          "indexed": false,
          "internalType": "uint256",
          "name": "price",
          "type": "uint256"
        },
        {
          "indexed": false,
          "internalType": "bool",
          "name": "sold",
          "type": "bool"
        }
      ],
      "name": "newListing",
      "type": "event"
    },
    {
      "inputs": [
        {
          "internalType": "address",
          "name": "nftContract",
          "type": "address"
        },
        {
          "internalType": "uint256",
          "name": "tokenId",
          "type": "uint256"
        },
        {
          "internalType": "uint256",
          "name": "price",
          "type": "uint256"
        }
      ],
      "name": "addListing",
      "outputs": [],
      "stateMutability": "payable",
      "type": "function",
      "payable": true
    },
    {
      "inputs": [
        {
          "internalType": "address",
          "name": "nftContract",
          "type": "address"
        },
        {
          "internalType": "uint256",
          "name": "itemId",
          "type": "uint256"
        }
      ],
      "name": "transferItem",
      "outputs": [],
      "stateMutability": "payable",
      "type": "function",
      "payable": true
    },
    {
      "inputs": [],
      "name": "fetchMarketItems",
      "outputs": [
        {
          "components": [
            {
              "internalType": "uint256",
              "name": "itemId",
              "type": "uint256"
            },
            {
              "internalType": "address",
              "name": "nftContract",
              "type": "address"
            },
            {
              "internalType": "uint256",
              "name": "tokenId",
              "type": "uint256"
            },
            {
              "internalType": "address payable",
              "name": "seller",
              "type": "address"
            },
            {
              "internalType": "address payable",
              "name": "owner",
              "type": "address"
            },
            {
              "internalType": "uint256",
              "name": "price",
              "type": "uint256"
            },
            {
              "internalType": "bool",
              "name": "sold",
              "type": "bool"
            }
          ],
          "internalType": "struct NFTMarket.MarketItem[]",
          "name": "",
          "type": "tuple[]"
        }
      ],
      "stateMutability": "view",
      "type": "function",
      "constant": true
    },
    {
      "inputs": [],
      "name": "fetchMyNFTs",
      "outputs": [
        {
          "components": [
            {
              "internalType": "uint256",
              "name": "itemId",
              "type": "uint256"
            },
            {
              "internalType": "address",
              "name": "nftContract",
              "type": "address"
            },
            {
              "internalType": "uint256",
              "name": "tokenId",
              "type": "uint256"
            },
            {
              "internalType": "address payable",
              "name": "seller",
              "type": "address"
            },
            {
              "internalType": "address payable",
              "name": "owner",
              "type": "address"
            },
            {
              "internalType": "uint256",
              "name": "price",
              "type": "uint256"
            },
            {
              "internalType": "bool",
              "name": "sold",
              "type": "bool"
            }
          ],
          "internalType": "struct NFTMarket.MarketItem[]",
          "name": "",
          "type": "tuple[]"
        }
      ],
      "stateMutability": "view",
      "type": "function",
      "constant": true
    },
    {
      "inputs": [],
      "name": "fetchItemsCreated",
      "outputs": [
        {
          "components": [
            {
              "internalType": "uint256",
              "name": "itemId",
              "type": "uint256"
            },
            {
              "internalType": "address",
              "name": "nftContract",
              "type": "address"
            },
            {
              "internalType": "uint256",
              "name": "tokenId",
              "type": "uint256"
            },
            {
              "internalType": "address payable",
              "name": "seller",
              "type": "address"
            },
            {
              "internalType": "address payable",
              "name": "owner",
              "type": "address"
            },
            {
              "internalType": "uint256",
              "name": "price",
              "type": "uint256"
            },
            {
              "internalType": "bool",
              "name": "sold",
              "type": "bool"
            }
          ],
          "internalType": "struct NFTMarket.MarketItem[]",
          "name": "",
          "type": "tuple[]"
        }
      ],
      "stateMutability": "view",
      "type": "function",
      "constant": true
    },
    {
      "inputs": [
        {
          "internalType": "uint256",
          "name": "index",
          "type": "uint256"
        }
      ],
      "name": "remove",
      "outputs": [],
      "stateMutability": "nonpayable",
      "type": "function"
    }
  ],
  "bytecode": "0x608060405234801561001057600080fd5b50600160008190555033600260006101000a81548173ffffffffffffffffffffffffffffffffffffffff021916908373ffffffffffffffffffffffffffffffffffffffff1602179055506119f3806100696000396000f3fe6080604052600436106100555760003560e01c80630f08efe01461005a578063202e3740146100855780634cc82215146100b057806367c65e99146100d9578063f064c32e146100f5578063f6d36ccb14610120575b600080fd5b34801561006657600080fd5b5061006f61013c565b60405161007c9190611618565b60405180910390f35b34801561009157600080fd5b5061009a6103f1565b6040516100a79190611618565b60405180910390f35b3480156100bc57600080fd5b506100d760048036038101906100d29190611307565b61073f565b005b6100f360048036038101906100ee9190611274565b610803565b005b34801561010157600080fd5b5061010a610add565b6040516101179190611618565b60405180910390f35b61013a600480360381019061013591906112b4565b610e2b565b005b6060600061014a6001611149565b905060006101586001611149565b90506000808267ffffffffffffffff81111561017757610176611891565b5b6040519080825280602002602001820160405280156101b057816020015b61019d6111c9565b8152602001906001900390816101955790505b50905060005b848110156103e6573073ffffffffffffffffffffffffffffffffffffffff16600360006001846101e69190611704565b815260200190815260200160002060040160009054906101000a900473ffffffffffffffffffffffffffffffffffffffff1673ffffffffffffffffffffffffffffffffffffffff1614156103d35760006001826102439190611704565b90506000600360008381526020019081526020016000209050806040518060e0016040529081600082015481526020016001820160009054906101000a900473ffffffffffffffffffffffffffffffffffffffff1673ffffffffffffffffffffffffffffffffffffffff1673ffffffffffffffffffffffffffffffffffffffff168152602001600282015481526020016003820160009054906101000a900473ffffffffffffffffffffffffffffffffffffffff1673ffffffffffffffffffffffffffffffffffffffff1673ffffffffffffffffffffffffffffffffffffffff1681526020016004820160009054906101000a900473ffffffffffffffffffffffffffffffffffffffff1673ffffffffffffffffffffffffffffffffffffffff1673ffffffffffffffffffffffffffffffffffffffff168152602001600582015481526020016006820160009054906101000a900460ff1615151515815250508486815181106103b6576103b5611862565b5b60200260200101819052506001856103ce9190611704565b945050505b80806103de906117ea565b9150506101b6565b508094505050505090565b606060006103ff6001611149565b905060008060005b838110156104a8573373ffffffffffffffffffffffffffffffffffffffff16600360006001846104379190611704565b815260200190815260200160002060040160009054906101000a900473ffffffffffffffffffffffffffffffffffffffff1673ffffffffffffffffffffffffffffffffffffffff161415610495576001836104929190611704565b92505b80806104a0906117ea565b915050610407565b5060008267ffffffffffffffff8111156104c5576104c4611891565b5b6040519080825280602002602001820160405280156104fe57816020015b6104eb6111c9565b8152602001906001900390816104e35790505b50905060005b84811015610734573373ffffffffffffffffffffffffffffffffffffffff16600360006001846105349190611704565b815260200190815260200160002060040160009054906101000a900473ffffffffffffffffffffffffffffffffffffffff1673ffffffffffffffffffffffffffffffffffffffff1614156107215760006001826105919190611704565b90506000600360008381526020019081526020016000209050806040518060e0016040529081600082015481526020016001820160009054906101000a900473ffffffffffffffffffffffffffffffffffffffff1673ffffffffffffffffffffffffffffffffffffffff1673ffffffffffffffffffffffffffffffffffffffff168152602001600282015481526020016003820160009054906101000a900473ffffffffffffffffffffffffffffffffffffffff1673ffffffffffffffffffffffffffffffffffffffff1673ffffffffffffffffffffffffffffffffffffffff1681526020016004820160009054906101000a900473ffffffffffffffffffffffffffffffffffffffff1673ffffffffffffffffffffffffffffffffffffffff1673ffffffffffffffffffffffffffffffffffffffff168152602001600582015481526020016006820160009054906101000a900460ff16151515158152505084868151811061070457610703611862565b5b602002602001018190525060018561071c9190611704565b945050505b808061072c906117ea565b915050610504565b508094505050505090565b600360008281526020019081526020016000206000808201600090556001820160006101000a81549073ffffffffffffffffffffffffffffffffffffffff021916905560028201600090556003820160006101000a81549073ffffffffffffffffffffffffffffffffffffffff02191690556004820160006101000a81549073ffffffffffffffffffffffffffffffffffffffff021916905560058201600090556006820160006101000a81549060ff021916905550506108006001611157565b50565b60026000541415610849576040517f08c379a00000000000000000000000000000000000000000000000000000000081526004016108409061167a565b60405180910390fd5b6002600081905550600060036000838152602001908152602001600020600501549050803410156108af576040517f08c379a00000000000000000000000000000000000000000000000000000000081526004016108a69061165a565b60405180910390fd5b60006003600084815260200190815260200160002060020154905060006003600085815260200190815260200160002060030160009054906101000a900473ffffffffffffffffffffffffffffffffffffffff1673ffffffffffffffffffffffffffffffffffffffff166108fc349081150290604051600060405180830381858888f19350505050158015610948573d6000803e3d6000fd5b508473ffffffffffffffffffffffffffffffffffffffff166323b872dd3033856040518463ffffffff1660e01b815260040161098693929190611573565b600060405180830381600087803b1580156109a057600080fd5b505af11580156109b4573d6000803e3d6000fd5b505050508473ffffffffffffffffffffffffffffffffffffffff1663095ea7b333846040518363ffffffff1660e01b81526004016109f39291906115ef565b600060405180830381600087803b158015610a0d57600080fd5b505af1158015610a21573d6000803e3d6000fd5b50505050610a2e8461073f565b3373ffffffffffffffffffffffffffffffffffffffff16828673ffffffffffffffffffffffffffffffffffffffff167f4d6e80f8d9606645af002ee25aced656e9f8d07be7bc5fb7dbd9a808799b438a6003600089815260200190815260200160002060030160009054906101000a900473ffffffffffffffffffffffffffffffffffffffff168786604051610ac69392919061153c565b60405180910390a450505060016000819055505050565b60606000610aeb6001611149565b905060008060005b83811015610b94573373ffffffffffffffffffffffffffffffffffffffff1660036000600184610b239190611704565b815260200190815260200160002060030160009054906101000a900473ffffffffffffffffffffffffffffffffffffffff1673ffffffffffffffffffffffffffffffffffffffff161415610b8157600183610b7e9190611704565b92505b8080610b8c906117ea565b915050610af3565b5060008267ffffffffffffffff811115610bb157610bb0611891565b5b604051908082528060200260200182016040528015610bea57816020015b610bd76111c9565b815260200190600190039081610bcf5790505b50905060005b84811015610e20573373ffffffffffffffffffffffffffffffffffffffff1660036000600184610c209190611704565b815260200190815260200160002060030160009054906101000a900473ffffffffffffffffffffffffffffffffffffffff1673ffffffffffffffffffffffffffffffffffffffff161415610e0d576000600182610c7d9190611704565b90506000600360008381526020019081526020016000209050806040518060e0016040529081600082015481526020016001820160009054906101000a900473ffffffffffffffffffffffffffffffffffffffff1673ffffffffffffffffffffffffffffffffffffffff1673ffffffffffffffffffffffffffffffffffffffff168152602001600282015481526020016003820160009054906101000a900473ffffffffffffffffffffffffffffffffffffffff1673ffffffffffffffffffffffffffffffffffffffff1673ffffffffffffffffffffffffffffffffffffffff1681526020016004820160009054906101000a900473ffffffffffffffffffffffffffffffffffffffff1673ffffffffffffffffffffffffffffffffffffffff1673ffffffffffffffffffffffffffffffffffffffff168152602001600582015481526020016006820160009054906101000a900460ff161515151581525050848681518110610df057610def611862565b5b6020026020010181905250600185610e089190611704565b945050505b8080610e18906117ea565b915050610bf0565b508094505050505090565b60026000541415610e71576040517f08c379a0000000000000000000000000000000000000000000000000000000008152600401610e689061167a565b60405180910390fd5b600260008190555060008111610ebc576040517f08c379a0000000000000000000000000000000000000000000000000000000008152600401610eb39061169a565b60405180910390fd5b610ec660016111b3565b6000610ed26001611149565b90506040518060e001604052808281526020018573ffffffffffffffffffffffffffffffffffffffff1681526020018481526020013373ffffffffffffffffffffffffffffffffffffffff1681526020013073ffffffffffffffffffffffffffffffffffffffff16815260200183815260200160001515815250600360008381526020019081526020016000206000820151816000015560208201518160010160006101000a81548173ffffffffffffffffffffffffffffffffffffffff021916908373ffffffffffffffffffffffffffffffffffffffff1602179055506040820151816002015560608201518160030160006101000a81548173ffffffffffffffffffffffffffffffffffffffff021916908373ffffffffffffffffffffffffffffffffffffffff16021790555060808201518160040160006101000a81548173ffffffffffffffffffffffffffffffffffffffff021916908373ffffffffffffffffffffffffffffffffffffffff16021790555060a0820151816005015560c08201518160060160006101000a81548160ff0219169083151502179055509050508373ffffffffffffffffffffffffffffffffffffffff166323b872dd3330866040518463ffffffff1660e01b81526004016110b293929190611573565b600060405180830381600087803b1580156110cc57600080fd5b505af11580156110e0573d6000803e3d6000fd5b50505050828473ffffffffffffffffffffffffffffffffffffffff16827fdd520162c1d393e7f4009bc39a000ad3112ce831953b1eb4d4eb203ca7d79496333087600060405161113394939291906115aa565b60405180910390a4506001600081905550505050565b600081600001549050919050565b600081600001549050600081116111a3576040517f08c379a000000000000000000000000000000000000000000000000000000000815260040161119a9061163a565b60405180910390fd5b6001810382600001819055505050565b6001816000016000828254019250508190555050565b6040518060e0016040528060008152602001600073ffffffffffffffffffffffffffffffffffffffff16815260200160008152602001600073ffffffffffffffffffffffffffffffffffffffff168152602001600073ffffffffffffffffffffffffffffffffffffffff168152602001600081526020016000151581525090565b6000813590506112598161198f565b92915050565b60008135905061126e816119a6565b92915050565b6000806040838503121561128b5761128a6118c0565b5b60006112998582860161124a565b92505060206112aa8582860161125f565b9150509250929050565b6000806000606084860312156112cd576112cc6118c0565b5b60006112db8682870161124a565b93505060206112ec8682870161125f565b92505060406112fd8682870161125f565b9150509250925092565b60006020828403121561131d5761131c6118c0565b5b600061132b8482850161125f565b91505092915050565b60006113408383611490565b60e08301905092915050565b611355816117b4565b82525050565b6113648161176c565b82525050565b6113738161175a565b82525050565b6113828161175a565b82525050565b6000611393826116ca565b61139d81856116e2565b93506113a8836116ba565b8060005b838110156113d95781516113c08882611334565b97506113cb836116d5565b9250506001810190506113ac565b5085935050505092915050565b6113ef8161177e565b82525050565b6113fe8161177e565b82525050565b6000611411601b836116f3565b915061141c826118c5565b602082019050919050565b60006114346040836116f3565b915061143f826118ee565b604082019050919050565b6000611457601f836116f3565b91506114628261193d565b602082019050919050565b600061147a601c836116f3565b915061148582611966565b602082019050919050565b60e0820160008201516114a6600085018261151e565b5060208201516114b9602085018261136a565b5060408201516114cc604085018261151e565b5060608201516114df606085018261135b565b5060808201516114f2608085018261135b565b5060a082015161150560a085018261151e565b5060c082015161151860c08501826113e6565b50505050565b611527816117aa565b82525050565b611536816117aa565b82525050565b6000606082019050611551600083018661134c565b61155e602083018561152d565b61156b604083018461152d565b949350505050565b60006060820190506115886000830186611379565b6115956020830185611379565b6115a2604083018461152d565b949350505050565b60006080820190506115bf6000830187611379565b6115cc6020830186611379565b6115d9604083018561152d565b6115e660608301846113f5565b95945050505050565b60006040820190506116046000830185611379565b611611602083018461152d565b9392505050565b600060208201905081810360008301526116328184611388565b905092915050565b6000602082019050818103600083015261165381611404565b9050919050565b6000602082019050818103600083015261167381611427565b9050919050565b600060208201905081810360008301526116938161144a565b9050919050565b600060208201905081810360008301526116b38161146d565b9050919050565b6000819050602082019050919050565b600081519050919050565b6000602082019050919050565b600082825260208201905092915050565b600082825260208201905092915050565b600061170f826117aa565b915061171a836117aa565b9250827fffffffffffffffffffffffffffffffffffffffffffffffffffffffffffffffff0382111561174f5761174e611833565b5b828201905092915050565b60006117658261178a565b9050919050565b60006117778261178a565b9050919050565b60008115159050919050565b600073ffffffffffffffffffffffffffffffffffffffff82169050919050565b6000819050919050565b60006117bf826117c6565b9050919050565b60006117d1826117d8565b9050919050565b60006117e38261178a565b9050919050565b60006117f5826117aa565b91507fffffffffffffffffffffffffffffffffffffffffffffffffffffffffffffffff82141561182857611827611833565b5b600182019050919050565b7f4e487b7100000000000000000000000000000000000000000000000000000000600052601160045260246000fd5b7f4e487b7100000000000000000000000000000000000000000000000000000000600052603260045260246000fd5b7f4e487b7100000000000000000000000000000000000000000000000000000000600052604160045260246000fd5b600080fd5b7f436f756e7465723a2064656372656d656e74206f766572666c6f770000000000600082015250565b7f506c65617365207375626d6974207468652061736b696e67207072696365206960008201527f6e206f7264657220746f20636f6d706c65746520746865207075726368617365602082015250565b7f5265656e7472616e637947756172643a207265656e7472616e742063616c6c00600082015250565b7f5072696365206d757374206265206174206c6561737420312077656900000000600082015250565b6119988161175a565b81146119a357600080fd5b50565b6119af816117aa565b81146119ba57600080fd5b5056fea26469706673582212206359b687ae77ace760aa59fdafba373f00ec5d7b486281c1c6e06307762e889164736f6c63430008060033",
  "immutableReferences": {},
  "source": "// SPDX-License-Identifier: MIT\n\npragma solidity ^0.8.6;\n\nimport \"@openzeppelin/contracts/token/ERC721/ERC721.sol\";\n// import \"@openzeppelin/contracts/token/ERC20/ERC20.sol\";\nimport \"@openzeppelin/contracts/utils/Counters.sol\";\nimport \"@openzeppelin/contracts/security/ReentrancyGuard.sol\";\n\nimport \"./DauDQNFT.sol\";\n\ncontract NFTMarket is\n\tReentrancyGuard\n{\n    using Counters for Counters.Counter;\n\tCounters.Counter private _itemIds;\n\n\taddress payable owner;\n\n\tconstructor() {\n\t\towner = payable(msg.sender);\n\t}\n\n\tstruct MarketItem {\n\t\tuint itemId;\n\t\taddress nftContract;\n\t\tuint256 tokenId;\n\t\taddress payable seller;\n\t\taddress payable owner;\n\t\tuint256 price;\n\t\tbool sold;\n\t}\n\n\tmapping(uint256 => MarketItem) private idToMarketItem;\n\n\tevent newListing (\n\t\tuint indexed itemId,\n\t\taddress indexed nftContract,\n\t\tuint256 indexed tokenId,\n\t\taddress seller,\n\t\taddress owner,\n\t\tuint256 price,\n\t\tbool sold\n\t);\n\n\tevent PurchasedListing(\n\t\taddress indexed nftContract,\n\t\tuint256 indexed tokenID,\n\t\taddress indexed buyer,\n\t\taddress seller,\n\t\tuint256 price,\n\t\tuint256 priceTax\n\t);\n\n\t\n\t/* Places an item for sale on the marketplace */\n\tfunction addListing(\n\t\taddress nftContract,\n\t\tuint256 tokenId,\n\t\tuint256 price\n\t) public payable nonReentrant {\n\t\trequire(price > 0, \"Price must be at least 1 wei\");\n\n\t\t_itemIds.increment();\n\t\tuint256 itemId = _itemIds.current();\n\t\n\t\tidToMarketItem[itemId] =  MarketItem(\n\t\t\titemId,\n\t\t\tnftContract,\n\t\t\ttokenId,\n\t\t\tpayable(msg.sender),\n\t\t\tpayable(address(this)),\n\t\t\tprice,\n\t\t\tfalse\n\t\t);\n\n\t\tERC721(nftContract).transferFrom(msg.sender, address(this), tokenId);\n\n\t\temit newListing(\n\t\t\titemId,\n\t\t\tnftContract,\n\t\t\ttokenId,\n\t\t\tmsg.sender,\n\t\t\taddress(this),\n\t\t\tprice,\n\t\t\tfalse\n\t\t);\n\t}\n\n\t/* Creates the sale of a marketplace item */\n\t/* Transfers ownership of the item, as well as funds between parties */\n\tfunction transferItem(\n\t\taddress nftContract,\n\t\tuint256 itemId\n\t) public payable nonReentrant {\n\t\tuint price = idToMarketItem[itemId].price;\n\t\trequire(msg.value >= price, \"Please submit the asking price in order to complete the purchase\");\n\n\t\tuint256 tokenId = idToMarketItem[itemId].tokenId;\n\t\tuint256 taxAmount = 0;\n\n\t\tpayable(idToMarketItem[itemId].seller).transfer(msg.value);\n\n\t\tERC721(nftContract).transferFrom(address(this), msg.sender, tokenId);\n\t\tERC721(nftContract).approve(msg.sender, tokenId);\n\t\tremove(itemId);\n\t\t\n\t\temit PurchasedListing(nftContract, tokenId, msg.sender, idToMarketItem[itemId].seller, price, taxAmount);\n\t}\n\n\t/* Returns all unsold market items */\n\tfunction fetchMarketItems() public view returns (MarketItem[] memory) {\n\t\tuint itemCount = _itemIds.current();\n\t\tuint unsoldItemCount = _itemIds.current();\n\t\tuint currentIndex = 0;\n\n\t\tMarketItem[] memory items = new MarketItem[](unsoldItemCount);\n\t\tfor (uint i = 0; i < itemCount; i++) {\n\t\t\tif (idToMarketItem[i + 1].owner == address(this)) {\n\t\t\t\tuint currentId =  i + 1;\n\t\t\t\tMarketItem storage currentItem = idToMarketItem[currentId];\n\t\t\t\titems[currentIndex] = currentItem;\n\t\t\t\tcurrentIndex += 1;\n\t\t\t}\n\t\t}\n\t\treturn items;\n\t}\n\n\t/* Returns only items that a user has purchased */\n\tfunction fetchMyNFTs() public view returns (MarketItem[] memory) {\n\t\tuint totalItemCount = _itemIds.current();\n\t\tuint itemCount = 0;\n\t\tuint currentIndex = 0;\n\n\t\tfor (uint i = 0; i < totalItemCount; i++) {\n\t\t\tif (idToMarketItem[i + 1].owner == msg.sender) {\n\t\t\t\titemCount += 1;\n\t\t\t}\n\t\t}\n\n\t\tMarketItem[] memory items = new MarketItem[](itemCount);\n\t\tfor (uint i = 0; i < totalItemCount; i++) {\n\t\t\tif (idToMarketItem[i + 1].owner == msg.sender) {\n\t\t\t\tuint currentId =  i + 1;\n\t\t\t\tMarketItem storage currentItem = idToMarketItem[currentId];\n\t\t\t\titems[currentIndex] = currentItem;\n\t\t\t\tcurrentIndex += 1;\n\t\t\t}\n\t\t}\n\t\treturn items;\n\t}\n\n\t/* Returns only items a user has created */\n\tfunction fetchItemsCreated() public view returns (MarketItem[] memory) {\n\t\tuint totalItemCount = _itemIds.current();\n\t\tuint itemCount = 0;\n\t\tuint currentIndex = 0;\n\n\t\tfor (uint i = 0; i < totalItemCount; i++) {\n\t\t\tif (idToMarketItem[i + 1].seller == msg.sender) {\n\t\t\t\titemCount += 1;\n\t\t\t}\n\t\t}\n\n\t\tMarketItem[] memory items = new MarketItem[](itemCount);\n\t\tfor (uint i = 0; i < totalItemCount; i++) {\n\t\t\tif (idToMarketItem[i + 1].seller == msg.sender) {\n\t\t\t\tuint currentId = i + 1;\n\t\t\t\tMarketItem storage currentItem = idToMarketItem[currentId];\n\t\t\t\titems[currentIndex] = currentItem;\n\t\t\t\tcurrentIndex += 1;\n\t\t\t}\n\t\t}\n\t\treturn items;\n\t}\n\n\tfunction remove(uint index) public {\n\t\tdelete idToMarketItem[index];\n\t\t_itemIds.decrement();\n\n\t\t// uint countItem = _itemIds.current();\n        // if (index >= countItem) return;\n\n        // for (uint i = index; i < countItem - 1; i++){\n        //     idToMarketItem[i] = idToMarketItem[i+1];\n        // }\n        // delete idToMarketItem[countItem-1];\n\n\t\t// _itemIds.decrement();\n    }\n}",
  "sourcePath": "/home/doanquydau/gamota_projects/nft-react-boilerplate/src/truffle/contracts/NFTMarket.sol",
  "compiler": {
    "name": "solc",
    "version": "0.8.6+commit.11564f7e.Emscripten.clang"
  },
  "schemaVersion": "3.4.4",
  "updatedAt": "2022-02-22T17:07:02.296Z",
  "networkType": "ethereum",
  "devdoc": {
    "kind": "dev",
    "methods": {},
    "version": 1
  },
  "userdoc": {
    "kind": "user",
    "methods": {},
    "version": 1
  }
}