{
  "contractName": "NFTMarket",
  "abi": [
    {
      "inputs": [],
      "stateMutability": "nonpayable",
      "type": "constructor"
    },
    {
      "anonymous": false,
      "inputs": [
        {
          "indexed": true,
          "internalType": "address",
          "name": "nftContract",
          "type": "address"
        },
        {
          "indexed": true,
          "internalType": "uint256",
          "name": "tokenID",
          "type": "uint256"
        },
        {
          "indexed": true,
          "internalType": "address",
          "name": "owner",
          "type": "address"
        },
        {
          "indexed": false,
          "internalType": "address",
          "name": "seller",
          "type": "address"
        }
      ],
      "name": "CancelListingEvent",
      "type": "event"
    },
    {
      "anonymous": false,
      "inputs": [
        {
          "indexed": true,
          "internalType": "address",
          "name": "nftContract",
          "type": "address"
        },
        {
          "indexed": true,
          "internalType": "uint256",
          "name": "tokenId",
          "type": "uint256"
        },
        {
          "indexed": false,
          "internalType": "address",
          "name": "seller",
          "type": "address"
        },
        {
          "indexed": false,
          "internalType": "address",
          "name": "owner",
          "type": "address"
        },
        {
          "indexed": false,
          "internalType": "uint256",
          "name": "price",
          "type": "uint256"
        },
        {
          "indexed": false,
          "internalType": "bool",
          "name": "sold",
          "type": "bool"
        }
      ],
      "name": "NewListingEvent",
      "type": "event"
    },
    {
      "anonymous": false,
      "inputs": [
        {
          "indexed": true,
          "internalType": "address",
          "name": "nftContract",
          "type": "address"
        },
        {
          "indexed": true,
          "internalType": "uint256",
          "name": "tokenID",
          "type": "uint256"
        },
        {
          "indexed": true,
          "internalType": "address",
          "name": "buyer",
          "type": "address"
        },
        {
          "indexed": false,
          "internalType": "address",
          "name": "seller",
          "type": "address"
        },
        {
          "indexed": false,
          "internalType": "uint256",
          "name": "price",
          "type": "uint256"
        },
        {
          "indexed": false,
          "internalType": "uint256",
          "name": "priceTax",
          "type": "uint256"
        }
      ],
      "name": "PurchasedListingEvent",
      "type": "event"
    },
    {
      "anonymous": false,
      "inputs": [
        {
          "indexed": true,
          "internalType": "uint256",
          "name": "tokenId",
          "type": "uint256"
        },
        {
          "indexed": false,
          "internalType": "uint256",
          "name": "price",
          "type": "uint256"
        }
      ],
      "name": "UpdateListingEvent",
      "type": "event"
    },
    {
      "inputs": [
        {
          "internalType": "address",
          "name": "nftContract",
          "type": "address"
        },
        {
          "internalType": "uint256",
          "name": "tokenId",
          "type": "uint256"
        },
        {
          "internalType": "uint256",
          "name": "price",
          "type": "uint256"
        }
      ],
      "name": "addListing",
      "outputs": [],
      "stateMutability": "payable",
      "type": "function",
      "payable": true
    },
    {
      "inputs": [
        {
          "internalType": "uint256",
          "name": "tokenId",
          "type": "uint256"
        },
        {
          "internalType": "uint256",
          "name": "price",
          "type": "uint256"
        }
      ],
      "name": "updateListing",
      "outputs": [],
      "stateMutability": "payable",
      "type": "function",
      "payable": true
    },
    {
      "inputs": [
        {
          "internalType": "address",
          "name": "nftContract",
          "type": "address"
        },
        {
          "internalType": "uint256",
          "name": "tokenId",
          "type": "uint256"
        }
      ],
      "name": "cancelListing",
      "outputs": [],
      "stateMutability": "payable",
      "type": "function",
      "payable": true
    },
    {
      "inputs": [
        {
          "internalType": "address",
          "name": "nftContract",
          "type": "address"
        },
        {
          "internalType": "uint256",
          "name": "tokenId",
          "type": "uint256"
        }
      ],
      "name": "buyItem",
      "outputs": [],
      "stateMutability": "payable",
      "type": "function",
      "payable": true
    },
    {
      "inputs": [],
      "name": "fetchMarketItems",
      "outputs": [
        {
          "components": [
            {
              "internalType": "address",
              "name": "nftContract",
              "type": "address"
            },
            {
              "internalType": "uint256",
              "name": "tokenId",
              "type": "uint256"
            },
            {
              "internalType": "address payable",
              "name": "seller",
              "type": "address"
            },
            {
              "internalType": "address payable",
              "name": "owner",
              "type": "address"
            },
            {
              "internalType": "uint256",
              "name": "price",
              "type": "uint256"
            },
            {
              "internalType": "bool",
              "name": "sold",
              "type": "bool"
            }
          ],
          "internalType": "struct NFTMarket.MarketItem[]",
          "name": "",
          "type": "tuple[]"
        }
      ],
      "stateMutability": "view",
      "type": "function",
      "constant": true
    },
    {
      "inputs": [],
      "name": "fetchMyNFTsListingOnMarket",
      "outputs": [
        {
          "components": [
            {
              "internalType": "address",
              "name": "nftContract",
              "type": "address"
            },
            {
              "internalType": "uint256",
              "name": "tokenId",
              "type": "uint256"
            },
            {
              "internalType": "address payable",
              "name": "seller",
              "type": "address"
            },
            {
              "internalType": "address payable",
              "name": "owner",
              "type": "address"
            },
            {
              "internalType": "uint256",
              "name": "price",
              "type": "uint256"
            },
            {
              "internalType": "bool",
              "name": "sold",
              "type": "bool"
            }
          ],
          "internalType": "struct NFTMarket.MarketItem[]",
          "name": "",
          "type": "tuple[]"
        }
      ],
      "stateMutability": "view",
      "type": "function",
      "constant": true
    }
  ],
  "bytecode": "0x6080604052600060025534801561001557600080fd5b506001600081905550611c628061002d6000396000f3fe6080604052600436106100555760003560e01c80630179ea881461005a5780630f08efe0146100765780639bf908c0146100a15780639f37092a146100cc578063b2ddee06146100e8578063f6d36ccb14610104575b600080fd5b610074600480360381019061006f919061137f565b610120565b005b34801561008257600080fd5b5061008b610285565b60405161009891906116eb565b60405180910390f35b3480156100ad57600080fd5b506100b661051f565b6040516100c391906116eb565b60405180910390f35b6100e660048036038101906100e191906112ec565b6108a2565b005b61010260048036038101906100fd91906112ec565b610af2565b005b61011e6004803603810190610119919061132c565b610ce2565b005b3373ffffffffffffffffffffffffffffffffffffffff166003600084815260200190815260200160002060020160009054906101000a900473ffffffffffffffffffffffffffffffffffffffff1673ffffffffffffffffffffffffffffffffffffffff16146101c4576040517f08c379a00000000000000000000000000000000000000000000000000000000081526004016101bb9061172d565b60405180910390fd5b600015156003600084815260200190815260200160002060050160009054906101000a900460ff1615151461022e576040517f08c379a00000000000000000000000000000000000000000000000000000000081526004016102259061178d565b60405180910390fd5b806003600084815260200190815260200160002060040181905550817f06f8664ecda4fd838fdaa5265bef308a16289b7445232ebd554b5061d667bfd58260405161027991906117ed565b60405180910390a25050565b606060006102936001611007565b905060008060008367ffffffffffffffff8111156102b4576102b3611a13565b5b6040519080825280602002602001820160405280156102ed57816020015b6102da611248565b8152602001906001900390816102d25790505b5090506000600190505b84811161051457600460008281526020019081526020016000205492503073ffffffffffffffffffffffffffffffffffffffff166003600085815260200190815260200160002060030160009054906101000a900473ffffffffffffffffffffffffffffffffffffffff1673ffffffffffffffffffffffffffffffffffffffff161415610501576000600360008581526020019081526020016000209050806040518060c00160405290816000820160009054906101000a900473ffffffffffffffffffffffffffffffffffffffff1673ffffffffffffffffffffffffffffffffffffffff1673ffffffffffffffffffffffffffffffffffffffff168152602001600182015481526020016002820160009054906101000a900473ffffffffffffffffffffffffffffffffffffffff1673ffffffffffffffffffffffffffffffffffffffff1673ffffffffffffffffffffffffffffffffffffffff1681526020016003820160009054906101000a900473ffffffffffffffffffffffffffffffffffffffff1673ffffffffffffffffffffffffffffffffffffffff1673ffffffffffffffffffffffffffffffffffffffff168152602001600482015481526020016005820160009054906101000a900460ff1615151515815250508386815181106104e5576104e46119e4565b5b60200260200101819052506001856104fd9190611852565b9450505b808061050c9061196c565b9150506102f7565b508094505050505090565b6060600061052d6001611007565b905060008060005b838110156105d6573373ffffffffffffffffffffffffffffffffffffffff16600360006001846105659190611852565b815260200190815260200160002060020160009054906101000a900473ffffffffffffffffffffffffffffffffffffffff1673ffffffffffffffffffffffffffffffffffffffff1614156105c3576001836105c09190611852565b92505b80806105ce9061196c565b915050610535565b5060008267ffffffffffffffff8111156105f3576105f2611a13565b5b60405190808252806020026020018201604052801561062c57816020015b610619611248565b8152602001906001900390816106115790505b50905060005b84811015610897573373ffffffffffffffffffffffffffffffffffffffff16600360006001846106629190611852565b815260200190815260200160002060020160009054906101000a900473ffffffffffffffffffffffffffffffffffffffff1673ffffffffffffffffffffffffffffffffffffffff161480156106ea575060001515600360006001846106c79190611852565b815260200190815260200160002060050160009054906101000a900460ff161515145b156108845760006001826106fe9190611852565b90506000600360008381526020019081526020016000209050806040518060c00160405290816000820160009054906101000a900473ffffffffffffffffffffffffffffffffffffffff1673ffffffffffffffffffffffffffffffffffffffff1673ffffffffffffffffffffffffffffffffffffffff168152602001600182015481526020016002820160009054906101000a900473ffffffffffffffffffffffffffffffffffffffff1673ffffffffffffffffffffffffffffffffffffffff1673ffffffffffffffffffffffffffffffffffffffff1681526020016003820160009054906101000a900473ffffffffffffffffffffffffffffffffffffffff1673ffffffffffffffffffffffffffffffffffffffff1673ffffffffffffffffffffffffffffffffffffffff168152602001600482015481526020016005820160009054906101000a900460ff161515151581525050848681518110610867576108666119e4565b5b602002602001018190525060018561087f9190611852565b945050505b808061088f9061196c565b915050610632565b508094505050505090565b600260005414156108e8576040517f08c379a00000000000000000000000000000000000000000000000000000000081526004016108df906117ad565b60405180910390fd5b60026000819055506000600360008381526020019081526020016000206004015490508034101561094e576040517f08c379a00000000000000000000000000000000000000000000000000000000081526004016109459061174d565b60405180910390fd5b6003600083815260200190815260200160002060020160009054906101000a900473ffffffffffffffffffffffffffffffffffffffff1673ffffffffffffffffffffffffffffffffffffffff166108fc349081150290604051600060405180830381858888f193505050501580156109ca573d6000803e3d6000fd5b508273ffffffffffffffffffffffffffffffffffffffff166323b872dd3033856040518463ffffffff1660e01b8152600401610a089392919061166f565b600060405180830381600087803b158015610a2257600080fd5b505af1158015610a36573d6000803e3d6000fd5b50505050610a4382611015565b3373ffffffffffffffffffffffffffffffffffffffff16828473ffffffffffffffffffffffffffffffffffffffff167fca528d61435f9382fb90d3f04419af7ce8a5760fd2ac30218d7eab3a6ecbef4b6003600087815260200190815260200160002060020160009054906101000a900473ffffffffffffffffffffffffffffffffffffffff1685600254604051610add93929190611638565b60405180910390a45060016000819055505050565b3373ffffffffffffffffffffffffffffffffffffffff166003600083815260200190815260200160002060020160009054906101000a900473ffffffffffffffffffffffffffffffffffffffff1673ffffffffffffffffffffffffffffffffffffffff1614610b96576040517f08c379a0000000000000000000000000000000000000000000000000000000008152600401610b8d9061172d565b60405180910390fd5b600015156003600083815260200190815260200160002060050160009054906101000a900460ff16151514610c00576040517f08c379a0000000000000000000000000000000000000000000000000000000008152600401610bf79061176d565b60405180910390fd5b8173ffffffffffffffffffffffffffffffffffffffff166323b872dd3033846040518463ffffffff1660e01b8152600401610c3d9392919061166f565b600060405180830381600087803b158015610c5757600080fd5b505af1158015610c6b573d6000803e3d6000fd5b50505050610c7881611015565b3373ffffffffffffffffffffffffffffffffffffffff16818373ffffffffffffffffffffffffffffffffffffffff167f14c26805ef434cb6365b35b156e30d2e3beeea48c4b610537b7ea5aab15b11b730604051610cd6919061161d565b60405180910390a45050565b60026000541415610d28576040517f08c379a0000000000000000000000000000000000000000000000000000000008152600401610d1f906117ad565b60405180910390fd5b600260008190555060008111610d73576040517f08c379a0000000000000000000000000000000000000000000000000000000008152600401610d6a906117cd565b60405180910390fd5b610d7d6001611140565b6000610d896001611007565b90508260046000838152602001908152602001600020819055506040518060c001604052808573ffffffffffffffffffffffffffffffffffffffff1681526020018481526020013373ffffffffffffffffffffffffffffffffffffffff1681526020013073ffffffffffffffffffffffffffffffffffffffff168152602001838152602001600015158152506003600085815260200190815260200160002060008201518160000160006101000a81548173ffffffffffffffffffffffffffffffffffffffff021916908373ffffffffffffffffffffffffffffffffffffffff1602179055506020820151816001015560408201518160020160006101000a81548173ffffffffffffffffffffffffffffffffffffffff021916908373ffffffffffffffffffffffffffffffffffffffff16021790555060608201518160030160006101000a81548173ffffffffffffffffffffffffffffffffffffffff021916908373ffffffffffffffffffffffffffffffffffffffff1602179055506080820151816004015560a08201518160050160006101000a81548160ff0219169083151502179055509050508373ffffffffffffffffffffffffffffffffffffffff166323b872dd3330866040518463ffffffff1660e01b8152600401610f719392919061166f565b600060405180830381600087803b158015610f8b57600080fd5b505af1158015610f9f573d6000803e3d6000fd5b50505050828473ffffffffffffffffffffffffffffffffffffffff167faf00d0eb626548ba8815defa06c5b9f569e68b3e1384c04ce0120918941cf7a03330866000604051610ff194939291906116a6565b60405180910390a3506001600081905550505050565b600081600001549050919050565b60006110216001611007565b90506000600190505b8181101561106f57826004600083815260200190815260200160002054141561105c576110578183611156565b61106f565b80806110679061196c565b91505061102a565b5060036000838152602001908152602001600020600080820160006101000a81549073ffffffffffffffffffffffffffffffffffffffff021916905560018201600090556002820160006101000a81549073ffffffffffffffffffffffffffffffffffffffff02191690556003820160006101000a81549073ffffffffffffffffffffffffffffffffffffffff021916905560048201600090556005820160006101000a81549060ff02191690555050600061112b6001611007565b111561113c5761113b60016111ec565b5b5050565b6001816000016000828254019250508190555050565b80821115611163576111e8565b808210156111d05760008290505b60018261117e91906118a8565b81116111ce57600460006001836111959190611852565b815260200190815260200160002054600460008381526020019081526020016000208190555080806111c69061196c565b915050611171565b505b60046000828152602001908152602001600020600090555b5050565b60008160000154905060008111611238576040517f08c379a000000000000000000000000000000000000000000000000000000000815260040161122f9061170d565b60405180910390fd5b6001810382600001819055505050565b6040518060c00160405280600073ffffffffffffffffffffffffffffffffffffffff16815260200160008152602001600073ffffffffffffffffffffffffffffffffffffffff168152602001600073ffffffffffffffffffffffffffffffffffffffff168152602001600081526020016000151581525090565b6000813590506112d181611bfe565b92915050565b6000813590506112e681611c15565b92915050565b6000806040838503121561130357611302611a42565b5b6000611311858286016112c2565b9250506020611322858286016112d7565b9150509250929050565b60008060006060848603121561134557611344611a42565b5b6000611353868287016112c2565b9350506020611364868287016112d7565b9250506040611375868287016112d7565b9150509250925092565b6000806040838503121561139657611395611a42565b5b60006113a4858286016112d7565b92505060206113b5858286016112d7565b9150509250929050565b60006113cb8383611584565b60c08301905092915050565b6113e081611936565b82525050565b6113ef816118ee565b82525050565b6113fe816118dc565b82525050565b61140d816118dc565b82525050565b600061141e82611818565b6114288185611830565b935061143383611808565b8060005b8381101561146457815161144b88826113bf565b975061145683611823565b925050600181019050611437565b5085935050505092915050565b61147a81611900565b82525050565b61148981611900565b82525050565b600061149c601b83611841565b91506114a782611a47565b602082019050919050565b60006114bf602b83611841565b91506114ca82611a70565b604082019050919050565b60006114e2604083611841565b91506114ed82611abf565b604082019050919050565b6000611505602283611841565b915061151082611b0e565b604082019050919050565b6000611528602283611841565b915061153382611b5d565b604082019050919050565b600061154b601f83611841565b915061155682611bac565b602082019050919050565b600061156e601c83611841565b915061157982611bd5565b602082019050919050565b60c08201600082015161159a60008501826113f5565b5060208201516115ad60208501826115ff565b5060408201516115c060408501826113e6565b5060608201516115d360608501826113e6565b5060808201516115e660808501826115ff565b5060a08201516115f960a0850182611471565b50505050565b6116088161192c565b82525050565b6116178161192c565b82525050565b60006020820190506116326000830184611404565b92915050565b600060608201905061164d60008301866113d7565b61165a602083018561160e565b611667604083018461160e565b949350505050565b60006060820190506116846000830186611404565b6116916020830185611404565b61169e604083018461160e565b949350505050565b60006080820190506116bb6000830187611404565b6116c86020830186611404565b6116d5604083018561160e565b6116e26060830184611480565b95945050505050565b600060208201905081810360008301526117058184611413565b905092915050565b600060208201905081810360008301526117268161148f565b9050919050565b60006020820190508181036000830152611746816114b2565b9050919050565b60006020820190508181036000830152611766816114d5565b9050919050565b60006020820190508181036000830152611786816114f8565b9050919050565b600060208201905081810360008301526117a68161151b565b9050919050565b600060208201905081810360008301526117c68161153e565b9050919050565b600060208201905081810360008301526117e681611561565b9050919050565b6000602082019050611802600083018461160e565b92915050565b6000819050602082019050919050565b600081519050919050565b6000602082019050919050565b600082825260208201905092915050565b600082825260208201905092915050565b600061185d8261192c565b91506118688361192c565b9250827fffffffffffffffffffffffffffffffffffffffffffffffffffffffffffffffff0382111561189d5761189c6119b5565b5b828201905092915050565b60006118b38261192c565b91506118be8361192c565b9250828210156118d1576118d06119b5565b5b828203905092915050565b60006118e78261190c565b9050919050565b60006118f98261190c565b9050919050565b60008115159050919050565b600073ffffffffffffffffffffffffffffffffffffffff82169050919050565b6000819050919050565b600061194182611948565b9050919050565b60006119538261195a565b9050919050565b60006119658261190c565b9050919050565b60006119778261192c565b91507fffffffffffffffffffffffffffffffffffffffffffffffffffffffffffffffff8214156119aa576119a96119b5565b5b600182019050919050565b7f4e487b7100000000000000000000000000000000000000000000000000000000600052601160045260246000fd5b7f4e487b7100000000000000000000000000000000000000000000000000000000600052603260045260246000fd5b7f4e487b7100000000000000000000000000000000000000000000000000000000600052604160045260246000fd5b600080fd5b7f436f756e7465723a2064656372656d656e74206f766572666c6f770000000000600082015250565b7f4f6e6c79206974656d2073656c6c65722063616e20706572666f726d2074686960008201527f73206f7065726174696f6e000000000000000000000000000000000000000000602082015250565b7f506c65617365207375626d6974207468652061736b696e67207072696365206960008201527f6e206f7264657220746f20636f6d706c65746520746865207075726368617365602082015250565b7f4974656d20736f6c642e2043616e206e6f742063616e63656c206c697374696e60008201527f6721000000000000000000000000000000000000000000000000000000000000602082015250565b7f4974656d20736f6c642e2043616e206e6f7420757064617465206c697374696e60008201527f6721000000000000000000000000000000000000000000000000000000000000602082015250565b7f5265656e7472616e637947756172643a207265656e7472616e742063616c6c00600082015250565b7f5072696365206d757374206265206174206c6561737420312077656900000000600082015250565b611c07816118dc565b8114611c1257600080fd5b50565b611c1e8161192c565b8114611c2957600080fd5b5056fea26469706673582212204bc6e0f67cad2c80d677fd08be7966fa64f7d0555b12b5407ac1429dbc81d39964736f6c63430008070033",
  "immutableReferences": {},
  "source": "// SPDX-License-Identifier: MIT\npragma solidity ^0.8.7;\n\nimport \"@openzeppelin/contracts/token/ERC721/ERC721.sol\";\nimport \"@openzeppelin/contracts/utils/Counters.sol\";\nimport \"@openzeppelin/contracts/security/ReentrancyGuard.sol\";\n\nimport \"./DauDQNFT.sol\";\n\ncontract NFTMarket is\n\tReentrancyGuard\n{\n    using Counters for Counters.Counter;\n\tCounters.Counter private _itemIds;\n\n\tuint256 priceTax = 0;\n\n\tconstructor() {\n\t\t//\n\t}\n\n\tstruct MarketItem {\n\t\taddress nftContract;\n\t\tuint256 tokenId;\n\t\taddress payable seller;\n\t\taddress payable owner;\n\t\tuint256 price;\n\t\tbool sold;\n\t}\n\n\t/* Array of items that listing on market */\n\tmapping(uint256 => MarketItem) private marketItems;\n\n\t/* Sequence array of token IDs */\n\tmapping(uint256 => uint256) private marketTokenIDs;\n\n\tevent NewListingEvent (\n\t\taddress indexed nftContract,\n\t\tuint256 indexed tokenId,\n\t\taddress seller,\n\t\taddress owner,\n\t\tuint256 price,\n\t\tbool sold\n\t);\n\n\tevent UpdateListingEvent (\n\t\tuint256 indexed tokenId,\n\t\tuint256 price\n\t);\n\n\tevent PurchasedListingEvent (\n\t\taddress indexed nftContract,\n\t\tuint256 indexed tokenID,\n\t\taddress indexed buyer,\n\t\taddress seller,\n\t\tuint256 price,\n\t\tuint256 priceTax\n\t);\n\n\tevent CancelListingEvent (\n\t\taddress indexed nftContract,\n\t\tuint256 indexed tokenID,\n\t\taddress indexed owner,\n\t\taddress seller\n\t);\n\n\t/* Places an item for sale on the marketplace */\n\tfunction addListing(\n\t\taddress nftContract,\n\t\tuint256 tokenId,\n\t\tuint256 price\n\t) public payable nonReentrant {\n\t\trequire(price > 0, \"Price must be at least 1 wei\");\n\n\t\t_itemIds.increment();\n\n\t\tuint currentItemId = _itemIds.current();\n\t\tmarketTokenIDs[currentItemId] = tokenId;\n\t\n\t\tmarketItems[tokenId] =  MarketItem(\n\t\t\tnftContract,\n\t\t\ttokenId,\n\t\t\tpayable(msg.sender),\n\t\t\tpayable(address(this)),\n\t\t\tprice,\n\t\t\tfalse\n\t\t);\n\n\t\tDauDQNFT(nftContract).transferFrom(msg.sender, address(this), tokenId);\n\n\t\temit NewListingEvent(\n\t\t\tnftContract,\n\t\t\ttokenId,\n\t\t\tmsg.sender,\n\t\t\taddress(this),\n\t\t\tprice,\n\t\t\tfalse\n\t\t);\n\t}\n\n\tfunction updateListing(uint256 tokenId, uint256 price) public payable {\n\t\trequire(marketItems[tokenId].seller == msg.sender, \"Only item seller can perform this operation\");\n\t\trequire(marketItems[tokenId].sold == false, \"Item sold. Can not update listing!\");\n\n\t\tmarketItems[tokenId].price = price;\n\n\t\temit UpdateListingEvent(\n\t\t\ttokenId,\n\t\t\tprice\n\t\t);\n    }\n\n\tfunction cancelListing(address nftContract, uint256 tokenId) public payable {\n\t\trequire(marketItems[tokenId].seller == msg.sender, \"Only item seller can perform this operation\");\n\t\trequire(marketItems[tokenId].sold == false, \"Item sold. Can not cancel listing!\");\n\n\t\tDauDQNFT(nftContract).transferFrom(address(this), msg.sender, tokenId);\n\t\tremove(tokenId);\n\n\t\temit CancelListingEvent(\n\t\t\tnftContract,\n\t\t\ttokenId,\n\t\t\tmsg.sender,\n\t\t\taddress(this)\n\t\t);\n    }\n\n\t/* Transfers ownership of the item, as well as funds between parties */\n\tfunction buyItem(\n\t\taddress nftContract,\n\t\tuint256 tokenId\n\t) public payable nonReentrant {\n\t\tuint price = marketItems[tokenId].price;\n\t\trequire(msg.value >= price, \"Please submit the asking price in order to complete the purchase\");\n\n\t\tpayable(marketItems[tokenId].seller).transfer(msg.value);\n\t\tDauDQNFT(nftContract).transferFrom(address(this), msg.sender, tokenId);\n\t\tremove(tokenId);\n\t\t\n\t\temit PurchasedListingEvent(nftContract, tokenId, msg.sender, marketItems[tokenId].seller, price, priceTax);\n\t}\n\n\t/* Returns all unsold market items */\n\tfunction fetchMarketItems() public view returns (MarketItem[] memory) {\n\t\tuint itemCount = _itemIds.current();\n\t\tuint currentIndex = 0;\n\t\tuint tokenId = 0;\t\n\n\t\tMarketItem[] memory items = new MarketItem[](itemCount);\n\t\tfor (uint i = 1; i <= itemCount; i++) {\n\t\t\ttokenId = marketTokenIDs[i];\n\t\t\tif (marketItems[tokenId].owner == address(this)) {\n\t\t\t\tMarketItem storage currentItem = marketItems[tokenId];\n\t\t\t\titems[currentIndex] = currentItem;\n\t\t\t\tcurrentIndex += 1;\n\t\t\t}\n\t\t}\n\t\treturn items;\n\t}\n\n\tfunction fetchMyNFTsListingOnMarket() public view returns (MarketItem[] memory) {\n\t\tuint totalItemCount = _itemIds.current();\n\t\tuint itemCount = 0;\n\t\tuint currentIndex = 0;\n\n\t\tfor (uint i = 0; i < totalItemCount; i++) {\n\t\t\tif (marketItems[i + 1].seller == msg.sender) {\n\t\t\t\titemCount += 1;\n\t\t\t}\n\t\t}\n\n\t\tMarketItem[] memory items = new MarketItem[](itemCount);\n\t\tfor (uint i = 0; i < totalItemCount; i++) {\n\t\t\tif (marketItems[i + 1].seller == msg.sender && marketItems[i + 1].sold == false) {\n\t\t\t\tuint currentId =  i + 1;\n\t\t\t\tMarketItem storage currentItem = marketItems[currentId];\n\t\t\t\titems[currentIndex] = currentItem;\n\t\t\t\tcurrentIndex += 1;\n\t\t\t}\n\t\t}\n\t\treturn items;\n\t}\n\n\tfunction remove(uint tokenId) private {\n\t\tuint totalItemCount = _itemIds.current();\n\n\t\tfor (uint i = 1; i < totalItemCount; i++) {\n\t\t\tif (marketTokenIDs[i] == tokenId) {\n\t\t\t\treorganizeMarketTokenIds(i, totalItemCount);\n\t\t\t\tbreak;\n\t\t\t}\n\t\t}\n\n\t\tdelete marketItems[tokenId];\n\n\t\tif (_itemIds.current() > 0) {\n\t\t\t_itemIds.decrement();\n\t\t}\n\t}\n\n\tfunction reorganizeMarketTokenIds (uint index, uint totalItemCount) private {\n\t\tif (index > totalItemCount) return;\n\n\t\tif (index < totalItemCount) {\n\t\t\tfor (uint i = index; i <= totalItemCount - 1; i++){\n\t\t\t\tmarketTokenIDs[i] = marketTokenIDs[i+1];\n\t\t\t}\n\t\t}\n        delete marketTokenIDs[totalItemCount];\n\t}\n}",
  "sourcePath": "/home/doanquydau/gamota_projects/nft-react-boilerplate/src/truffle/contracts/NFTMarket.sol",
  "compiler": {
    "name": "solc",
    "version": "0.8.7+commit.e28d00a7.Emscripten.clang"
  },
  "schemaVersion": "3.4.4",
  "updatedAt": "2022-03-02T08:58:09.648Z",
  "networkType": "ethereum",
  "devdoc": {
    "kind": "dev",
    "methods": {},
    "version": 1
  },
  "userdoc": {
    "kind": "user",
    "methods": {},
    "version": 1
  }
}